:020000040800F2
:100000006837002439030008991E0008811C000885
:10001000011E0008E9050008D9580008000000008A
:1000200000000000000000000000000091490008EE
:100030004908000800000000915A0008E94A000839
:1000400073030008730300087303000873030008B8
:1000500073030008730300087303000873030008A8
:100060007303000873030008730300087303000898
:100070007303000873030008730300087303000888
:100080007303000873030008730300087303000878
:100090007303000873030008730300087303000868
:1000A0007303000873030008730300087303000858
:1000B0007303000873030008730300087303000848
:1000C0007303000873030008730300087303000838
:1000D0007303000819580008395800087303000812
:1000E0007303000873030008000000007303000896
:1000F0007303000873030008730300087303000808
:1001000073030008730300087303000873030008F7
:1001100073030008730300087303000873030008E7
:1001200073030008730300087303000873030008D7
:1001300073030008730300087303000873030008C7
:1001400000000000000000000000000000000000AF
:1001500073030008730300087303000873030008A7
:100160007303000873030008730300087303000897
:100170007303000873030008730300080000000005
:100180007303000873030008730300087303000877
:100190007303000873030008730300087303000867
:1001A0007303000873030008730300087303000857
:1001B0007303000873030008730300087303000847
:1001C0007303000873030008730300087303000837
:1001D0007303000873030008730300087303000827
:1001E0007303000873030008730300087303000817
:1001F0007303000873030008730300087303000807
:1002000073030008730300087303000873030008F6
:1002100073030008730300087303000873030008E6
:100220007303000873030008730300080000000054
:100230007303000873030008000000007303000844
:1002400073030008730300087303000873030008B6
:1002500073030008730300087303000873030008A6
:100260007303000873030008730300087303000896
:100270007303000873030008730300080000000004
:100280007303000800000000730300080000000072
:10029000000000007303000800F002F800F03CF8D2
:1002A0000AA090E8000C82448344AAF10107DA45D1
:1002B00001D100F031F8AFF2090EBAE80F0013F0E7
:1002C000010F18BFFB1A43F001031847C058000084
:1002D000E0580000103A24BF78C878C1FAD8520715
:1002E00024BF30C830C144BF04680C6070470000B0
:1002F0000023002400250026103A28BF78C1FBD82F
:10030000520728BF30C148BF0B6070471FB505F0CA
:10031000EDFB1FBD10B510BD00F02FF91146FFF722
:10032000F5FF05F019FB00F04DF903B4FFF7F2FFFC
:1003300003BC00F01BF9000011488047DFF84400BF
:10034000016841F470010160BFF34F8FDFF838009E
:10035000016821F040410160BFF36F8F0B480047F7
:10036000FEE7FEE7FEE7FEE7FEE7FEE7FEE7FEE765
:10037000FEE7FEE706480749074A084B70470000BA
:10038000E94B000888ED00E034EF00E09902000836
:10039000682B002468370024682D0024682D002471
:1003A00072B6704762B67047EFF3108072B670474E
:1003B00080F31088704730BF704720BF7047B0FA95
:1003C00080F0704790FAA0F0B0FA80F0704790FA91
:1003D000A0F0704753EA020C00F069802DE9F04B61
:1003E0004FF00006002B1FBFB3FA83F503FA05F4A4
:1003F00024FA05F65E4012BF1643B2FA82F502FAFD
:1004000005F4C5F120051EBF22FA05FC44EA0C04E0
:10041000203556EA044C4FEA144418BF641C4FF0D0
:1004200000084FF00009904271EB030C39D300290A
:1004300019BFB1FA81F701FA07F6B0FA80F700FAAE
:1004400007F6C7F120071EBF20FA07FC46EA0C0694
:100450002037B6FBF4FCA7EB0507103F07F01F0B96
:10046000CBF120062CFA06F60CFA0BFB44BFB34680
:100470000026202FA4BF5E464FF0000B5BEA060C5F
:1004800008BF4FF0010B19EB0B0948EB0608ABFB5B
:10049000027C06FB02CC0BFB03CCC01B71EB0C01F6
:1004A000C1E70B46024641464846BDE8F08B13B50E
:1004B0004FF000004FF00001AFF30080BDE81C409A
:1004C000704702F0FF0343EA032242EA024200F0CF
:1004D0002CB84FF0000200B51346944696462039DA
:1004E00022BFA0E80C50A0E80C50B1F12001BFF4ED
:1004F000F7AF090728BFA0E80C5048BF0CC05DF853
:1005000004EB890028BF40F8042B08BF704748BFA0
:1005100020F8022B11F0804F18BF00F8012B704714
:100520007047704770474FF000020429C0F01280F6
:1005300010F0030C3FF4CFAFCCF1040CBCF1020F70
:1005400018BF00F8012BA8BF20F8022BA1EB0C016B
:10055000FFF7C1BF5FEAC17C24BF00F8012B00F8A0
:10056000012B48BF00F8012B7047000001491820FB
:10057000ABBEFEE7260002007047754600F02CF87F
:10058000AE4605006946534620F00700854618B080
:1005900020B5FFF7EFFEBDE820404FF000064FF01A
:1005A00000074FF000084FF0000BAC46ACE8C00964
:1005B000ACE8C009ACE8C009ACE8C00921F007010B
:1005C0008D46704710B50446AFF300802046BDE865
:1005D0001040FFF7AABE000000487047100000243A
:1005E00000F072BD00000000FEE700000000000007
:1005F00080B500F0E5F800F007F8BDE8804000F0B5
:10060000DBB80000000000002DE9F04140F2880056
:10061000C2F200400025058040F27000C2F20040A6
:10062000058040F28000C2F20040056040F2840084
:10063000C2F20040056040F27406C2F20046356026
:1006400040F27807C2F200473D6040F27C08C2F2F7
:100650000048C8F80050FFF7A7FE0446356000F0D8
:100660004BF800F065F83D6030683560C8F8000070
:100670002046BDE8F041FFF79BBE000000000000EF
:1006800040F27C01C2F200410968814228BF08465D
:10069000401A70470000000010B5FFF785FE40F2D9
:1006A0007401C2F200410C68FFF782FE2046BDE8EB
:1006B0001040FFF7E5BF000010B5FFF7EDFF04465F
:1006C000FFF772FE40F27401C2F2004100220A609C
:1006D000FFF76EFE204610BD10B5FFF765FE40F235
:1006E0007801C2F200410C68FFF762FE2046BDE8C7
:1006F0001040FFF7C5BF000010B540F27000C2F215
:10070000004001880131018040F28804C2F20044B7
:10071000208830B900F080F840F28001C2F2004138
:10072000086020880130208010BD0000000000001B
:1007300040F28800C2F200400188013901804FF682
:10074000FF70014218BF704780B500F065F840F2B5
:100750008401C2F20041086040F28001C2F200410F
:100760000968401A40F27401C2F200410A688242EC
:10077000BDE8804038BF086040F27801C2F2004115
:100780000A68824238BF086070470000000000001D
:1007900010B5FFF709FE0446FFF7AEFF40F28A00EE
:1007A000C2F20040102101F02FFBFFF7C1FF2046ED
:1007B000BDE81040FFF7FCBDFFF7EABF00000000F6
:1007C00040F29C00C2F200400021016000F008B835
:1007D00040F29C01C2F20041086070470000000036
:1007E00080B5FFF7FDFE4EF6FC51CEF200010A681F
:1007F00042F080720A6041F20001CEF20001002254
:100800004A600A6842F001020A60BDE88040FFF7D2
:10081000DFBF00000000000041F20400CEF2000043
:10082000006870470000000080B504F099F804F0FB
:1008300063F84EF69C70CEF20000016841F00401AE
:10084000016080BD00000000704700000000000053
:100850002DE9F0412DED028B84B040F60048C5F63D
:10086000020842F65836C2F200469FED118B0DF198
:100870000E07002408F5805596ED000B30EE080BAE
:1008800086ED000BCDE900470020002100224FF447
:10089000C87302F089FB4046802100F059F92846D0
:1008A0004FF4807100F054F9E6E700BF00BF00BFCD
:1008B00000000040E17A843F10B390F8351002291F
:1008C0001CD101684FF6F072CBF6FD721144B1F500
:1008D000956F18D8042180F8351001680F22C4F2F2
:1008E0000202914252D940F2B942C4F2020291424C
:1008F0004CD2086820F0010008604CE0802141657E
:1009000001210846704701680A6822F00E020A6059
:10091000D0F800C040F2B943C4F202039C450B4634
:1009200038BF63460F22C4F20202944598BF0B46BB
:10093000196821F001011960016E0A6822F48072C1
:100940000A60C26D012101FA02F245F20443C5F6C4
:1009500002031A60D0E919235360C26E002A1FBF38
:10096000136823F480731360D0E91C2318BF53600D
:1009700080F83510002180F83410026D22B180B566
:1009800090470021BDE88040084670470068016834
:1009900021F00101016000210846704700000000BD
:1009A00040F22040C5F60000016841F001010160FD
:1009B00070470000000000002DE9F04F83B042F2C4
:1009C0000042C5F602020A23904208BF09230193A0
:1009D00000F1264202F1FF724FEAB2220092002299
:1009E00040F2040CC5F6000C4FF0010E00274FF04A
:1009F000000809E00232043708F10108B8F1100FCD
:100A000004BF03B0BDE8F08F0EFA08FA0E6816EACC
:100A10000A09EFD04E6846F01006122E12D107F0E8
:100A20001C060F2303FA06F44FF6FC73C7F6FF7398
:100A300003EA580303441D6A25EA04040D69B5401E
:100A40002C431C620323934004689C43D1F804B0F8
:100A50000BF0030595402C430460DE43BBF1120FFD
:100A600015D80EFA0BF313F0061F1FBF836833402F
:100A7000CC6894401FBF23438360CBF3001303FA79
:100A800008F31FBF446824EA0A0423434360C36891
:100A900033408C6894402343C3605FEACB03A9D5FD
:100AA00044F2F443C5F602031C461B6843F00203FC
:100AB0002360236803F002030293029B28F00303E0
:100AC00040F20844C5F60004A3461C5907F00C0583
:100AD0000F26AE4024EA060A009C092C019E38BF6E
:100AE000264606FA05F545EA0A0443F80B40DCF809
:100AF0007C3043EA09044D6815F4803F08BF23EABF
:100B00000904CCF87C40DCF8803043EA090415F491
:100B1000003F08BF23EA0904CCF880404FF0B046FC
:100B2000336843EA090415F4801F08BF23EA090467
:100B30003460DCF8003043EA090415F4001F08BFF4
:100B400023EA0904CCF8004054E70000000000004C
:100B5000426951404161704742F66030C2F2004044
:100B6000006870470000000040F20800C2F2004038
:100B7000007842F66031C2F200410A681044086011
:100B8000704700000000000080B5032000F04CF822
:100B90000F2000F009F800281CBF012080BD00F0E4
:100BA0002BF8002080BD0000B0B5044640F20800DC
:100BB000C2F2004000784FF47A71B1FBF0F040F2DD
:100BC0000001C2F200410968B1FBF0F000F0D8FD6D
:100BD00001250F2C0CD858B900254FF0FF302146C5
:100BE000002200F011F840F20C00C2F20040046054
:100BF0002846B0BD00000000704700000000000063
:100C000004F06EBE0000000070B514460D460646A6
:100C100004F076FE2946224601F042F901463046AC
:100C2000BDE8704004F074BE04F086BE0000000011
:100C300080B500F095FA44F21841C5F60201096842
:100C40004FF4807292FAA2F2B2FA82F201F4706169
:100C5000D14045F60632C0F60002515CC84040F271
:100C60000001C2F20041086080BD000000000000E9
:100C700080B500F029FA44F22041C5F60201096866
:100C8000102292FAA2F2B2FA82F201F07001D1407F
:100C900045F60632C0F60002515CC84080BD000037
:100CA00080B544F2384CC5F6020C5CF8102C5CF8A8
:100CB00010EC5CF80C3C03F01003DCF80410C1F3FA
:100CC000CC0111FB03F102F00303CEF3053200EE79
:100CD000101AB8EE400A022B0FD09BB95CF8381CF2
:100CE00049F20003C0F2D03311F0200F1EBF5CF8B0
:100CF000381CC1F3C101CB4008E047F64003C0F205
:100D00007D1303E040F60013C0F23D03DCF8001051
:100D10006FF35F2101EE101A9FED1F2AB3FBF2F172
:100D2000DCF80020B8EE411AC2F34622B7EE003AD2
:100D300004EE101A00EE021A511CB8EE440A31EE0D
:100D4000031A02EE101AB8EE422A21EE000A80EED3
:100D5000021ABCEEC11A80ED001ADCF80010C1F3D3
:100D60000641013101EE101AB8EE411A80EE011A67
:100D7000BCEEC11A80ED011ADCF80010C1F3066167
:100D8000013101EE101AB8EE411A80EE010ABCEEF4
:100D9000C00A80ED020A80BD00000039000000009A
:100DA00080B544F2404CC5F6020C5CF8182C5CF897
:100DB00018EC5CF8143C03F48073DCF80410C1F305
:100DC000CC0111FB03F102F00303CEF3055200EE58
:100DD000101AB8EE400A022B0FD09BB95CF8401CE9
:100DE00049F20003C0F2D03311F0200F1EBF5CF8AF
:100DF000401CC1F3C101CB4008E047F64003C0F2FC
:100E00007D1303E040F60013C0F23D03DCF8001050
:100E10006FF35F2101EE101A9FED1F2AB3FBF2F171
:100E2000DCF80020B8EE411AC2F34622B7EE003AD1
:100E300004EE101A00EE021A511CB8EE440A31EE0C
:100E4000031A02EE101AB8EE422A21EE000A80EED2
:100E5000021ABCEEC11A80ED001ADCF80010C1F3D2
:100E60000641013101EE101AB8EE411A80EE011A66
:100E7000BCEEC11A80ED011ADCF80010C1F3066166
:100E8000013101EE101AB8EE411A80EE010ABCEEF3
:100E9000C00A80ED020A80BD000000390000000099
:100EA0002DE9F04381B00D46044642F20008C5F238
:100EB0000028D8F8000000F0070088420CD2D8F8CB
:100EC000000020F007002843C8F80000D8F8000010
:100ED00000F00700A84260D1206844F21047C5F630
:100EE000020710F0020F05D0B968E26821F00F0187
:100EF0001143B960C0073ED1D8F8000000F00700E8
:100F0000A8420CD9D8F8000020F007002843C8F800
:100F10000000D8F8000000F00700A84258D120686F
:100F200010F0040F3BD1010741D4C10647D480061D
:100F300005D53869E16920F070000843386100F098
:100F40000FF9B9684FF4807292FAA2F2B2FA82F203
:100F500001F47061D14045F60632C0F60002515CE2
:100F6000C84040F20001C2F2004108600F20FFF7C4
:100F70001BFE0020A3E0B868A16820F4706008435D
:100F8000B8606068032825D002282AD157F8101CC1
:100F900011F4003F31D1012091E001208FE0B968C8
:100FA000226921F070011143B9600107BDD5F968CC
:100FB000626921F070011143F960C106B7D5F96883
:100FC000A26921F4E0611143F9608006B1D4B6E76B
:100FD000012074E057F8101C11F0007F0DD10120A2
:100FE0006DE057F8101C012803D1C90505D4012074
:100FF00065E0490701D4012061E0396821F007016B
:1010000008433860FFF7A8FD06466068012816D03F
:10101000032828D002283AD1386800F03800102878
:101020003FF46AAF41F28839FFF796FD801B4845CF
:1010300040D8386800F038001028F5D15CE73868EF
:1010400000F0380008283FF457AF41F2883900BF5C
:10105000FFF782FD801B48452ED8386800F0380025
:101060000828F5D148E7386800F0380018283FF420
:1010700043AF41F2883900BFFFF76EFD801B484542
:101080001CD8386800F038001828F5D134E73868E3
:1010900010F0380F3FF430AF41F28839FFF75CFDB4
:1010A000801B484504D8386810F0380FF6D123E784
:1010B000032004E0032002E0032000E00320C0B28C
:1010C00001B0BDE8F083000080B5FFF7B1FD44F248
:1010D0001841C5F602010968012292FAA2F2B2FA99
:1010E00082F201F00F01D14045F60632C0F600024F
:1010F000515CC84040F20401C2F20041086080BD6A
:1011000080B5FFF7E1FF44F21C41C5F60201096812
:10111000102292FAA2F2B2FA82F201F07001D140EA
:1011200045F60632C0F60002515CC84080BD0000A2
:1011300080B5FFF7C9FF44F21C41C5F602010968FA
:101140004FF4807292FAA2F2B2FA82F201F4E061F4
:10115000D14045F60632C0F60002515CC84080BD61
:1011600044F20041C5F602010869C0F3C20240F62C
:101170000010C0F23D00032A17D0022A02BF47F632
:101180004000C0F27D107047002A18BF70470A68FF
:1011900049F20000C0F2D03012F0200F1FBF0968E2
:1011A000C1F3C101C8407047704780B5D1F828E04D
:1011B000D1F828C0CB6A4A6B03F001035B4203EA13
:1011C000D2026FF35F320EF0030300EE102ACCF36D
:1011D0000512B8EE400A022BBDE880400DD083B95D
:1011E0000B6849F20000C0F2D03013F0200F1EBF90
:1011F0000B68C3F3C103D84003E047F64000C0F2D8
:101200007D100B6B6FF35F2301EE103A9FED102AF8
:10121000B0FBF2F0096BB8EE411AC1F34621B7EE0C
:10122000003A04EE100A00EE021A481CB8EE440A16
:1012300031EE031A02EE100AB8EE422A21EE000A3D
:1012400080EE020ABCEEC00A10EE100A704700BF22
:101250000000003900000000F0B581B004460078BD
:10126000C00744F20046C5F602065FD0306900F0C0
:101270003800102808D1306810F4003F56D060685C
:10128000002853D10120D3E1306900F0380018283C
:1012900004D1B06A00F003000228ECD0606868B1A5
:1012A000B0F5803F06D03168B0F5A02F23D141F4CE
:1012B00080203060306840F4803022E0306820F4D4
:1012C00080303060306820F480203060FFF744FCCC
:1012D0000546306810F4003F28D041F2883700BF3F
:1012E000FFF73AFC401BB84200F22F82306810F43E
:1012F000003FF5D11AE021F480303060306820F4EE
:1013000080203060FFF728FC0546306810F4003F6D
:101310000CD141F2883700BFFFF71EFC401BB842DA
:1013200000F26081306810F4003FF5D0207880072B
:1013300065D5306910F0380F1FD0306900F03800E3
:10134000182804BFB06A10F0030F16D0E0683168A7
:10135000002843D021F0190108433060FFF7FCFB5F
:10136000054600BF306810F0040F29D1FFF7F4FBE9
:10137000401B0228F6D903205AE1306810F0040F10
:1013800003D0E068002800F02B813068E16820F08D
:10139000190008433060FFF7DFFB0546306810F0A6
:1013A000040F06D1FFF7D8FB401B0228F6D9032013
:1013B0003EE1706821694FF47C3292FAA2F205E0B6
:1013C000706821694FF47C3292FAA2F2B2FA82F28A
:1013D000914020F47C300843706010E021F001005F
:1013E0003060FFF7B9FB0546306810F0040F06D0F7
:1013F000FFF7B2FB401B0228F6D9032018E1207842
:10140000C00641D5306900F03800082809D030699D
:1014100000F03800182813D1B06A00F0030001284A
:101420000ED1306810F4807F1CBFE069802840F046
:10143000D5807068216A4FF0F84292FAA2F21CE05F
:10144000E1693068002900F0B68040F0800030602B
:10145000FFF782FB054600BF306810F4807F06D19D
:10146000FFF77AFB401B0228F6D90320E0E0706802
:10147000216A4FF0F84292FAA2F2B2FA82F2914057
:1014800020F0F840084370602078000725D5616996
:10149000706F81B140F001007067FFF75DFB05469A
:1014A000706F10F0020F18D1FFF756FB401B022897
:1014B000F6D90320BCE020F001007067FFF74CFB79
:1014C000054600BF706F10F0020F06D0FFF744FB17
:1014D000401B0228F6D90320AAE02078800626D5F2
:1014E000A169306889B140F480503060FFF734FB67
:1014F000054600BF306810F4005F18D1FFF72CFBE1
:10150000401B0228F6D9032092E020F4805030607E
:10151000FFF722FB054600BF306810F4005F06D0DD
:10152000FFF71AFB401B0228F6D9032080E0207841
:10153000400773D5D6F8000440F48070C6F8000464
:10154000FFF70AFB054600BFD6F8000410F4807FC1
:1015500006D1FFF701FB401B6428F5D9032067E0A3
:10156000A06858B1012805D0316F05283CD141F061
:1015700004003067306F40F001003BE0306F20F036
:1015800001003067306F20F004003067FFF7E4FAA5
:101590000546306F10F0020F40D041F2883700BF8F
:1015A000FFF7DAFA401BB84200F2D180306F10F03A
:1015B000020FF5D132E020F080003060FFF7CCFA66
:1015C000054600BF306810F4807F3FF45DAFFFF741
:1015D000C3FA401B0228F5D9032029E0012027E0A7
:1015E000012025E0032023E021F001003067306F67
:1015F00020F004003067FFF7AFFA0546306F10F0B7
:10160000020F0BD141F28837FFF7A6FA401BB84210
:1016100000F29780306F10F0020FF5D0676A37B193
:10162000306900F03800182805D1012000E00020C2
:10163000C0B201B0F0BD306820F080703060FFF7BC
:101640008BFA0546306800F00070022F6BD140B174
:10165000FFF782FA401B02287BD8306810F0007F29
:10166000F6D1B06A40F2F3318843D4E90A12084354
:1016700040EA0210B06204F130030FCB7F324FF426
:10168000FE0707EA024200F2FF106FF35F207F318E
:10169000490289B20843104303F17F014FF0FE4233
:1016A00002EA016108433063706B4FF6F8718843BA
:1016B000A26C91FAA1F1B1FA81F102FA01F10843A9
:1016C0007063F06A216C20F00C000843F062F06A4D
:1016D000616C20F002000843F062F06A40F4803050
:1016E000F062F06A40F40030F062F06A40F480206A
:1016F000F062F06A40F00100F062306840F0807003
:101700003060FFF729FA0446306810F0007F1AD1E4
:10171000FFF722FA001B02281FD83168002011F0C1
:10172000007FF5D084E708B9002081E7FFF714FABD
:10173000401B03280FD23168002011F0007FF5D143
:1017400076E7032074E7002072E7032070E70320A8
:101750006EE703206CE703206AE7032068E70000D8
:101760004EF21001CEF200010A6822F004030428B0
:1017700008BF42F004030B60704700000000000047
:1017800003F09AB90000000070470000000000005C
:101790007047000000000000B0B504460168CA6947
:1017A000D1F800C08D6812F00F0F58D00120C1F29F
:1017B000000028400CF4907318435ED0D0071FBF80
:1017C0001CF4807001200862E06F1CBF40F0010033
:1017D000E06705F00100930708D500281FBF02232A
:1017E0000B62E36F43F0040318BFE367530708D5A8
:1017F00000281FBF04230B62E36F43F0020318BFEE
:10180000E36713070ED50CF0200E05F0805343EA72
:101810000E0318431FBF08200862E06F40F0080065
:1018200018BFE067E06F00287AD0900608D50CF06A
:10183000200005F0805108431CBF204603F0FCFA4D
:10184000E06F10F0080F37D12068806810F0400F6B
:1018500032D12046FFF79CFF0020E067B0BD900624
:101860000BD50CF0200E05F0805050EA0E0004D08D
:101870002046BDE8B04003F0DFBAD0020FD515F422
:1018800080000CD04FF480100862202084F879008A
:1018900084F87A002046BDE8B040FFF775BF100617
:1018A00027D50CF0800005F40003184321D0204612
:1018B000BDE8B04003F030BF204603F0A1FA206835
:1018C000816811F0400F1DD0816821F040018160D6
:1018D000606FB8B144F6F151C0F600010165FEF742
:1018E000EBFF002808BFB0BD606F016DBDE8B040E0
:1018F000084702EA0C00400609D52046BDE8B04082
:1019000003F08EBA2046BDE8B040FFF741BF100299
:1019100006D51CF080401EBF086820F0804008609B
:10192000B0BD00000000000010B50446A8B194F856
:10193000790028B9002084F87800204600F028F8C3
:10194000242084F879002068016821F001010160F9
:10195000204603F0ADFA012801D1012010BD606BD3
:1019600000281CBF204603F097F92068416821F445
:1019700090414160816821F02A018160016841F055
:10198000010101602046BDE8104003F0F9B90000F4
:10199000F0B587B00546006844F20047C4F200077E
:1019A00007F54C410024C5F6020444F2E046C5F6B2
:1019B0000206884208D0B84231D0286807F5806115
:1019C000884254D007B0F0BD306840F0010030606C
:1019D000306800F0010002900298306940F0100079
:1019E0003061306900F010000290029802200390EC
:1019F0004FF4C06102910121CDE904100720069047
:101A000002A92046FEF7D8FF252000210022FFF77B
:101A1000FBF82520FFF7F4F82868B842CDD13068EC
:101A200040F001003060306800F001000190019842
:101A3000B06840F40030B060B06800F4003001904D
:101A40000198022003900C2102910121CDE904109C
:101A50000720069002A92046FEF7AEFF26200121AE
:101A60000022FFF7D1F82620FFF7CAF8A5E7B068F3
:101A700040F48020B060B06800F4802001900198AC
:101A8000306840F002003060306800F002000190E1
:101A90000198022003904FF4406102910121CDE9A9
:101AA00004100720069004F5806002A9FEF784FF69
:101AB000272002210022FFF7A7F82720FFF7A0F830
:101AC00007B0F0BD0000000090F87A30202B0AD15A
:101AD0000123002918BF002A01D1D8B2704790F81D
:101AE0007830012B02D10223D8B270474166012120
:101AF00080F87810A0F86820A0F86A20816851B1B9
:101B0000B1F1805F0BD0B1F5805F0FD1016921B9D0
:101B100040F2FF1108E0016929B9FF2104E00169E1
:101B200009B13F2100E07F21A0F86C100021C167BE
:101B300080F87810222180F87A100068816841F0DE
:101B4000010181600268016812F0005F05D141F473
:101B5000907101600023D8B2704741F48071016038
:101B6000816841F0805181600023D8B27047000045
:101B700010B582B003208DF8060040F20120ADF8C8
:101B8000040042F6CC24C2F2004401A920460322FC
:101B90004FF47A7300F00CF842F64F31C2F2004174
:101BA00020460322FFF790FF02B010BD00000000A6
:101BB0002DE9F04381B0994617460E46044690F849
:101BC000790020280AD10125002E18BF002F06D049
:101BD00094F87800012806D1022500E00225E8B239
:101BE00001B0BDE8F0830020E067012084F87800B0
:101BF000212084F87900FEF7AFFF8046A4F86270D8
:101C0000A4F8607004E000BF206816F8011B01858D
:101C1000B4F86200D8B1B4F862000138A4F86200E8
:101C2000CDF80090204680210022434603F0B0FD0D
:101C3000C8B9A068B0F5805F04BF20690028E3D16F
:101C4000206836F8021B6FF35F210185E0E7CDF8CD
:101C500000900025204640210022434603F098FDD5
:101C600018B10325BBE70325B9E784F87850202095
:101C700084F87900B3E7000070470000000000001E
:101C8000FEE700000000000080B5FEF7CDFDFEF786
:101C90007BFF02F03DFF4FF4C87002F0DDFF4FF410
:101CA000E13003F0D9FD4FF4E13003F0F5FDBDE87C
:101CB000804000F041B80000F0B583B040F6000469
:101CC000C5F602040DF10A06002704F5805500BF91
:101CD000CDE900760020002100224FF4167301F0B8
:101CE00063F920464FF40051FEF732FF28464FF4C7
:101CF0008061FEF72DFFEBE7F0B583B040F20044C2
:101D0000C5F602040DF10A06002704F5006500BFC0
:101D1000CDE900760020002100224FF4FA7301F093
:101D200043F920460221FEF713FF28460821FEF75B
:101D30000FFFEDE700000000B0B586B044F2E040D0
:101D4000C5F60200016841F002010160016801F07E
:101D5000020101910199016841F0040101600168EB
:101D600001F0040101910199016841F0080101604D
:101D7000016801F0080101910199016841F04001F9
:101D80000160016801F0400101910199016841F091
:101D900080010160006800F080000190019801203E
:101DA000CDE90200032004900220019040F200459A
:101DB000C5F6020501AC28462146FEF7FDFD4FF4AD
:101DC0000050019005F580602146FEF7F5FD882062
:101DD000019005F500602146FEF7EEFD4FF48060AE
:101DE000019005F5A0502146FEF7E6FD4FF4807006
:101DF000019005F5C0502146FEF7DEFD06B0B0BDEE
:101E0000FEE70000000000000A460021AFF300805A
:101E10002DE9F04115460C4606460027042000BF78
:101E200044EA07270138FBD116F0030818BF002D3C
:101E300018D1042D0BD3291F21F00302B018043050
:101E400046F8047B043D032DFAD88D1A00E0304695
:101E5000002D08BFBDE8F08129462246FEF731FB80
:101E6000BDE8F081684266F00301814238BF014657
:101E7000494230462246FEF724FB08F1010000BF2C
:101E8000013D06F10106D4D0411C04280846F7D3D1
:101E9000CFE70000000000007047000000000000D5
:101EA00000F0070000F1040CC31EBCF1070F38BF9F
:101EB000002380F00700042828BF04204FF0010C05
:101EC0000CFA00F00138084098400CFA03F101398F
:101ED00011400843704700007047000000000000F8
:101EE00042F26410C2F200400068002808BF704748
:101EF0000047000000000000B0B5044600F0BCF848
:101F000041F66860C2F200400025057041F63030AD
:101F1000C2F20040057041F66960C2F200400570EF
:101F200041F65C70C2F20040056041F66070C2F29A
:101F30000040056041F64E30C2F20040057041F6A7
:101F40004F30C2F20040057041F65030C2F20040FE
:101F5000057041F67060C2F20040057045F64830E9
:101F6000C0F6000000684CF6CD41CCF6CC41A0FB99
:101F70000101C80841F66C61C2F20041086045F6F3
:101F80001C30C0F60000016849B145F61830C0F6B3
:101F90000000006800281CBF8900FEF79AFA42F290
:101FA0007010C2F20040056042F26C10C2F20040B4
:101FB000056042F27410C2F20040056042F2641003
:101FC000C2F20040056042F26810C2F200400560B3
:101FD00042F27810C2F20040056042F27C10C2F278
:101FE0000040056041F66E70C2F20040057001F0DD
:101FF000A3FB01F0E1FB204601F092F8208898BB9A
:10200000204601F0F9F8208870BB204601F004F961
:10201000208848BB204601F0CFF9208820BB20460D
:1020200001F0BAFB2088F8B9204601F0BDFC2088F9
:10203000D0B9204601F070FF2088A8B9204601F0F1
:102040009FF8208880B9204602F0BEFA208858B94F
:10205000204601F039FE2088002818BFB0BD204678
:1020600002F016FB208800B1B0BD01F055F8BDE8C4
:10207000B040FFF731BF000045F61C30C0F600004D
:10208000006845F61831C0F60001096801EB8000D0
:1020900020F0070042F28011C2F200410860704750
:1020A00041F66860C2F200400078012818BF70470E
:1020B00041F63030C2F200400178F9299CBF01316D
:1020C000017070470000000010B541F66860C2F270
:1020D00000400078012818BF10BDFEF765F90446DE
:1020E00041F63030C2F20040017899B301390170F5
:1020F00011F0FF0F2ED141F66960C2F20040007866
:1021000040BB01F001FB41F64F31C2F200410870C3
:1021100000EB400041F66831C2F2004151F8200066
:1021200041F66071C2F20041086041F65C71C2F292
:102130000041096888420DD0D0F894100131C0F8F0
:10214000941041F66470C2F20040016801310160F0
:1021500003F099FC2046BDE81040FEF729B90000C5
:10216000F0B581B014460D460646FEF71DF9074648
:10217000FEF7C2FA45F24D50C5F65400C6E9000517
:102180000025C6E9085586F82850F56206F10800D2
:1021900001F0C2F9304601F0A3F841F64C30C2F22A
:1021A0000040018801310180FEF7C2FA3846FEF78F
:1021B000FFF8258001B0F0BD2DE9F04788B01C463E
:1021C00015460F4606460068DDF8409045F24D5131
:1021D000C5F65401884226D1002C1CBF0020206087
:1021E000FEF7E2F88046FEF787FA41F65C7AC2F223
:1021F000004ADAF8000096F82810B9B1726A9042E5
:1022000026D029B2B1F1FF3F33DD41F66961C2F258
:1022100000410978A9B3FEF78BFA4046FEF7C8F8EB
:1022200046F663505FE045F6C4505CE0012186F855
:1022300028107062002C1CBFF16A2160314601F049
:1022400063F8FEF775FA4046FEF7B2F800204AE060
:10225000FF2941D0481C86F82800002C1CBFF06ADA
:102260002060FEF765FA4046FEF7A2F845F282705C
:1022700039E0FEF75DFA4046FEF79AF846F2B010F4
:1022800031E090F8371092F83700884284BF10464A
:1022900001F09EFD6846314604223B4601F09CF861
:1022A000FEF746FA4046FEF783F800F0DDF8FEF749
:1022B0007BF80546FEF720FADAF8000090F83510B2
:1022C000032915D8DFE801F002171E25002C1CBFDA
:1022D000806C2060002022E0FEF72AFA4046FEF7DC
:1022E00067F845F28470A9F8000008B0BDE8F087EF
:1022F00046F62E6013E0002C1CBF806C206046F276
:10230000A9100CE0002C1CBF806C206045F6C25068
:1023100005E0002C1CBF0020206047F2D920A9F85E
:102320000000FEF705FA2846FEF742F808B0BDE8BF
:10233000F0870000000000002DE9F04F83B0144644
:102340000E460746006845F24D51C5F654018842D5
:1023500015D1FEF729F88246FEF7CEF9786A41F6E4
:102360005C7BC2F2004BDBF8001081420DD0FEF71F
:10237000DFF95046FEF71CF845F2817501E045F69D
:10238000C455258003B0BDE8F08FFEF745FA8046BE
:10239000F86297F82800013887F8280010F0FF0F3E
:1023A00007D0FEF7C5F95046FEF702F845F28375EF
:1023B000E7E7DBF80000394600F0F2FF388A002832
:1023C00047D0DBF8005095F8370095F8389048452D
:1023D0001ED00290284600F0CFFF484588BF4846EF
:1023E00081460298814513D9284601F075FADBF839
:1023F000000080F83790484601F0A6F9DBF80000AD
:1024000001F02AFA41F64E30C2F2004080F8009006
:10241000B868D0F80890012087F82800C7F8249001
:102420004846394600F070FFCDF800800025384658
:1024300049460022002301F0EBF8FEF779F95046F7
:10244000FDF7B6FF30B200289BDB00F00DF8002549
:1024500097E7002587F828507D62FEF769F9504616
:10246000FDF7A6FF8DE7000010B541F63030C2F24F
:102470000040007841F66961C2F2004109780843E2
:1024800018BF10BDFDF790FF044601F03DF941F67D
:102490004F31C2F20041087000EB400041F6683154
:1024A000C2F2004151F8200041F66071C2F20041D1
:1024B000086041F65C71C2F200410968884213D09D
:1024C000D0F894100131C0F8941041F66470C2F253
:1024D000004001680131016003F0D0FA2046FDF7A9
:1024E00067FFBFF36F8F10BD2046BDE81040FDF7BA
:1024F0005FBF00000000000070B5044641F6686050
:10250000C2F20040007801281EBF45F68960208095
:1025100070BD41F66966C2F200463078F92882BF84
:1025200045F20920208070BDFDF73EFF0546FEF70D
:10253000E3F8307801303070FEF7FAF82846FDF7FE
:1025400037FF0020208070BDF0B581B014460E46E4
:102550000746FDF729FF0546FEF7CEF8781EB0FACC
:1025600080F0400941F67061C2F2004108705EB926
:1025700045F64830C0F6000000684CF6CD41CCF678
:10258000CC41A0FB0101CE0841F66C60C2F20040D4
:102590000660FEF7CDF82846FDF70AFF00202080F0
:1025A00001B0F0BD00000000F0B581B0044641F676
:1025B0006860C2F200400078012818D141F66966CF
:1025C000C2F200463078A8B1FDF7EEFE0546FEF7F0
:1025D00093F83078471E3770FEF7AAF82846FDF7C3
:1025E000E7FE17F0FF0F08D046F6635008E045F607
:1025F000896005E046F6645002E0FFF735FF0020F1
:10260000208001B0F0BD0000B0B5044641F6686519
:10261000C2F20045287800281EBF45F68A60208057
:10262000B0BD01F071F841F64F31C2F200410870BF
:1026300041F64E31C2F20041087000EB400041F615
:102640006831C2F2004151F820000121297041F6A1
:102650005C71C2F20041086041F66071C2F2004153
:10266000086003F0CDF943F699202080B0BD00004A
:10267000F0B581B00446FDF797FE0546FEF73CF83D
:1026800041F65870C2F200400026066041F67E60B6
:10269000C2F20040068042F24C00C2F200400660E6
:1026A00042F25410C2F20040066041F62C30C2F2F1
:1026B0000040066041F63C30C2F200400681FEF761
:1026C00037F82846FDF774FEFDF76EFE0546FEF767
:1026D00013F841F66870C2F20040076811E000BFCD
:1026E000C7E92466FE67C7F8B860C7F8AC60C7E9F9
:1026F0002866FEF791F8C7F89C00A7F87460D7F831
:10270000C070FEF715F82846FDF752FEFDF74CFEA7
:102710000546FDF7F1FF002FE2D141F66030C2F22D
:1027200000400668FEF704F82846FDF741FE7EB13A
:10273000002700BFFDF738FE0546FDF7DDFFB78532
:10274000B669FDF7F5FF2846FDF732FE002EF1D100
:102750000020208001B0F0BD2DE9F04182B0044698
:1027600042F28C00C2F200400DF1060100F084FB41
:10277000BDF80670002F56D100260DF1060202208A
:10278000002100F0C1FBBDF80670002F4BD1FDF712
:102790000BFE0546FDF7B0FF41F68068C2F2004827
:1027A000C8F80060FDF7C4FF2846FDF701FE45F6B6
:1027B0004830C0F60000006845F63431C0F600012C
:1027C0000968884298BF0A21B0FBF1F00DF10605B7
:1027D00000212A4600F098FB42F28C00C2F2004031
:1027E000294600F081F9BDF80670E7B9FDF7DCFD78
:1027F0000546FDF781FF41F65870C2F20040002700
:10280000076041F68C60C2F2004001210170D8F8E7
:10281000000041F68461C2F200410860FDF788FFC4
:102820002846FDF7C5FD278002B0BDE8F081000015
:1028300042F26810C2F200400068002808BF7047EA
:1028400000470000000000002DE9F04F89B0CDE9FD
:10285000072304460DF1600B9BE84009DDE91632C1
:10286000DDE91479DDE912A541F66420C2F20040E9
:10287000844207D0BAF13F0F04D146F27320ABF87F
:10288000000071E0CDE9027604A80EC0204601F0F8
:1028900057FB0020ABF8000008F00300032807D125
:1028A000B9F1000F04D04FEA89012846FDF711FE67
:1028B000CDE90098029805EB800607988346089FAB
:1028C00039462A46334600F02BFA84F837A084F8BC
:1028D00038A02060A6600599A16541F66C60C2F23F
:1028E00000400068039A6260049A04F1200383E8C0
:1028F0002408E762C4F84090A4F844800022C4F899
:102900008020002918BF0846E06504F16800069998
:1029100000F0DEFC204600F02BF8FDF745FD0546F3
:10292000FDF7EAFE94F8370000F00EFF204600F0B5
:1029300093FF204601F0BCFA41F66C70C2F20040F1
:1029400001880131018041F66860C2F200400478DC
:10295000FDF7EEFE2846FDF72BFD012C04D109B052
:10296000BDE8F04FFFF780BD09B0BDE8F08F000073
:1029700042F26C11C2F200410968002908BF704799
:1029800008470000000000002DE9F0410C46054614
:1029900041F66420C2F20040854202BF47F24C106B
:1029A0002080BDE8F08175B9FDF7FEFC0646FDF715
:1029B000A3FE41F65C70C2F200400568FDF7B8FE68
:1029C0003046FDF7F5FCFDF7EFFC0646FDF794FEFB
:1029D00095F83600072842D8DFE800F04B160404CB
:1029E0001916040495F83400062807D801218140FF
:1029F00011F06A0F41D0284600F0C6FD95F8360068
:102A000040F00400072802D1284601F0B9FCE86B29
:102A100000281CBF284600F07BFC05F1680000F090
:102A20003BFC284600F054F8284601F055FA41F6E0
:102A30006C70C2F20040018801390180284601F023
:102A40007FFAFF2085F83600FDF772FE3046FDF76D
:102A5000AFFC00202080BDE8F041FFF705BDFDF789
:102A600067FE3046FDF7A4FC46F62D602080BDE8E9
:102A7000F081284600F030FFC9E70428BED1286B5A
:102A8000C068476A97F83780284600F07DFD97F8C0
:102A9000370097F8381088420CD095F837108842E4
:102AA00008D1384600F068FC804697F83800804529
:102AB00088BF8046002085F8340097F837008045AD
:102AC0009CD03846414601F083F997E700000000AA
:102AD00042F27011C2F200410968002908BF704734
:102AE000084700000000000070B50C460546FDF7E1
:102AF0005BFC0646FDF700FEFDF71AFE3046FDF7CB
:102B000057FC28462146BDE8704001F069BA000034
:102B100042F27411C2F200410968002908BF7047EF
:102B200008470000000000002DE9F04381B09846FE
:102B300015460C460746002A1CBF00202860FDF7FA
:102B400033FC0646FDF7D8FD41F65C79C2F2004938
:102B5000D9F80000C16CF9B14F1EC764002D1CBF2D
:102B6000806C2860FDF758FED9F800108A6CD1F807
:102B7000AC30801AC1F8A800834238BFC1F8AC005D
:102B8000FDF7D6FD3046FDF713FC0020A8F8000045
:102B9000384601B0BDE8F08320B2B0F1FF3F10DD50
:102BA00041F66960C2F200400078A8B1FDF7C0FDAF
:102BB0003046FDF7FDFB46F66350A8F800000027FD
:102BC000E6E7FDF7B5FD3046FDF7F2FB46F2B01043
:102BD000A8F800000027DBE70020002107223B4681
:102BE00000F0FAFBFDF7A4FD3046FDF7E1FBFFF72F
:102BF0003BFCFDF7D9FB0646FDF77EFDD9F800004A
:102C000090F83510032915D001291AD001BB7DB1E8
:102C1000806C2860FDF700FED9F800108A6CD1F8AE
:102C2000AC30801AC1F8A800834238BFC1F8AC00AC
:102C300000200FE0002D1CBF0020286047F2D920A3
:102C400008E0002D1CBF806C286046F2A91001E04E
:102C500046F62E60A8F80000D9F80000C76CFDF712
:102C600067FD3046FDF7A4FB92E70000000000007E
:102C700070B514460D460646FDF7CEFD02463046B9
:102C800029462346BDE8704001F01EBA000000004E
:102C90002DE9F04381B0984691460E460446FDF773
:102CA00083FB0746FDF728FD41F65C70C2F2004049
:102CB0000568002C18BF2546286870B1B5F8444057
:102CC000FDF736FD3846FDF773FB14F0010F0ED10A
:102CD0000020306047F2541119E0FDF729FD384615
:102CE000FDF766FB0020306047F252110FE0686A82
:102CF000016809B1002006E0011D002051F82020E4
:102D00000130002AFAD03060296C081A0021C9F875
:102D10000000A8F8001001B0BDE8F083000000003A
:102D2000F0B5DDF814C002EB8C0222F007024FF080
:102D3000807C44F2A90EC0F6000E4FF012344FF022
:102D400003354FF0023642E9073642E9055442E9BD
:102D500003E042F804CC4FF0113C4FF0103E4FF02E
:102D600009364FF008354FF007344FF006304FF07A
:102D7000053342E90F30A2F1340383E8704042E9A1
:102D800009C14FF00431104640F8401D069949072B
:102D900058BFF0BD4FF000714FF0834042F8840CF3
:102DA0000020C4F2400000F1DC7300F1D87642E963
:102DB000136342F8441C00F1D47C00F1D07E00F192
:102DC000CC7600F1C87500F1C47400F1C07100F157
:102DD000BC7300F1B87742E91B73A2F1640383E886
:102DE000724042F850CC00F1B47142F8701C00F10E
:102DF000B07142F8741C00F1AC7142F8781C00F11B
:102E0000A87142F87C1C00F1A47142F8801C00F10A
:102E1000987142F8881C00F1907142F88C1C0021D6
:102E200042F8C41D00F1807100F1887300F570074D
:102E300000F5600600F5500502F1240C8CE8E00076
:102E4000C2E90C134FF0824C00F5200300F5000797
:102E500000F5C0064FF081454FF080444FF07E51A1
:102E6000C2E9011402F10C01E1C1C2E9073C1046BC
:102E7000F0BD00000000000041F66422C2F20042F2
:102E8000904218BF01F090B947F25B10088070477C
:102E9000B0B541F65C74C2F20044206890F844106A
:102EA000490744BF006802F095FD41F66075C2F223
:102EB0000045286890F84410490744BF006802F0B4
:102EC00096FD42F27810C2F200400068002818BF58
:102ED0008047FDF7A1FC296822688A421FBFD2E91A
:102EE0002735C31AC2F898302B4418BFC2F8A03057
:102EF000C1F89C00FDF7E0FB2168D1F8B8208242C0
:102F000038BFC1F8B800B0BD2DE9F04114460D46F8
:102F1000074641F66960C2F20040007800281EBFF3
:102F200046F663502080BDE8F081082D35D8DFE8F3
:102F300005F0053405340C3434340500002F02BF8D
:102F400047F27E202080BDE8F081FDF72DFA06468D
:102F5000FDF7D2FB41F65C78C2F20048D8F80000D9
:102F600039462A46234601F0C3F9208830B1FDF7DF
:102F7000DFFB3046BDE8F041FDF71ABAD8F8000093
:102F800000F0AAFCFDF7D4FB3046FDF711FAFFF77D
:102F90006BFA00202080BDE8F08145F62560208096
:102FA000BDE8F081000000002DE9F04141F66967BD
:102FB000C2F200473F78079C002F1EBF46F66350C1
:102FC0002080BDE8F081069F07F00E07042686EA00
:102FD0005706351F022D08D3062E0DD0002E1EBF1A
:102FE00045F625602080BDE8F081002B04BF41EA52
:102FF000000656EA020635D04FF461667043C1EB15
:10300000011100EB8100104445F64831C0F6000183
:10301000096848434FF4FA72B2FBF1F21A44514383
:1030200044F6D352C1F26202A1FB021200EB9216E7
:10303000C6B1FDF7B9F90546FDF75EFB41F65C78D0
:10304000C2F20048D8F80000BAB23146234601F077
:103050004FF9208858B1FDF76BFB2846BDE8F041D9
:10306000FDF7A6B947F27E202080BDE8F081D8F8B0
:10307000000000F031FCFDF75BFB2846FDF798F9F6
:10308000FFF7F2F900202080BDE8F0810000000089
:1030900080B582B000F034F841F68470C2F200408E
:1030A0000DF106020021FFF7E3FD41F64E30C2F2BA
:1030B0000040007800EB400041F66831C2F2004168
:1030C00001EB800000F034FC42F26010C2F20040DC
:1030D00001680139016001D002B080BD42F25C118B
:1030E000C2F200410968016042F28C00C2F2004065
:1030F0000DF106020021FFF7BBFD02B080BD00000C
:1031000042F27C10C2F200400068002808BF7047FD
:1031100000470000000000007047000000000000B1
:1031200041F65C21C2F2004100220A8041F658219A
:10313000C2F200410A6002807047000000000000F7
:1031400070B541F66025C2F2004541F68066C2F2D4
:10315000004600BFFDF728F90446FDF7CDFA2868C0
:1031600001302860306801303060FDF7E1FA204618
:10317000FDF71EF9FEF7B4FEECE7000000000000CA
:1031800080B58AB041F66021C2F2004100220A6097
:1031900008900B20CDE90620CDE9042245F6283021
:1031A000C0F600000068039045F62430C0F6000029
:1031B0000068029045F62030C0F6000000680190DB
:1031C0003F20009041F66420C2F2004004A143F287
:1031D0004112C0F600020023FFF736FB0AB080BDA3
:1031E00075432F4F532D4949492049646C6520543C
:1031F00061736B000000000041F63831C2F20041FB
:1032000000220A8041F63431C2F200410A60028095
:10321000704700000000000070B545F62C31C0F684
:103220000001D1F800C045F63031C0F60001B1F818
:1032300000E0AEF101044FF6FF710C4218D0AEF180
:10324000020189B20CEB011101F110030CF108012C
:103250000022A4B2002500BF0A804A6001F10806DE
:1032600041E9026210310135AEB2A642F4D300E06A
:10327000634600211960D9601981596041F63C32DA
:10328000C2F20042A2F804E0C2F80610C2F800C080
:10329000018070BD0000000001464089002808BF81
:1032A000704741F63C32C2F20042D2F800C00B68CF
:1032B000C3F800C04B681360D3881B1AD38093886F
:1032C000034493800022C1F80A20C1E9002270471C
:1032D00001810021C0F80A10C0E900117047000008
:1032E0000022426106A1C16141F64831C2F20041AB
:1032F0000B68002B0EBF82618361586108607047C4
:103300002000000000000000C26B0A62C163704729
:103310002DE9F04782B08246C56B45B34FF00008F7
:103320004FF001092C6AFDF777FA0646E86250462D
:10333000294600F035F8288A90B1A8688768C5F852
:1033400024A085F8289038462946FFF7DDFF00962F
:10335000284639460022002300F05AF904E000BF55
:10336000C5F8248085F82880002C2546DAD102B0E3
:10337000BDE8F08700000000C16B3F2001E000BF06
:10338000096A002904BFC0B270478A68002AF7D0D2
:10339000926892F83720C3B29A4238BF1046EFE7DE
:1033A0003C3000BF0246036803F120008B42F9D194
:1033B000006810607047000041F64C31C2F20041D5
:1033C00000220A8041F64831C2F200410A600280C0
:1033D0007047000000000000F0B581B00C460546C3
:1033E00041F65C76C2F200463068002780F83570FE
:1033F00080F83420194600F0D3FC5CB1EC603068F2
:103400002946012200F014F804F10800294600F0D2
:103410008BF803E030680763A0F8467031682046F7
:1034200001B0BDE8F04000F023B80000000000004B
:1034300080B50163A0F84620002A08BF80BD4FF088
:10344000000C4FF0000E00BFC1E904CCA1F818C079
:10345000C1F81CC0C1E900CC886020310EF1010E1A
:103460001FFA8EF39342EFD380BD000000000000EE
:1034700038B14268C1F8C42081688968096AC161AD
:10348000704791F83400072802BF07A0C1F8C400B4
:10349000704702280EBF07A045F68830C0F600002E
:1034A000C1F8C400704700BF5461736B2053656D51
:1034B000000000005461736B205100000000000008
:1034C00045F68832C0F60002C1F8C42081680029A0
:1034D0000FBFC2618968096AC161704700000000BE
:1034E000F0B581B0B0F84660A6B1046B4FF6FF7737
:1034F000E068018A022909D300F10805284621461F
:1035000000F05EF82846214600F00EF8013E203417
:103510003E42EDD101B0F0BD0021C0E900110181B2
:103520007047000000000000028922B38B6893F806
:1035300037C001320281026812B914E0526892B1B8
:10354000936893F837309C45F8D21368002B1FBF5F
:10355000C1E9003259601160704711600023C1E970
:1035600000320160704700224A6050F8042F0A6060
:10357000516001607047012202810022C1E90022EE
:10358000016040F8041F7047F0B581B00446B0F800
:10359000466066B1256B4FF6FF7700BFE8680830DC
:1035A000294600F00DF8013E20353E42F6D10020BC
:1035B0002063A4F8460001B0F0BD00000000000048
:1035C00080B50289012A03D10023C0E9003317E046
:1035D000D1E900ECBEF1000F07D0BCF1000F0AD01A
:1035E000CEF804C0CCF800E00AE00023CCF80030AC
:1035F000C0F800C004E00023CEF80430C0F804E0B6
:10360000013A02810020C1E9000080BD00000000F5
:10361000B0B582B00C46054691F83610881FDDF82B
:1036200018C002280ED3881E012849D894F8340007
:10363000032813D1CDF800C02846214600F044F8F5
:1036400095B918E094F83400032820D1CDF800C0D3
:103650002846214600F038F8FDB925E0A4F864308A
:103660002266C4F848C035B12046FFF78DFF2846D2
:103670002146FFF725FF94F83600032804BF2046B3
:1036800000F07EFE204600F0A7F8002014E0A4F829
:1036900064302266C4F848C035B12046FFF774FF95
:1036A00028462146FFF70CFF94F83600072804BF90
:1036B000204600F065FE042084F836000020A08635
:1036C00002B0B0BD00000000B0B5B1F846C0BCF11A
:1036D000000F08BFB0BDDDF810E0096B10314FF6E8
:1036E000FF7400BF51F8045C854206D02031ACF174
:1036F000010C1CEA040FF5D1B0BDC1E900020B8139
:10370000C1F80CE0B0BD000010B541F65831C2F26E
:103710000041086808B1002409E00431002400BF1A
:1037200051F8040B04F12002D4B20028F8D0FCF7C1
:1037300046FE2044C0B210BD41F65830C2F20040EF
:103740000021C0E900117047C0F3421141F6583C16
:10375000C2F2004C5CF821301F2222EA0000012254
:1037600002FA00F018434CF82100704700000000F6
:10377000C0F3421141F6583CC2F2004C5CF82130D3
:103780001F2222EA0000012202FA00F023EA0000D0
:103790004CF821007047000041F66431C2F200414C
:1037A00000220A8041F66031C2F200410A600280C4
:1037B0007047000000000000002041F66831C2F2AE
:1037C0000041002288508B18188158600C32B2F5E5
:1037D000407FF7D17047000010B5044690F83700DD
:1037E000FFF7B2FF41F64E30C2F20040007894F885
:1037F0003710814204D12046BDE8104000F02CB8BB
:103800002046BDE8104000F003B8000000000000B2
:1038100090F8371001EB410141F66832C2F20042E4
:1038200002EB81010A4632F8083F4BB101331380A5
:103830000A680023C0E903230A6810610860704722
:10384000012313800022C0E90322086041F8040F1D
:10385000704700000000000090F8371001EB4101B4
:1038600041F66832C2F2004202EB81010A4632F8A8
:10387000083F4BB1013313800022C26051F8042F7E
:103880000261D06008607047012313800022C0E904
:10389000032241F8040B086070470000000000009C
:1038A0000189022938BF704709D1D0E900120023ED
:1038B000C1E90332C2E90313C0E900217047D0E92E
:1038C0000012CB684FF0000CC3F810C0C1E903C26E
:1038D000D160C0E90031704710B5044690F8370058
:1038E00000EB400141F66832C2F2004202EB810176
:1038F000D4E9032343B1088901380881DA60002A3A
:1039000014BF13614B600FE001F1080332B1188856
:1039100001381880002010610A6005E000221A803A
:10392000C1E90022FFF724FF0020C4E9030010BD15
:10393000B0B5054641F67060C2F20040007801283B
:1039400018BFB0BDFCF730FD0446FCF7D5FE286873
:1039500008B341F66421C2F2004188421BD0C16D18
:1039600011B10139C16516D12889012813D941F651
:103970006960C2F20040007868B92846FFF790FFFE
:1039800041F66C60C2F20040006829688A6D002A26
:1039900018BF1046C865FCF7CBFE2046BDE8B04016
:1039A000FCF706BD0000000041F67861C2F200415C
:1039B00000220A8041F67461C2F200410A6002806E
:1039C00070470000000000002DE9F04F83B041F681
:1039D0008C66C2F20046307801280FD045F63430AC
:1039E000C0F60000006844000DF10A0520460021E1
:1039F0002A46FFF789FA30780128F7D10DF10A0439
:103A00002046FEF735FE45F64830C0F60000006857
:103A100045F63431C0F600010968884298BF0A2192
:103A2000B0FBF1F000904FF0000942F2107841F63F
:103A30006876C2F2004614E0FCF7EEFE0199401AE7
:103A400041F65871C2F20041096881423EBF41F619
:103A50005871C2F200410860009800212246FFF729
:103A600053FAFCF7D9FE0190FCF736FE41F62C31F3
:103A7000C2F200410860FCF797FC0746FCF73CFEE9
:103A800041F68060C2F2004001460068C1F8009033
:103A900041F68861C2F200410D460860FCF748FE1D
:103AA0003846FCF785FC286841F68461C2F2004183
:103AB000096881420AD941F68022C0F20602914289
:103AC0000CD2012242F210732AE000BF41F67C6062
:103AD000C2F20040A0F800903BE000BF40F60012A8
:103AE000C0F23D02914203D20A224FF47A7317E0EA
:103AF00045F60022C0F26222914202D2642364227F
:103B00000EE048F20042C1F2D772914242F21072C6
:103B100038BF4FF47A724FF0010338BF0A2300BF59
:103B2000B1FBF2F15843B0FBF1F0A8EB000041F615
:103B30007C61C2F20041088081B241F67E62C2F22D
:103B4000004212888A423EBF41F67E61C2F20041C5
:103B50000880FEF76DFEFCF727FC0746FCF7CCFD5E
:103B60003668FCF7E5FD3846FCF722FC86B30025F5
:103B7000FCF71AFC0746FCF7BFFDD6F8A000C6E923
:103B80002890FCF7D5FD3846FCF712FCD6F8A44087
:103B9000FCF70AFC0746FCF7AFFDD6F8C060FCF75F
:103BA000C7FD3846FCF704FC2544002EE0D1ADB13A
:103BB00041F68020C0F2060085420DF10A0441F66C
:103BC0006876C2F2004614D2012042F2107B33E044
:103BD0004FF0010A4FF0000B06E000BF4FF0010A62
:103BE0004FF0000B0DF10A0441F66876C2F2004670
:103BF00024E040F60010C0F23D00854203D20A20C6
:103C00004FF47A7B18E045F60020C0F2622085422E
:103C100003D24FF0640B64200EE048F20040C1F282
:103C2000D770854242F2107038BF4FF47A704FF06F
:103C3000010B38BF4FF00A0BB5FBF0FAFCF7B4FBF1
:103C40000546FCF759FD376823E000BFD7F8A4000C
:103C500000FB0BF0B0FBFAF081B2414588BF42F2A5
:103C60001070A7F8900081B2B7F892208A4238BF4E
:103C7000A7F8920007F1B40107F1B00238462346D5
:103C8000FFF706F8FCF790FB0546FCF735FDD7F883
:103C9000C070FCF74DFD2846FCF78AFB002FD5D1FC
:103CA00041F67A60C2F20040007801287FF4C4AE89
:103CB00041F67A60C2F2004080F800902046FEF79C
:103CC000D7FCB9E60000000041F68861C2F200416D
:103CD00000220A6041F68061C2F200410A6041F6AA
:103CE0008461C2F200410A6041F68C61C2F2004177
:103CF0000A7041F67A61C2F200410A7045F6383125
:103D0000C0F600010968002902BF46F62B61018058
:103D1000704745F64032C0F60002126845F644335B
:103D2000C0F600031B689A423EBF46F62C61018034
:103D3000704745F63233C0F600031B783F2B22BF95
:103D400046F62A610180704780B58AB0089003204A
:103D500007900020CDE90500CDE90320CDE9003131
:103D600045F63C30C0F600000068029041F69060D5
:103D7000C2F2004004A143F6C912C0F600020023BB
:103D8000FEF762FD0AB080BD75432F4F532D4949A0
:103D9000492053746174205461736B00000000006B
:103DA00010B50A46044641B141F67C70C2F20040AB
:103DB000214600F059FA032000E0022084F8360082
:103DC0002046BDE81040FFF787BD0000000000005E
:103DD000F0B581B00D460446012600BF94F83600C8
:103DE00007282CD806FA00F111F0CC0F39D094F83E
:103DF000377084F8375094F83400042821D12046D5
:103E0000FFF76EFB206BC068446A94F83700E9B294
:103E10008F4203D9884210D811E000BFB8420CD1BC
:103E20002046FFF7A9FA054694F8370094F83810B1
:103E30008D4288BF0D46854201D0002CCED101B005
:103E4000F0BD0628FBD8012101FA00F010F06A0F3E
:103E50001FBF204601B0BDE8F040FFF741BB01B0F5
:103E6000F0BD012101FA00F010F0320F1EBF84F8FE
:103E7000375001B0F0BD2046FFF72EFD84F83750D3
:103E8000E8B2FFF761FC41F65C70C2F200400068E6
:103E9000844205D0204601B0BDE8F040FFF7DCBC0D
:103EA000204601B0BDE8F040FFF7B2BC00000000C2
:103EB0000022C0F8BC2041F66871C2F200410B68D4
:103EC000002B0EBFC0F8C020C0F8C030C3F8BC0043
:103ED000086070470000000050F8BC3F014651F8F0
:103EE000042F33B16AB1C3F8C020C2F8BC300A460F
:103EF00009E041F66870C2F20040026032B1BC32A3
:103F000002E003F1C00201460020106000200860BA
:103F1000704700000000000041F66471C2F20041E9
:103F200000220A6041F66C71C2F200410A8041F63B
:103F30006871C2F200410A60028070470000000010
:103F4000B0B504460025C0E90055C0E90255C0E9F6
:103F50000455C0E906551EA0A4F84650A564256680
:103F6000A4F86450C4E90805C4E90A55256304F1BE
:103F700068000021FFF7ACF9A4F844502564C4E9B7
:103F80001355C4E91555E56584F88E50A4F88C5096
:103F9000C4E91E55C4E92055C4F88850C4E9245525
:103FA000C4F89850C4E92A55C4E92C55FCF734FCF0
:103FB000C4E927054FF080406063402084F8380052
:103FC000E56305A0C4E92E55C4E93050B0BD00BF7B
:103FD0003F5461736B0000002000000000000000EF
:103FE00070B50E460546FCF7DFF90446FCF784FB86
:103FF0000020308095F83600072811D8DFE800F05F
:104000000404040419283440FCF792FB2046FCF712
:10401000CFF947F253103080BDE87040FEF724BA64
:10402000FCF786FB2046FCF7C3F946F62D6030808E
:1040300070BD95F88E00013885F88E0010F0FF0FE6
:1040400029D1002085F836002846FFF7C5FB22E07D
:1040500095F88E00013885F88E0010F0FF0F04BF30
:10406000012085F8360016E095F88E00013885F8B5
:104070008E0010F0FF0F04BF022085F836000AE022
:1040800095F88E00013885F88E0010F0FF0F04BF00
:10409000032085F83600FCF74BFB2046FCF788F937
:1040A000BDE87040FEF7E0B980B582B041F65C70C3
:1040B000C2F200400068FEF72BFD0DF10601002062
:1040C000FEF762FC02B080BD2DE9F04381B01D46D1
:1040D000164688460446FCF767F98146FCF70CFB58
:1040E00041F65C70C2F200400768002C18BF2746FA
:1040F000BE640020288097F8360007283BD80121AD
:1041000001FA00F010F0330F09D0F86C461C28D0EB
:10411000FE64FCF70DFB4846FCF74AF93EE097F8D1
:104120003400072813D100960020394600220023CE
:10413000FFF76EFAFE6CFCF7FBFA4846FCF738F91D
:104140000FFA88F0002829DBFEF78EF926E0F86CDC
:10415000461C1AD0FE64FCF7EBFA4846FCF728F937
:104160001CE0FCF7E5FA4846FCF722F946F6C55094
:104170002880002612E0FCF7DBFA4846FCF718F925
:1041800046F62D602880002608E0FCF7D1FA484664
:10419000FCF70EF946F6C55028800026304601B0DF
:1041A000BDE8F0830000000070B50E460546FCF740
:1041B000FBF80446FCF7A0FA41F65C70C2F200403E
:1041C0000068002D08BF054685420ED141F66960A2
:1041D000C2F20040007840B1FCF7AAFA2046FCF792
:1041E000E7F846F66350308070BD0020308095F8C7
:1041F000360007280BD8DFE800F0131D222704043F
:10420000040495F88E00013085F88E0022E0FCF75A
:104210008FFA2046FCF7CCF846F62D60308070BD52
:10422000012085F88E00042085F836002846FFF727
:1042300053FB0FE0012085F88E00052008E00120E7
:1042400085F88E00062003E0012085F88E00072007
:1042500085F83600FCF76CFA2046FCF7A9F8BDE8B3
:104260007040FEF701B9000080B503688BB100BF54
:104270009C461B6D9A4215D9D21ADCF81430002BDB
:10428000F6D10A650022C1E9052CC861CCF81410EA
:1042900027E000230A65C1E90533C8610122828055
:1042A000016080BDDCF818E00A65BEF1000F0CD09B
:1042B000C1E905CEC861CCF81810DCF850309A1A64
:1042C000CCF85020CEF814100BE00023C1E905C350
:1042D000C861CCF81810DCF850309A1ACCF850208D
:1042E000016081880131818080BD000000000000F4
:1042F00070B51E460B460146082A0CD0042A16D17A
:1043000041F67070C2F2004000681B1A581E10F58A
:10431000803F27D30CE04A6D41F67070C2F2004036
:104320000068841A9C4206D9184448651AE0CBB943
:10433000002008650FE0A3EB040CACF1010515F5B6
:10434000803F0CD30022B4FBF3F505FB1345184462
:10435000401BC1E9142047F27E20308070BDD01888
:1043600048656346012081F8360041F67470C2F258
:1043700000401A46FFF778FF0020308070BD000033
:10438000D0E90523C16983B15A61002A1FBF936137
:10439000D2F850C0036D634418BF136500228261D8
:1043A0008B88013B8B80426116E092B180B54FF063
:1043B000000CC2F818C0D2F850E0036D73441365C6
:1043C0000A608A88013A8A80C0F814C0BDE880403B
:1043D00002E000228A800A600021C1610165704705
:1043E0002DE9F047FBF7E0FF8046FCF785F9FCF785
:1043F00013FA814641F67477C2F200473E6836B33D
:10440000306D013830654FF000054FF0000422D1C7
:104410004FF0040A002400BF013496F83600052846
:1044200008D0012808D186F836503046FFF7D4F975
:1044300002E000BF86F836A076693E604EB1B888CB
:104440000138B880B561306D0028E5D003E0002464
:1044500001E00020B880FC80FCF7DEF90646FCF79E
:1044600067F94046FBF7A4FFA6EB0900BDE8F0871B
:104470002DE9F04F81B0FBF797FF8046FCF73CF940
:10448000FCF7CAF9814641F67C74C2F20044266802
:10449000002E57D0306D013830654FF0000A4FF0D4
:1044A000000553D14FF4407B002500BF96F834003F
:1044B000042803D1306BC068476A00E00027A6F8E3
:1044C00064A0C6F860A0FCF7A7F9B0643046FFF717
:1044D0005BF896F83600072806D0032807D1304647
:1044E000FFF77AF9002000E0042086F83600013555
:1044F000A6F834B0D7B197F8370097F8381088424B
:1045000014D096F83710884210D13846FEF734FFA1
:10451000014697F8370097F83820914288BF114636
:1045200081421CBF3846FFF753FC00BF7669266006
:1045300056B1A0880138A080C6F818A0306D0028B8
:10454000B4D003E0002501E00020A080E580FCF766
:1045500063F90646FCF7ECF84046FBF729FFA6EBAB
:10456000090001B0BDE8F08FF0B581B00DF1020493
:1045700041F67076C2F2004642F24C07C2F20047A2
:1045800017E000BFFBF710FF0546FCF7B5F83068F1
:1045900001303060FCF7CCF82846FBF709FFFFF745
:1045A0001FFF0546FFF764FF28443968814238BF82
:1045B00038600020002100222346FEF7B5FABDF83E
:1045C00002000028F5D1DDE741F67471C2F2004126
:1045D000002241F67073C2F200431A6041F67C7308
:1045E000C2F20043C1E90022C3E9002245F650317E
:1045F000C0F600010968002902BF47F212210180BC
:10460000704745F65832C0F60002126845F644334A
:10461000C0F600031B689A423EBF47F21321018097
:10462000704745F64C33C0F600031B783F2B22BF82
:1046300047F211210180704780B58AB008900B20A5
:1046400007900020CDE90500CDE90320CDE9003138
:1046500045F65430C0F600000068029041F68470C0
:10466000C2F2004004A144F26952C0F600020023E5
:10467000FEF7EAF80AB080BD75432F4F532D494924
:1046800049205469636B205461736B000000000083
:1046900010B58AB0044642F25800C2F20040002130
:1046A000016042F25000C2F20040016042F2540048
:1046B000C2F20040018042F25810C2F20040016094
:1046C00042F25410C2F20040016045F64830C0F694
:1046D0000000006845F66031C0F600010968002955
:1046E00008BF0A21B0FBF1F042F25C11C2F20041B6
:1046F000086042F26011C2F20041086042F25C00C0
:10470000C2F2004024A12246FDF72AFD208808B10C
:104710000AB010BD45F66430C0F60000006870B104
:1047200045F66C31C0F60001096845F64432C0F622
:1047300000021268914205D247F248300BE047F27E
:10474000473008E045F65C32C0F6000212783F2A96
:1047500004D347F2463020800AB010BD08940B23E2
:1047600007930023CDE90533CDE90313CDE90020FC
:1047700045F66830C0F600000068029042F28C00F6
:10478000C2F2004008A144F2E172C0F60002002328
:10479000FEF75AF80AB010BD4F5320546D72204DE9
:1047A000757465780000000075432F4F532D4949FB
:1047B000492054696D6572205461736B00000000DC
:1047C00080B584B00DF10E00009042F25C00C2F2A0
:1047D000004002AB00210022FDF7EEFC04B080BDDA
:1047E0002DE9F04F83B00DF10A0542F2581BC2F2D9
:1047F000004B42F25809C2F2004942F2541AC2F286
:10480000004A03240BE000BFFCF706F8801BDAF82F
:104810000010814238BFCAF8000000F05DF80020A7
:10482000002101AA2B46FEF77FF9FFF7C9FFFBF72E
:10483000F3FF0646DBF800000130CBF80000D9F8A2
:104840000080B8F1000F07D1DEE700BF2846FDF772
:10485000ABFEB8F1000FD7D047462846FDF74CFE17
:10486000D8F81080B8690138B861EFD1B88C022847
:1048700002D1386AB86104E0384600F009F887F8D8
:104880002640BA68002AE1D0F96838469047DDE74B
:1048900042F25802C2F200421168814206D0D0E9C9
:1048A00004121161002918BF4A6105E00169116015
:1048B00000291CBF00224A610021C0E90411012126
:1048C00080F8261042F25400C2F2004001880139FB
:1048D000018070470000000080B582B042F25C00A9
:1048E000C2F200400DF106020021FDF725FD02B0E5
:1048F00080BD00000000000070B54EF61450CEF2EE
:10490000000000210167BFF34F8FC16E4FF60042D8
:10491000CFF6FF7262EAD10EC1F34E32C9088B079F
:1049200043F6E07C0CEA42111C46754644EA010657
:10493000C0F84C6204F140440135F7D1511E002A01
:104940000A46EFD1BFF34F8F016841F48031016017
:10495000BFF34F8FBFF36F8F70BD000000000000EA
:10496000BFF34F8FBFF36F8F4EF61450CEF200009F
:104970000021C0F83C12BFF34F8FBFF36F8F016867
:1049800041F400310160BFF34F8FBFF36F8F704769
:1049900070470000000000002DE9F0438BB0FBF7EA
:1049A00027FE0DF12A042046FDF7D6FEFBF784FE14
:1049B00001200A212246FDF7C7FDFBF7F5FC8046E2
:1049C000FBF79AFE08944FF00709002780250C2674
:1049D00040F23060C2F200400421CDE90010CDE980
:1049E0000265CDE90477CDE9067940F26850C2F25C
:1049F000004027A141F6B942C0F600020023FDF7AE
:104A000023FF089440F6F800C2F200400521CDE9EA
:104A10000010CDE90265CDE90477CDE9067940F6CD
:104A20003000C2F200401DA141F6F942C0F600027A
:104A30000023FDF709FF08944FF48070192140F21C
:104A4000A002C2F200420623CDE90032CDE90210F5
:104A5000CDE90477CDE9067940F2A040C2F20040EA
:104A600011A140F65102C0F600020023FDF7ECFE52
:104A7000FBF75EFE4046FBF79BFC42F68410C2F259
:104A800000402146FFF790FB0BB0BDE8F08300BF6C
:104A90006C656430207461736B0000006C65643178
:104AA000207461736B000000666C6F617420746524
:104AB0007374207461736B00B0B501380024B4EBDB
:104AC000106F1EBF01242046B0BD4EF21005CEF27D
:104AD000000568604FF0FF300F2100F019FFAC6057
:104AE000072028602046B0BD80B5FCF73DF841F6B0
:104AF0006860C2F200400078012818BF80BDFDF751
:104B0000CFFAFEF7C5FABDE88040FDF7DDBA000038
:104B1000B0B59CB044F2F440C5F6020050F8F41C65
:104B200041F0800140F8F41C016841F0020101608D
:104B3000006800F0020009900998FBF731FF09A80E
:104B40004C21FBF7C6FC0021CDE90711CDE9051189
:104B5000CDE90311CDE9011144F61800C5F60200B4
:104B600050F80C2C22F0040240F80C2C0091016843
:104B700041F440410160016801F440410091009915
:104B8000016811F4005FFBD04FF480300A900120DF
:104B900009900220CDE9120005211491A021CDE950
:104BA0001510CDE91700082419940025CDE91A55F0
:104BB00009A8FCF751FB00B1FEE7032002903F205B
:104BC0000190CDE903544020CDE905004FF4806108
:104BD000CDE9071001A80221FCF762F9002804BF03
:104BE0001CB0B0BDFEE700004EF6885CCEF2000CB3
:104BF000DCF8001041F47001CCF8001044F20041E0
:104C0000C5F602010A6842F001020A6000220A6148
:104C10000B684EF67F50CEF6F620184008608A6189
:104C2000CA610A628A62CA620A634A638A63CA63A1
:104C30000A644A64086820F4802008600A6648F222
:104C40000810C5F20010012101604FF000604CF81F
:104C5000800C70470000000010B504460420FCF7EB
:104C60007FFD4EF21000CEF20000016841F002011B
:104C7000016045F64831C0F60001096844F240225F
:104C8000C0F20F02B2FBF1F161434160016841F0F3
:104C90000101016010BD0000416B11F0010F37D11F
:104CA0008A0740D44A0749D40A0752D4CA065BD4BB
:104CB0008A0608D502689368D0F84CC023F40053E4
:104CC00043EA0C03936080B54A0614D5D0F800E09F
:104CD000DEF804C0036D2CF480121A43CEF80420D1
:104CE000B3F5801F07D1DEF80420436D22F4C00223
:104CF0001A43CEF804200906BDE8804058BF70472B
:104D000001684A68806D22F40022104348607047B1
:104D100002685368D0F838C023F4003343EA0C0328
:104D200053608A07BED502685368D0F83CC023F4AC
:104D3000803343EA0C0353604A07B5D502685368D1
:104D4000D0F840C023F4802343EA0C0353600A07E1
:104D5000ACD502685368D0F844C023F4004343EA5A
:104D60000C035360CA06A3D502689368D0F848C004
:104D700023F4805343EA0C0393608A069AD4A2E793
:104D8000B0B582B004460020E067FBF7E5FE0546BB
:104D90002068006810F0080F0CD06FF07E40009083
:104DA00020464FF4001100222B4600F0F1FC08B120
:104DB000032019E02068006810F0040F0CD06FF099
:104DC0007E40009020464FF4800100222B4600F0E8
:104DD000DFFC08B1032007E0202184F879100020CF
:104DE00084F8780084F87A10C0B202B0B0BD000038
:104DF000806B0021A0F86A10A0F86210FCF7C8BC14
:104E000001680A6822F490720A608A6822F001023E
:104E10008A60202180F87A107047000000000000AE
:104E200001680A6822F040020A60202180F87910A7
:104E3000FCF722BF000000000268B0F86C1090F888
:104E40007A30222B26D1B2F824C08368B3F5805F74
:104E500004BF0369002B22D0436E5A1C426601EA4C
:104E60000C011970B0F86A100139A0F86A104FF6F9
:104E7000FF72114218BF704701680A6822F49072ED
:104E80000A608A6822F001028A60202180F87A1084
:104E9000FCF76EBE108B40F008001083704701EAEB
:104EA0000C01426E1180416E02314166DAE700006A
:104EB0002DE9F04786B00446D0F81CC0826A00682D
:104EC000A368D4E90476056846F6F311CCF6FF71C1
:104ED000294013433B43334343EA0C031943016026
:104EE000416821F44051E3681943416044F20048AD
:104EF000C5F60208A8F50E33A76998421CBF216ABF
:104F00000F43B2F1005F02BFD4E90B12394341EA0B
:104F1000020781684FF2FF42C1F2FF12114039438C
:104F20008160C16A626A21F00F011143C16280276A
:104F300047F2FF71C4F2000188422CDD40F6FF7198
:104F4000C4F2010188424CDD40F60041C5F6000183
:104F5000884200F0868041F20041C4F2010188429B
:104F600000F0958041F20001C4F20101884240F056
:104F7000DF8044F25441C5F602010968C1F3C2075B
:104F8000052F00F28281DFE817F0940085018A0185
:104F90008F019401D20044F6FF31C4F2000188422F
:104FA0003FDC44F20041C4F20001884200F08580F9
:104FB00044F60001C4F20001884240F0B98044F296
:104FC0005441C5F60201096801F00707052F00F2F8
:104FD0005C81DFE817F0A8005F01640169016E01E0
:104FE000AC0047F60001C4F20001884200F077806F
:104FF00047F60041C4F20001884240F0998044F233
:105000005441C5F60201096801F00707052F00F2B7
:105010003C81DFE817F088003F01440149014E015F
:105020008C0044F60041C4F20001884200F069801F
:1050300045F20001C4F20001884240F0798044F258
:105040005441C5F60201096801F00707052F00F277
:105050001C81DFE817F068001F01240129012E01DF
:105060006C0044F25441C5F60201496801F007079B
:10507000052F00F20A81DFE817F006000D0112018A
:1050800017011C015A000227984254D115E144F23D
:105090005441C5F602010968C1F3C207052F00F2A9
:1050A000F480DFE817F00600F700FC0001010601BC
:1050B0004400012798423ED1FFE044F25441C5F636
:1050C0000201096801F00707052F00F2DE80DFE822
:1050D00017F02A00E100E600EB00F0002E0044F299
:1050E0005441C5F60201096801F00707052F00F2D7
:1050F000CC80DFE817F01800CF00D400D900DE0024
:105100001C0044F25441C5F60201096801F007078A
:10511000052F00F2BA80DFE817F00600BD00C200DC
:10512000C700CC000A000027984204D1C5E0202720
:10513000984200F0C2800125BCF5004F40F04A8043
:105140000020402F00F25482DFE817F041004301B5
:105150005202520250015202520252025D015202A8
:105160005202520252025202520252026E01520284
:10517000520252025202520252025202520252028F
:105180005202520252025202520252027901520259
:10519000520252025202520252025202520252026F
:1051A000520252025202520252025202520252025F
:1051B000520252025202520252025202520252024F
:1051C0005202520252025202520252028701FBF76D
:1051D00097FF00E1402F00F21382DFE817F0410053
:1051E0004E011102110263011102110211027A0132
:1051F0001102110211021102110211021102950194
:105200001102110211021102110211021102110206
:105210001102110211021102110211021102AA015E
:1052200011021102110211021102110211021102E6
:1052300011021102110211021102110211021102D6
:1052400011021102110211021102110211021102C6
:105250001102110211021102110211021102BD010B
:10526000FBF74EFFD4E90012636A45F67037C0F6CB
:10527000000737F81330B0FBF3F000EB5200B0FB3F
:10528000F2F080B2C8600025BAE1802798427FF42E
:1052900052AF12E0042798427FF44DAF0DE0402753
:1052A00098427FF448AF08E0082798427FF443AF64
:1052B00003E0102798427FF43EAFBE1E012540F662
:1052C0000019C0F23D091E2E25D84846DFE816F029
:1052D0001F0098012C009801980198013300980153
:1052E000980198019801980198019801440098014B
:1052F00098019801980198019801980198019801E6
:105300009801980198019801980198014200FBF7D3
:10531000AFFC08BB0DE0402F40F072816846FBF700
:105320003FFD0198C0B904E003A8FBF7B9FC04985D
:1053300090B9002564E1D8F8001049F20000C0F2ED
:10534000D03011F0200F1EBFD8F80010C1F3C101FA
:10535000C84001E04FF40040D4F804A00AEB4A0131
:1053600001258842C0F04C814FEA0A31884200F2A0
:10537000478101251E2E00F20681DFE816F01F008E
:10538000BE016001BE01BE01BE017B01BE01BE01C6
:10539000BE01BE01BE01BE01BE018C01BE01BE0147
:1053A000BE01BE01BE01BE01BE01BE01BE01BE0105
:1053B000BE01BE01BE01BE01BE011401FBF758FCD7
:1053C0006668616A45F67032C0F6000232F8112054
:1053D00041E1FBF7ADFE6168626A45F67033C0F6E5
:1053E000000333F81220B0FBF2F044E003A8FBF70F
:1053F00057FC6168606A45F67032C0F6000232F808
:105400001000049A35E0D8F8000010F0200F40F0AA
:10541000D68045F67030C0F6000030F8120049F230
:105420000001C0F2D031DAE045F67030C0F600007D
:1054300030F8120040F60011C0F23D01CFE045F611
:105440007030C0F6000030F812004FF40041B1FB9C
:10545000F0F0420061684808C6E06846FBF7A0FC2F
:105460006168606A45F67032C0F6000232F81000DA
:10547000019AB2FBF0F04000B5E0FBF759FED4E929
:105480000012636A45F67037C0F6000737F813302C
:10549000B0FBF3F000EB5200B0FBF2F080B2C8605A
:1054A0000025ADE003A8FBF7FBFBD4E90001626A2D
:1054B00045F67033C0F6000333F81220049BB3FBAB
:1054C000F2F202EB5102B2FBF1F189B2C1600025A8
:1054D00096E0D8F8001011F0200F40F0958045F6C6
:1054E0007031C0F6000131F8121049F20002C0F22A
:1054F000D032B2FBF1F1626801EB5201B1FBF2F183
:1055000089B2C16000257BE045F67031C0F600012C
:1055100031F8121040F60012C0F23D02B2FBF1F178
:10552000626801EB5201B1FBF2F189B2C160002562
:1055300066E045F67031C0F6000131F812104FF404
:105540000042B2FBF1F1626801EB5201B1FBF2F1F2
:1055500089B2C160002553E06846FBF721FCD4E91D
:105560000001626A45F67033C0F6000333F812207A
:10557000019BB3FBF2F202EB5102B2FBF1F189B2F3
:10558000C16000253CE0402F40F0B7806846FBF743
:1055900007FC6668606A45F67031C0F6000131F8B4
:1055A0001020019857E0606A45F67031C0F600019E
:1055B00031F810004FF40041B1FBF0F074E045F613
:1055C0007030C0F6000030F81200D8F80010C1F3B7
:1055D000C10149F20002C0F2D03222FA01F1B1FB5E
:1055E000F0F0400061684A081044B0FBF1F000257B
:1055F0004FF6F0710140C0F3420008432168C860D3
:10560000284606B0BDE8F08745F67031C0F60001C7
:1056100031F81210D8F80020C2F3C10249F2000399
:10562000C0F2D03323FA02F2B2FBF1F1626801EB6F
:105630005201B1FBF2F189B2C1600025E0E703A895
:10564000FBF72EFB6668606A45F67031C0F6000114
:1056500031F810200498002500210023FAF7BAFE43
:10566000090241EA1061000210EB560041F100010D
:1056700032463FE0D8F8000010F0200F1BD1606ADE
:1056800045F67031C0F6000131F8102049F20000F3
:10569000C0F2D03020E0606A45F67031C0F60001FB
:1056A00031F81000B9FBF0F0000200EB5A00B0FB3B
:1056B000FAF0002521E0D8F80000616A45F6703262
:1056C000C0F6000232F81120C0F3C10049F2000117
:1056D000C0F2D03121FA00F0002500210023FAF7B2
:1056E00079FE090241EA1061000210EB5A0041F113
:1056F000000152460023FAF76DFEA0F540714FF607
:10570000FF42C0F20F02914202D82168C86077E7D9
:10571000012575E70000000090F87910212918BFD5
:105720007047B0F8621091B18168B1F5805F04BF35
:105730000169002920D00168C26D531CC36512782D
:105740000A85B0F862100139A0F86210704700684D
:10575000014651F8082B12F0005208BF01460A68B2
:105760006FF4000308BF6FF080031A400A600168FD
:1057700041F04001016070470168C26D12886FF30B
:105780005F220A85C16D0231C165DAE700000000C1
:105790002DE9F04381B0984616460F46044600684E
:1057A000C0690840401AB0FA80F04009904218D110
:1057B000DDF8209009F1010545B1B9F1000F12D0D3
:1057C000FBF7CAF9A0EB080048450CD82068C0696F
:1057D0003840C01BB0FA80F04009B042ECD0002045
:1057E00013E0002011E02068016821F4D07101600D
:1057F000816821F001018160202084F87900002176
:1058000084F8781084F87A000320C0B201B0BDE8B3
:10581000F08300000000000080B5FCF741FC42F678
:105820004C20C2F20040FBF7B7FFBDE88040FCF718
:105830004BBC00000000000080B5FCF731FC42F6D4
:10584000CC20C2F20040FBF7A7FFBDE88040FCF788
:105850003BBC00000000000010B542F64C24C2F230
:10586000004441F20001C4F2010100220C23C4E90A
:105870000010C4E90222C4E90423A2612046FCF717
:1058800053F842F64C31C2F2004120460322BDE8F3
:105890001040FCF719B9000010B542F6CC24C2F252
:1058A000004444F20041C4F2000100220C23C4E988
:1058B0000010C4E90222C4E90423A2612046FCF7D7
:1058C00033F842F64F31C2F2004120460322BDE8D0
:1058D0001040FCF7F9B80000FEE7000000000000EF
:1058E0000028B8BF704700F01F01012202FA01F141
:1058F00040094EF20012CEF2000242F8201070472A
:105900004EF60C50CEF200000068C0F30220704743
:1059100000F1604C00F00F034EF61452CEF200027C
:105920001A44B0F1FF3FC8BF0CF564420801107083
:1059300070470000000000004EF60C51CEF200014E
:105940000A684FF6FF031A4060F30A2242F08060B3
:1059500040F0FD700860704770B58AB0FCF794F9AC
:105960000DF126063046FCF7C7FAFAF71DFD05468D
:10597000FAF7C2FE08964FF0070C00214FF40072B0
:10598000332342F28410C2F200400324CDE90040E8
:10599000CDE90232CDE90411CDE9061C42F68410AE
:1059A000C2F2004008A144F69912C0F6000200239A
:1059B000FCF74AFFFAF7BCFE2846FAF7F9FC304636
:1059C000FCF722FEFEE700BF7374617274207461FD
:1059D000736B0000EFF3098141B1F1EE101A40F84A
:1059E000041D20ED200A3E490A6810607047B0ECA3
:1059F000200A02C8E1EE101A3A490A68106070479E
:105A000072B64EF62250CEF2000040F2FF01C0F214
:105A1000000101704FF0000080F30988FDF738FAAB
:105A200042F28010C2F20040016881F3088841F61A
:105A30004E30C2F2004041F64F31C2F200410A78C6
:105A4000027041F65C75C2F2004541F66071C2F227
:105A500000410A682A60106880F30988EFF3148017
:105A600040F0020080F31488BFF36F8FBDE8F00FA1
:105A70000FBCBDE8005006BC62B608471A484FF09C
:105A800080510160704718484FF0805101607047A5
:105A900072B6EFF3098020E9F00F41F65C75C2F2AF
:105AA00000452E6830607446FDF7F2F941F64E303D
:105AB000C2F2004041F64F31C2F200410A78027052
:105AC00041F66071C2F200410A682A6044F0F40EA7
:105AD0001068B0E8F00F80F3098862B670470000E4
