:020000040800F2
:10000000B83A00245103000849290008C92600080D
:10001000B1280008A10D000891630008000000004D
:100020000000000000000000000000004154000833
:100030005912000800000000F16D0008B1550008D9
:100040008B0300088B0300088B0300088B03000858
:100050008B0300088B0300088B0300088B03000848
:100060008B0300088B0300088B0300088B03000838
:100070008B0300088B0300088B0300088B03000828
:100080008B0300088B0300088B0300088B03000818
:100090008B0300088B0300088B0300088B03000808
:1000A0008B0300088B0300088B0300088B030008F8
:1000B0008B0300088B0300088B0300088B030008E8
:1000C0008B0300088B0300088B0300088B030008D8
:1000D0008B030008E1620008016300088B0300083D
:1000E0008B0300088B030008000000008B0300084E
:1000F0008B0300088B0300088B0300088B030008A8
:100100008B0300088B0300088B0300088B03000897
:100110008B0300088B0300088B0300088B03000887
:100120008B0300088B0300088B0300088B03000877
:100130008B0300088B0300088B0300088B03000867
:1001400000000000000000000000000000000000AF
:100150008B0300088B0300088B0300088B03000847
:100160008B0300088B0300088B0300088B03000837
:100170008B0300088B0300088B03000800000000BD
:100180008B0300088B0300088B0300088B03000817
:100190008B0300088B0300088B0300088B03000807
:1001A0008B0300088B0300088B0300088B030008F7
:1001B0008B0300088B0300088B0300088B030008E7
:1001C0008B0300088B0300088B0300088B030008D7
:1001D0008B0300088B0300088B0300088B030008C7
:1001E0008B0300088B0300088B0300088B030008B7
:1001F0008B0300088B0300088B0300088B030008A7
:100200008B0300088B0300088B0300088B03000896
:100210008B0300088B0300088B0300088B03000886
:100220008B0300088B0300088B030008000000000C
:100230008B0300088B030008000000008B030008FC
:100240008B0300088B0300088B0300088B03000856
:100250008B0300088B0300088B0300088B03000846
:100260008B0300088B0300088B0300088B03000836
:100270008B0300088B0300088B03000800000000BC
:100280008B030008000000008B0300080000000042
:10029000000000008B03000800F002F800F049F8AD
:1002A0000AA090E8000C82448344AAF10107DA45D1
:1002B00001D100F03EF8AFF2090EBAE80F0013F0DA
:1002C000010F18BFFB1A43F001031847146D00001B
:1002D000346D0000103A24BF78C878C1FAD85207AC
:1002E00024BF30C830C144BF04680C6070470000B0
:1002F0000023002400250026103A28BF78C1FBD82F
:10030000520728BF30C148BF0B607047662906F00E
:10031000D885002070471FB506F0C6FD00F0AEFB83
:1003200004000020002106F0A9FDE0601FBD10B50B
:1003300010BD00F0C0FC1146FFF7EDFF06F0F4F829
:1003400000F0DEFC03B4FFF7F2FF03BC00F090FB0B
:1003500011488047DFF84400016841F470010160F2
:10036000BFF34F8FDFF83800016821F04041016092
:10037000BFF36F8F0B480047FEE7FEE7FEE7FEE79F
:10038000FEE7FEE7FEE7FEE7FEE7FEE70648074971
:10039000074A084B70470000B156000888ED00E09E
:1003A00034EF00E099020008B82E0024B83A002487
:1003B000B8300024B830002472B6704762B6704777
:1003C000EFF3108072B6704780F31088704730BF2B
:1003D000704720BF7047B0FA80F0704790FAA0F0E5
:1003E000B0FA80F0704790FAA0F0704753EA020C20
:1003F00000F069802DE9F04B4FF00006002B1FBF85
:10040000B3FA83F503FA05F424FA05F65E4012BF49
:100410001643B2FA82F502FA05F4C5F120051EBFB3
:1004200022FA05FC44EA0C04203556EA044C4FEA53
:10043000144418BF641C4FF000084FF000099042AC
:1004400071EB030C39D3002919BFB1FA81F701FA16
:1004500007F6B0FA80F700FA07F6C7F120071EBFCB
:1004600020FA07FC46EA0C062037B6FBF4FCA7EBA3
:100470000507103F07F01F0BCBF120062CFA06F6FC
:100480000CFA0BFB44BFB3460026202FA4BF5E46E8
:100490004FF0000B5BEA060C08BF4FF0010B19EBA5
:1004A0000B0948EB0608ABFB027C06FB02CC0BFBFE
:1004B00003CCC01B71EB0C01C1E70B460246414661
:1004C0004846BDE8F08B13B54FF000004FF0000137
:1004D000AFF30080BDE81C40704700000FB4044932
:1004E00010B503AA029800F08FFA10BC5DF814FB57
:1004F000582E00242DE9F0410E46044600202062CB
:100500002046E168884730B3252805D0D4E9012189
:100510009047206A401CF2E7E168204600278847A0
:10052000050018D0A5F14100192802D820354FF454
:1005300000673246294620462760FFF7E7FE40B1B4
:10054000012804D0F61D26F007060836D8E7361D28
:10055000D6E72846DAE7206ABDE8F08110B5044600
:1005600003E005F0CDFF401C09D014F8010B05494C
:100570000028F6D1BDE810400A2005F0C1BF4FF0B9
:10058000FF3010BD582E002402F0FF0343EA03227F
:1005900042EA024200F04CBA4FF0000200B51346A6
:1005A00094469646203922BFA0E80C50A0E80C5093
:1005B000B1F12001BFF4F7AF090728BFA0E80C5044
:1005C00048BF0CC05DF804EB890028BF40F8042B3D
:1005D00008BF704748BF20F8022B11F0804F18BFAA
:1005E00000F8012B70477047704770472DE9FF4FA7
:1005F0000C461E464FF0FF378BB0D2E90001DDF804
:1006000060800A908A46C1F30A5505B93D4600212B
:1006100008464FF00000BAF1000F00F4400005DA80
:1006200000EB80004FF4400101EA50004FEA90597E
:10063000B9F1010F00DDB9460A9850EA4A000ED020
:1006400044F61050A5F2FF3545432F14B8F1000FC2
:100650001ED07542291E1EDDC9F100021CE0B8F152
:10066000010F4FF0000001D0302103E0F24305E01C
:100670002154401CB042FBDB3046002200212154B3
:100680000B99C1F80880C1E900200FB0BDE8F08FD8
:10069000BD1B6D1CDEE74A4600DA694206A800F081
:1006A0008FFA06AB93E8070003AB83E807005046D8
:1006B0000A9905F077FF8DE80700A0F500501F3874
:1006C00000900398002D0ADD42F21F014A460844BB
:1006D000002303A90390684606F0E0F909E0A0F5BD
:1006E00000504A461F38002303A90390684606F0CD
:1006F000EAF98DE807000004000C03D04FF0FF304A
:10070000410800E01046B8F1000F03D0002200922B
:1007100015461EE0751E05D400F0B4F9303262555E
:100720006D1EF9D5B3460122084302D000227F1C7A
:1007300004E02078302801D100227F1E002A09978A
:1007400084D01DE0112D07DA00F09CF9303262559B
:100750006D1C50EA0102F5D1084302D00098C8B1DF
:100760000EE00021681E05E0235C625C63542254A5
:10077000401E491C8142F7DBAB46A81B401E099076
:10078000002004F80B000B98099AC0F80880C0E913
:10079000002B7AE711264FF0000857E72DE9F04FBC
:1007A00088460446D21D22F0070191B0D1E900012C
:1007B000CDE90A0106F04AFB02460B98C00F01D0B2
:1007C0002D2007E02068810701D52B2002E02021A1
:1007D00001EAC000032A099001D0072A05DB03467D
:1007E0004146204600F0ACF90BE12078800601D5A7
:1007F000E06900E00620B8F1650F814606D0B8F147
:10080000660F18D0B8F1670F70D131E00020B9F150
:10081000110F009001DB112301E009F101030AAA85
:1008200001A90CA8FFF7E2FEDDE90C70002609F132
:100830000105834647E001204B4600904FF00047FA
:100840000AAA01A90CA8FFF7D1FEDDE90DB00C99A9
:100850005D46002610B909F101000D18B9EB05003D
:1008600003D4C0F1FF3609F10105A5EB09002BE027
:10087000B9F1010F01DA4FF001090020B9F1110FB0
:100880000090484601DD112300E003460AAA01A9B1
:100890000CA8FFF7ABFEDDE90C704D460026834641
:1008A000207800070AD4AB4500DA5D4601A8012D87
:1008B00004DD411911F8011C302907D04F4502DA37
:1008C00017F1040F04DA012082460FE06D1EEEE7F7
:1008D000002F02DCED1B3E4403E0781CA84200DD43
:1008E0007D1CB81B00F1010A4FF00047207800077B
:1008F00003D4AA4501DB4FF0FF3A0021B7F1004FC6
:100900000DF143088DF8431024D002202B23002F33
:1009100001DA7F422D230A21021EA0F1010000DC32
:100920005FB197FBF1FC97FBF1F201FB1C7C1746D2
:100930000CF1300C08F801CDEEE7A8F101000370CE
:100940002188090501D5452100E06521A0F10108B4
:1009500000F8011C09980FA9A1EB0807FF1D00B1C1
:100960000120411901EBEA70A1693844081A401EC0
:10097000A0612078C00602D42046AFF30080099819
:1009800028B1D4E901219047206A401C20622078D8
:10099000C00622D52046AFF300801EE0002E04DB07
:1009A000B34502DD01A8805D00E03020D4E90121DB
:1009B0009047206A401C2062761CAAF101005FEA81
:1009C000000A0AD100F05AF8C0680168405CD4E916
:1009D00001219047206A401C2062281EA5F10105D4
:1009E000DCDC07E0D4E9012118F8010B9047206A0C
:1009F000401C2062381EA7F10107F3DC2046AFF34C
:100A00000080032011B041E6074B70B50D467B44D2
:100A100000F083F80446284600F044F910B14FF086
:100A2000FF3070BD204670BDEF5A00004FF000024D
:100A30000429C0F0128010F0030C3FF4AFADCCF1EC
:100A4000040CBCF1020F18BF00F8012BA8BF20F85E
:100A5000022BA1EB0C01FFF7A1BD5FEAC17C24BF13
:100A600000F8012B00F8012B48BF00F8012B70475C
:100A700001491820ABBEFEE726000200004870477F
:100A80003000002430B5B0F10A0271F100034FEAE2
:100A9000900E4EEA817EB0EB0E0061EB91014FEAC1
:100AA000101E4EEA017E10EB0E0041EB11114FEAD1
:100AB000102E4EEA016E10EB0E0041EB11214FEAB1
:100AC000104E4EEA014E10EB0E0041EB1141401862
:100AD00041F100014FEAD00040EA41704FEAD101F4
:100AE0004FEA810444EA907410EB800544EB010462
:100AF0006D1944EB0404521BA3414FF0000348BF9F
:100B00000A3200D530BD401C41F1000130BD00006B
:100B100001694A1C02610878704700B58FB0CDE9C1
:100B200001310021059105497944CDE903101146B1
:100B30006846FFF7DFFC0FB000BD0000E5FFFFFFD8
:100B40002DE9F0411F46044603260168072A01F4F7
:100B5000006004DB08B116A505E016A503E008B1A6
:100B600015A500E015A521F010002060A069C01EA9
:100B7000A0610FB1401EA0612046AFF300804FB1CD
:100B8000D4E9012138469047206A401C2062C01CED
:100B9000206206E0206AFAE7D4E9012115F8010B8A
:100BA0009047761EF8D22046AFF30080BDE8F08172
:100BB0004E414E006E616E00494E4600696E660001
:100BC0002DE9F047814616468AB0354878440DC86D
:100BD0008DE80D0032487844801C03AC0DC884E8D1
:100BE0000D0041F69B300844372190FBF1F290FB59
:100BF000F1F5A5F1800501FB12041B3C02D564420E
:100C0000012000E00020DFF898A080460027FA4489
:100C1000AAF1BE0A0EE0E0070AD03246684607EBAA
:100C2000470101230AEB810105F04DFF8DE8070024
:100C300064107F1C002CEED1194F7F44AE3F19E0A9
:100C4000E80715D007EB04100DF1180A90E80E0024
:100C50008AE80E00C068F04201D198190890324627
:100C6000012306A903A805F02EFF03AB83E80700C4
:100C70006D10641C002DE3D14FF00103324669462C
:100C8000B8F1000F03A802D005F008FF01E005F05D
:100C90001AFFC9E90001C9F808200AB0BDE8F087C9
:100CA00074630000007B00F08000704700487047CC
:100CB0001000002470477546FFF7F8FFAE460500A8
:100CC0006946534620F00700854618B020B5FFF767
:100CD0005DFBBDE820404FF000064FF000074FF0ED
:100CE00000084FF0000BAC46ACE8C009ACE8C00906
:100CF000ACE8C009ACE8C00921F007018D46704797
:100D000010B50446AFF300802046BDE81040FFF761
:100D100019BB00000000000030B44FF0013C50F857
:100D2000042BCCFA52F451F8043BD51A20D1FCB96B
:100D300050F8042BCCFA52F451F8043BD51A17D1D1
:100D4000B4B950F8042BCCFA52F451F8043BD51A3C
:100D50000ED16CB950F8042BCCFA52F451F8043B84
:100D6000D51A05D1002CDAD030BC4FF00000704706
:100D700029BAB1FA81F111F01801D1F120008440B3
:100D8000F2D1CA40CB4012F0FF0213F0FF0330BC97
:100D9000D01A70470000000000F0AEBE0000000056
:100DA000FEE700000000000080B500F0E5F800F06C
:100DB00007F8BDE8804000F0DBB80000000000004C
:100DC0002DE9F04140F28800C2F200400025058084
:100DD00040F27000C2F20040058040F28000C2F292
:100DE0000040056040F28400C2F20040056040F21D
:100DF0007406C2F20046356040F27807C2F200473E
:100E00003D6040F27C08C2F20048C8F80050FFF78D
:100E1000D7FA0446356000F04BF800F065F83D6005
:100E200030683560C8F800002046BDE8F041FFF7A3
:100E3000CBBA00000000000040F27C01C2F2004189
:100E40000968814228BF0846401A70470000000028
:100E500010B5FFF7B5FA40F27401C2F200410C6818
:100E6000FFF7B2FA2046BDE81040FFF7E5BF0000EB
:100E700010B5FFF7EDFF0446FFF7A2FA40F2740148
:100E8000C2F2004100220A60FFF79EFA204610BD20
:100E900010B5FFF795FA40F27801C2F200410C68F4
:100EA000FFF792FA2046BDE81040FFF7C5BF0000EB
:100EB00010B540F27000C2F200400188013101809B
:100EC00040F28804C2F20044208830B900F080F873
:100ED00040F28001C2F20041086020880130208089
:100EE00010BD00000000000040F28800C2F2004087
:100EF0000188013901804FF6FF70014218BF704729
:100F000080B500F065F840F28401C2F2004108604B
:100F100040F28001C2F200410968401A40F27401B7
:100F2000C2F200410A688242BDE8804038BF0860D2
:100F300040F27801C2F200410A68824238BF08607C
:100F4000704700000000000010B5FFF739FA0446B2
:100F5000FFF7AEFF40F28A00C2F20040102101F01C
:100F6000ABFCFFF7C1FF2046BDE81040FFF72CBAED
:100F7000FFF7EABF0000000040F29C00C2F2004010
:100F80000021016000F008B840F29C01C2F200416B
:100F9000086070470000000080B5FFF7FDFE4EF6C8
:100FA000FC51CEF200010A6842F080720A6041F200
:100FB0000001CEF2000100224A600A6842F00102FC
:100FC0000A60BDE88040FFF7DFBF000000000000BE
:100FD00041F20400CEF200000068704700000000FB
:100FE00080B504F015FA04F0DFF94EF69C70CEF2ED
:100FF0000000016841F00401016080BD00000000B4
:10100000B0B540F20044C5F60204206820F04070FC
:1010100020602068206020464FF4805100F0A0FA44
:10102000A0B100210D46012005F04AFA20464FF4F8
:10103000805100F095FA691CCAB2632A01D80028D1
:10104000F0D1E8B2622884BF0120B0BD20464FF441
:10105000805100F085FA00281CBF0020B0BD00219F
:101060000D46012005F02CFA20464FF4805100F087
:1010700077FA691CCAB2632A01D80028F0D0E9B215
:101080000020622988BF0120B0BD000000000000E0
:1010900080B586B044F2E040C5F60200016841F038
:1010A00002010160006800F0020001900198012037
:1010B00002904FF48051019103900320049040F27C
:1010C0000040C5F6020001A900F07EF900F0A0F88A
:1010D000FFF796FF06B080BDB0B540F20044C5F6FC
:1010E000020420464FF4805100F03AFA70B1002516
:1010F000012005F0E5F920464FF4805100F030FA68
:101100000135E9B2632901D80028F1D120464FF416
:10111000805100F025FA78B9002500BF012005F0C4
:10112000CFF920464FF4805100F01AFA0135E9B2A8
:10113000632901D80028F1D0282005F0C1F9204604
:101140004FF4805100F00CFA002818BF0120B0BD08
:10115000B0B50024002500BFFFF7BEFF40EA4404FD
:101160000135E8B20828F7D3E0B2B0BD00000000B6
:10117000F0B583B00D46044600F04AF8FFF740FF93
:1011800000281EBF012003B0F0BD00260DF10707A7
:10119000FFF7DEFFB8550136052EF9D19DF807207F
:1011A0009DF808109DF809309DF80A008F181F441B
:1011B00007449DF80B60B74221D100EE102A01EEE2
:1011C000103AB8EE400A02EE101A9FED0F3BB8EE4F
:1011D000411A04EE100AB8EE422BB7EEC00AB8EE80
:1011E000444BB7EEC11A02EE030B04EE031BB7EE3D
:1011F000C00BB7EEC11B85ED000A84ED001A00207C
:1012000003B0F0BD00BF00BF9A9999999999B93F71
:1012100010B540F20044C5F60204206820F040708A
:101220002060206840F08070206020464FF480519C
:10123000002200F0A1F9142005F00EF920464FF429
:101240008051012200F098F91E20BDE8104005F001
:1012500037B90000000000007047000000000000E7
:101260002DE9F0412DED028B84B040F60048C5F623
:10127000020842F65066C2F200469FED118B0DF156
:101280000E07002408F5805596ED000B30EE080B94
:1012900086ED000BCDE900470020002100224FF42D
:1012A000C87302F0D9FB4046802100F061F928465E
:1012B0004FF4807100F05CF9E6E700BF00BF00BFAB
:1012C00000000040E17A843F10B390F83510022905
:1012D0001CD101684FF6F072CBF6FD721144B1F5E6
:1012E000956F18D8042180F8351001680F22C4F2D8
:1012F0000202914252D940F2B942C4F20202914232
:101300004CD2086820F0010008604CE08021416563
:1013100001210846704701680A6822F00E020A603F
:10132000D0F800C040F2B943C4F202039C450B461A
:1013300038BF63460F22C4F20202944598BF0B46A1
:10134000196821F001011960016E0A6822F48072A7
:101350000A60C26D012101FA02F245F20443C5F6AA
:1013600002031A60D0E919235360C26E002A1FBF1E
:10137000136823F480731360D0E91C2318BF5360F3
:1013800080F83510002180F83410026D22B180B54C
:1013900090470021BDE8804008467047006801681A
:1013A00021F00101016000210846704700000000A3
:1013B00040F22040C5F60000016841F001010160E3
:1013C00070470000000000002DE9F04F83B042F2AA
:1013D0000042C5F602020A23904208BF0923019386
:1013E00000F1264202F1FF724FEAB222009200227F
:1013F00040F2040CC5F6000C4FF0010E00274FF030
:10140000000809E00232043708F10108B8F1100FB2
:1014100004BF03B0BDE8F08F0EFA08FA0E6816EAB2
:101420000A09EFD04E6846F01006122E12D107F0CE
:101430001C060F2303FA06F44FF6FC73C7F6FF737E
:1014400003EA580303441D6A25EA04040D69B54004
:101450002C431C620323934004689C43D1F804B0DE
:101460000BF0030595402C430460DE43BBF1120FE3
:1014700015D80EFA0BF313F0061F1FBF8368334015
:10148000CC6894401FBF23438360CBF3001303FA5F
:1014900008F31FBF446824EA0A0423434360C36877
:1014A00033408C6894402343C3605FEACB03A9D5E3
:1014B00044F2F443C5F602031C461B6843F00203E2
:1014C0002360236803F002030293029B28F00303C6
:1014D00040F20844C5F60004A3461C5907F00C0569
:1014E0000F26AE4024EA060A009C092C019E38BF54
:1014F000264606FA05F545EA0A0443F80B40DCF8EF
:101500007C3043EA09044D6815F4803F08BF23EAA4
:101510000904CCF87C40DCF8803043EA090415F477
:10152000003F08BF23EA0904CCF880404FF0B046E2
:10153000336843EA090415F4801F08BF23EA09044D
:101540003460DCF8003043EA090415F4001F08BFDA
:1015500023EA0904CCF8004054E700000000000032
:101560000069084018BF012070470000000000001B
:101570004269514041617047002A0CBF4183018399
:10158000704700000000000042F6B460C2F2004064
:10159000006870470000000040F20800C2F20040FE
:1015A000007842F6B461C2F200410A681044086053
:1015B000704700000000000080B5032000F04CF8E8
:1015C0000F2000F009F800281CBF012080BD00F0AA
:1015D0002BF8002080BD0000B0B5044640F20800A2
:1015E000C2F2004000784FF47A71B1FBF0F040F2A3
:1015F0000001C2F200410968B1FBF0F000F0D8FD33
:1016000001250F2C0CD858B900254FF0FF3021468A
:10161000002200F011F840F20C00C2F20040046019
:101620002846B0BD00000000704700000000000028
:1016300004F0D6BE0000000070B514460D46064604
:1016400004F0DEFE2946224601F082F901463046CA
:10165000BDE8704004F0DCBE04F0EEBE0000000007
:1016600080B500F095FA44F21841C5F60201096808
:101670004FF4807292FAA2F2B2FA82F201F470612F
:10168000D14046F65C72C0F60002515CC84040F2A0
:101690000001C2F20041086080BD000000000000AF
:1016A00080B500F029FA44F22041C5F6020109682C
:1016B000102292FAA2F2B2FA82F201F07001D14045
:1016C00046F65C72C0F60002515CC84080BD000066
:1016D00080B544F2384CC5F6020C5CF8102C5CF86E
:1016E00010EC5CF80C3C03F01003DCF80410C1F3C0
:1016F000CC0111FB03F102F00303CEF3053200EE3F
:10170000101AB8EE400A022B0FD09BB95CF8381CB7
:1017100049F20003C0F2D03311F0200F1EBF5CF875
:10172000381CC1F3C101CB4008E047F64003C0F2CA
:101730007D1303E040F60013C0F23D03DCF8001017
:101740006FF35F2101EE101A9FED1F2AB3FBF2F138
:10175000DCF80020B8EE411AC2F34622B7EE003A98
:1017600004EE101A00EE021A511CB8EE440A31EED3
:10177000031A02EE101AB8EE422A21EE000A80EE99
:10178000021ABCEEC11A80ED001ADCF80010C1F399
:101790000641013101EE101AB8EE411A80EE011A2D
:1017A000BCEEC11A80ED011ADCF80010C1F306612D
:1017B000013101EE101AB8EE411A80EE010ABCEEBA
:1017C000C00A80ED020A80BD000000390000000060
:1017D00080B544F2404CC5F6020C5CF8182C5CF85D
:1017E00018EC5CF8143C03F48073DCF80410C1F3CB
:1017F000CC0111FB03F102F00303CEF3055200EE1E
:10180000101AB8EE400A022B0FD09BB95CF8401CAE
:1018100049F20003C0F2D03311F0200F1EBF5CF874
:10182000401CC1F3C101CB4008E047F64003C0F2C1
:101830007D1303E040F60013C0F23D03DCF8001016
:101840006FF35F2101EE101A9FED1F2AB3FBF2F137
:10185000DCF80020B8EE411AC2F34622B7EE003A97
:1018600004EE101A00EE021A511CB8EE440A31EED2
:10187000031A02EE101AB8EE422A21EE000A80EE98
:10188000021ABCEEC11A80ED001ADCF80010C1F398
:101890000641013101EE101AB8EE411A80EE011A2C
:1018A000BCEEC11A80ED011ADCF80010C1F306612C
:1018B000013101EE101AB8EE411A80EE010ABCEEB9
:1018C000C00A80ED020A80BD00000039000000005F
:1018D0002DE9F04381B00D46044642F20008C5F2FE
:1018E0000028D8F8000000F0070088420CD2D8F891
:1018F000000020F007002843C8F80000D8F80000D6
:1019000000F00700A84260D1206844F21047C5F6F5
:10191000020710F0020F05D0B968E26821F00F014C
:101920001143B960C0073ED1D8F8000000F00700AD
:10193000A8420CD9D8F8000020F007002843C8F8C6
:101940000000D8F8000000F00700A84258D1206835
:1019500010F0040F3BD1010741D4C10647D48006E3
:1019600005D53869E16920F070000843386100F05E
:101970000FF9B9684FF4807292FAA2F2B2FA82F2C9
:1019800001F47061D14046F65C72C0F60002515C11
:10199000C84040F20001C2F2004108600F20FFF78A
:1019A0001BFE0020A3E0B868A16820F47060084323
:1019B000B8606068032825D002282AD157F8101C87
:1019C00011F4003F31D1012091E001208FE0B9688E
:1019D000226921F070011143B9600107BDD5F96892
:1019E000626921F070011143F960C106B7D5F96849
:1019F000A26921F4E0611143F9608006B1D4B6E731
:101A0000012074E057F8101C11F0007F0DD1012067
:101A10006DE057F8101C012803D1C90505D4012039
:101A200065E0490701D4012061E0396821F0070130
:101A300008433860FFF7A8FD06466068012816D005
:101A4000032828D002283AD1386800F0380010283E
:101A50003FF46AAF41F28839FFF796FD801B484595
:101A600040D8386800F038001028F5D15CE73868B5
:101A700000F0380008283FF457AF41F2883900BF22
:101A8000FFF782FD801B48452ED8386800F03800EB
:101A90000828F5D148E7386800F0380018283FF4E6
:101AA00043AF41F2883900BFFFF76EFD801B484508
:101AB0001CD8386800F038001828F5D134E73868A9
:101AC00010F0380F3FF430AF41F28839FFF75CFD7A
:101AD000801B484504D8386810F0380FF6D123E74A
:101AE000032004E0032002E0032000E00320C0B252
:101AF00001B0BDE8F083000080B5FFF7B1FD44F20E
:101B00001841C5F602010968012292FAA2F2B2FA5E
:101B100082F201F00F01D14046F65C72C0F600027D
:101B2000515CC84040F20401C2F20041086080BD2F
:101B300080B5FFF7E1FF44F21C41C5F602010968D8
:101B4000102292FAA2F2B2FA82F201F07001D140B0
:101B500046F65C72C0F60002515CC84080BD0000D1
:101B600080B5FFF7C9FF44F21C41C5F602010968C0
:101B70004FF4807292FAA2F2B2FA82F201F4E061BA
:101B8000D14046F65C72C0F60002515CC84080BD90
:101B900044F20041C5F602010869C0F3C20240F6F2
:101BA0000010C0F23D00032A17D0022A02BF47F6F8
:101BB0004000C0F27D107047002A18BF70470A68C5
:101BC00049F20000C0F2D03012F0200F1FBF0968A8
:101BD000C1F3C101C8407047704780B5D1F828E013
:101BE000D1F828C0CB6A4A6B03F001035B4203EAD9
:101BF000D2026FF35F320EF0030300EE102ACCF333
:101C00000512B8EE400A022BBDE880400DD083B922
:101C10000B6849F20000C0F2D03013F0200F1EBF55
:101C20000B68C3F3C103D84003E047F64000C0F29D
:101C30007D100B6B6FF35F2301EE103A9FED102ABE
:101C4000B0FBF2F0096BB8EE411AC1F34621B7EED2
:101C5000003A04EE100A00EE021A481CB8EE440ADC
:101C600031EE031A02EE100AB8EE422A21EE000A03
:101C700080EE020ABCEEC00A10EE100A704700BFE8
:101C80000000003900000000F0B581B00446007883
:101C9000C00744F20046C5F602065FD0306900F086
:101CA0003800102808D1306810F4003F56D0606822
:101CB000002853D10120D3E1306900F03800182802
:101CC00004D1B06A00F003000228ECD0606868B16B
:101CD000B0F5803F06D03168B0F5A02F23D141F494
:101CE00080203060306840F4803022E0306820F49A
:101CF00080303060306820F480203060FFF744FC92
:101D00000546306810F4003F28D041F2883700BF04
:101D1000FFF73AFC401BB84200F22F82306810F403
:101D2000003FF5D11AE021F480303060306820F4B3
:101D300080203060FFF728FC0546306810F4003F33
:101D40000CD141F2883700BFFFF71EFC401BB842A0
:101D500000F26081306810F4003FF5D020788007F1
:101D600065D5306910F0380F1FD0306900F03800A9
:101D7000182804BFB06A10F0030F16D0E06831686D
:101D8000002843D021F0190108433060FFF7FCFB25
:101D9000054600BF306810F0040F29D1FFF7F4FBAF
:101DA000401B0228F6D903205AE1306810F0040FD6
:101DB00003D0E068002800F02B813068E16820F053
:101DC000190008433060FFF7DFFB0546306810F06C
:101DD000040F06D1FFF7D8FB401B0228F6D90320D9
:101DE0003EE1706821694FF47C3292FAA2F205E07C
:101DF000706821694FF47C3292FAA2F2B2FA82F250
:101E0000914020F47C300843706010E021F0010024
:101E10003060FFF7B9FB0546306810F0040F06D0BC
:101E2000FFF7B2FB401B0228F6D9032018E1207807
:101E3000C00641D5306900F03800082809D0306963
:101E400000F03800182813D1B06A00F00300012810
:101E50000ED1306810F4807F1CBFE069802840F00C
:101E6000D5807068216A4FF0F84292FAA2F21CE025
:101E7000E1693068002900F0B68040F080003060F1
:101E8000FFF782FB054600BF306810F4807F06D163
:101E9000FFF77AFB401B0228F6D90320E0E07068C8
:101EA000216A4FF0F84292FAA2F2B2FA82F291401D
:101EB00020F0F840084370602078000725D561695C
:101EC000706F81B140F001007067FFF75DFB054660
:101ED000706F10F0020F18D1FFF756FB401B02285D
:101EE000F6D90320BCE020F001007067FFF74CFB3F
:101EF000054600BF706F10F0020F06D0FFF744FBDD
:101F0000401B0228F6D90320AAE02078800626D5B7
:101F1000A169306889B140F480503060FFF734FB2C
:101F2000054600BF306810F4005F18D1FFF72CFBA6
:101F3000401B0228F6D9032092E020F48050306044
:101F4000FFF722FB054600BF306810F4005F06D0A3
:101F5000FFF71AFB401B0228F6D9032080E0207807
:101F6000400773D5D6F8000440F48070C6F800042A
:101F7000FFF70AFB054600BFD6F8000410F4807F87
:101F800006D1FFF701FB401B6428F5D9032067E069
:101F9000A06858B1012805D0316F05283CD141F027
:101FA00004003067306F40F001003BE0306F20F0FC
:101FB00001003067306F20F004003067FFF7E4FA6B
:101FC0000546306F10F0020F40D041F2883700BF55
:101FD000FFF7DAFA401BB84200F2D180306F10F000
:101FE000020FF5D132E020F080003060FFF7CCFA2C
:101FF000054600BF306810F4807F3FF45DAFFFF707
:10200000C3FA401B0228F5D9032029E0012027E06C
:10201000012025E0032023E021F001003067306F2C
:1020200020F004003067FFF7AFFA0546306F10F07C
:10203000020F0BD141F28837FFF7A6FA401BB842D6
:1020400000F29780306F10F0020FF5D0676A37B159
:10205000306900F03800182805D1012000E0002088
:10206000C0B201B0F0BD306820F080703060FFF782
:102070008BFA0546306800F00070022F6BD140B13A
:10208000FFF782FA401B02287BD8306810F0007FEF
:10209000F6D1B06A40F2F3318843D4E90A1208431A
:1020A00040EA0210B06204F130030FCB7F324FF4EC
:1020B000FE0707EA024200F2FF106FF35F207F3154
:1020C000490289B20843104303F17F014FF0FE42F9
:1020D00002EA016108433063706B4FF6F871884380
:1020E000A26C91FAA1F1B1FA81F102FA01F108436F
:1020F0007063F06A216C20F00C000843F062F06A13
:10210000616C20F002000843F062F06A40F4803015
:10211000F062F06A40F40030F062F06A40F480202F
:10212000F062F06A40F00100F062306840F08070C8
:102130003060FFF729FA0446306810F0007F1AD1AA
:10214000FFF722FA001B02281FD83168002011F087
:10215000007FF5D084E708B9002081E7FFF714FA83
:10216000401B03280FD23168002011F0007FF5D109
:1021700076E7032074E7002072E7032070E703206E
:102180006EE703206CE703206AE7032068E700009E
:102190004EF21001CEF200010A6822F00403042876
:1021A00008BF42F004030B6070470000000000000D
:1021B00003F0E6B9000000007047000000000000D6
:1021C0007047000000000000B0B504460168CA690D
:1021D000D1F800C08D6812F00F0F58D00120C1F265
:1021E000000028400CF4907318435ED0D0071FBF46
:1021F0001CF4807001200862E06F1CBF40F00100F9
:10220000E06705F00100930708D500281FBF0223EF
:102210000B62E36F43F0040318BFE367530708D56D
:1022200000281FBF04230B62E36F43F0020318BFB3
:10223000E36713070ED50CF0200E05F0805343EA38
:102240000E0318431FBF08200862E06F40F008002B
:1022500018BFE067E06F00287AD0900608D50CF030
:10226000200005F0805108431CBF204603F048FBC6
:10227000E06F10F0080F37D12068806810F0400F31
:1022800032D12046FFF79CFF0020E067B0BD9006EA
:102290000BD50CF0200E05F0805050EA0E0004D053
:1022A0002046BDE8B04003F02BBBD0020FD515F49B
:1022B00080000CD04FF480100862202084F8790050
:1022C00084F87A002046BDE8B040FFF775BF1006DD
:1022D00027D50CF0800005F40003184321D02046D8
:1022E000BDE8B04003F07CBF204603F0EDFA206863
:1022F000816811F0400F1DD0816821F0400181609C
:10230000606FB8B145F6B901C0F600010165FEF78E
:10231000DBFF002808BFB0BD606F016DBDE8B040B5
:10232000084702EA0C00400609D52046BDE8B04047
:1023300003F0DABA2046BDE8B040FFF741BF100213
:1023400006D51CF080401EBF086820F08040086061
:10235000B0BD00000000000010B50446A8B194F81C
:10236000790028B9002084F87800204600F028F889
:10237000242084F879002068016821F001010160BF
:10238000204603F0F9FA012801D1012010BD606B4D
:1023900000281CBF204603F0E3F92068416821F4BF
:1023A00090414160816821F02A018160016841F01B
:1023B000010101602046BDE8104003F045BA00006D
:1023C000F0B587B00546006844F20047C4F2000744
:1023D00007F54C410024C5F6020444F2E046C5F678
:1023E0000206884208D0B84231D0286807F58061DB
:1023F000884254D007B0F0BD306840F00100306032
:10240000306800F0010002900298306940F010003E
:102410003061306900F010000290029802200390B1
:102420004FF4C06102910121CDE90410072006900C
:1024300002A92046FEF7C8FF252000210022FFF751
:10244000FBF82520FFF7F4F82868B842CDD13068B2
:1024500040F001003060306800F001000190019808
:10246000B06840F40030B060B06800F40030019013
:102470000198022003900C2102910121CDE9041062
:102480000720069002A92046FEF79EFF2620012184
:102490000022FFF7D1F82620FFF7CAF8A5E7B068B9
:1024A00040F48020B060B06800F480200190019872
:1024B000306840F002003060306800F002000190A7
:1024C0000198022003904FF4406102910121CDE96F
:1024D00004100720069004F5806002A9FEF774FF3F
:1024E000272002210022FFF7A7F82720FFF7A0F8F6
:1024F00007B0F0BD0000000090F87A30202B0AD120
:102500000123002918BF002A01D1D8B2704790F8E2
:102510007830012B02D10223D8B2704741660121E5
:1025200080F87810A0F86820A0F86A20816851B17E
:10253000B1F1805F0BD0B1F5805F0FD1016921B996
:1025400040F2FF1108E0016929B9FF2104E00169A7
:1025500009B13F2100E07F21A0F86C100021C16784
:1025600080F87810222180F87A100068816841F0A4
:10257000010181600268016812F0005F05D141F439
:10258000907101600023D8B2704741F480710160FE
:10259000816841F0805181600023D8B2704700000B
:1025A000B0B542F6B364C2F200442078D8B142F626
:1025B000AC65C2F20045297942F64F50C2F20040A4
:1025C00003F0EAFEA978EA7842EA0121814204BFD9
:1025D00036A0FDF7C3FF42F6B260C2F20040002110
:1025E0000170217055E042F6B265C2F200452878CC
:1025F000012807D098B942F64F51C2F2004109783C
:10260000A9BB06E042F64F51C2F200410978012908
:102610002DD142F6AC62C2F20042115437E00528D7
:1026200025D842F64F51C2F200410A7842F6AC6119
:10263000C2F200410A54052829D10020002200BF1F
:102640000B5C1A44D2B201300528F9D14879904286
:102650000DD10A7942F6CC40C2F2004042F64F5109
:10266000C2F20041FFF748FF012020700CE000207B
:10267000207042F6CC40C2F2004042F64F51C2F206
:1026800000410122FFF738FF00202870B0BD013063
:10269000287042F6CC40C2F2004042F64F51C2F2DE
:1026A00000410122FFF728FFB0BD00BF72656365DE
:1026B0006976652066696E69736865640D0000005F
:1026C0007047000000000000FEE70000000000006E
:1026D00080B5FEF785FCFEF76FFF02F07DFF4FF43B
:1026E000C87003F01DF84FF4E13003F019FE4FF409
:1026F000E13003F035FEBDE8804000F075B8000021
:102700002DE9F04F85B00DF1120A4FF0000BCDE925
:1027100000BA0020002100224FF47A7301F09CF9E6
:102720000DF1080808F1040540F60006C5F602069A
:10273000FEF7AEFC074606F580540FF2580912E08A
:1027400040462946FEF714FD9DED020A9DED031A51
:10275000B7EEC11AB7EEC00A8DED001B53EC102B7B
:102760004846FDF7BBFECDE900BA0020002100225B
:102770004FF4167301F070F930464FF40051FEF734
:10278000F7FE20464FF48061FEF7F2FE002FEAD1FB
:10279000D6E700BF74656D702025662C68756D697D
:1027A0002025660D0A000000F0B583B040F2004419
:1027B000C5F602040DF10A06002704F5006500BF06
:1027C000CDE900760020002100224FF4FA7301F0D9
:1027D00043F920460221FEF7CBFE28460821FEF7EA
:1027E000C7FEEDE700000000B0B586B044F2E0405F
:1027F000C5F60200016841F002010160016801F0C4
:10280000020101910199016841F004010160016830
:1028100001F0040101910199016841F00801016092
:10282000016801F0080101910199016841F040013E
:102830000160016801F0400101910199016841F0D6
:1028400080010160006800F0800001900198012083
:10285000CDE90200032004900220019040F20045DF
:10286000C5F6020501AC28462146FEF7ADFD4FF442
:102870000050019005F580602146FEF7A5FD8820F7
:10288000019005F500602146FEF79EFD4FF4806043
:10289000019005F5A0502146FEF796FD4FF480709B
:1028A000019005F5C0502146FEF78EFD06B0B0BD83
:1028B000FEE70000000000000A460021AFF30080A0
:1028C0002DE9F04115460C4606460027042000BFBE
:1028D00044EA07270138FBD116F0030818BF002D82
:1028E00018D1042D0BD3291F21F00302B018043096
:1028F00046F8047B043D032DFAD88D1A00E03046DB
:10290000002D08BFBDE8F08129462246FDF73CFEB8
:10291000BDE8F081684266F00301814238BF01469C
:10292000494230462246FDF72FFE08F1010000BF64
:10293000013D06F10106D4D0411C04280846F7D316
:10294000CFE700000000000070470000000000001A
:1029500000F0070000F1040CC31EBCF1070F38BFE4
:10296000002380F00700042828BF04204FF0010C4A
:102970000CFA00F00138084098400CFA03F10139D4
:10298000114008437047000070470000000000003D
:1029900042F26470C2F200400068002808BF70472D
:1029A0000047000000000000B0B5044600F0BCF88D
:1029B00042F26840C2F200400025057042F2301039
:1029C000C2F20040057042F26940C2F20040057058
:1029D00042F25C50C2F20040056042F26050C2F226
:1029E0000040056042F24E10C2F20040057042F213
:1029F0004F10C2F20040057042F25010C2F2004087
:102A0000057042F27040C2F20040057046F69C70BC
:102A1000C0F6000000684CF6CD41CCF6CC41A0FBDE
:102A20000101C80842F26C41C2F20041086046F65A
:102A30007070C0F60000016849B146F66C70C0F6CF
:102A40000000006800281CBF8900FDF7A5FD42F2C8
:102A50007070C2F20040056042F26C70C2F2004039
:102A6000056042F27470C2F20040056042F2647088
:102A7000C2F20040056042F26870C2F20040056098
:102A800042F27870C2F20040056042F27C70C2F2FD
:102A90000040056042F26E50C2F20040057001F045
:102AA000A3FB01F0E1FB204601F092F8208898BBDF
:102AB000204601F0F9F8208870BB204601F004F9A7
:102AC000208848BB204601F0CFF9208820BB204653
:102AD00001F0BAFB2088F8B9204601F0BDFC20883F
:102AE000D0B9204601F070FF2088A8B9204601F037
:102AF0009FF8208880B9204602F0BEFA208858B995
:102B0000204601F039FE2088002818BFB0BD2046BD
:102B100002F016FB208800B1B0BD01F055F8BDE809
:102B2000B040FFF731BF000046F67070C0F60000FD
:102B3000006846F66C71C0F60001096801EB800080
:102B400020F0070042F28071C2F200410860704735
:102B500042F26840C2F200400078012818BF704776
:102B600042F23010C2F200400178F9299CBF0131D5
:102B7000017070470000000010B542F26840C2F2D8
:102B800000400078012818BF10BDFDF719FC04466D
:102B900042F23010C2F20040017899B3013901705D
:102BA00011F0FF0F2ED142F26940C2F200400078CE
:102BB00040BB01F001FB42F24F11C2F2004108702C
:102BC00000EB400042F26811C2F2004151F82000CF
:102BD00042F26051C2F20041086042F25C51C2F21E
:102BE0000041096888420DD0D0F894100131C0F836
:102BF000941042F26450C2F2004001680131016059
:102C000004F0F1F82046BDE81040FDF7DDBB000000
:102C1000F0B581B014460D460646FDF7D1FB0746D8
:102C2000FEF746F945F24D50C5F65400C6E90005D9
:102C30000025C6E9085586F82850F56206F1080017
:102C400001F0C2F9304601F0A3F842F24C10C2F292
:102C50000040018801310180FEF746F93846FDF752
:102C6000B3FB258001B0F0BD2DE9F04788B01C46CC
:102C700015460F4606460068DDF8409045F24D5176
:102C8000C5F65401884226D1002C1CBF00202060CC
:102C9000FDF796FB8046FEF70BF942F25C5AC2F252
:102CA000004ADAF8000096F82810B9B1726A90422A
:102CB00026D029B2B1F1FF3F33DD42F26941C2F2C1
:102CC00000410978A9B3FEF70FF94046FDF77CFBF8
:102CD00046F663505FE045F6C4505CE0012186F89B
:102CE00028107062002C1CBFF16A2160314601F08F
:102CF00063F8FEF7F9F84046FDF766FB00204AE06E
:102D0000FF2941D0481C86F82800002C1CBFF06A1F
:102D10002060FEF7E9F84046FDF756FB45F2827069
:102D200039E0FEF7E1F84046FDF74EFB46F2B01001
:102D300031E090F8371092F83700884284BF10468F
:102D400001F09EFD6846314604223B4601F09CF8A6
:102D5000FEF7CAF84046FDF737FB00F0DDF8FDF757
:102D60002FFB0546FEF7A4F8DAF8000090F83510BE
:102D7000032915D8DFE801F002171E25002C1CBF1F
:102D8000806C2060002022E0FEF7AEF84046FDF7A0
:102D90001BFB45F28470A9F8000008B0BDE8F0877D
:102DA00046F62E6013E0002C1CBF806C206046F2BB
:102DB000A9100CE0002C1CBF806C206045F6C250AE
:102DC00005E0002C1CBF0020206047F2D920A9F8A4
:102DD0000000FEF789F82846FDF7F6FA08B0BDE8CE
:102DE000F0870000000000002DE9F04F83B014468A
:102DF0000E460746006845F24D51C5F6540188421B
:102E000015D1FDF7DDFA8246FEF752F8786A42F2F4
:102E10005C5BC2F2004BDBF8001081420DD0FEF784
:102E200063F85046FDF7D0FA45F2817501E045F6AA
:102E3000C455258003B0BDE8F08FFEF7C9F8804681
:102E4000F86297F82800013887F8280010F0FF0F83
:102E500007D0FEF749F85046FDF7B6FA45F28375FC
:102E6000E7E7DBF80000394600F0F2FF388A002877
:102E700047D0DBF8005095F8370095F83890484572
:102E80001ED00290284600F0CFFF484588BF484634
:102E900081460298814513D9284601F075FADBF87E
:102EA000000080F83790484601F0A6F9DBF80000F2
:102EB00001F02AFA42F24E10C2F2004080F800906F
:102EC000B868D0F80890012087F82800C7F8249047
:102ED0004846394600F070FFCDF80080002538469E
:102EE00049460022002301F0EBF8FDF7FDFF5046B4
:102EF000FDF76AFA30B200289BDB00F00DF80025E0
:102F000097E7002587F828507D62FDF7EDFF5046D2
:102F1000FDF75AFA8DE7000010B542F23010C2F208
:102F20000040007842F26941C2F20041097808434A
:102F300018BF10BDFDF744FA044601F03DF942F216
:102F40004F11C2F20041087000EB400042F26811DC
:102F5000C2F2004151F8200042F26051C2F2004139
:102F6000086042F25C51C2F200410968884213D005
:102F7000D0F894100131C0F8941042F26450C2F2BB
:102F8000004001680131016003F028FF2046FDF791
:102F90001BFABFF36F8F10BD2046BDE81040FDF750
:102FA00013BA00000000000070B5044642F2684009
:102FB000C2F20040007801281EBF45F689602080DB
:102FC00070BD42F26946C2F200463078F92882BFED
:102FD00045F20920208070BDFDF7F2F90546FDF7A6
:102FE00067FF307801303070FDF77EFF2846FDF72F
:102FF000EBF90020208070BDF0B581B014460E467C
:103000000746FDF7DDF90546FDF752FF781EB0FAD9
:1030100080F0400942F27041C2F2004108705EB98E
:1030200046F69C70C0F6000000684CF6CD41CCF628
:10303000CC41A0FB0101CE0842F26C40C2F200403C
:103040000660FDF751FF2846FDF7BEF900202080FD
:1030500001B0F0BD00000000F0B581B0044642F2BE
:103060006840C2F200400078012818D142F2694657
:10307000C2F200463078A8B1FDF7A2F90546FDF787
:1030800017FF3078471E3770FDF72EFF2846FDF7F3
:103090009BF917F0FF0F08D046F6635008E045F69D
:1030A000896005E046F6645002E0FFF735FF002036
:1030B000208001B0F0BD0000B0B5044642F2684582
:1030C000C2F20045287800281EBF45F68A6020809D
:1030D000B0BD01F071F842F24F11C2F20041087028
:1030E00042F24E11C2F20041087000EB400042F281
:1030F0006811C2F2004151F820000121297042F20A
:103100005C51C2F20041086042F26051C2F20041DB
:10311000086003F025FE43F699202080B0BD000032
:10312000F0B581B00446FDF74BF90546FDF7C0FE4A
:1031300042F25850C2F200400026066042F27E4041
:10314000C2F20040068042F24C60C2F200400660CB
:1031500042F25470C2F20040066042F22C10C2F2F9
:103160000040066042F23C10C2F200400681FDF7CA
:10317000BBFE2846FDF728F9FDF722F90546FDF7C5
:1031800097FE42F26850C2F20040076811E000BFAB
:10319000C7E92466FE67C7F8B860C7F8AC60C7E93E
:1031A0002866FDF715FFC7F89C00A7F87460D7F8EC
:1031B000C070FDF799FE2846FDF706F9FDF700F906
:1031C0000546FDF775FE002FE2D142F26010C2F213
:1031D00000400668FDF788FE2846FDF7F5F87EB149
:1031E000002700BFFDF7ECF80546FDF761FEB78547
:1031F000B669FDF779FE2846FDF7E6F8002EF1D115
:103200000020208001B0F0BD2DE9F04182B00446DD
:1032100042F28C60C2F200400DF1060100F084FB26
:10322000BDF80670002F56D100260DF106020220CF
:10323000002100F0C1FBBDF80670002F4BD1FDF757
:10324000BFF80546FDF734FE42F28048C2F200485E
:10325000C8F80060FDF748FE2846FDF7B5F846F6C9
:103260009C70C0F60000006846F68871C0F6000148
:103270000968884298BF0A21B0FBF1F00DF10605FC
:1032800000212A4600F098FB42F28C60C2F2004016
:10329000294600F081F9BDF80670E7B9FDF790F80E
:1032A0000546FDF705FE42F25850C2F200400027E5
:1032B000076042F28C40C2F2004001210170D8F850
:1032C000000042F28441C2F200410860FDF70CFEAA
:1032D0002846FDF779F8278002B0BDE8F0810000AC
:1032E00042F26870C2F200400068002808BF7047D0
:1032F00000470000000000002DE9F04F89B0CDE943
:10330000072304460DF1600B9BE84009DDE9163206
:10331000DDE91479DDE912A542F26400C2F2004051
:10332000844207D0BAF13F0F04D146F27320ABF8C4
:10333000000071E0CDE9027604A80EC0204601F03D
:1033400057FB0020ABF8000008F00300032807D16A
:10335000B9F1000F04D04FEA89012846FDF71CF9A6
:10336000CDE90098029805EB800607988346089FF0
:1033700039462A46334600F02BFA84F837A084F801
:1033800038A02060A6600599A16542F26C40C2F2A7
:1033900000400068039A6260049A04F1200383E805
:1033A0002408E762C4F84090A4F844800022C4F8DE
:1033B0008020002918BF0846E06504F168000699DE
:1033C00000F0DEFC204600F02BF8FCF7F9FF054684
:1033D000FDF76EFD94F8370000F00EFF204600F078
:1033E00093FF204601F0BCFA42F26C50C2F200405A
:1033F00001880131018042F26840C2F20040047845
:10340000FDF772FD2846FCF7DFFF012C04D109B05F
:10341000BDE8F04FFFF780BD09B0BDE8F08F0000B8
:1034200042F26C71C2F200410968002908BF70477E
:1034300008470000000000002DE9F0410C46054659
:1034400042F26400C2F20040854202BF47F24C10D3
:103450002080BDE8F08175B9FCF7B2FF0646FDF7A4
:1034600027FD42F25C50C2F200400568FDF73CFDCA
:103470003046FCF7A9FFFCF7A3FF0646FDF718FD51
:1034800095F83600072842D8DFE800F04B16040410
:103490001916040495F83400062807D80121814044
:1034A00011F06A0F41D0284600F0C6FD95F83600AD
:1034B00040F00400072802D1284601F0B9FCE86B6F
:1034C00000281CBF284600F07BFC05F1680000F0D6
:1034D0003BFC284600F054F8284601F055FA42F229
:1034E0006C50C2F20040018801390180284601F089
:1034F0007FFAFF2085F83600FDF7F6FC3046FCF732
:1035000063FF00202080BDE8F041FFF705BDFDF717
:10351000EBFC3046FCF758FF46F62D602080BDE8F6
:10352000F081284600F030FFC9E70428BED1286B9F
:10353000C068476A97F83780284600F07DFD97F805
:10354000370097F8381088420CD095F83710884229
:1035500008D1384600F068FC804697F8380080456E
:1035600088BF8046002085F8340097F837008045F2
:103570009CD03846414601F083F997E700000000EF
:1035800042F27071C2F200410968002908BF704719
:10359000084700000000000070B50C460546FCF727
:1035A0000FFF0646FDF784FCFDF79EFC3046FCF756
:1035B0000BFF28462146BDE8704001F069BA0000C3
:1035C00042F27471C2F200410968002908BF7047D5
:1035D00008470000000000002DE9F04381B0984644
:1035E00015460C460746002A1CBF00202860FCF741
:1035F000E7FE0646FDF75CFC42F25C59C2F2004968
:10360000D9F80000C16CF9B14F1EC764002D1CBF72
:10361000806C2860FDF7DCFCD9F800108A6CD1F8CA
:10362000AC30801AC1F8A800834238BFC1F8AC00A2
:10363000FDF75AFC3046FCF7C7FE0020A8F8000052
:10364000384601B0BDE8F08320B2B0F1FF3F10DD95
:1036500042F26940C2F200400078A8B1FDF744FC94
:103660003046FCF7B1FE46F66350A8F8000000278C
:10367000E6E7FDF739FC3046FCF7A6FE46F2B0104F
:10368000A8F800000027DBE70020002107223B46C6
:1036900000F0FAFBFDF728FC3046FCF795FEFFF73B
:1036A0003BFCFCF78DFE0646FDF702FCD9F8000056
:1036B00090F83510032915D001291AD001BB7DB12E
:1036C000806C2860FDF784FCD9F800108A6CD1F872
:1036D000AC30801AC1F8A800834238BFC1F8AC00F2
:1036E00000200FE0002D1CBF0020286047F2D920E9
:1036F00008E0002D1CBF806C286046F2A91001E094
:1037000046F62E60A8F80000D9F80000C76CFDF757
:10371000EBFB3046FCF758FE92E70000000000008B
:1037200070B514460D460646FDF752FC024630467B
:1037300029462346BDE8704001F01EBA0000000093
:103740002DE9F04381B0984691460E460446FCF7B9
:1037500037FE0746FDF7ACFB42F25C50C2F2004078
:103760000568002C18BF2546286870B1B5F844409C
:10377000FDF7BAFB3846FCF727FE14F0010F0ED117
:103780000020306047F2541119E0FDF7ADFB3846D8
:10379000FCF71AFE0020306047F252110FE0686A11
:1037A000016809B1002006E0011D002051F8202029
:1037B0000130002AFAD03060296C081A0021C9F8BB
:1037C0000000A8F8001001B0BDE8F0830000000080
:1037D000F0B5DDF814C002EB8C0222F007024FF0C6
:1037E000807C44F6593EC0F6000E4FF012344FF084
:1037F00003354FF0023642E9073642E9055442E903
:1038000003E042F804CC4FF0113C4FF0103E4FF073
:1038100009364FF008354FF007344FF006304FF0BF
:10382000053342E90F30A2F1340383E8704042E9E6
:1038300009C14FF00431104640F8401D0699490770
:1038400058BFF0BD4FF000714FF0834042F8840C38
:103850000020C4F2400000F1DC7300F1D87642E9A8
:10386000136342F8441C00F1D47C00F1D07E00F1D7
:10387000CC7600F1C87500F1C47400F1C07100F19C
:10388000BC7300F1B87742E91B73A2F1640383E8CB
:10389000724042F850CC00F1B47142F8701C00F153
:1038A000B07142F8741C00F1AC7142F8781C00F160
:1038B000A87142F87C1C00F1A47142F8801C00F150
:1038C000987142F8881C00F1907142F88C1C00211C
:1038D00042F8C41D00F1807100F1887300F5700793
:1038E00000F5600600F5500502F1240C8CE8E000BC
:1038F000C2E90C134FF0824C00F5200300F50007DD
:1039000000F5C0064FF081454FF080444FF07E51E6
:10391000C2E9011402F10C01E1C1C2E9073C104601
:10392000F0BD00000000000042F26402C2F200425A
:10393000904218BF01F090B947F25B1008807047C1
:10394000B0B542F25C54C2F20044206890F84410D2
:10395000490744BF006803F0EDF942F26055C2F236
:103960000045286890F84410490744BF006803F0F8
:10397000EEF942F27870C2F200400068002818BFE9
:103980008047FDF725FB296822688A421FBFD2E9DC
:103990002735C31AC2F898302B4418BFC2F8A0309C
:1039A000C1F89C00FDF764FA2168D1F8B820824282
:1039B00038BFC1F8B800B0BD2DE9F04114460D463E
:1039C000074642F26940C2F20040007800281EBF5C
:1039D00046F663502080BDE8F081082D35D8DFE839
:1039E00005F0053405340C3434340500002F02BFD3
:1039F00047F27E202080BDE8F081FCF7E1FC06461E
:103A0000FDF756FA42F25C58C2F20048D8F80000BE
:103A100039462A46234601F0C3F9208830B1FDF724
:103A200063FA3046BDE8F041FCF7CEBCD8F80000A0
:103A300000F0AAFCFDF758FA3046FCF7C5FCFFF78A
:103A40006BFA00202080BDE8F08145F625602080DB
:103A5000BDE8F081000000002DE9F04142F2694725
:103A6000C2F200473F78079C002F1EBF46F6635006
:103A70002080BDE8F081069F07F00E07042686EA45
:103A80005706351F022D08D3062E0DD0002E1EBF5F
:103A900045F625602080BDE8F081002B04BF41EA97
:103AA000000656EA020635D04FF461667043C1EB5A
:103AB000011100EB8100104446F69C71C0F6000134
:103AC000096848434FF4FA72B2FBF1F21A445143C9
:103AD00044F6D352C1F26202A1FB021200EB92162D
:103AE000C6B1FCF76DFC0546FDF7E2F942F25C5801
:103AF000C2F20048D8F80000BAB23146234601F0BD
:103B00004FF9208858B1FDF7EFF92846BDE8F0419C
:103B1000FCF75ABC47F27E202080BDE8F081D8F83F
:103B2000000000F031FCFDF7DFF92846FCF74CFC03
:103B3000FFF7F2F900202080BDE8F08100000000CE
:103B400080B582B000F034F842F28450C2F20040F6
:103B50000DF106020021FFF7E3FD42F24E10C2F222
:103B60000040007800EB400042F26811C2F20041D0
:103B700001EB800000F034FC42F26070C2F20040C1
:103B800001680139016001D002B080BD42F25C7170
:103B9000C2F200410968016042F28C60C2F200404A
:103BA0000DF106020021FFF7BBFD02B080BD000051
:103BB00042F27C70C2F200400068002808BF7047E3
:103BC00000470000000000007047000000000000F7
:103BD00042F25C01C2F2004100220A8042F2580126
:103BE000C2F200410A60028070470000000000003D
:103BF00070B542F26005C2F2004542F28046C2F260
:103C0000004600BFFCF7DCFB0446FDF751F92868CD
:103C100001302860306801303060FDF765F92046DA
:103C2000FCF7D2FBFEF7B4FEECE70000000000005A
:103C300080B58AB042F26001C2F2004100220A60FF
:103C400008900B20CDE90620CDE9042246F67C70D1
:103C5000C0F600000068039046F67870C0F60000D9
:103C60000068029046F67470C0F60000006801908B
:103C70003F20009042F26400C2F2004004A143F6EB
:103C8000F132C0F600020023FFF736FB0AB080BD18
:103C900075432F4F532D4949492049646C65205481
:103CA00061736B000000000042F23811C2F2004163
:103CB00000220A8042F23411C2F200410A600280FE
:103CC000704700000000000070B546F68071C0F635
:103CD0000001D1F800C046F68471C0F60001B1F8C9
:103CE00000E0AEF101044FF6FF710C4218D0AEF1C6
:103CF000020189B20CEB011101F110030CF1080172
:103D00000022A4B2002500BF0A804A6001F1080623
:103D100041E9026210310135AEB2A642F4D300E0AF
:103D2000634600211960D9601981596042F23C1242
:103D3000C2F20042A2F804E0C2F80610C2F800C0C5
:103D4000018070BD0000000001464089002808BFC6
:103D5000704742F23C12C2F20042D2F800C00B6837
:103D6000C3F800C04B681360D3881B1AD3809388B4
:103D7000034493800022C1F80A20C1E90022704761
:103D800001810021C0F80A10C0E90011704700004D
:103D90000022426106A1C16142F24811C2F2004113
:103DA0000B68002B0EBF8261836158610860704709
:103DB0002000000000000000C26B0A62C16370476F
:103DC0002DE9F04782B08246C56B45B34FF000083D
:103DD0004FF001092C6AFDF7FBF80646E8625046F1
:103DE000294600F035F8288A90B1A8688768C5F898
:103DF00024A085F8289038462946FFF7DDFF009675
:103E0000284639460022002300F05AF904E000BF9A
:103E1000C5F8248085F82880002C2546DAD102B028
:103E2000BDE8F08700000000C16B3F2001E000BF4B
:103E3000096A002904BFC0B270478A68002AF7D017
:103E4000926892F83720C3B29A4238BF1046EFE723
:103E50003C3000BF0246036803F120008B42F9D1D9
:103E6000006810607047000042F24C11C2F200413D
:103E700000220A8042F24811C2F200410A60028028
:103E80007047000000000000F0B581B00C46054608
:103E900042F25C56C2F200463068002780F8357066
:103EA00080F83420194600F0D3FC5CB1EC60306837
:103EB0002946012200F014F804F10800294600F018
:103EC0008BF803E030680763A0F84670316820463D
:103ED00001B0BDE8F04000F023B800000000000091
:103EE00080B50163A0F84620002A08BF80BD4FF0CE
:103EF000000C4FF0000E00BFC1E904CCA1F818C0BF
:103F0000C1F81CC0C1E900CC886020310EF1010E5F
:103F10001FFA8EF39342EFD380BD00000000000033
:103F200038B14268C1F8C42081688968096AC161F2
:103F3000704791F83400072802BF07A0C1F8C400F9
:103F4000704702280EBF07A046F6DC70C0F60000DE
:103F5000C1F8C400704700BF5461736B2053656D96
:103F6000000000005461736B20510000000000004D
:103F700046F6DC72C0F60002C1F8C4208168002950
:103F80000FBFC2618968096AC16170470000000003
:103F9000F0B581B0B0F84660A6B1046B4FF6FF777C
:103FA000E068018A022909D300F108052846214664
:103FB00000F05EF82846214600F00EF8013E20345D
:103FC0003E42EDD101B0F0BD0021C0E900110181F8
:103FD0007047000000000000028922B38B6893F84C
:103FE00037C001320281026812B914E0526892B1FE
:103FF000936893F837309C45F8D21368002B1FBFA5
:10400000C1E9003259601160704711600023C1E9B5
:1040100000320160704700224A6050F8042F0A60A5
:10402000516001607047012202810022C1E9002233
:10403000016040F8041F7047F0B581B00446B0F845
:10404000466066B1256B4FF6FF7700BFE868083021
:10405000294600F00DF8013E20353E42F6D1002001
:104060002063A4F8460001B0F0BD0000000000008D
:1040700080B50289012A03D10023C0E9003317E08B
:10408000D1E900ECBEF1000F07D0BCF1000F0AD05F
:10409000CEF804C0CCF800E00AE00023CCF80030F1
:1040A000C0F800C004E00023CEF80430C0F804E0FB
:1040B000013A02810020C1E9000080BD000000003B
:1040C000B0B582B00C46054691F83610881FDDF871
:1040D00018C002280ED3881E012849D894F834004D
:1040E000032813D1CDF800C02846214600F044F83B
:1040F00095B918E094F83400032820D1CDF800C019
:104100002846214600F038F8FDB925E0A4F86430CF
:104110002266C4F848C035B12046FFF78DFF284617
:104120002146FFF725FF94F83600032804BF2046F8
:1041300000F07EFE204600F0A7F8002014E0A4F86E
:1041400064302266C4F848C035B12046FFF774FFDA
:1041500028462146FFF70CFF94F83600072804BFD5
:10416000204600F065FE042084F836000020A0867A
:1041700002B0B0BD00000000B0B5B1F846C0BCF15F
:10418000000F08BFB0BDDDF810E0096B10314FF62D
:10419000FF7400BF51F8045C854206D02031ACF1B9
:1041A000010C1CEA040FF5D1B0BDC1E900020B817E
:1041B000C1F80CE0B0BD000010B542F25811C2F2D7
:1041C0000041086808B1002409E00431002400BF60
:1041D00051F8040B04F12002D4B20028F8D0FCF707
:1041E000FAF82044C0B210BD42F25810C2F20040AA
:1041F0000021C0E900117047C0F3421142F2581C7F
:10420000C2F2004C5CF821301F2222EA0000012299
:1042100002FA00F018434CF821007047000000003B
:10422000C0F3421142F2581CC2F2004C5CF821303B
:104230001F2222EA0000012202FA00F023EA000015
:104240004CF821007047000042F26411C2F20041B4
:1042500000220A8042F26011C2F200410A6002802C
:104260007047000000000000002042F26811C2F216
:104270000041002288508B18188158600C32B2F52A
:10428000407FF7D17047000010B5044690F8370022
:10429000FFF7B2FF42F24E10C2F20040007894F8ED
:1042A0003710814204D12046BDE8104000F02CB800
:1042B0002046BDE8104000F003B8000000000000F8
:1042C00090F8371001EB410142F26812C2F200424D
:1042D00002EB81010A4632F8083F4BB101331380EB
:1042E0000A680023C0E903230A6810610860704768
:1042F000012313800022C0E90322086041F8040F63
:10430000704700000000000090F8371001EB4101F9
:1043100042F26812C2F2004202EB81010A4632F810
:10432000083F4BB1013313800022C26051F8042FC3
:104330000261D06008607047012313800022C0E949
:10434000032241F8040B08607047000000000000E1
:104350000189022938BF704709D1D0E90012002332
:10436000C1E90332C2E90313C0E900217047D0E973
:104370000012CB684FF0000CC3F810C0C1E903C2B3
:10438000D160C0E90031704710B5044690F837009D
:1043900000EB400142F26812C2F2004202EB8101DE
:1043A000D4E9032343B1088901380881DA60002A7F
:1043B00014BF13614B600FE001F1080332B118889C
:1043C00001381880002010610A6005E000221A8080
:1043D000C1E90022FFF724FF0020C4E9030010BD5B
:1043E000B0B5054642F27040C2F2004000780128A4
:1043F00018BFB0BDFBF7E4FF0446FCF759FD286881
:1044000008B342F26401C2F2004188421BD0C16D80
:1044100011B10139C16516D12889012813D942F299
:104420006940C2F20040007868B92846FFF790FF63
:1044300042F26C40C2F20040006829688A6D002A8E
:1044400018BF1046C865FCF74FFD2046BDE8B040D8
:10445000FBF7BABF0000000042F27841C2F200410F
:1044600000220A8042F27441C2F200410A600280D6
:1044700070470000000000002DE9F04F83B042F2C9
:104480008C46C2F20046307801280FD046F688707C
:10449000C0F60000006844000DF10A052046002126
:1044A0002A46FFF789FA30780128F7D10DF10A047E
:1044B0002046FEF735FE46F69C70C0F60000006808
:1044C00046F68871C0F600010968884298BF0A2143
:1044D000B0FBF1F000904FF0000942F2107842F288
:1044E0006856C2F2004614E0FCF772FD0199401ACA
:1044F00042F25851C2F20041096881423EBF42F285
:104500005851C2F200410860009800212246FFF78E
:1045100053FAFCF75DFD0190FCF7BAFC42F22C1156
:10452000C2F200410860FBF74BFF0746FCF7C0FCF6
:1045300042F28040C2F2004001460068C1F800909B
:1045400042F28841C2F200410D460860FCF7CCFC03
:104550003846FBF739FF286842F28441C2F2004135
:10456000096881420AD941F68022C0F206029142CE
:104570000CD2012242F210732AE000BF42F27C40CA
:10458000C2F20040A0F800903BE000BF40F60012ED
:10459000C0F23D02914203D20A224FF47A7317E02F
:1045A00045F60022C0F26222914202D264236422C4
:1045B0000EE048F20042C1F2D772914242F210720C
:1045C00038BF4FF47A724FF0010338BF0A2300BF9F
:1045D000B1FBF2F15843B0FBF1F0A8EB000042F25E
:1045E0007C41C2F20041088081B242F27E42C2F2B6
:1045F000004212888A423EBF42F27E41C2F200412E
:104600000880FEF76DFEFBF7DBFE0746FCF750FC6B
:104610003668FCF769FC3846FBF7D6FE86B3002502
:10462000FBF7CEFE0746FCF743FCD6F8A000C6E930
:104630002890FCF759FC3846FBF7C6FED6F8A44094
:10464000FBF7BEFE0746FCF733FCD6F8C060FCF76C
:104650004BFC3846FBF7B8FE2544002EE0D1ADB147
:1046600041F68020C0F2060085420DF10A0442F2B4
:104670006856C2F2004614D2012042F2107B33E0A9
:104680004FF0010A4FF0000B06E000BF4FF0010AA7
:104690004FF0000B0DF10A0442F26856C2F20046D8
:1046A00024E040F60010C0F23D00854203D20A200B
:1046B0004FF47A7B18E045F60020C0F26220854274
:1046C00003D24FF0640B64200EE048F20040C1F2C8
:1046D000D770854242F2107038BF4FF47A704FF0B5
:1046E000010B38BF4FF00A0BB5FBF0FAFBF768FE81
:1046F0000546FCF7DDFB376823E000BFD7F8A400D0
:1047000000FB0BF0B0FBFAF081B2414588BF42F2EA
:104710001070A7F8900081B2B7F892208A4238BF93
:10472000A7F8920007F1B40107F1B002384623461A
:10473000FFF706F8FBF744FE0546FCF7B9FBD7F890
:10474000C070FCF7D1FB2846FBF73EFE002FD5D109
:1047500042F27A40C2F20040007801287FF4C4AEF1
:1047600042F27A40C2F2004080F800902046FEF704
:10477000D7FCB9E60000000042F28841C2F20041D5
:1047800000220A6042F28041C2F200410A6042F215
:104790008441C2F200410A6042F28C41C2F20041FF
:1047A0000A7042F27A41C2F200410A7046F68C71F8
:1047B000C0F600010968002902BF46F62B6101809E
:1047C000704746F69472C0F60002126846F6987377
:1047D000C0F600031B689A423EBF46F62C6101807A
:1047E000704746F68673C0F600031B783F2B22BF46
:1047F00046F62A610180704780B58AB00890032090
:1048000007900020CDE90500CDE90320CDE9003176
:1048100046F69070C0F600000068029042F29040A8
:10482000C2F2004004A144F27942C0F60002002323
:10483000FEF762FD0AB080BD75432F4F532D4949E5
:10484000492053746174205461736B0000000000B0
:1048500010B50A46044641B142F27C50C2F2004013
:10486000214600F059FA032000E0022084F83600C7
:104870002046BDE81040FFF787BD000000000000A3
:10488000F0B581B00D460446012600BF94F836000D
:1048900007282CD806FA00F111F0CC0F39D094F883
:1048A000377084F8375094F83400042821D120461A
:1048B000FFF76EFB206BC068446A94F83700E9B2DA
:1048C0008F4203D9884210D811E000BFB8420CD102
:1048D0002046FFF7A9FA054694F8370094F83810F7
:1048E0008D4288BF0D46854201D0002CCED101B04B
:1048F000F0BD0628FBD8012101FA00F010F06A0F84
:104900001FBF204601B0BDE8F040FFF741BB01B03A
:10491000F0BD012101FA00F010F0320F1EBF84F843
:10492000375001B0F0BD2046FFF72EFD84F8375018
:10493000E8B2FFF761FC42F25C50C2F2004000684E
:10494000844205D0204601B0BDE8F040FFF7DCBC52
:10495000204601B0BDE8F040FFF7B2BC0000000007
:104960000022C0F8BC2042F26851C2F200410B683C
:10497000002B0EBFC0F8C020C0F8C030C3F8BC0088
:10498000086070470000000050F8BC3F014651F835
:10499000042F33B16AB1C3F8C020C2F8BC300A4654
:1049A00009E042F26850C2F20040026032B1BC320B
:1049B00002E003F1C0020146002010600020086000
:1049C000704700000000000042F26451C2F2004152
:1049D00000220A6042F26C51C2F200410A8042F2A7
:1049E0006851C2F200410A60028070470000000076
:1049F000B0B504460025C0E90055C0E90255C0E93C
:104A00000455C0E906551EA0A4F84650A5642566C5
:104A1000A4F86450C4E90805C4E90A55256304F103
:104A200068000021FFF7ACF9A4F844502564C4E9FC
:104A30001355C4E91555E56584F88E50A4F88C50DB
:104A4000C4E91E55C4E92055C4F88850C4E924556A
:104A5000C4F89850C4E92A55C4E92C55FCF7B8FAB3
:104A6000C4E927054FF080406063402084F8380097
:104A7000E56305A0C4E92E55C4E93050B0BD00BFC0
:104A80003F5461736B000000200000000000000034
:104A900070B50E460546FBF793FC0446FCF708FA92
:104AA0000020308095F83600072811D8DFE800F0A4
:104AB0000404040419283440FCF716FA2046FBF7D6
:104AC00083FC47F253103080BDE87040FEF724BAF3
:104AD000FCF70AFA2046FBF777FC46F62D6030809B
:104AE00070BD95F88E00013885F88E0010F0FF0F2C
:104AF00029D1002085F836002846FFF7C5FB22E0C3
:104B000095F88E00013885F88E0010F0FF0F04BF75
:104B1000012085F8360016E095F88E00013885F8FA
:104B20008E0010F0FF0F04BF022085F836000AE067
:104B300095F88E00013885F88E0010F0FF0F04BF45
:104B4000032085F83600FCF7CFF92046FBF73CFC44
:104B5000BDE87040FEF7E0B980B582B042F25C502B
:104B6000C2F200400068FEF72BFD0DF106010020A7
:104B7000FEF762FC02B080BD2DE9F04381B01D4616
:104B8000164688460446FBF71BFC8146FCF790F965
:104B900042F25C50C2F200400768002C18BF274662
:104BA000BE640020288097F8360007283BD80121F2
:104BB00001FA00F010F0330F09D0F86C461C28D031
:104BC000FE64FCF791F94846FBF7FEFB3EE097F8E0
:104BD0003400072813D10096002039460022002314
:104BE000FFF76EFAFE6CFCF77FF94846FBF7ECFB2B
:104BF0000FFA88F0002829DBFEF78EF926E0F86C22
:104C0000461C1AD0FE64FCF76FF94846FBF7DCFB44
:104C10001CE0FCF769F94846FBF7D6FB46F6C550A1
:104C20002880002612E0FCF75FF94846FBF7CCFB32
:104C300046F62D602880002608E0FCF755F9484626
:104C4000FBF7C2FB46F6C55028800026304601B06F
:104C5000BDE8F0830000000070B50E460546FBF786
:104C6000AFFB0446FCF724F942F25C50C2F200406C
:104C70000068002D08BF054685420ED142F269400A
:104C8000C2F20040007840B1FCF72EF92046FBF755
:104C90009BFB46F66350308070BD0020308095F855
:104CA000360007280BD8DFE800F0131D2227040484
:104CB000040495F88E00013085F88E0022E0FCF7A0
:104CC00013F92046FBF780FB46F62D60308070BD5F
:104CD000012085F88E00042085F836002846FFF76D
:104CE00053FB0FE0012085F88E00052008E001202D
:104CF00085F88E00062003E0012085F88E0007204D
:104D000085F83600FCF7F0F82046FBF75DFBBDE8C0
:104D10007040FEF701B9000080B503688BB100BF99
:104D20009C461B6D9A4215D9D21ADCF81430002B20
:104D3000F6D10A650022C1E9052CC861CCF814102F
:104D400027E000230A65C1E90533C861012282809A
:104D5000016080BDDCF818E00A65BEF1000F0CD0E0
:104D6000C1E905CEC861CCF81810DCF850309A1AA9
:104D7000CCF85020CEF814100BE00023C1E905C395
:104D8000C861CCF81810DCF850309A1ACCF85020D2
:104D9000016081880131818080BD00000000000039
:104DA00070B51E460B460146082A0CD0042A16D1BF
:104DB00042F27050C2F2004000681B1A581E10F5F3
:104DC000803F27D30CE04A6D42F27050C2F200409F
:104DD0000068841A9C4206D9184448651AE0CBB989
:104DE000002008650FE0A3EB040CACF1010515F5FC
:104DF000803F0CD30022B4FBF3F505FB13451844A8
:104E0000401BC1E9142047F27E20308070BDD018CD
:104E100048656346012081F8360042F27450C2F2C0
:104E200000401A46FFF778FF0020308070BD000078
:104E3000D0E90523C16983B15A61002A1FBF93617C
:104E4000D2F850C0036D634418BF1365002282611D
:104E50008B88013B8B80426116E092B180B54FF0A8
:104E6000000CC2F818C0D2F850E0036D734413650B
:104E70000A608A88013A8A80C0F814C0BDE8804080
:104E800002E000228A800A600021C161016570474A
:104E90002DE9F047FBF794FA8046FCF709F8FCF798
:104EA00097F8814642F27457C2F200473E6836B323
:104EB000306D013830654FF000054FF0000422D10D
:104EC0004FF0040A002400BF013496F8360005288C
:104ED00008D0012808D186F836503046FFF7D4F9BB
:104EE00002E000BF86F836A076693E604EB1B88811
:104EF0000138B880B561306D0028E5D003E00024AA
:104F000001E00020B880FC80FCF762F80646FBF761
:104F1000EBFF4046FBF758FAA6EB0900BDE8F08727
:104F20002DE9F04F81B0FBF74BFA8046FBF7C0FF4D
:104F3000FCF74EF8814642F27C54C2F200442668E7
:104F4000002E57D0306D013830654FF0000A4FF019
:104F5000000553D14FF4407B002500BF96F8340084
:104F6000042803D1306BC068476A00E00027A6F828
:104F700064A0C6F860A0FCF72BF8B0643046FFF7D9
:104F80005BF896F83600072806D0032807D130468C
:104F9000FFF77AF9002000E0042086F8360001359A
:104FA000A6F834B0D7B197F8370097F83810884290
:104FB00014D096F83710884210D13846FEF734FFE7
:104FC000014697F8370097F83820914288BF11467C
:104FD00081421CBF3846FFF753FC00BF766926604C
:104FE00056B1A0880138A080C6F818A0306D0028FE
:104FF000B4D003E0002501E00020A080E580FBF7AD
:10500000E7FF0646FBF770FF4046FBF7DDF9A6EB2E
:10501000090001B0BDE8F08FF0B581B00DF10204D8
:1050200042F27056C2F2004642F24C67C2F20047AA
:1050300017E000BFFBF7C4F90546FBF739FF3068FE
:1050400001303060FBF750FF2846FBF7BDF9FFF752
:105050001FFF0546FFF764FF28443968814238BFC7
:1050600038600020002100222346FEF7B5FABDF883
:1050700002000028F5D1DDE742F27451C2F200418E
:10508000002242F27053C2F200431A6042F27C5393
:10509000C2F20043C1E90022C3E9002246F6A4712E
:1050A000C0F600010968002902BF47F21221018001
:1050B000704746F6AC72C0F60002126846F6987366
:1050C000C0F600031B689A423EBF47F213210180DD
:1050D000704746F6A073C0F600031B783F2B22BF33
:1050E00047F211210180704780B58AB008900B20EB
:1050F00007900020CDE90500CDE90320CDE900317E
:1051000046F6A870C0F600000068029042F2845093
:10511000C2F2004004A145F21902C0F600020023C9
:10512000FEF7EAF80AB080BD75432F4F532D494969
:1051300049205469636B205461736B0000000000C8
:1051400010B58AB0044642F25860C2F20040002115
:10515000016042F25060C2F20040016042F25460CD
:10516000C2F20040018042F25870C2F20040016079
:1051700042F25470C2F20040016046F69C70C0F6E4
:105180000000006846F6B471C0F600010968002905
:1051900008BF0A21B0FBF1F042F25C71C2F200419B
:1051A000086042F26071C2F20041086042F25C6045
:1051B000C2F2004024A12246FDF72AFD208808B152
:1051C0000AB010BD46F6B870C0F60000006870B1B5
:1051D00046F6C071C0F60001096846F69872C0F63E
:1051E00000021268914205D247F248300BE047F2C4
:1051F000473008E046F6B072C0F6000212783F2A47
:1052000004D347F2463020800AB010BD08940B2327
:1052100007930023CDE90533CDE90313CDE9002041
:1052200046F6BC70C0F600000068029042F28C6046
:10523000C2F2004008A145F29122C0F6000200230C
:10524000FEF75AF80AB010BD4F5320546D72204D2E
:10525000757465780000000075432F4F532D494940
:10526000492054696D6572205461736B0000000021
:1052700080B584B00DF10E00009042F25C60C2F285
:10528000004002AB00210022FDF7EEFC04B080BD1F
:105290002DE9F04F83B00DF10A0542F2587BC2F2BE
:1052A000004B42F25869C2F2004942F2547AC2F20B
:1052B000004A03240BE000BFFBF78AFE801BDAF8EC
:1052C0000010814238BFCAF8000000F05DF80020ED
:1052D000002101AA2B46FEF77FF9FFF7C9FFFBF774
:1052E00077FE0646DBF800000130CBF80000D9F865
:1052F0000080B8F1000F07D1DEE700BF2846FDF7B8
:10530000ABFEB8F1000FD7D047462846FDF74CFE5C
:10531000D8F81080B8690138B861EFD1B88C02288C
:1053200002D1386AB86104E0384600F009F887F81D
:105330002640BA68002AE1D0F96838469047DDE790
:1053400042F25862C2F200421168814206D0D0E9AE
:1053500004121161002918BF4A6105E0016911605A
:1053600000291CBF00224A610021C0E9041101216B
:1053700080F8261042F25460C2F2004001880139E0
:10538000018070470000000080B582B042F25C608E
:10539000C2F200400DF106020021FDF725FD02B02A
:1053A00080BD00000000000070B54EF61450CEF233
:1053B000000000210167BFF34F8FC16E4FF600421E
:1053C000CFF6FF7262EAD10EC1F34E32C9088B07E5
:1053D00043F6E07C0CEA42111C46754644EA01069D
:1053E000C0F84C6204F140440135F7D1511E002A47
:1053F0000A46EFD1BFF34F8F016841F4803101605D
:10540000BFF34F8FBFF36F8F70BD0000000000002F
:10541000BFF34F8FBFF36F8F4EF61450CEF20000E4
:105420000021C0F83C12BFF34F8FBFF36F8F0168AC
:1054300041F400310160BFF34F8FBFF36F8F7047AE
:105440007047000000000000F0B58BB0FBF7ACFC2B
:105450000DF12A042046FDF7D7FEFBF709FD0120D8
:105460000A212246FDF7C8FDFAF7AAFF0546FBF719
:105470001FFD0894072600274FF40070332140F2E7
:105480003062C2F200420423CDE90032CDE90210BD
:10549000CDE90477CDE9067640F26850C2F20040CB
:1054A0002CA142F20172C0F600020023FDF724FF96
:1054B000089480200C2140F6F862C2F200420523D5
:1054C000CDE90032CDE90210CDE90477CDE90676C9
:1054D00040F63060C2F2004021A142F2A972C0F64B
:1054E00000020023FDF708FF08944FF48070192193
:1054F00040F2A002C2F200420623CDE90032CDE91B
:105500000210CDE90477CDE9067640F2A040C2F260
:10551000004016A141F26122C0F600020023FDF70F
:10552000EBFEFBF7E1FC2846FAF74EFF42F6CC40D3
:10553000C2F2004042F64F51C2F200410122FCF794
:10554000DBFF42F68430C2F200402146FFF784FBC5
:105550000BB0F0BD6C656430207461736B000000AB
:105560006C656431207461736B000000666C6F6160
:10557000742074657374207461736B000000000004
:10558000B0B501380024B4EB106F1EBF01242046D3
:10559000B0BD4EF21005CEF2000568604FF0FF304E
:1055A0000F2100F035FFAC60072028602046B0BD19
:1055B00080B5FBF7F1FF42F26840C2F2004000788C
:1055C000012818BF80BDFDF7C3FAFEF7B9FABDE8A0
:1055D0008040FDF7D1BA0000B0B59CB044F2F44071
:1055E000C5F6020050F8F41C41F0800140F8F41CAC
:1055F000016841F002010160006800F002000990BA
:105600000998FBF7D5FE09A84C21FAF7C5FF002140
:10561000CDE90711CDE90511CDE90311CDE901115E
:1056200044F61800C5F6020050F80C2C22F00402D3
:1056300040F80C2C0091016841F440410160016880
:1056400001F4404100910099016811F4005FFBD022
:105650004FF480300A90012009900220CDE9120019
:1056600005211491A021CDE91510CDE917000824DA
:1056700019940025CDE91A5509A8FCF705FB00B1DE
:10568000FEE7032002903F200190CDE90354402023
:10569000CDE905004FF48061CDE9071001A8022192
:1056A000FCF716F9002804BF1CB0B0BDFEE70000EF
:1056B0004EF6885CCEF2000CDCF8001041F470016C
:1056C000CCF8001044F20041C5F602010A6842F02D
:1056D00001020A6000220A610B684EF67F50CEF686
:1056E000F620184008608A61CA610A628A62CA624A
:1056F0000A634A638A63CA630A644A64086820F4D6
:10570000802008600A6648F20810C5F200100121E6
:1057100001604FF000604CF8800C70470000000002
:1057200010B504460420FCF733FD4EF21000CEF213
:105730000000016841F00201016046F69C71C0F66C
:105740000001096844F24022C0F20F02B2FBF1F1FD
:1057500061434160016841F00101016010BD00003A
:10576000416B11F0010F37D18A0740D44A0749D461
:105770000A0752D4CA065BD48A0608D50268936821
:10578000D0F84CC023F4005343EA0C03936080B577
:105790004A0614D5D0F800E0DEF804C0036D2CF4FE
:1057A00080121A43CEF80420B3F5801F07D1DEF82B
:1057B0000420436D22F4C0021A43CEF804200906E7
:1057C000BDE8804058BF704701684A68806D22F488
:1057D000002210434860704702685368D0F838C010
:1057E00023F4003343EA0C0353608A07BED50268F2
:1057F0005368D0F83CC023F4803343EA0C03536071
:105800004A07B5D502685368D0F840C023F4802316
:1058100043EA0C0353600A07ACD502685368D0F81A
:1058200044C023F4004343EA0C035360CA06A3D5E3
:1058300002689368D0F848C023F4805343EA0C030D
:1058400093608A069AD4A2E7B0B582B004460020DD
:10585000E067FBF799FE05462068006810F0080F26
:105860000CD06FF07E40009020464FF400110022D3
:105870002B4600F0F1FC08B1032019E02068006815
:1058800010F0040F0CD06FF07E40009020464FF4D3
:10589000800100222B4600F0DFFC08B1032007E066
:1058A000202184F87910002084F8780084F87A1098
:1058B000C0B202B0B0BD0000806B0021A0F86A1039
:1058C000A0F86210FCF77CBC01680A6822F49072B0
:1058D0000A608A6822F001028A60202180F87A102A
:1058E000704700000000000001680A6822F04002D2
:1058F0000A60202180F87910FCF7E2BE0000000069
:105900000268B0F86C1090F87A30222B26D1B2F8E9
:1059100024C08368B3F5805F04BF0369002B22D0E5
:10592000436E5A1C426601EA0C011970B0F86A1005
:105930000139A0F86A104FF6FF72114218BF704784
:1059400001680A6822F490720A608A6822F00102F3
:105950008A60202180F87A10FCF722BE108B40F07C
:1059600008001083704701EA0C01426E1180416EFD
:1059700002314166DAE700002DE9F04786B00446BF
:10598000D0F81CC0826A0068A368D4E90476056870
:1059900046F6F311CCF6FF71294013433B433343E2
:1059A00043EA0C0319430160416821F44051E36864
:1059B0001943416044F20048C5F60208A8F50E33C9
:1059C000A76998421CBF216A0F43B2F1005F02BF72
:1059D000D4E90B12394341EA020781684FF2FF42D2
:1059E000C1F2FF12114039438160C16A626A21F03D
:1059F0000F011143C162802747F2FF71C4F2000119
:105A000088422CDD40F6FF71C4F2010188424CDD72
:105A100040F60041C5F60001884200F0868041F260
:105A20000041C4F20101884200F0958041F200017A
:105A3000C4F20101884240F0DF8044F25441C5F6CF
:105A400002010968C1F3C207052F00F28281DFE875
:105A500017F0940085018A018F019401D20044F669
:105A6000FF31C4F2000188423FDC44F20041C4F23D
:105A70000001884200F0858044F60001C4F2000174
:105A8000884240F0B98044F25441C5F602010968E9
:105A900001F00707052F00F25C81DFE817F0A8008E
:105AA0005F01640169016E01AC0047F60001C4F2B8
:105AB0000001884200F0778047F60041C4F20001FF
:105AC000884240F0998044F25441C5F602010968C9
:105AD00001F00707052F00F23C81DFE817F088008E
