:020000040800F2
:10000000683B0024590300084929000871270008AB
:10001000B1280008910F000899670008000000004F
:10002000000000000000000000000000415800082F
:10003000111300080000000019720008B9590008E7
:100040009303000893030008930300089303000838
:100050009303000893030008930300089303000828
:100060009303000893030008930300089303000818
:100070009303000893030008930300089303000808
:1000800093030008930300089303000893030008F8
:1000900093030008930300089303000893030008E8
:1000A00093030008930300089303000893030008D8
:1000B00093030008930300089303000893030008C8
:1000C00093030008930300089303000893030008B8
:1000D00093030008E9660008096700089303000815
:1000E0009303000893030008000000009303000836
:1000F0009303000893030008930300089303000888
:100100009303000893030008930300089303000877
:100110009303000893030008930300089303000867
:100120009303000893030008930300089303000857
:100130009303000893030008930300089303000847
:1001400000000000000000000000000000000000AF
:100150009303000893030008930300089303000827
:100160009303000893030008930300089303000817
:1001700093030008930300089303000800000000A5
:1001800093030008930300089303000893030008F7
:1001900093030008930300089303000893030008E7
:1001A00093030008930300089303000893030008D7
:1001B00093030008930300089303000893030008C7
:1001C00093030008930300089303000893030008B7
:1001D00093030008930300089303000893030008A7
:1001E0009303000893030008930300089303000897
:1001F0009303000893030008930300089303000887
:100200009303000893030008930300089303000876
:100210009303000893030008930300089303000866
:1002200093030008930300089303000800000000F4
:1002300093030008930300080000000093030008E4
:100240009303000893030008930300089303000836
:100250009303000893030008930300089303000826
:100260009303000893030008930300089303000816
:1002700093030008930300089303000800000000A4
:100280009303000800000000930300080000000032
:10029000000000009303000800F002F800F04CF8A2
:1002A0000AA090E8000C82448344AAF10107DA45D1
:1002B00001D100F041F8AFF2090EBAE80F0013F0D7
:1002C000010F18BFFB1A43F0010318473C710000EF
:1002D0005C710000103A24BF78C878C1FAD8520780
:1002E00024BF30C830C144BF04680C6070470000B0
:1002F0000023002400250026103A28BF78C1FBD82F
:10030000520728BF30C148BF0B607047662906F00E
:10031000EC87642900F02681002070471FB506F0A5
:10032000D7FF00F0A5FC04000020002106F0BAFF72
:10033000E0601FBD10B510BD00F0B7FD1146FFF71E
:10034000EDFF06F005FB00F0D5FD03B4FFF7F2FF6B
:1003500003BC00F087FC000011488047DFF8440030
:10036000016841F470010160BFF34F8FDFF838007E
:10037000016821F040410160BFF36F8F0B480047D7
:10038000FEE7FEE7FEE7FEE7FEE7FEE7FEE7FEE745
:10039000FEE7FEE706480749074A084B704700009A
:1003A000B95A000888ED00E034EF00E09902000837
:1003B000682F0024683B0024683100246831002441
:1003C00072B6704762B67047EFF3108072B670472E
:1003D00080F31088704730BF704720BF7047B0FA75
:1003E00080F0704790FAA0F0B0FA80F0704790FA71
:1003F000A0F0704753EA020C00F069802DE9F04B41
:100400004FF00006002B1FBFB3FA83F503FA05F483
:1004100024FA05F65E4012BF1643B2FA82F502FADC
:1004200005F4C5F120051EBF22FA05FC44EA0C04C0
:10043000203556EA044C4FEA144418BF641C4FF0B0
:1004400000084FF00009904271EB030C39D30029EA
:1004500019BFB1FA81F701FA07F6B0FA80F700FA8E
:1004600007F6C7F120071EBF20FA07FC46EA0C0674
:100470002037B6FBF4FCA7EB0507103F07F01F0B76
:10048000CBF120062CFA06F60CFA0BFB44BFB34660
:100490000026202FA4BF5E464FF0000B5BEA060C3F
:1004A00008BF4FF0010B19EB0B0948EB0608ABFB3B
:1004B000027C06FB02CC0BFB03CCC01B71EB0C01D6
:1004C000C1E70B46024641464846BDE8F08B13B5EE
:1004D0004FF000004FF00001AFF30080BDE81C407A
:1004E000704700000FB4044910B503AA029800F049
:1004F00053FB10BC5DF814FB602E00242DE9F04185
:100500000E460446002020622046E168884730B34A
:10051000252805D0D4E901219047206A401CF2E744
:10052000E168204600278847050018D0A5F1410062
:10053000192802D820354FF4006732462946204654
:100540002760FFF7E3FE40B1012804D0F61D26F036
:1005500007060836D8E7361DD6E72846DAE7206AC8
:10056000BDE8F0812DE9F0410646002410687529A8
:10057000314616A510D0AFF30080002802DA4042C1
:1005800013A507E031688A0701D512A502E04907E3
:1005900004D511A5012401E0AFF3008000210A2257
:1005A00006F1240709E0B0FBF2FCB0FBF2F302FB1A
:1005B0001C00303078541846491C0028F3D12346DB
:1005C0002A463046BDE8F04100F07FB80000000048
:1005D0002D0000002B00000020000000032A40F244
:1005E000308010F0030C00F0158011F8013BBCF1D5
:1005F000020F624498BF11F801CB00F8013B38BFED
:1006000011F8013BA2F1040298BF00F801CB38BFFA
:1006100000F8013B11F0030300F0D082083AC0F06B
:10062000088051F8043B083A51F804CBA0E80810C0
:10063000F5E7121D5CBF51F8043B40F8043BAFF3F3
:100640000080D20724BF11F8013B11F801CB48BF4D
:1006500011F8012B24BF00F8013B00F801CB48BF83
:1006600000F8012B704702F0FF0343EA032242EA3D
:10067000024200F0D7BA4FF0000200B5134694468C
:100680009646203922BFA0E80C50A0E80C50B1F1EA
:100690002001BFF4F7AF090728BFA0E80C5048BFFE
:1006A0000CC05DF804EB890028BF40F8042B08BF9C
:1006B000704748BF20F8022B11F0804F18BF00F898
:1006C000012B70477047704770472DE9F0470D4682
:1006D00099469246044600F124080168880604D52C
:1006E000E06921F01001216000E00120A84201DD55
:1006F000471B00E00027A1697A1902EB0900081ADC
:10070000A0612078C00602D42046AFF30080002606
:1007100008E0D4E901211AF806009047206A401C3D
:10072000761C20624E45F4DB2078C0060AD52046B0
:10073000AFF3008006E0D4E9012130209047206A21
:10074000401C2062381EA7F10107F4DC07E0D4E961
:10075000012118F805009047206A401C2062281EDD
:10076000A5F10105F3DC2046AFF3008020780006F8
:1007700002D50220BDE8F0870120FBE72DE9FF4FFD
:100780000C461E464FF0FF378BB0D2E90001DDF872
:1007900060800A908A46C1F30A5505B93D4600219A
:1007A00008464FF00000BAF1000F00F4400005DAEF
:1007B00000EB80004FF4400101EA50004FEA9059ED
:1007C000B9F1010F00DDB9460A9850EA4A000ED08F
:1007D00044F61050A5F2FF3545432F14B8F1000F31
:1007E0001ED07542291E1EDDC9F100021CE0B8F1C1
:1007F000010F4FF0000001D0302103E0F24305E08B
:100800002154401CB042FBDB304600220021215421
:100810000B99C1F80880C1E900200FB0BDE8F08F46
:10082000BD1B6D1CDEE74A4600DA694206A800F0EF
:10083000C1FA06AB93E8070003AB83E80700504614
:100840000A9906F0C3F88DE80700A0F500501F389C
:1008500000900398002D0ADD42F21F014A46084429
:10086000002303A90390684606F02CFB09E0A0F5DD
:1008700000504A461F38002303A90390684606F03B
:1008800036FB8DE807000004000C03D04FF0FF306A
:10089000410800E01046B8F1000F03D0002200929A
:1008A00015461EE0751E05D400F0E6F9303262559B
:1008B0006D1EF9D5B3460122084302D000227F1CE9
:1008C00004E02078302801D100227F1E002A0997F9
:1008D00084D01DE0112D07DA00F0CEF930326255D8
:1008E0006D1C50EA0102F5D1084302D00098C8B14E
:1008F0000EE00021681E05E0235C625C6354225414
:10090000401E491C8142F7DBAB46A81B401E0990E4
:10091000002004F80B000B98099AC0F80880C0E981
:10092000002B7AE711264FF0000857E72DE9F04F2A
:1009300088460446D21D22F0070191B0D1E900019A
:10094000CDE90A0106F096FC02460B98C00F01D0D3
:100950002D2007E02068810701D52B2002E020210F
:1009600001EAC000032A099001D0072A05DB0346EB
:100970004146204600F0DEF90BE12078800601D5E3
:10098000E06900E00620B8F1650F814606D0B8F1B5
:10099000660F18D0B8F1670F70D131E00020B9F1BF
:1009A000110F009001DB112301E009F101030AAAF4
:1009B00001A90CA8FFF7E2FEDDE90C70002609F1A1
:1009C0000105834647E001204B4600904FF0004769
:1009D0000AAA01A90CA8FFF7D1FEDDE90DB00C9918
:1009E0005D46002610B909F101000D18B9EB0500AC
:1009F00003D4C0F1FF3609F10105A5EB09002BE096
:100A0000B9F1010F01DA4FF001090020B9F1110F1E
:100A10000090484601DD112300E003460AAA01A91F
:100A20000CA8FFF7ABFEDDE90C704D4600268346AF
:100A3000207800070AD4AB4500DA5D4601A8012DF5
:100A400004DD411911F8011C302907D04F4502DAA5
:100A500017F1040F04DA012082460FE06D1EEEE765
:100A6000002F02DCED1B3E4403E0781CA84200DDB1
:100A70007D1CB81B00F1010A4FF0004720780007E9
:100A800003D4AA4501DB4FF0FF3A0021B7F1004F34
:100A90000DF143088DF8431024D002202B23002FA2
:100AA00001DA7F422D230A21021EA0F1010000DCA1
:100AB0005FB197FBF1FC97FBF1F201FB1C7C174641
:100AC0000CF1300C08F801CDEEE7A8F1010003703D
:100AD0002188090501D5452100E06521A0F1010823
:100AE00000F8011C09980FA9A1EB0807FF1D00B130
:100AF0000120411901EBEA70A1693844081A401E2F
:100B0000A0612078C00602D42046AFF30080099887
:100B100028B1D4E901219047206A401C2062207846
:100B2000C00622D52046AFF300801EE0002E04DB75
:100B3000B34502DD01A8805D00E03020D4E9012149
:100B40009047206A401C2062761CAAF101005FEAEF
:100B5000000A0AD100F08CF8C0680168405CD4E952
:100B600001219047206A401C2062281EA5F1010542
:100B7000DCDC07E0D4E9012118F8010B9047206A7A
:100B8000401C2062381EA7F10107F3DC2046AFF3BA
:100B90000080032011B041E6074B70B50D467B4441
:100BA00000F0B5F80446284600F076F910B14FF091
:100BB000FF3070BD204670BD875D000010B5203A43
:100BC000C0F00B80B1E81850A0E81850B1E81850F8
:100BD000A0E81850203ABFF4F5AF5FEA027C24BFCA
:100BE000B1E81850A0E8185044BF18C918C0BDE8B3
:100BF00010405FEA827C24BF51F8043B40F8043B7C
:100C000008BF7047D20728BF31F8023B48BF11F830
:100C1000012B28BF20F8023B48BF00F8012B70478A
:100C20004FF000020429C0F0128010F0030C3FF4D2
:100C300024ADCCF1040CBCF1020F18BF00F8012B5D
:100C4000A8BF20F8022BA1EB0C01FFF716BD5FEA4D
:100C5000C17C24BF00F8012B00F8012B48BF00F82D
:100C6000012B704701491820ABBEFEE726000200A9
:100C7000004870473000002430B5B0F10A0271F12D
:100C800000034FEA900E4EEA817EB0EB0E0061EB5E
:100C900091014FEA101E4EEA017E10EB0E0041EB6F
:100CA00011114FEA102E4EEA016E10EB0E0041EBCF
:100CB00011214FEA104E4EEA014E10EB0E0041EBAF
:100CC0001141401841F100014FEAD00040EA417063
:100CD0004FEAD1014FEA810444EA907410EB800599
:100CE00044EB01046D1944EB0404521BA3414FF083
:100CF000000348BF0A3200D530BD401C41F100015D
:100D000030BD000001694A1C02610878704700B5D7
:100D10008FB0CDE901310021059105497944CDE934
:100D2000031011466846FFF7E9FB0FB000BD000055
:100D3000E5FFFFFF2DE9F0411F4604460326016849
:100D4000072A01F4006004DB08B116A505E016A52A
:100D500003E008B115A500E015A521F01000206002
:100D6000A069C01EA0610FB1401EA0612046AFF374
:100D700000804FB1D4E9012138469047206A401CD9
:100D80002062C01C206206E0206AFAE7D4E9012153
:100D900015F8010B9047761EF8D22046AFF300807D
:100DA000BDE8F0814E414E006E616E00494E460036
:100DB000696E66002DE9F047814616468AB03548CF
:100DC00078440DC88DE80D0032487844801C03AC8F
:100DD0000DC884E80D0041F69B300844372190FB94
:100DE000F1F290FBF1F5A5F1800501FB12041B3C2B
:100DF00002D56442012000E00020DFF898A0804680
:100E00000027FA44AAF1BE0A0EE0E0070AD03246F3
:100E1000684607EB470101230AEB810106F067F8FA
:100E20008DE8070064107F1C002CEED1194F7F4421
:100E3000AE3F19E0E80715D007EB04100DF1180AD2
:100E400090E80E008AE80E00C068F04201D19819BF
:100E500008903246012306A903A806F048F803AB20
:100E600083E807006D10641C002DE3D14FF00103EF
:100E700032466946B8F1000F03A802D006F022F806
:100E800001E006F034F8C9E90001C9F808200AB009
:100E9000BDE8F087A8650000007B00F08000704787
:100EA000004870471000002470477546FFF7F8FFB0
:100EB000AE4605006946534620F00700854618B047
:100EC00020B5FFF767FABDE820404FF000064FF06D
:100ED00000074FF000084FF0000BAC46ACE8C0092B
:100EE000ACE8C009ACE8C009ACE8C00921F00701D2
:100EF0008D46704710B50446AFF300802046BDE82C
:100F00001040FFF722BA000030B44FF0013C50F817
:100F1000042BCCFA52F451F8043BD51A20D1FCB979
:100F200050F8042BCCFA52F451F8043BD51A17D1DF
:100F3000B4B950F8042BCCFA52F451F8043BD51A4A
:100F40000ED16CB950F8042BCCFA52F451F8043B92
:100F5000D51A05D1002CDAD030BC4FF00000704714
:100F600029BAB1FA81F111F01801D1F120008440C1
:100F7000F2D1CA40CB4012F0FF0213F0FF0330BCA5
:100F8000D01A70470000000000F012BE0000000000
:100F9000FEE700000000000080B500F0E5F800F07A
:100FA00007F8BDE8804000F0DBB80000000000005A
:100FB0002DE9F04140F28800C2F200400025058092
:100FC00040F27000C2F20040058040F28000C2F2A0
:100FD0000040056040F28400C2F20040056040F22B
:100FE0007406C2F20046356040F27807C2F200474C
:100FF0003D6040F27C08C2F20048C8F80050FFF79C
:10100000E3F90446356000F04BF800F065F83D6008
:1010100030683560C8F800002046BDE8F041FFF7B1
:10102000D7B900000000000040F27C01C2F200418C
:101030000968814228BF0846401A70470000000036
:1010400010B5FFF7C1F940F27401C2F200410C681B
:10105000FFF7BEF92046BDE81040FFF7E5BF0000EE
:1010600010B5FFF7EDFF0446FFF7AEF940F274014B
:10107000C2F2004100220A60FFF7AAF9204610BD23
:1010800010B5FFF7A1F940F27801C2F200410C68F7
:10109000FFF79EF92046BDE81040FFF7C5BF0000EE
:1010A00010B540F27000C2F20040018801310180A9
:1010B00040F28804C2F20044208830B900F080F881
:1010C00040F28001C2F20041086020880130208097
:1010D00010BD00000000000040F28800C2F2004095
:1010E0000188013901804FF6FF70014218BF704737
:1010F00080B500F065F840F28401C2F2004108605A
:1011000040F28001C2F200410968401A40F27401C5
:10111000C2F200410A688242BDE8804038BF0860E0
:1011200040F27801C2F200410A68824238BF08608A
:10113000704700000000000010B5FFF745F90446B5
:10114000FFF7AEFF40F28A00C2F20040102101F02A
:10115000B3FBFFF7C1FF2046BDE81040FFF738B9E9
:10116000FFF7EABF0000000040F29C00C2F200401E
:101170000021016000F008B840F29C01C2F2004179
:10118000086070470000000080B5FFF7FDFE4EF6D6
:10119000FC51CEF200010A6842F080720A6041F20E
:1011A0000001CEF2000100224A600A6842F001020A
:1011B0000A60BDE88040FFF7DFBF000000000000CC
:1011C00041F20400CEF20000006870470000000009
:1011D00080B504F01DFB04F0E7FA4EF69C70CEF2E9
:1011E0000000016841F00401016080BD00000000C2
:1011F000B0B540F20044C5F60204206820F040700B
:1012000020602068206020464FF4805100F004FAEE
:10121000A0B100210D46012005F066FB20464FF4E9
:10122000805100F0F9F9691CCAB2632A01D800287C
:10123000F0D1E8B2622884BF0120B0BD20464FF44F
:10124000805100F0E9F900281CBF0020B0BD00214A
:101250000D46012005F048FB20464FF4805100F078
:10126000DBF9691CCAB2632A01D80028F0D0E9B2C0
:101270000020622988BF0120B0BD000000000000EE
:1012800080B586B044F2E040C5F60200016841F046
:1012900002010160006800F0020001900198012045
:1012A00002904FF48051019103900320049040F28A
:1012B0000040C5F6020001A900F0E2F800F004F8D1
:1012C000FFF796FF06B080BD10B540F20044C5F6AA
:1012D0000204206820F040702060206840F0807098
:1012E000206020464FF48051002200F0A1F9142024
:1012F00005F0C6FA20464FF48051012200F098F91B
:101300001E20BDE8104005F0EFBA0000000000000C
:1013100070470000000000002DE9F0412DED028B28
:1013200084B040F60048C5F6020842F65866C2F29C
:1013300000469FED118B0DF10E07002408F5805536
:1013400096ED000B30EE080B86ED000BCDE9004763
:101350000020002100224FF4C87302F039FC4046FF
:10136000802100F061F928464FF4807100F05CF9AB
:10137000E6E700BF00BF00BF00000040E17A843F05
:1013800010B390F8351002291CD101684FF6F072A5
:10139000CBF6FD721144B1F5956F18D8042180F891
:1013A000351001680F22C4F20202914252D940F274
:1013B000B942C4F2020291424CD2086820F0010006
:1013C00008604CE0802141650121084670470168B2
:1013D0000A6822F00E020A60D0F800C040F2B94359
:1013E000C4F202039C450B4638BF63460F22C4F289
:1013F0000202944598BF0B46196821F0010119605B
:10140000016E0A6822F480720A60C26D012101FA3D
:1014100002F245F20443C5F602031A60D0E919232B
:101420005360C26E002A1FBF136823F480731360D9
:10143000D0E91C2318BF536080F83510002180F8D4
:101440003410026D22B180B590470021BDE8804084
:10145000084670470068016821F001010160002121
:10146000084670470000000040F22040C5F600002A
:10147000016841F0010101607047000000000000B8
:101480002DE9F04F83B042F20042C5F602020A2372
:10149000904208BF0923019300F1264202F1FF7236
:1014A0004FEAB2220092002240F2040CC5F6000C72
:1014B0004FF0010E00274FF0000809E00232043718
:1014C00008F10108B8F1100F04BF03B0BDE8F08FB8
:1014D0000EFA08FA0E6816EA0A09EFD04E6846F0CE
:1014E0001006122E12D107F01C060F2303FA06F481
:1014F0004FF6FC73C7F6FF7303EA580303441D6AF3
:1015000025EA04040D69B5402C431C620323934073
:1015100004689C43D1F804B00BF0030595402C43BC
:101520000460DE43BBF1120F15D80EFA0BF313F073
:10153000061F1FBF83683340CC6894401FBF2343FE
:101540008360CBF3001303FA08F31FBF446824EA57
:101550000A0423434360C36833408C6894402343A8
:10156000C3605FEACB03A9D544F2F443C5F6020396
:101570001C461B6843F002032360236803F0020348
:101580000293029B28F0030340F20844C5F60004CE
:10159000A3461C5907F00C050F26AE4024EA060AA4
:1015A000009C092C019E38BF264606FA05F545EA3F
:1015B0000A0443F80B40DCF87C3043EA09044D6828
:1015C00015F4803F08BF23EA0904CCF87C40DCF81E
:1015D000803043EA090415F4003F08BF23EA0904F8
:1015E000CCF880404FF0B046336843EA090415F464
:1015F000801F08BF23EA09043460DCF8003043EAA6
:10160000090415F4001F08BF23EA0904CCF80040C0
:1016100054E70000000000000069084018BF0120E6
:10162000704700000000000042695140416170476E
:10163000002A0CBF418301837047000000000000B6
:1016400042F66070C2F2004000687047000000007F
:1016500040F20800C2F20040007842F66071C2F227
:1016600000410A6810440860704700000000000054
:1016700080B5032000F04CF80F2000F009F8002896
:101680001CBF012080BD00F02BF8002080BD0000B1
:10169000B0B5044640F20800C2F2004000784FF4B2
:1016A0007A71B1FBF0F040F20001C2F2004109682A
:1016B000B1FBF0F000F0D8FD01250F2C0CD858B983
:1016C00000254FF0FF302146002200F011F840F2D3
:1016D0000C00C2F2004004602846B0BD00000000CB
:1016E000704700000000000005F08EB80000000008
:1016F00070B514460D46064605F096F82946224672
:1017000001F026F901463046BDE8704005F094B876
:1017100005F0A6B80000000080B500F095FA44F28C
:101720001841C5F6020109684FF4807292FAA2F2DC
:10173000B2FA82F201F47061D14047F28432C0F60D
:101740000002515CC84040F20001C2F20041086052
:1017500080BD00000000000080B500F029FA44F2CE
:101760002041C5F602010968102292FAA2F2B2FAEB
:1017700082F201F07001D14047F28432C0F60002DB
:10178000515CC84080BD000080B544F2384CC5F6BD
:10179000020C5CF8102C5CF810EC5CF80C3C03F0CC
:1017A0001003DCF80410C1F3CC0111FB03F102F0CB
:1017B0000303CEF3053200EE101AB8EE400A022BF6
:1017C0000FD09BB95CF8381C49F20003C0F2D0334B
:1017D00011F0200F1EBF5CF8381CC1F3C101CB40D3
:1017E00008E047F64003C0F27D1303E040F6001323
:1017F000C0F23D03DCF800106FF35F2101EE101A18
:101800009FED1F2AB3FBF2F1DCF80020B8EE411A7D
:10181000C2F34622B7EE003A04EE101A00EE021AA6
:10182000511CB8EE440A31EE031A02EE101AB8EE5B
:10183000422A21EE000A80EE021ABCEEC11A80EDA7
:10184000001ADCF80010C1F30641013101EE101A54
:10185000B8EE411A80EE011ABCEEC11A80ED011AF1
:10186000DCF80010C1F30661013101EE101AB8EE88
:10187000411A80EE010ABCEEC00A80ED020A80BD6A
:10188000000000390000000080B544F2404CC5F66D
:10189000020C5CF8182C5CF818EC5CF8143C03F4AF
:1018A0008073DCF80410C1F3CC0111FB03F102F0EA
:1018B0000303CEF3055200EE101AB8EE400A022BD5
:1018C0000FD09BB95CF8401C49F20003C0F2D03342
:1018D00011F0200F1EBF5CF8401CC1F3C101CB40CA
:1018E00008E047F64003C0F27D1303E040F6001322
:1018F000C0F23D03DCF800106FF35F2101EE101A17
:101900009FED1F2AB3FBF2F1DCF80020B8EE411A7C
:10191000C2F34622B7EE003A04EE101A00EE021AA5
:10192000511CB8EE440A31EE031A02EE101AB8EE5A
:10193000422A21EE000A80EE021ABCEEC11A80EDA6
:10194000001ADCF80010C1F30641013101EE101A53
:10195000B8EE411A80EE011ABCEEC11A80ED011AF0
:10196000DCF80010C1F30661013101EE101AB8EE87
:10197000411A80EE010ABCEEC00A80ED020A80BD69
:1019800000000039000000002DE9F04381B00D4651
:10199000044642F20008C5F20028D8F8000000F022
:1019A000070088420CD2D8F8000020F00700284336
:1019B000C8F80000D8F8000000F00700A84260D185
:1019C000206844F21047C5F6020710F0020F05D058
:1019D000B968E26821F00F011143B960C0073ED138
:1019E000D8F8000000F00700A8420CD9D8F8000091
:1019F00020F007002843C8F80000D8F8000000F0E5
:101A00000700A84258D1206810F0040F3BD101070D
:101A100041D4C10647D4800605D53869E16920F074
:101A200070000843386100F00FF9B9684FF4807214
:101A300092FAA2F2B2FA82F201F47061D14047F256
:101A40008432C0F60002515CC84040F20001C2F28C
:101A5000004108600F20FFF71BFE0020A3E0B868DC
:101A6000A16820F470600843B8606068032825D03E
:101A700002282AD157F8101C11F4003F31D101205F
:101A800091E001208FE0B968226921F070011143D3
:101A9000B9600107BDD5F968626921F07001114391
:101AA000F960C106B7D5F968A26921F4E061114374
:101AB000F9608006B1D4B6E7012074E057F8101C35
:101AC00011F0007F0DD101206DE057F8101C0128A6
:101AD00003D1C90505D4012065E0490701D40120DF
:101AE00061E0396821F0070108433860FFF7A8FD7D
:101AF00006466068012816D0032828D002283AD16B
:101B0000386800F0380010283FF46AAF41F2883995
:101B1000FFF796FD801B484540D8386800F0380034
:101B20001028F5D15CE7386800F0380008283FF449
:101B300057AF41F2883900BFFFF782FD801B48454F
:101B40002ED8386800F038000828F5D148E7386802
:101B500000F0380018283FF443AF41F2883900BF45
:101B6000FFF76EFD801B48451CD8386800F0380030
:101B70001828F5D134E7386810F0380F3FF430AF4B
:101B800041F28839FFF75CFD801B484504D838686E
:101B900010F0380FF6D123E7032004E0032002E021
:101BA000032000E00320C0B201B0BDE8F0830000D4
:101BB00080B5FFF7B1FD44F21841C5F6020109688E
:101BC000012292FAA2F2B2FA82F201F00F01D140A0
:101BD00047F28432C0F60002515CC84040F2040172
:101BE000C2F20041086080BD80B5FFF7E1FF44F21A
:101BF0001C41C5F602010968102292FAA2F2B2FA5B
:101C000082F201F07001D14047F28432C0F6000246
:101C1000515CC84080BD000080B5FFF7C9FF44F2A9
:101C20001C41C5F6020109684FF4807292FAA2F2D3
:101C3000B2FA82F201F4E061D14047F28432C0F698
:101C40000002515CC84080BD44F20041C5F602016B
:101C50000869C0F3C20240F60010C0F23D00032A3A
:101C600017D0022A02BF47F64000C0F27D1070472D
:101C7000002A18BF70470A6849F20000C0F2D0304D
:101C800012F0200F1FBF0968C1F3C101C84070479F
:101C9000704780B5D1F828E0D1F828C0CB6A4A6BEC
:101CA00003F001035B4203EAD2026FF35F320EF0EE
:101CB000030300EE102ACCF30512B8EE400A022B03
:101CC000BDE880400DD083B90B6849F20000C0F236
:101CD000D03013F0200F1EBF0B68C3F3C103D840F0
:101CE00003E047F64000C0F27D100B6B6FF35F23FB
:101CF00001EE103A9FED102AB0FBF2F0096BB8EE3E
:101D0000411AC1F34621B7EE003A04EE100A00EE84
:101D1000021A481CB8EE440A31EE031A02EE100A09
:101D2000B8EE422A21EE000A80EE020ABCEEC00A9A
:101D300010EE100A704700BF0000003900000000DC
:101D4000F0B581B004460078C00744F20046C5F6FD
:101D500002065FD0306900F03800102808D13068E2
:101D600010F4003F56D06068002853D10120D3E121
:101D7000306900F03800182804D1B06A00F0030080
:101D80000228ECD0606868B1B0F5803F06D03168B9
:101D9000B0F5A02F23D141F480203060306840F4AA
:101DA000803022E0306820F480303060306820F4E9
:101DB00080203060FFF744FC0546306810F4003F97
:101DC00028D041F2883700BFFFF73AFC401BB842E9
:101DD00000F22F82306810F4003FF5D11AE021F4B0
:101DE00080303060306820F480203060FFF728FCBD
:101DF0000546306810F4003F0CD141F2883700BF2F
:101E0000FFF71EFC401BB84200F26081306810F4FE
:101E1000003FF5D02078800765D5306910F0380F85
:101E20001FD0306900F03800182804BFB06A10F0E5
:101E3000030F16D0E0683168002843D021F0190163
:101E400008433060FFF7FCFB054600BF306810F028
:101E5000040F29D1FFF7F4FB401B0228F6D9032019
:101E60005AE1306810F0040F03D0E068002800F059
:101E70002B813068E16820F0190008433060FFF7DB
:101E8000DFFB0546306810F0040F06D1FFF7D8FBE2
:101E9000401B0228F6D903203EE1706821694FF407
:101EA0007C3292FAA2F205E0706821694FF47C322C
:101EB00092FAA2F2B2FA82F2914020F47C30084306
:101EC000706010E021F001003060FFF7B9FB0546BB
:101ED000306810F0040F06D0FFF7B2FB401B022859
:101EE000F6D9032018E12078C00641D5306900F00A
:101EF0003800082809D0306900F03800182813D1BC
:101F0000B06A00F0030001280ED1306810F4807F21
:101F10001CBFE069802840F0D5807068216A4FF0CE
:101F2000F84292FAA2F21CE0E1693068002900F060
:101F3000B68040F080003060FFF782FB054600BFAE
:101F4000306810F4807F06D1FFF77AFB401B02282F
:101F5000F6D90320E0E07068216A4FF0F84292FA67
:101F6000A2F2B2FA82F2914020F0F8400843706089
:101F70002078000725D56169706F81B140F00100BC
:101F80007067FFF75DFB0546706F10F0020F18D108
:101F9000FFF756FB401B0228F6D90320BCE020F0D7
:101FA00001007067FFF74CFB054600BF706F10F033
:101FB000020F06D0FFF744FB401B0228F6D903208E
:101FC000AAE02078800626D5A169306889B140F45E
:101FD00080503060FFF734FB054600BF306810F4D6
:101FE000005F18D1FFF72CFB401B0228F6D9032015
:101FF00092E020F480503060FFF722FB054600BFDE
:10200000306810F4005F06D0FFF71AFB401B02286F
:10201000F6D9032080E02078400773D5D6F8000475
:1020200040F48070C6F80004FFF70AFB054600BFC5
:10203000D6F8000410F4807F06D1FFF701FB401BA7
:102040006428F5D9032067E0A06858B1012805D0BD
:10205000316F05283CD141F004003067306F40F00B
:1020600001003BE0306F20F001003067306F20F05E
:1020700004003067FFF7E4FA0546306F10F0020FF6
:1020800040D041F2883700BFFFF7DAFA401BB84270
:1020900000F2D180306F10F0020FF5D132E020F065
:1020A00080003060FFF7CCFA054600BF306810F4BE
:1020B000807F3FF45DAFFFF7C3FA401B0228F5D9DC
:1020C000032029E0012027E0012025E0032023E070
:1020D00021F001003067306F20F004003067FFF717
:1020E000AFFA0546306F10F0020F0BD141F288377E
:1020F000FFF7A6FA401BB84200F29780306F10F04D
:10210000020FF5D0676A37B1306900F0380018283F
:1021100005D1012000E00020C0B201B0F0BD306860
:1021200020F080703060FFF78BFA0546306800F0D1
:102130000070022F6BD140B1FFF782FA401B0228DA
:102140007BD8306810F0007FF6D1B06A40F2F331EE
:102150008843D4E90A12084340EA0210B06204F14D
:1021600030030FCB7F324FF4FE0707EA024200F242
:10217000FF106FF35F207F31490289B2084310439B
:1021800003F17F014FF0FE4202EA01610843306330
:10219000706B4FF6F8718843A26C91FAA1F1B1FA15
:1021A00081F102FA01F108437063F06A216C20F0BA
:1021B0000C000843F062F06A616C20F002000843F2
:1021C000F062F06A40F48030F062F06A40F400306F
:1021D000F062F06A40F48020F062F06A40F00100A2
:1021E000F062306840F080703060FFF729FA0446F2
:1021F000306810F0007F1AD1FFF722FA001B022886
:102200001FD83168002011F0007FF5D084E708B9AD
:10221000002081E7FFF714FA401B03280FD2316832
:10222000002011F0007FF5D176E7032074E700204D
:1022300072E7032070E703206EE703206CE70320BA
:102240006AE7032068E700004EF21001CEF20001B9
:102250000A6822F00403042808BF42F004030B605C
:10226000704700000000000003F08EBB000000007B
:1022700070470000000000007047000000000000F0
:10228000B0B504460168CA69D1F800C08D6812F083
:102290000F0F58D00120C1F2000028400CF49073B9
:1022A00018435ED0D0071FBF1CF480700120086265
:1022B000E06F1CBF40F00100E06705F001009307EC
:1022C00008D500281FBF02230B62E36F43F004030D
:1022D00018BFE367530708D500281FBF04230B620C
:1022E000E36F43F0020318BFE36713070ED50CF04A
:1022F000200E05F0805343EA0E0318431FBF082049
:102300000862E06F40F0080018BFE067E06F002847
:102310007AD0900608D50CF0200005F080510843D3
:102320001CBF204603F0F0FCE06F10F0080F37D11F
:102330002068806810F0400F32D12046FFF79CFFE4
:102340000020E067B0BD90060BD50CF0200E05F024
:10235000805050EA0E0004D02046BDE8B04003F0A3
:10236000D3BCD0020FD515F480000CD04FF48010F0
:102370000862202084F8790084F87A002046BDE8BD
:10238000B040FFF775BF100627D50CF0800005F4AC
:102390000003184321D02046BDE8B04004F024B922
:1023A000204603F095FC2068816811F0400F1DD095
:1023B000816821F040018160606FB8B145F6C1418C
:1023C000C0F600010165FEF7DBFF002808BFB0BDC5
:1023D000606F016DBDE8B040084702EA0C0040069E
:1023E00009D52046BDE8B04003F082BC2046BDE8D8
:1023F000B040FFF741BF100206D51CF080401EBF61
:10240000086820F080400860B0BD000000000000B7
:1024100010B50446A8B194F8790028B9002084F8D2
:102420007800204600F028F8242084F879002068FD
:10243000016821F001010160204603F0A1FC0128A0
:1024400001D1012010BD606B00281CBF204603F0A5
:102450008BFB2068416821F490414160816821F044
:102460002A018160016841F0010101602046BDE858
:10247000104003F0EDBB0000F0B587B005460068E2
:1024800044F20047C4F2000707F54C410024C5F6AA
:10249000020444F2E046C5F60206884208D0B8427B
:1024A00031D0286807F58061884254D007B0F0BD6C
:1024B000306840F001003060306800F001000290A8
:1024C0000298306940F010003061306900F010006F
:1024D00002900298022003904FF4C0610291012102
:1024E000CDE904100720069002A92046FEF7C8FF98
:1024F000252000210022FFF7FBF82520FFF7F4F844
:102500002868B842CDD1306840F0010030603068B2
:1025100000F0010001900198B06840F40030B06014
:10252000B06800F4003001900198022003900C2163
:1025300002910121CDE904100720069002A920464E
:10254000FEF79EFF262001210022FFF7D1F826206A
:10255000FFF7CAF8A5E7B06840F48020B060B06823
:1025600000F4802001900198306840F00200306053
:10257000306800F0020001900198022003904FF4AF
:10258000406102910121CDE904100720069004F575
:10259000806002A9FEF774FF272002210022FFF7C6
:1025A000A7F82720FFF7A0F807B0F0BD0000000053
:1025B00090F87A30202B0AD10123002918BF002A75
:1025C00001D1D8B2704790F87830012B02D10223A4
:1025D000D8B270474166012180F87810A0F86820D1
:1025E000A0F86A20816851B1B1F1805F0BD0B1F5DC
:1025F000805F0FD1016921B940F2FF1108E0016944
:1026000029B9FF2104E0016909B13F2100E07F21E0
:10261000A0F86C100021C16780F87810222180F8A2
:102620007A100068816841F00101816002680168E8
:1026300012F0005F05D141F4907101600023D8B21F
:10264000704741F480710160816841F08051816080
:102650000023D8B2704700002DE9F04383B042F662
:102660005D79C2F2004999F80000E8B342F6B4651A
:10267000C2F200452C7942F65350C2F20040214686
:1026800004F08EF8A978EA7842EA0121814227D144
:1026900042F65C77C2F200473E7842F6BC60C2F276
:1026A000004000EB061542F65351C2F200412846A5
:1026B0002246FDF793FF701C38700DF10A00009060
:1026C00042F2C060C2F200404FF0000829462246A4
:1026D000002301F009F838780A2828BF87F800801D
:1026E000002089F8000013E042F6B464C2F200440E
:1026F0002046062104F078F842F65350C2F200401A
:10270000007860712178002904BF617801290DD01B
:1027100042F6D040C2F2004042F65351C2F20041AC
:102720000122FFF745FF03B0BDE8F083002100223E
:10273000635C1A44D2B201310529F9D19042E7D144
:10274000227942F6D040C2F2004042F65351C2F222
:102750000041FFF72DFF012089F8000003B0BDE81C
:10276000F08300000000000070470000000000003F
:10277000FEE700000000000080B5FEF729FDFEF72F
:1027800077FF03F02DF94FF4C87003F0CDF94FF443
:10279000E13003F0C9FF4FF4E13003F0E5FFBDE89D
:1027A000804000F021B80000F0B583B040F2004452
:1027B000C5F602040DF10A06002704F5006500BF06
:1027C000CDE900760020002100224FF4FA7301F0D9
:1027D000FFF920460221FEF727FF28460821FEF7D1
:1027E00023FFEDE700000000B0B586B044F2E04002
:1027F000C5F60200016841F002010160016801F0C4
:10280000020101910199016841F004010160016830
:1028100001F0040101910199016841F00801016092
:10282000016801F0080101910199016841F040013E
:102830000160016801F0400101910199016841F0D6
:1028400080010160006800F0800001900198012083
:10285000CDE90200032004900220019040F20045DF
:10286000C5F6020501AC28462146FEF709FE4FF4E5
:102870000050019005F580602146FEF701FE88209A
:10288000019005F500602146FEF7FAFD4FF48060E7
:10289000019005F5A0502146FEF7F2FD4FF480703F
:1028A000019005F5C0502146FEF7EAFD06B0B0BD27
:1028B000FEE70000000000000A460021AFF30080A0
:1028C0002DE9F04115460C4606460027042000BFBE
:1028D00044EA07270138FBD116F0030818BF002D82
:1028E00018D1042D0BD3291F21F00302B018043096
:1028F00046F8047B043D032DFAD88D1A00E03046DB
:10290000002D08BFBDE8F08129462246FDF7ABFE49
:10291000BDE8F081684266F00301814238BF01469C
:10292000494230462246FDF79EFE08F1010000BFF5
:10293000013D06F10106D4D0411C04280846F7D316
:10294000CFE700000000000070470000000000001A
:1029500000F0070000F1040CC31EBCF1070F38BFE4
:10296000002380F00700042828BF04204FF0010C4A
:102970000CFA00F00138084098400CFA03F10139D4
:10298000114008437047000070470000000000003D
:1029900041F69C60C2F200400068002808BF704702
:1029A0000047000000000000B0B5044600F0BCF88D
:1029B00041F6A030C2F200400025057041F66800E3
:1029C000C2F20040057041F6A130C2F2004005702D
:1029D00041F69440C2F20040056041F69840C2F2D0
:1029E0000040056041F68600C2F20040057041F6E5
:1029F0008700C2F20040057041F68800C2F2004034
:102A0000057041F6A830C2F20040057047F2C430AC
:102A1000C0F6000000684CF6CD41CCF6CC41A0FBDE
:102A20000101C80841F6A431C2F20041086047F232
:102A30009830C0F60000016849B147F29430C0F602
:102A40000000006800281CBF8900FDF714FE41F655
:102A5000A860C2F20040056041F6A460C2F20040E6
:102A6000056041F6AC60C2F20040056041F69C6032
:102A7000C2F20040056041F6A060C2F2004005606D
:102A800041F6B060C2F20040056041F6B460C2F2A7
:102A90000040056041F6A640C2F20040057001F01A
:102AA000F3FC01F031FD204601F04EF9208898BB7F
:102AB000204601F0B5F9208870BB204601F0C0F92E
:102AC000208848BB204601F01FFB208820BB204601
:102AD00001F00AFD2088F8B9204601F00DFE20889B
:102AE000D0B9204602F0C0F82088A8B9204601F0ED
:102AF0005BF9208880B9204602F066FC208858B92E
:102B0000204601F089FF2088002818BFB0BD20466C
:102B100002F0BEFC208800B1B0BD01F011F9BDE8A3
:102B2000B040FFF731BF000047F29830C0F6000018
:102B3000006847F29431C0F60001096801EB80009B
:102B400020F0070041F6B861C2F20041086070470A
:102B500041F6A030C2F200400078012818BF70474B
:102B600041F66800C2F200400178F9299CBF0131AA
:102B7000017070470000000010B541F6A030C2F2AD
:102B800000400078012818BF10BDFDF71DFC044669
:102B900041F66800C2F20040017899B30139017032
:102BA00011F0FF0F2ED141F6A130C2F200400078A3
:102BB00040BB01F051FC41F68701C2F200410870B0
:102BC00000EB400041F6A001C2F2004151F82000A4
:102BD00041F69841C2F20041086041F69441C2F2C8
:102BE0000041096888420DD0D0F894100131C0F836
:102BF000941041F69C40C2F200400168013101602E
:102C000004F005FB2046BDE81040FDF7E1BB0000E5
:102C1000F0B581B014460D460646FDF7D5FB0746D4
:102C2000FEF73EFA45F24D50C5F65400C6E90005E0
:102C30000025C6E9085586F82850F56206F1080017
:102C400001F012FB304601F0F3F941F68400C2F2C4
:102C50000040018801310180FEF73EFA3846FDF759
:102C6000B7FB258001B0F0BD2DE9F04788B01C46C8
:102C700015460F4606460068DDF8409045F24D5176
:102C8000C5F65401884226D1002C1CBF00202060CC
:102C9000FDF79AFB8046FEF703FA41F6944AC2F22A
:102CA000004ADAF8000096F82810B9B1726A90422A
:102CB00026D029B2B1F1FF3F33DD41F6A131C2F296
:102CC00000410978A9B3FEF707FA4046FDF780FBFB
:102CD00046F663505FE045F6C4505CE0012186F89B
:102CE00028107062002C1CBFF16A2160314601F08F
:102CF000B3F9FEF7F1F94046FDF76AFB00204AE020
:102D0000FF2941D0481C86F82800002C1CBFF06A1F
:102D10002060FEF7E1F94046FDF75AFB45F282706C
:102D200039E0FEF7D9F94046FDF752FB46F2B01004
:102D300031E090F8371092F83700884284BF10468F
:102D400001F0EEFE6846314604223B4601F0ECF904
:102D5000FEF7C2F94046FDF73BFB00F0DDF8FDF75A
:102D600033FB0546FEF79CF9DAF8000090F83510C1
:102D7000032915D8DFE801F002171E25002C1CBF1F
:102D8000806C2060002022E0FEF7A6F94046FDF7A7
:102D90001FFB45F28470A9F8000008B0BDE8F08779
:102DA00046F62E6013E0002C1CBF806C206046F2BB
:102DB000A9100CE0002C1CBF806C206045F6C250AE
:102DC00005E0002C1CBF0020206047F2D920A9F8A4
:102DD0000000FEF781F92846FDF7FAFA08B0BDE8D1
:102DE000F0870000000000002DE9F04F83B014468A
:102DF0000E460746006845F24D51C5F6540188421B
:102E000015D1FDF7E1FA8246FEF74AF9786A41F6F4
:102E1000944BC2F2004BDBF8001081420DD0FEF75C
:102E20005BF95046FDF7D4FA45F2817501E045F6AD
:102E3000C455258003B0BDE8F08FFEF7C1F9804688
:102E4000F86297F82800013887F8280010F0FF0F83
:102E500007D0FEF741F95046FDF7BAFA45F28375FF
:102E6000E7E7DBF80000394601F042F9388A00282C
:102E700047D0DBF8005095F8370095F83890484572
:102E80001ED00290284601F01FF9484588BF4846E9
:102E900081460298814513D9284601F0C5FBDBF82D
:102EA000000080F83790484601F0F6FADBF80000A1
:102EB00001F07AFB41F68600C2F2004080F80090F3
:102EC000B868D0F80890012087F82800C7F8249047
:102ED0004846394601F0C0F8CDF800800025384654
:102EE00049460022002301F03BFAFEF7F5F8504670
:102EF000FDF76EFA30B200289BDB00F00DF80025DC
:102F000097E7002587F828507D62FEF7E5F85046E0
:102F1000FDF75EFA8DE7000010B541F66800C2F2D9
:102F20000040007841F6A131C2F20041097808431F
:102F300018BF10BDFDF748FA044601F08DFA41F6BE
:102F40008701C2F20041087000EB400041F6A00189
:102F5000C2F2004151F8200041F69841C2F200410E
:102F6000086041F69441C2F200410968884213D0DA
:102F7000D0F894100131C0F8941041F69C40C2F290
:102F8000004001680131016004F03CF92046FDF782
:102F90001FFABFF36F8F10BD2046BDE81040FDF74C
:102FA00017BA00000000000070B5044641F6A030DA
:102FB000C2F20040007801281EBF45F689602080DB
:102FC00070BD41F6A136C2F200463078F92882BFC2
:102FD00045F20920208070BDFDF7F6F90546FEF7A1
:102FE0005FF8307801303070FEF776F82846FDF74C
:102FF000EFF90020208070BDF0B581B014460E4678
:103000000746FDF7E1F90546FEF74AF8781EB0FAE3
:1030100080F0400941F6A831C2F2004108705EB963
:1030200047F2C430C0F6000000684CF6CD41CCF643
:10303000CC41A0FB0101CE0841F6A430C2F2004011
:103040000660FEF749F82846FDF7C2F90020208007
:1030500001B0F0BD00000000F0B581B0044641F6BB
:10306000A030C2F200400078012818D141F6A13604
:10307000C2F200463078A8B1FDF7A6F90546FEF782
:103080000FF83078471E3770FEF726F82846FDF710
:103090009FF917F0FF0F08D046F6635008E045F699
:1030A000896005E046F6645002E0FFF735FF002036
:1030B000208001B0F0BD0000B0B5044641F6A03557
:1030C000C2F20045287800281EBF45F68A6020809D
:1030D000B0BD01F0C1F941F68701C2F200410870AC
:1030E00041F68601C2F20041087000EB400041F653
:1030F000A001C2F2004151F820000121297041F6DF
:103100009441C2F20041086041F69841C2F2004188
:10311000086004F039F843F699202080B0BD000023
:10312000F0B581B00446FDF74FF90546FDF7B8FF4D
:1031300041F69040C2F200400026066041F6B630EB
:10314000C2F20040068041F68450C2F200400660A0
:1031500041F68C60C2F20040066041F66400C2F2A3
:103160000040066041F67400C2F200400681FDF79F
:10317000B3FF2846FDF72CF9FDF726F90546FDF7C4
:103180008FFF41F6A040C2F20040076811E000BF87
:10319000C7E92466FE67C7F8B860C7F8AC60C7E93E
:1031A0002866FEF70DF8C7F89C00A7F87460D7F8FA
:1031B000C070FDF791FF2846FDF70AF9FDF704F905
:1031C0000546FDF76DFF002FE2D141F69800C2F2EF
:1031D00000400668FDF780FF2846FDF7F9F87EB14C
:1031E000002700BFFDF7F0F80546FDF759FFB7854A
:1031F000B669FDF771FF2846FDF7EAF8002EF1D118
:103200000020208001B0F0BD2DE9F04182B00446DD
:1032100041F6C450C2F200400DF1060100F040FC3E
:10322000BDF80670002F56D100260DF106020220CF
:10323000002100F07DFCBDF80670002F4BD1FDF79A
:10324000C3F80546FDF72CFF41F6B838C2F2004836
:10325000C8F80060FDF740FF2846FDF7B9F847F2CF
:10326000C430C0F60000006847F2B031C0F600017B
:103270000968884298BF0A21B0FBF1F00DF10605FC
:1032800000212A4600F054FC41F6C450C2F200402E
:10329000294600F03DFABDF80670E7B9FDF794F84D
:1032A0000546FDF7FDFE41F69040C2F200400027C2
:1032B000076041F6C430C2F2004001210170D8F825
:1032C000000041F6BC31C2F200410860FDF704FF86
:1032D0002846FDF77DF8278002B0BDE8F0810000A8
:1032E00041F6A060C2F200400068002808BF7047A5
:1032F00000470000000000002DE9F04F89B0CDE943
:10330000072304460DF1600B9BE84009DDE9163206
:10331000DDE91479DDE912A541F29C70C2F20040AA
:10332000844207D0BAF13F0F04D146F27320ABF8C4
:10333000000071E0CDE9027604A80EC0204601F03D
:10334000A7FC0020ABF8000008F00300032807D119
:10335000B9F1000F04D04FEA89012846FDF78BF937
:10336000CDE90098029805EB800607988346089FF0
:1033700039462A46334600F0E7FA84F837A084F845
:1033800038A02060A6600599A16541F6A430C2F27C
:1033900000400068039A6260049A04F1200383E805
:1033A0002408E762C4F84090A4F844800022C4F8DE
:1033B0008020002918BF0846E06504F168000699DE
:1033C00000F0D6FD204600F02BF8FCF7FDFF054687
:1033D000FDF766FE94F8370001F05EF8204601F034
:1033E000E3F8204601F00CFC41F6A440C2F2004094
:1033F00001880131018041F6A030C2F2004004781A
:10340000FDF76AFE2846FCF7E3FF012C04D109B062
:10341000BDE8F04FFFF780BD09B0BDE8F08F0000B8
:1034200041F6A461C2F200410968002908BF704753
:1034300008470000000000002DE9F0410C46054659
:1034400041F29C70C2F20040854202BF47F24C102C
:103450002080BDE8F08175B9FCF7B6FF0646FDF7A0
:103460001FFE41F69440C2F200400568FDF734FEAD
:103470003046FCF7ADFFFCF7A7FF0646FDF710FE50
:1034800095F83600072842D8DFE800F04B16040410
:103490001916040495F83400062807D80121814044
:1034A00011F06A0F41D0284600F016FF95F836005B
:1034B00040F00400072802D1284601F061FEE86BC5
:1034C00000281CBF284600F0CBFD05F1680000F085
:1034D000F7FC284600F054F8284601F0A5FB41F619
:1034E000A440C2F20040018801390180284601F061
:1034F000CFFBFF2085F83600FDF7EEFD3046FCF7E8
:1035000067FF00202080BDE8F041FFF705BDFDF713
:10351000E3FD3046FCF75CFF46F62D602080BDE8F9
:10352000F081284601F080F8C9E70428BED1286B55
:10353000C068476A97F83780284600F0CDFE97F8B4
:10354000370097F8381088420CD095F83710884229
:1035500008D1384600F0B8FD804697F8380080451D
:1035600088BF8046002085F8340097F837008045F2
:103570009CD03846414601F0D3FA97E7000000009E
:1035800041F6A861C2F200410968002908BF7047EE
:1035900008470000000000002DE9F04F81B01E46F2
:1035A00017460D468046DDF82890002B1CBF0020F2
:1035B0003060FCF709FF0446FDF772FD41F6944BBD
:1035C000C2F2004BDBF800006830394632464B4609
:1035D00000F092FC8246B9F80000A8B128B2B0F120
:1035E000FF3F23DD41F6A130C2F20040007848B32E
:1035F000FDF772FD2046FCF7EBFE46F66350A9F896
:1036000000004FF0000A6BE056B1FDF7D9FD3168BC
:10361000401ADBF800108867CA6F824238BFC8675B
:10362000FDF75AFD2046FCF7D3FE59E046F2B010F4
:10363000A9F80000FDF750FD2046FCF7C9FE4FF049
:10364000000A4DE04FF0000A00200021022243460C
:1036500000F06AFDFDF740FD2046FCF7B9FEFFF7DC
:103660005BFCFCF7B1FE8046FDF71AFDDBF80000BD
:1036700090F83510012915D0F9B9D0F860A0B0F84C
:103680006410398066B1806C3060FDF799FDDBF81D
:1036900000108A6CCB6F801A8867834238BFC86776
:1036A000002016E0A7F800A0002E1CBF4FF0000A73
:1036B000C6F800A046F2A9100BE04FF0000AA7F8E8
:1036C00000A0002E1EBF806C30604FF0000A47F251
:1036D000D920A9F80000FDF7FFFC4046FCF778FE72
:1036E000504601B0BDE8F08FF0B583B01C461546DA
:1036F0000E460746FDF764FD0899CDE900013846FE
:1037000031462A46234601F013FB03B0F0BD00000A
:1037100070B50C460546FCF757FE0646FDF7C0FCA3
:10372000FDF7DAFC3046FCF753FE28462146BDE89B
:10373000704001F055BB000041F6AC61C2F200419F
:103740000968002908BF7047084700000000000012
:103750002DE9F04381B0984615460C460746002AED
:103760001CBF00202860FCF72FFE0646FDF798FCE2
:1037700041F69449C2F20049D9F80000C16CF9B190
:103780004F1EC764002D1CBF806C2860FDF718FD1C
:10379000D9F800108A6CD1F8AC30801AC1F8A800B2
:1037A000834238BFC1F8AC00FDF796FC3046FCF709
:1037B0000FFE0020A8F80000384601B0BDE8F083F5
:1037C00020B2B0F1FF3F10DD41F6A130C2F200405F
:1037D0000078A8B1FDF780FC3046FCF7F9FD46F60D
:1037E0006350A8F800000027E6E7FDF775FC3046B7
:1037F000FCF7EEFD46F2B010A8F800000027DBE76A
:103800000020002107223B4600F08EFCFDF764FCFF
:103810003046FCF7DDFDFFF77FFBFCF7D5FD0646E4
:10382000FDF73EFCD9F8000090F83510032915D0BB
:1038300001291AD001BB7DB1806C2860FDF7C0FC66
:10384000D9F800108A6CD1F8AC30801AC1F8A80001
:10385000834238BFC1F8AC0000200FE0002D1CBF30
:103860000020286047F2D92008E0002D1CBF806CA2
:10387000286046F2A91001E046F62E60A8F8000084
:10388000D9F80000C76CFDF727FC3046FCF7A0FD17
:1038900092E700000000000070B514460D46064691
:1038A000FDF78EFC0246304629462346BDE87040AF
:1038B00001F00ABB000000002DE9F04381B09846FA
:1038C00091460E460446FCF77FFD0746FDF7E8FBF0
:1038D00041F69440C2F200400568002C18BF25460E
:1038E000286870B1B5F84440FDF7F6FB3846FCF7A0
:1038F0006FFD14F0010F0ED10020306047F254111B
:1039000019E0FDF7E9FB3846FCF762FD0020306066
:1039100047F252110FE0686A016809B1002006E021
:10392000011D002051F820200130002AFAD030601B
:10393000296C081A0021C9F80000A8F8001001B08D
:10394000BDE8F08300000000F0B5DDF814C002EB24
:103950008C0222F007024FF0807C44F6A96EC0F67C
:10396000000E4FF012344FF003354FF0023642E9AB
:10397000073642E9055442E903E042F804CC4FF02F
:10398000113C4FF0103E4FF009364FF008354FF024
:1039900007344FF006304FF0053342E90F30A2F103
:1039A000340383E8704042E909C14FF00431104606
:1039B00040F8401D0699490758BFF0BD4FF000710F
:1039C0004FF0834042F8840C0020C4F2400000F124
:1039D000DC7300F1D87642E9136342F8441C00F12D
:1039E000D47C00F1D07E00F1CC7600F1C87500F1F6
:1039F000C47400F1C07100F1BC7300F1B87742E902
:103A00001B73A2F1640383E8724042F850CC00F1CA
:103A1000B47142F8701C00F1B07142F8741C00F1EE
:103A2000AC7142F8781C00F1A87142F87C1C00F1DE
:103A3000A47142F8801C00F1987142F8881C00F1D2
:103A4000907142F88C1C002142F8C41D00F1807175
:103A500000F1887300F5700700F5600600F5500569
:103A600002F1240C8CE8E000C2E90C134FF0824C08
:103A700000F5200300F5000700F5C0064FF0814572
:103A80004FF080444FF07E51C2E9011402F10C0165
:103A9000E1C1C2E9073C1046F0BD00000000000093
:103AA00041F29C72C2F20042904218BF01F07CBA0F
:103AB00047F25B1008807047B0B541F69444C2F2FB
:103AC0000044206890F84410490744BF006803F0A0
:103AD00045FB41F69845C2F20045286890F844102D
:103AE000490744BF006803F046FB41F6B060C2F2EC
:103AF00000400068002818BF8047FDF761FB296877
:103B000022688A421FBFD2E92735C31AC2F898300B
:103B10002B4418BFC2F8A030C1F89C00FDF7A0FAF2
:103B20002168D1F8B820824238BFC1F8B800B0BDD2
:103B30002DE9F04114460D46074641F6A130C2F288
:103B40000040007800281EBF46F663502080BDE884
:103B5000F081082D35D8DFE805F0053405340C3444
:103B600034340500002F02BF47F27E202080BDE8DC
:103B7000F081FCF729FC0646FDF792FA41F69448DD
:103B8000C2F20048D8F8000039462A46234601F020
:103B9000AFFA208830B1FDF79FFA3046BDE8F0411A
:103BA000FCF716BCD8F8000000F03EFDFDF794FAD3
:103BB0003046FCF70DFCFFF7AFF900202080BDE890
:103BC000F08145F625602080BDE8F081000000000E
:103BD0002DE9F04141F6A137C2F200473F78079C3A
:103BE000002F1EBF46F663502080BDE8F081069F7F
:103BF00007F00E07042686EA5706351F022D08D364
:103C0000062E0DD0002E1EBF45F625602080BDE893
:103C1000F081002B04BF41EA000656EA020635D0C7
:103C20004FF461667043C1EB011100EB8100104459
:103C300047F2C431C0F60001096848434FF4FA72F4
:103C4000B2FBF1F21A44514344F6D352C1F262027C
:103C5000A1FB021200EB9216C6B1FCF7B5FB0546BC
:103C6000FDF71EFA41F69448C2F20048D8F8000069
:103C7000BAB23146234601F03BFA208858B1FDF72D
:103C80002BFA2846BDE8F041FCF7A2BB47F27E20A4
:103C90002080BDE8F081D8F8000000F0C5FCFDF7F9
:103CA0001BFA2846FCF794FBFFF736F9002020802A
:103CB000BDE8F0810000000080B582B000F034F86B
:103CC00041F6BC40C2F200400DF106020021FFF7B0
:103CD000E3FD41F68600C2F20040007800EB4000B0
:103CE00041F6A001C2F2004101EB800000F0C8FCE7
:103CF00041F69860C2F2004001680139016001D0CC
:103D000002B080BD41F69461C2F2004109680160D1
:103D100041F6C450C2F200400DF106020021FFF747
:103D2000BBFD02B080BD000041F6B460C2F20040AD
:103D30000068002808BF704700470000000000002E
:103D4000704700000000000041F29471C2F200418F
:103D500000220A8041F29071C2F200410A600280A2
:103D6000704700000000000070B541F29875C2F283
:103D7000004541F6B836C2F2004600BFFCF724FB0E
:103D80000446FDF78DF9286801302860306801305D
:103D90003060FDF7A1F92046FCF71AFBFEF7F8FDAD
:103DA000ECE700000000000080B58AB041F2987195
:103DB000C2F2004100220A6008900B20CDE90620E3
:103DC000CDE9042247F2A430C0F600000068039059
:103DD00047F2A030C0F600000068029047F29C3025
:103DE000C0F60000006801903F20009041F29C70F6
:103DF000C2F2004004A143F66952C0F6000200235B
:103E0000FFF77AFA0AB080BD75432F4F532D494909
:103E1000492049646C65205461736B000000000008
:103E200041F67001C2F2004100220A8041F66C01A5
:103E3000C2F200410A6002807047000000000000EA
:103E400070B547F2A831C0F60001D1F800C047F2C2
:103E5000AC31C0F60001B1F800E0AEF101044FF65C
:103E6000FF710C4218D0AEF1020189B20CEB0111C6
:103E700001F110030CF108010022A4B2002500BFDB
:103E80000A804A6001F1080641E9026210310135F9
:103E9000AEB2A642F4D300E0634600211960D960B7
:103EA0001981596041F67402C2F20042A2F804E09E
:103EB000C2F80610C2F800C0018070BD000000000A
:103EC00001464089002808BF704741F67402C2F2DB
:103ED0000042D2F800C00B68C3F800C04B68136002
:103EE000D3881B1AD3809388034493800022C1F89F
:103EF0000A20C1E90022704784464089A8B110B564
:103F0000DCF804E0DEF80400BEF808400C80002A6B
:103F10001CBFDEF80C101160DEF80010CCF80410A5
:103F200061B1BCF80A1001390BE000200880002ABA
:103F300018BF106046F29251198070470021CCF8EA
:103F40000010ACF80A1041F67401C2F200410A6890
:103F5000CEF80020C1F800E08A8801328A80CA8841
:103F6000013ACA800021BDE8104019807047000066
:103F700001810021C0F80A10C0E90011704700005B
:103F80002DE9F04144890689DDF81CC0B44222BF06
:103F900046F29350ACF80000BDE8F08141F674059C
:103FA000C2F20045AE88002E02BF45F21D70ACF88B
:103FB0000000BDE8F081D5F800E0DEF80070013EB9
:103FC000AE80EE880136EE802F60B5F80880B7B27B
:103FD000B84538BF2E8154B1DB0610D40368C3F84E
:103FE00000E0C0F800E00023CEF800300CE0C0E9AB
:103FF00000EE012343810023CEF8003006E0436841
:10400000CEF80030C0F804E0631C4381069B44896D
:104010008589A54238BF8481AEF80820CEF8041007
:10402000CEF80C300020ACF80000BDE8F0810000B4
:104030000022426106A1C16141F68001C2F2004145
:104040000B68002B0EBF8261836158610860704766
:104050002000000000000000C26B0A62C1637047CC
:104060002DE9F04782B08246C56B45B34FF000089A
:104070004FF001092C6AFDF7A3F80646E8625046A6
:10408000294600F035F8288A90B1A8688768C5F8F5
:1040900024A085F8289038462946FFF7DDFF0096D2
:1040A000284639460022002300F05AF904E000BFF8
:1040B000C5F8248085F82880002C2546DAD102B086
:1040C000BDE8F08700000000C16B3F2001E000BFA9
:1040D000096A002904BFC0B270478A68002AF7D075
:1040E000926892F83720C3B29A4238BF1046EFE781
:1040F0003C3000BF0246036803F120008B42F9D137
:10410000006810607047000041F68401C2F200416F
:1041100000220A8041F68001C2F200410A6002805A
:104120007047000000000000F0B581B00C46054665
:1041300041F69446C2F200463068002780F8357098
:1041400080F83420194600F0D3FC5CB1EC60306894
:104150002946012200F014F804F10800294600F075
:104160008BF803E030680763A0F84670316820469A
:1041700001B0BDE8F04000F023B8000000000000EE
:1041800080B50163A0F84620002A08BF80BD4FF02B
:10419000000C4FF0000E00BFC1E904CCA1F818C01C
:1041A000C1F81CC0C1E900CC886020310EF1010EBD
:1041B0001FFA8EF39342EFD380BD00000000000091
:1041C00038B14268C1F8C42081688968096AC16150
:1041D000704791F83400072802BF07A0C1F8C40057
:1041E000704702280EBF07A047F20440C0F6000047
:1041F000C1F8C400704700BF5461736B2053656DF4
:10420000000000005461736B2051000000000000AA
:1042100047F20442C0F60002C1F8C42081680029B8
:104220000FBFC2618968096AC16170470000000060
:10423000F0B581B0B0F84660A6B1046B4FF6FF77D9
:10424000E068018A022909D300F1080528462146C1
:1042500000F05EF82846214600F00EF8013E2034BA
:104260003E42EDD101B0F0BD0021C0E90011018155
:104270007047000000000000028922B38B6893F8A9
:1042800037C001320281026812B914E0526892B15B
:10429000936893F837309C45F8D21368002B1FBF02
:1042A000C1E9003259601160704711600023C1E913
:1042B00000320160704700224A6050F8042F0A6003
:1042C000516001607047012202810022C1E9002291
:1042D000016040F8041F7047F0B581B00446B0F8A3
:1042E000466066B1256B4FF6FF7700BFE86808307F
:1042F000294600F00DF8013E20353E42F6D100205F
:104300002063A4F8460001B0F0BD000000000000EA
:1043100080B50289012A03D10023C0E9003317E0E8
:10432000D1E900ECBEF1000F07D0BCF1000F0AD0BC
:10433000CEF804C0CCF800E00AE00023CCF800304E
:10434000C0F800C004E00023CEF80430C0F804E058
:10435000013A02810020C1E9000080BD0000000098
:10436000B0B582B00C46054691F83610881FDDF8CE
:1043700018C002280ED3881E012849D894F83400AA
:10438000032813D1CDF800C02846214600F044F898
:1043900095B918E094F83400032820D1CDF800C076
:1043A0002846214600F038F8FDB925E0A4F864302D
:1043B0002266C4F848C035B12046FFF78DFF284675
:1043C0002146FFF725FF94F83600032804BF204656
:1043D00000F0D6FE204600F0A7F8002014E0A4F874
:1043E00064302266C4F848C035B12046FFF774FF38
:1043F00028462146FFF70CFF94F83600072804BF33
:10440000204600F0BDFE042084F836000020A0867F
:1044100002B0B0BD00000000B0B5B1F846C0BCF1BC
:10442000000F08BFB0BDDDF810E0096B10314FF68A
:10443000FF7400BF51F8045C854206D02031ACF116
:10444000010C1CEA040FF5D1B0BDC1E900020B81DB
:10445000C1F80CE0B0BD000010B541F69001C2F209
:104460000041086808B1002409E00431002400BFBD
:1044700051F8040B04F12002D4B20028F8D0FBF765
:10448000AEFF2044C0B210BD41F69000C2F2004021
:104490000021C0E900117047C0F3421141F6900CB1
:1044A000C2F2004C5CF821301F2222EA00000122F7
:1044B00002FA00F018434CF8210070470000000099
:1044C000C0F3421141F6900CC2F2004C5CF821306E
:1044D0001F2222EA0000012202FA00F023EA000073
:1044E0004CF821007047000041F69C01C2F20041E7
:1044F00000220A8041F69801C2F200410A6002805F
:104500007047000000000000002041F6A001C2F248
:104510000041002288508B18188158600C32B2F587
:10452000407FF7D17047000010B5044690F837007F
:10453000FFF7B2FF41F68600C2F20040007894F81F
:104540003710814204D12046BDE8104000F02CB85D
:104550002046BDE8104000F003B800000000000055
:1045600090F8371001EB410141F6A002C2F200427F
:1045700002EB81010A4632F8083F4BB10133138048
:104580000A680023C0E903230A68106108607047C5
:10459000012313800022C0E90322086041F8040FC0
:1045A000704700000000000090F8371001EB410157
:1045B00041F6A002C2F2004202EB81010A4632F843
:1045C000083F4BB1013313800022C26051F8042F21
:1045D0000261D06008607047012313800022C0E9A7
:1045E000032241F8040B086070470000000000003F
:1045F0000189022938BF704709D1D0E90012002390
:10460000C1E90332C2E90313C0E900217047D0E9D0
:104610000012CB684FF0000CC3F810C0C1E903C210
:10462000D160C0E90031704710B5044690F83700FA
:1046300000EB400141F6A002C2F2004202EB810110
:10464000D4E9032343B1088901380881DA60002ADC
:1046500014BF13614B600FE001F1080332B11888F9
:1046600001381880002010610A6005E000221A80DD
:10467000C1E90022FFF724FF0020C4E9030010BDB8
:10468000B0B5054641F6A830C2F2004000780128D6
:1046900018BFB0BDFBF798FE0446FCF701FD286883
:1046A00008B341F29C71C2F2004188421BD0C16D37
:1046B00011B10139C16516D12889012813D941F6F4
:1046C000A130C2F20040007868B92846FFF790FF99
:1046D00041F6A430C2F20040006829688A6D002AC1
:1046E00018BF1046C865FCF7F7FC2046BDE8B0408F
:1046F000FBF76EBE0000000041F6B031C2F200418F
:1047000000220A8041F6AC31C2F200410A60028008
:1047100070470000000000002DE9F04F83B041F623
:10472000C436C2F20046307801280FD047F2B030CC
:10473000C0F60000006844000DF10A052046002183
:104740002A46FFF7F5F930780128F7D10DF10A0470
:104750002046FEF7E5FC47F2C430C0F600000068D2
:1047600047F2B031C0F600010968884298BF0A21BB
:10477000B0FBF1F000904FF0000942F2107841F6E2
:10478000A046C2F2004614E0FCF71AFD0199401A57
:1047900041F69041C2F20041096881423EBF41F6B4
:1047A0009041C2F200410860009800212246FFF7C4
:1047B000BFF9FCF705FD0190FCF762FC41F66401CE
:1047C000C2F200410860FBF7FFFD0746FCF768FCFA
:1047D00041F6B830C2F2004001460068C1F80090CE
:1047E00041F6C031C2F200410D460860FCF774FC8E
:1047F0003846FBF7EDFD286841F6BC31C2F20041B6
:10480000096881420AD941F68022C0F2060291422B
:104810000CD2012242F210732AE000BF41F6B430FC
:10482000C2F20040A0F800903BE000BF40F600124A
:10483000C0F23D02914203D20A224FF47A7317E08C
:1048400045F60022C0F26222914202D26423642221
:104850000EE048F20042C1F2D772914242F2107269
:1048600038BF4FF47A724FF0010338BF0A2300BFFC
:10487000B1FBF2F15843B0FBF1F0A8EB000041F6B8
:10488000B431C2F20041088081B241F6B632C2F2C0
:10489000004212888A423EBF41F6B631C2F2004160
:1048A0000880FEF71DFDFBF78FFD0746FCF7F8FBC0
:1048B0003668FCF711FC3846FBF78AFD86B3002505
:1048C000FBF782FD0746FCF7EBFBD6F8A000C6E934
:1048D0002890FCF701FC3846FBF77AFDD6F8A44097
:1048E000FBF772FD0746FCF7DBFBD6F8C060FCF770
:1048F000F3FB3846FBF76CFD2544002EE0D1ADB14B
:1049000041F68020C0F2060085420DF10A0441F60E
:10491000A046C2F2004614D2012042F2107B33E0DE
:104920004FF0010A4FF0000B06E000BF4FF0010A04
:104930004FF0000B0DF10A0441F6A046C2F200460A
:1049400024E040F60010C0F23D00854203D20A2068
:104950004FF47A7B18E045F60020C0F262208542D1
:1049600003D24FF0640B64200EE048F20040C1F225
:10497000D770854242F2107038BF4FF47A704FF012
:10498000010B38BF4FF00A0BB5FBF0FAFBF71CFD2B
:104990000546FCF785FB376823E000BFD7F8A40085
:1049A00000FB0BF0B0FBFAF081B2414588BF42F248
:1049B0001070A7F8900081B2B7F892208A4238BFF1
:1049C000A7F8920007F1B40107F1B0023846234678
:1049D000FEF772FFFBF7F8FC0546FCF761FBD7F822
:1049E000C070FCF779FB2846FBF7F2FC002FD5D10D
:1049F00041F6B230C2F20040007801287FF4C4AE24
:104A000041F6B230C2F2004080F800902046FEF736
:104A100087FBB9E60000000041F6C031C2F2004158
:104A200000220A6041F6B831C2F200410A6041F644
:104A3000BC31C2F200410A6041F6C431C2F2004109
:104A40000A7041F6B231C2F200410A7047F2B43145
:104A5000C0F600010968002902BF46F62B610180FB
:104A6000704747F2BC32C0F60002126847F2C0330A
:104A7000C0F600031B689A423EBF46F62C610180D7
:104A8000704747F2AE33C0F600031B783F2B22BFBE
:104A900046F62A610180704780B58AB008900320ED
:104AA00007900020CDE90500CDE90320CDE90031D4
:104AB00047F2B830C0F600000068029041F6C830F6
:104AC000C2F2004004A144F21972C0F600020023B1
:104AD000FEF712FC0AB080BD75432F4F532D494994
:104AE000492053746174205461736B00000000000E
:104AF00010B50A46044641B141F6B440C2F2004046
:104B0000214600F0B1FA032000E0022084F83600CC
:104B10002046BDE81040FFF787BD00000000000000
:104B2000F0B581B00D460446012600BF94F836006A
:104B300007282CD806FA00F111F0CC0F39D094F8E0
:104B4000377084F8375094F83400042821D1204677
:104B5000FFF76EFB206BC068446A94F83700E9B237
:104B60008F4203D9884210D811E000BFB8420CD15F
:104B70002046FFF7A9FA054694F8370094F8381054
:104B80008D4288BF0D46854201D0002CCED101B0A8
:104B9000F0BD0628FBD8012101FA00F010F06A0FE1
:104BA0001FBF204601B0BDE8F040FFF741BB01B098
:104BB000F0BD012101FA00F010F0320F1EBF84F8A1
:104BC000375001B0F0BD2046FFF72EFD84F8375076
:104BD000E8B2FFF761FC41F69440C2F20040006881
:104BE000844205D0204601B0BDE8F040FFF7DCBCB0
:104BF000204601B0BDE8F040FFF7B2BC0000000065
:104C00000022C0F8BC2041F6A041C2F200410B686E
:104C1000002B0EBFC0F8C020C0F8C030C3F8BC00E5
:104C2000086070470000000050F8BC3F014651F892
:104C3000042F33B16AB1C3F8C020C2F8BC300A46B1
:104C400009E041F6A040C2F20040026032B1BC323D
:104C500002E003F1C002014600201060002008605D
:104C6000704700000000000041F69C41C2F2004184
:104C700000220A6041F6A441C2F200410A8041F6D6
:104C8000A041C2F200410A600280704700000000AB
:104C9000B0B504460025C0E90055C0E90255C0E999
:104CA0000455C0E906551EA0A4F84650A564256623
:104CB000A4F86450C4E90805C4E90A55256304F161
:104CC00068000021FFF754F9A4F844502564C4E9B2
:104CD0001355C4E91555E56584F88E50A4F88C5039
:104CE000C4E91E55C4E92055C4F88850C4E92455C8
:104CF000C4F89850C4E92A55C4E92C55FCF760FA69
:104D0000C4E927054FF080406063402084F83800F4
:104D1000E56305A0C4E92E55C4E93050B0BD00BF1D
:104D20003F5461736B000000200000000000000091
:104D30002DE9F04383B0984616460F4605460B9C76
:104D400000202080FBF740FB8146FCF7A9F941F6E3
:104D50009440C2F200400168002D18BF294691F826
:104D60003620072A2FD80A98012303FA02F212F0FC
:104D7000330F04BF91F83420022A10D0CDE900048B
:104D800001F16800394632464346FFF7F9F8FCF76F
:104D9000A3F9484603B0BDE8F043FBF719BB009008
:104DA00000203A463346FFF7DBFAFCF795F9484610
:104DB000FBF70EFB0FFA88F000280CDB03B0BDE810
:104DC000F043FEF7A9B8FCF787F94846FBF700FB6C
:104DD00046F62D60208003B0BDE8F083000000009F
:104DE00070B50E460546FBF7EFFA0446FCF758F996
:104DF0000020308095F83600072811D8DFE800F051
:104E00000404040419283440FCF766F92046FBF733
:104E1000DFFA47F253103080BDE87040FEF77CB8EF
:104E2000FCF75AF92046FBF7D3FA46F62D6030809E
:104E300070BD95F88E00013885F88E0010F0FF0FD8
:104E400029D1002085F836002846FFF76DFB22E0C7
:104E500095F88E00013885F88E0010F0FF0F04BF22
:104E6000012085F8360016E095F88E00013885F8A7
:104E70008E0010F0FF0F04BF022085F836000AE014
:104E800095F88E00013885F88E0010F0FF0F04BFF2
:104E9000032085F83600FCF71FF92046FBF798FA47
:104EA000BDE87040FEF738B880B582B041F6944056
:104EB000C2F200400068FEF73FFC0DF10601002041
:104EC000FEF7BAFA02B080BD2DE9F04381B01D466D
:104ED000164688460446FBF777FA8146FCF7E0F869
:104EE00041F69440C2F200400768002C18BF2746E4
:104EF000BE640020288097F8360007283BD801219F
:104F000001FA00F010F0330F09D0F86C461C28D0DD
:104F1000FE64FCF7E1F84846FBF75AFA3EE097F8E2
:104F20003400072813D100960020394600220023C0
:104F3000FFF716FAFE6CFCF7CFF84846FBF748FA85
:104F40000FFA88F0002829DBFDF7E6FF26E0F86C71
:104F5000461C1AD0FE64FCF7BFF84846FBF738FA47
:104F60001CE0FCF7B9F84846FBF732FA46F6C550A4
:104F70002880002612E0FCF7AFF84846FBF728FA35
:104F800046F62D602880002608E0FCF7A5F8484684
:104F9000FBF71EFA46F6C55028800026304601B0C1
:104FA000BDE8F0830000000070B50E460546FBF733
:104FB0000BFA0446FCF774F841F69440C2F2004044
:104FC0000068002D08BF054685420ED141F6A1308C
:104FD000C2F20040007840B1FCF77EF82046FBF7B3
:104FE000F7F946F66350308070BD0020308095F8A8
:104FF000360007280BD8DFE800F0131D2227040431
:10500000040495F88E00013085F88E0022E0FCF74C
:1050100063F82046FBF7DCF946F62D60308070BD62
:10502000012085F88E00042085F836002846FFF719
:10503000FBFA0FE0012085F88E00052008E0012032
:1050400085F88E00062003E0012085F88E000720F9
:1050500085F83600FCF740F82046FBF7B9F9BDE8C3
:105060007040FDF759BF000080B503688BB100BFE9
:105070009C461B6D9A4215D9D21ADCF81430002BCD
:10508000F6D10A650022C1E9052CC861CCF81410DC
:1050900027E000230A65C1E90533C8610122828047
:1050A000016080BDDCF818E00A65BEF1000F0CD08D
:1050B000C1E905CEC861CCF81810DCF850309A1A56
:1050C000CCF85020CEF814100BE00023C1E905C342
:1050D000C861CCF81810DCF850309A1ACCF850207F
:1050E000016081880131818080BD000000000000E6
:1050F00070B51E460B460146082A0CD0042A16D16C
:1051000041F6A840C2F2004000681B1A581E10F574
:10511000803F27D30CE04A6D41F6A840C2F2004020
:105120000068841A9C4206D9184448651AE0CBB935
:10513000002008650FE0A3EB040CACF1010515F5A8
:10514000803F0CD30022B4FBF3F505FB1345184454
:10515000401BC1E9142047F27E20308070BDD0187A
:1051600048656346012081F8360041F6AC40C2F242
:1051700000401A46FFF778FF0020308070BD000025
:10518000D0E90523C16983B15A61002A1FBF936129
:10519000D2F850C0036D634418BF136500228261CA
:1051A0008B88013B8B80426116E092B180B54FF055
:1051B000000CC2F818C0D2F850E0036D73441365B8
:1051C0000A608A88013A8A80C0F814C0BDE880402D
:1051D00002E000228A800A600021C16101657047F7
:1051E0002DE9F047FBF7F0F88046FBF759FFFBF796
:1051F000E7FF814641F6AC47C2F200473E6836B34E
:10520000306D013830654FF000054FF0000422D1B9
:105210004FF0040A002400BF013496F83600052838
:1052200008D0012808D186F836503046FFF77CF9BF
:1052300002E000BF86F836A076693E604EB1B888BD
:105240000138B880B561306D0028E5D003E0002456
:1052500001E00020B880FC80FBF7B2FF0646FBF7B8
:105260003BFF4046FBF7B4F8A6EB0900BDE8F0872A
:105270002DE9F04F81B0FBF7A7F88046FBF710FF50
:10528000FBF79EFF814641F6B444C2F20044266813
:10529000002E57D0306D013830654FF0000A4FF0C6
:1052A000000553D14FF4407B002500BF96F8340031
:1052B000042803D1306BC068476A00E00027A6F8D5
:1052C00064A0C6F860A0FBF77BFFB0643046FFF730
:1052D00003F896F83600072806D0032807D1304691
:1052E000FFF722F9002000E0042086F8360001359F
:1052F000A6F834B0D7B197F8370097F8381088423D
:1053000014D096F83710884210D13846FEF7DCFEEC
:10531000014697F8370097F83820914288BF114628
:1053200081421CBF3846FFF7FBFB00BF7669266051
:1053300056B1A0880138A080C6F818A0306D0028AA
:10534000B4D003E0002501E00020A080E580FBF759
:1053500037FF0646FBF7C0FE4046FBF739F8A6EBE1
:10536000090001B0BDE8F08FF0B581B00DF1020485
:1053700041F6A846C2F2004641F68457C2F2004701
:1053800017E000BFFBF720F80546FBF789FE306801
:1053900001303060FBF7A0FE2846FBF719F8FFF755
:1053A0001FFF0546FFF764FF28443968814238BF74
:1053B00038600020002100222346FEF7C9F9BDF81D
:1053C00002000028F5D1DDE741F6AC41C2F2004110
:1053D000002241F6A843C2F200431A6041F6B443EA
:1053E000C2F20043C1E90022C3E9002247F2CC31F6
:1053F000C0F600010968002902BF47F212210180AE
:10540000704747F2D432C0F60002126847F2C03348
:10541000C0F600031B689A423EBF47F21321018089
:10542000704747F2C833C0F600031B783F2B22BFFA
:1054300047F211210180704780B58AB008900B2097
:1054400007900020CDE90500CDE90320CDE900312A
:1054500047F2D030C0F600000068029041F6BC4030
:10546000C2F2004004A145F26932C0F600020023F6
:10547000FDF742FF0AB080BD75432F4F532D4949B8
:1054800049205469636B205461736B000000000075
:1054900010B58AB0044641F69050C2F20040002197
:1054A000016041F68850C2F20040016041F68C5024
:1054B000C2F20040018041F69060C2F200400160FB
:1054C00041F68C60C2F20040016047F2C430C0F681
:1054D0000000006847F2DC31C0F6000109680029CD
:1054E00008BF0A21B0FBF1F041F69461C2F200411D
:1054F000086041F69861C2F20041086041F694509C
:10550000C2F2004024A12246FDF782FB208808B1A8
:105510000AB010BD47F2E030C0F60000006870B17C
:1055200047F2E831C0F60001096847F2C032C0F620
:1055300000021268914205D247F248300BE047F270
:10554000473008E047F2D832C0F6000212783F2A0E
:1055500004D347F2463020800AB010BD08940B23D4
:1055600007930023CDE90533CDE90313CDE90020EE
:1055700047F2E430C0F600000068029041F6C450E3
:10558000C2F2004008A145F2E152C0F60002002339
:10559000FDF7B2FE0AB010BD4F5320546D72204D7E
:1055A000757465780000000075432F4F532D4949ED
:1055B000492054696D6572205461736B00000000CE
:1055C00080B584B00DF10E00009041F69450C2F207
:1055D000004002AB00210022FDF746FB04B080BD75
:1055E0002DE9F04F83B00DF10A0541F6906BC2F240
:1055F000004B41F69059C2F2004941F68C6AC2F262
:10560000004A03240BE000BFFBF7DAFD801BDAF849
:105610000010814238BFCAF8000000F05DF8002099
:10562000002101AA2B46FEF793F8FFF7C9FFFBF70D
:10563000C7FD0646DBF800000130CBF80000D9F8C2
:105640000080B8F1000F07D1DEE700BF2846FDF764
:1056500003FDB8F1000FD7D047462846FDF7A4FC5C
:10566000D8F81080B8690138B861EFD1B88C022839
:1056700002D1386AB86104E0384600F009F887F8CA
:105680002640BA68002AE1D0F96838469047DDE73D
:1056900041F69052C2F200421168814206D0D0E930
:1056A00004121161002918BF4A6105E00169116007
:1056B00000291CBF00224A610021C0E90411012118
:1056C00080F8261041F68C50C2F200400188013962
:1056D000018070470000000080B582B041F6945010
:1056E000C2F200400DF106020021FDF77DFB02B081
:1056F00080BD0000000000002DE9F04385B00DF1F1
:1057000012064FF00009CDE900960020002100228A
:105710004FF47A73FEF75CFAFBF7B2FD40F6000433
:10572000C5F6020404AD0FF2680804F5805712E0D4
:10573000CDE900960020002100224FF49673FEF779
:1057400047FA20464FF40051FBF76EFF38464FF4FE
:105750008061FBF769FF0096002000212A460023A4
:10576000FDF71AFFBDF812100029E1D1018890ED74
:10577000010A90ED021AB7EEC11AB7EEC00A029103
:105780008DED001B53EC102B4046FAF7ABFECFE734
:10579000743D25662C20683D25662C2069643D25D6
:1057A000640D0A000000000070B54EF61450CEF2F1
:1057B000000000210167BFF34F8FC16E4FF600421A
:1057C000CFF6FF7262EAD10EC1F34E32C9088B07E1
:1057D00043F6E07C0CEA42111C46754644EA010699
:1057E000C0F84C6204F140440135F7D1511E002A43
:1057F0000A46EFD1BFF34F8F016841F48031016059
:10580000BFF34F8FBFF36F8F70BD0000000000002B
:10581000BFF34F8FBFF36F8F4EF61450CEF20000E0
:105820000021C0F83C12BFF34F8FBFF36F8F0168A8
:1058300041F400310160BFF34F8FBFF36F8F7047AA
:105840007047000000000000F0B58BB0FBF7A4FB30
:105850000DF12A042046FDF7D7FCFBF701FC0120DF
:105860000A212246FDF7C8FBFAF7AEFD0546FBF715
:1058700017FC0894072600274FF40070332141F6E7
:10588000C062C2F200420423CDE90032CDE9021029
:10589000CDE90477CDE9067642F2C060C2F200405D
:1058A0002CA145F2F962C0F600020023FDF724FDA9
:1058B000089480200C2140F23062C2F2004205239D
:1058C000CDE90032CDE90210CDE90477CDE90676C5
:1058D00040F26850C2F2004023A142F2A972C0F621
:1058E00000020023FDF708FD08944FF48070192191
:1058F00040F2A002C2F200420623CDE90032CDE917
:105900000210CDE90477CDE9067640F2A040C2F25C
:10591000004018A141F21932C0F600020023FDF741
:10592000EBFCFBF7D9FB2846FAF752FD42F6D040D4
:10593000C2F2004042F65351C2F200410122FCF78C
:1059400037FE42F68830C2F200402146FFF72CFBBA
:105950000BB0F0BD72656365697665206461746142
:10596000207461736B0000006C6564312074617396
:105970006B000000666C6F61742074657374207432
:1059800061736B0000000000B0B501380024B4EB77
:10599000106F1EBF01242046B0BD4EF21005CEF29E
:1059A000000568604FF0FF300F2100F045FFAC604C
:1059B000072028602046B0BD80B5FBF749FE41F6C0
:1059C000A030C2F200400078012818BF80BDFDF76A
:1059D000BFF8FEF771F9BDE88040FDF7CDB80000D3
:1059E000B0B59CB044F2F440C5F6020050F8F41C87
:1059F00041F0800140F8F41C016841F002010160AF
:105A0000006800F0020009900998FBF72DFD09A835
:105A10004C21FAF730FE0021CDE90711CDE905113F
:105A2000CDE90311CDE9011144F61800C5F60200D5
:105A300050F80C2C22F0040240F80C2C0091016864
:105A400041F440410160016801F440410091009936
:105A5000016811F4005FFBD04FF480300A90012000
:105A600009900220CDE9120005211491A021CDE971
:105A70001510CDE91700082419940025CDE91A5511
:105A800009A8FCF75DF900B1FEE7032002903F2072
:105A90000190CDE903544020CDE905004FF4806129
:105AA000CDE9071001A80221FBF76EFF002804BF13
:105AB0001CB0B0BDFEE700004EF6885CCEF2000CD4
:105AC000DCF8001041F47001CCF8001044F2004101
:105AD000C5F602010A6842F001020A6000220A616A
