:020000040800F2
:10000000C06A002439030008F96B00086132000857
:10001000616B0008D906000811AE0008000000005E
:10002000000000000000000000000000599D0008D2
:10003000790A000800000000DDB00008D99E000821
:1000400073030008730300087303000873030008B8
:1000500073030008730300087303000873030008A8
:100060007303000873030008730300087303000898
:100070007303000873030008730300087303000888
:100080007303000873030008730300087303000878
:100090007303000873030008730300087303000868
:1000A0007303000873030008730300087303000858
:1000B0007303000873030008730300087303000848
:1000C0007303000873030008730300087303000838
:1000D0007303000821AD000841AD00087303000858
:1000E0007303000873030008000000007303000896
:1000F0007303000873030008730300087303000808
:1001000073030008730300087303000873030008F7
:1001100073030008730300087303000873030008E7
:1001200073030008730300087303000873030008D7
:1001300073030008730300087303000873030008C7
:1001400000000000000000000000000000000000AF
:1001500073030008730300087303000873030008A7
:100160007303000873030008730300087303000897
:100170007303000873030008730300080000000005
:100180007303000873030008730300087303000877
:100190007303000873030008730300087303000867
:1001A0007303000873030008730300087303000857
:1001B0007303000873030008730300087303000847
:1001C0007303000873030008730300087303000837
:1001D0007303000873030008730300087303000827
:1001E0007303000873030008730300087303000817
:1001F0007303000873030008730300087303000807
:1002000073030008730300087303000873030008F6
:1002100073030008730300087303000873030008E6
:100220007303000873030008730300080000000054
:100230007303000873030008000000007303000844
:1002400073030008730300087303000873030008B6
:1002500073030008730300087303000873030008A6
:100260007303000873030008730300087303000896
:100270007303000873030008730300080000000004
:100280007303000800000000730300080000000072
:10029000000000007303000800F002F800F03CF8D2
:1002A0000AA090E8000C82448344AAF10107DA45D1
:1002B00001D100F031F8AFF2090EBAE80F0013F0E7
:1002C000010F18BFFB1A43F0010318474CF600005A
:1002D0006CF60000103A24BF78C878C1FAD85207EB
:1002E00024BF30C830C144BF04680C6070470000B0
:1002F0000023002400250026103A28BF78C1FBD82F
:10030000520728BF30C148BF0B6070471FB50AF0C5
:1003100013FF1FBD10B510BD00F0A5F91146FFF782
:10032000F5FF0AF03DFE00F0C3F903B4FFF7F2FF5A
:1003300003BC00F091F9000011488047DFF8440049
:10034000016841F470010160BFF34F8FDFF838009E
:10035000016821F040410160BFF36F8F0B480047F7
:10036000FEE7FEE7FEE7FEE7FEE7FEE7FEE7FEE765
:10037000FEE7FEE706480749074A084B70470000BA
:10038000D99F000888ED00E034EF00E099020008F2
:10039000C05E0024C06A0024C0600024C060002445
:1003A00072B6704762B67047EFF3108072B670474E
:1003B00080F31088704730BF704720BF7047B0FA95
:1003C00080F0704790FAA0F0B0FA80F0704790FA91
:1003D000A0F0704753EA020C00F069802DE9F04B61
:1003E0004FF00006002B1FBFB3FA83F503FA05F4A4
:1003F00024FA05F65E4012BF1643B2FA82F502FAFD
:1004000005F4C5F120051EBF22FA05FC44EA0C04E0
:10041000203556EA044C4FEA144418BF641C4FF0D0
:1004200000084FF00009904271EB030C39D300290A
:1004300019BFB1FA81F701FA07F6B0FA80F700FAAE
:1004400007F6C7F120071EBF20FA07FC46EA0C0694
:100450002037B6FBF4FCA7EB0507103F07F01F0B96
:10046000CBF120062CFA06F60CFA0BFB44BFB34680
:100470000026202FA4BF5E464FF0000B5BEA060C5F
:1004800008BF4FF0010B19EB0B0948EB0608ABFB5B
:10049000027C06FB02CC0BFB03CCC01B71EB0C01F6
:1004A000C1E70B46024641464846BDE8F08B13B50E
:1004B0004FF000004FF00001AFF30080BDE81C409A
:1004C0007047032A40F2308010F0030C00F01580D2
:1004D00011F8013BBCF1020F624498BF11F801CB47
:1004E00000F8013B38BF11F8013BA2F1040298BFAC
:1004F00000F801CB38BF00F8013B11F0030300F016
:100500005780083AC0F0088051F8043B083A51F887
:1005100004CBA0E80810F5E7121D5CBF51F8043BBE
:1005200040F8043BAFF30080D20724BF11F8013B31
:1005300011F801CB48BF11F8012B24BF00F8013B93
:1005400000F801CB48BF00F8012B704702F0FF0311
:1005500043EA032242EA024200F05EB84FF0000292
:1005600000B5134694469646203922BFA0E80C50A9
:10057000A0E80C50B1F12001BFF4F7AF090728BF84
:10058000A0E80C5048BF0CC05DF804EB890028BF00
:1005900040F8042B08BF704748BF20F8022B11F029
:1005A000804F18BF00F8012B7047704770477047A5
:1005B00010B5203AC0F00B80B1E81850A0E81850F0
:1005C000B1E81850A0E81850203ABFF4F5AF5FEA40
:1005D000027C24BFB1E81850A0E8185044BF18C9E5
:1005E00018C0BDE810405FEA827C24BF51F8043B8C
:1005F00040F8043B08BF7047D20728BF31F8023BE0
:1006000048BF11F8012B28BF20F8023B48BF00F873
:10061000012B70474FF000020429C0F0128010F047
:10062000030C3FF49DAFCCF1040CBCF1020F18BFDA
:1006300000F8012BA8BF20F8022BA1EB0C01FFF75B
:100640008FBF5FEAC17C24BF00F8012B00F8012BAB
:1006500048BF00F8012B704701491820ABBEFEE7E8
:10066000260002007047754600F02CF8AE460500E3
:100670006946534620F00700854618B020B5FFF7BD
:1006800079FEBDE820404FF000064FF000074FF024
:1006900000084FF0000BAC46ACE8C009ACE8C0095C
:1006A000ACE8C009ACE8C00921F007018D467047ED
:1006B00010B50446AFF300802046BDE81040FFF7B8
:1006C00034BE0000004870471800002400000000FD
:1006D00001F086BE00000000FEE700000000000000
:1006E00080B500F0E5F800F007F8BDE8804000F0C4
:1006F000DBB80000000000002DE9F04140F290005E
:10070000C2F200400025058040F27800C2F20040AD
:10071000058040F28800C2F20040056040F28C0083
:10072000C2F20040056040F27C06C2F2004635602D
:1007300040F28007C2F200473D6040F28408C2F2F6
:100740000048C8F80050FFF72FFE0446356000F05F
:100750004BF800F065F83D6030683560C8F800007F
:100760002046BDE8F041FFF723BE00000000000076
:1007700040F28401C2F200410968814228BF084664
:10078000401A70470000000010B5FFF70DFE40F260
:100790007C01C2F200410C68FFF70AFE2046BDE86A
:1007A0001040FFF7E5BF000010B5FFF7EDFF04466E
:1007B000FFF7FAFD40F27C01C2F2004100220A601C
:1007C000FFF7F6FD204610BD10B5FFF7EDFD40F236
:1007D0008001C2F200410C68FFF7EAFD2046BDE847
:1007E0001040FFF7C5BF000010B540F27800C2F21C
:1007F000004001880131018040F29004C2F20044BF
:10080000208830B900F080F840F28801C2F200413F
:10081000086020880130208010BD0000000000002A
:1008200040F29000C2F200400188013901804FF689
:10083000FF70014218BF704780B500F065F840F2C4
:100840008C01C2F20041086040F28801C2F200410E
:100850000968401A40F27C01C2F200410A688242F3
:10086000BDE8804038BF086040F28001C2F200411C
:100870000A68824238BF086070470000000000002C
:1008800010B5FFF791FD0446FFF7AEFF40F292006E
:10089000C2F20040102106F067F9FFF7C1FF2046C1
:1008A000BDE81040FFF784BDFFF7EABF000000007D
:1008B00040F2A400C2F200400021016000F008B83C
:1008C00040F2A401C2F2004108607047000000003D
:1008D00080B5FFF7FDFE4EF6FC51CEF200010A682E
:1008E00042F080720A6041F20001CEF20001002263
:1008F0004A600A6842F001020A60BDE88040FFF7E2
:10090000DFBF00000000000041F20400CEF2000052
:10091000006870470000000080B509F08DF909F00B
:1009200057F94EF69C70CEF20000016841F00401C8
:10093000016080BD000000004FF4FC6101EA50112D
:100940004FF4604202EA90121143C0F3C40008431E
:100950007047000000000000B0B540F20044C5F64A
:100960000204206820F0407020602068206020464B
:100970004FF4805100F074FBA0B100210D4601201E
:100980000AF0EEFA20464FF4805100F069FB691C32
:10099000CAB2632A01D80028F0D1E8B2622884BF25
:1009A0000120B0BD20464FF4805100F059FB0028D3
:1009B0001CBF0020B0BD00210D4601200AF0D0FA76
:1009C00020464FF4805100F04BFB691CCAB2632AE9
:1009D00001D80028F0D0E9B20020622988BF0120A8
:1009E000B0BD00000000000080B586B044F2E040D9
:1009F000C5F60200016841F002010160006800F0E4
:100A0000020001900198012002904FF48051019161
:100A100003900320049040F20040C5F6020001A9B3
:100A200000F052FA00F004F8FFF796FF06B080BD20
:100A300010B540F20044C5F60204206820F0407072
:100A40002060206840F08070206020464FF4805184
:100A5000002200F011FB14200AF04EFA20464FF459
:100A60008051012200F008FB1E20BDE810400AF072
:100A700077BA00000000000070470000000000008E
:100A800010B543F62820C2F2004043F63464C2F2A7
:100A90000044C0F800440A2140F8041B4FF47F7161
:100AA000FFF75CFD04F1100000210222C0E90011F3
:100AB0008160027320300131FF29F7D110BD0000A1
:100AC00070B584B00AF0A0F80DF10E05002641F6CD
:100AD0000044C5F6020400BFCDE9006500200021F6
:100AE00000224FF4FA7307F0CBF920464FF48071DF
:100AF00000F0BEFAF0E70000B3F5804F18D1B0B5B2
:100B000050F822C00023CCF6F0730CEA030CD1E9B4
:100B1000003ED1E9024543EA0C0343EA0E1343EADF
:100B2000042343EA054389691943BDE8B04001E065
:100B30006FF0704140F82210002070470000000064
:100B40002DE9F043D1E900C8D1E902E901F110072C
:100B5000F0CF50F82C2040F28043CFF6C0731A40FB
:100B600042EA080242EA0E0242EA090222432A430A
:100B7000324342EA070901F1200898E8F8018A6B3C
:100B800043EA090323432B4333433B431A4342EADB
:100B90000802BEF1080F08BF42F0400240F82C20C6
:100BA0000A6BB2F5801F04D10B684BB103681A437E
:100BB00002600A68002A1FBF496B02681143016086
:100BC0000020BDE8F08300002DE9F04700EB820330
:100BD000D3F80490D1E900EA01F1080898E8E001AF
:100BE0008A6940F2000CCFF6F07C0CEB075709F055
:100BF000404444EA0E0444EA0A1444EA052545EA5E
:100C0000064637433A4308F1FE0742EA07625A6054
:100C1000026812F4801F07D0426809690CEB015189
:100C200022F47002114341600020BDE8F08700000B
:100C30002DE9F0410B680268012B20D1D1E901E7D1
:100C4000D1E90365D1E9058CD1E90734496A22F479
:100C5000F8421A43224311434268016047F6FF718C
:100C600022EA010141EA0E0139433143294341EAB5
:100C7000080141EA0C0141600020BDE8F08147F61F
:100C8000FF7322EA030CD1E90132D1E903E401F157
:100C9000140898E8E00143EA0C031A4342EA0E0202
:100CA00022432A4332433A4342EA0802496A114343
:100CB00001600020BDE8F081426942EA41014161E2
:100CC000002070470000000080B581B00022009233
:100CD000D1E900C3D1E9022E6FF01F0101EB4211EF
:100CE00043EA0C02114341EA4E210091009901614F
:100CF000002001B080BD0000F0B58368012A33D127
:100D000040F6FF72CFF60F721A4091E82810D1E931
:100D1000034ED1E905614FF20007CFF6FF7707EBED
:100D2000043422430024CFF6F07404EB065422432B
:100D3000C46882606FF00F0202EB051204F0704489
:100D4000013B23431A436FF0FF0303EB0C231A43C9
:100D50000023CFF6FF7303EB0E431A43FF3142EA41
:100D60000161C1600020F0BDD1E900C2D1E902E417
:100D70006FF00F0505EB021203F07043ACF10105B3
:100D80002B431A436FF0FF0303EB0E231A434FF27A
:100D90000003CFF6FF7303EB04331A430B690025FE
:100DA000CFF6FF7505EB03431A434B690025CFF6D9
:100DB000F07505EB03531A438969FF3142EA01617B
:100DC00081600020F0BD000010B390F835100229BA
:100DD0001CD101684FF6F072CBF6FD721144B1F5EB
:100DE000956F18D8042180F8351001680F22C4F2DD
:100DF0000202914252D940F2B942C4F20202914237
:100E00004CD2086820F0010008604CE08021416568
:100E100001210846704701680A6822F00E020A6044
:100E2000D0F800C040F2B943C4F202039C450B461F
:100E300038BF63460F22C4F20202944598BF0B46A6
:100E4000196821F001011960016E0A6822F48072AC
:100E50000A60C26D012101FA02F245F20443C5F6AF
:100E600002031A60D0E919235360C26E002A1FBF23
:100E7000136823F480731360D0E91C2318BF5360F8
:100E800080F83510002180F83410026D22B180B551
:100E900090470021BDE8804008467047006801681F
:100EA00021F00101016000210846704700000000A8
:100EB00040F22040C5F60000016841F001010160E8
:100EC00070470000000000002DE9F04F83B042F2AF
:100ED0000042C5F602020A23904208BF092301938B
:100EE00000F1264202F1FF724FEAB2220092002284
:100EF00040F2040CC5F6000C4FF0010E00274FF035
:100F0000000809E00232043708F10108B8F1100FB7
:100F100004BF03B0BDE8F08F0EFA08FA0E6816EAB7
:100F20000A09EFD04E6846F01006122E12D107F0D3
:100F30001C060F2303FA06F44FF6FC73C7F6FF7383
:100F400003EA580303441D6A25EA04040D69B54009
:100F50002C431C620323934004689C43D1F804B0E3
:100F60000BF0030595402C430460DE43BBF1120FE8
:100F700015D80EFA0BF313F0061F1FBF836833401A
:100F8000CC6894401FBF23438360CBF3001303FA64
:100F900008F31FBF446824EA0A0423434360C3687C
:100FA00033408C6894402343C3605FEACB03A9D5E8
:100FB00044F2F443C5F602031C461B6843F00203E7
:100FC0002360236803F002030293029B28F00303CB
:100FD00040F20844C5F60004A3461C5907F00C056E
:100FE0000F26AE4024EA060A009C092C019E38BF59
:100FF000264606FA05F545EA0A0443F80B40DCF8F4
:101000007C3043EA09044D6815F4803F08BF23EAA9
:101010000904CCF87C40DCF8803043EA090415F47C
:10102000003F08BF23EA0904CCF880404FF0B046E7
:10103000336843EA090415F4801F08BF23EA090452
:101040003460DCF8003043EA090415F4001F08BFDF
:1010500023EA0904CCF8004054E700000000000037
:101060000069084018BF0120704700000000000020
:101070004269514041617047002A0CBF418301839E
:10108000704700000000000045F6B860C2F2004062
:10109000006870470000000040F21000C2F20040FB
:1010A000007845F6B861C2F200410A681044086051
:1010B000704700000000000080B5032000F01CFA1B
:1010C0000F2000F009F800281CBF012080BD00F0AF
:1010D000FBF9002080BD0000B0B5044640F21000CE
:1010E000C2F2004000784FF47A71B1FBF0F040F2A8
:1010F0000801C2F200410968B1FBF0F001F01CFEEA
:1011000001250F2C0CD858B900254FF0FF3021468F
:10111000002200F0E1F940F21400C2F20040046045
:101120002846B0BD000000002DE9F041044690F8CB
:10113000A0300220012B2DD084F8A1004FF001082F
:1011400084F8A080342002FB0040D1E900CED1E930
:101150000267D1E90435C0E91235C0E91067C0E97A
:101160000ECED1E906CED1E90865D1E90A37C0E94A
:101170001837C0E91665C0E914CE0B6B83662046AC
:1011800005F04EFC2068C0F82480002084F8A00000
:1011900084F8A180C0B2BDE8F0810000000000002A
:1011A00010B50446002804BF012010BD94F8A1002A
:1011B00028B9002084F8A000204600F065F802203D
:1011C00084F8A1002068816921F070418161D4E92F
:1011D00001C2D4E9033142EA0C021A431143826985
:1011E0001143816181684FF6000CCFF2000C01EAD7
:1011F0000C018160D4E90513826843EA014111437F
:101200008160C16801EA0C01C160D4E90712C368BA
:1012100042EA01411943C160016901EA0C0101611F
:10122000D4E90912036942EA0141194301614169A4
:1012300001EA0C014161D4E90B12436942EA014120
:101240001943416194F8351094F83620C36A03F0CD
:101250007F43C362120442EA012194F8342011430F
:10126000C26A1143C162416B41F006014163816969
:1012700041F0010181610020C4F8A400012184F83B
:10128000A11010BD0000000070B586B044F2E0402F
:10129000C5F60200416841F008014160416801F073
:1012A00008010191019950F80C1C41F0100140F81F
:1012B0000C1C50F80C1C01F01001019101990168FF
:1012C00041F002010160016801F002010191019900
:1012D000016841F020010160016801F020010191E5
:1012E0000199016841F040010160016801F040018D
:1012F00001910199016841F080010160016801F0EC
:10130000800101910199016841F4807101600068D8
:1013100000F4807001900198012002902021019139
:1013200003900326049640F20045C5F6020501AC81
:1013300028462146FFF7C8FD022002904FF4806046
:1013400001900020CDE903060E20059005F58050A0
:101350002146FFF7B9FD4FF40C60019005F5A05050
:101360002146FFF7B1FD4FF47E40019005F5C050D6
:101370002146FFF7A9FD40F2F760019005F5E05026
:101380002146FFF7A1FD06B070BD0000000000007F
:10139000F0B581B0054690F8A0400220012C1CD089
:1013A00085F8A100012785F8A070342003FB0054C4
:1013B00044F8381FD4E90A060844B118C4E9010208
:1013C000E160284621461A4605F02AFB2868476254
:1013D000002085F8A00085F8A170C0B201B0F0BD72
:1013E00070B5054690F8A0400220012C1CD085F86D
:1013F000A100012685F8A060342003FB005454F8B6
:10140000380FC4E90A1208446060A0681044E06024
:10141000284621461A4605F003FB2868466200204C
:1014200085F8A00085F8A160C0B270BD0000000082
:1014300010B542784EF69C5ECEF2000E4EF8042CAB
:101440000278F2B14368CEF80030037B42EA0372BF
:1014500090F808C0437A817AC47A42EA046242EA88
:10146000C141427B41EA8241827B41EA4241C07BE9
:1014700041EA004040EA032040EA4C00CEF8040074
:1014800010BD0020CEF80000CEF8040010BD000012
:101490004EF62450CEF20000016821F48031016044
:1014A000016F21F00101016770470000000000009A
:1014B0004EF62450CEF2000005210167016841F488
:1014C000803101607047000070470000000000009C
:1014D00009F0D6BC0000000070B514460D46064663
:1014E00009F0DEFC2946224605F08AFB014630461B
:1014F000BDE8704009F0DCBC09F0EEBC0000000063
:1015000080B500F0B9FF44F21841C5F60201096840
:101510004FF4807292FAA2F2B2FA82F201F4706190
:10152000D1404BF25212C0F60002515CC84040F26A
:101530000801C2F20041086080BD00000000000008
:1015400080B500F04DFF44F22041C5F60201096864
:10155000102292FAA2F2B2FA82F201F07001D140A6
:101560004BF25212C0F60002515CC84080BD000030
:1015700080B544F2384CC5F6020C5CF8102C5CF8CF
:1015800010EC5CF80C3C03F01003DCF80410C1F321
:10159000CC0111FB03F102F00303CEF3053200EEA0
:1015A000101AB8EE400A022B0FD09BB95CF8381C19
:1015B00049F20003C0F2D03311F0200F1EBF5CF8D7
:1015C000381CC1F3C101CB4008E047F64003C0F22C
:1015D0007D1303E040F60013C0F23D03DCF8001079
:1015E0006FF35F2101EE101A9FED1F2AB3FBF2F19A
:1015F000DCF80020B8EE411AC2F34622B7EE003AFA
:1016000004EE101A00EE021A511CB8EE440A31EE34
:10161000031A02EE101AB8EE422A21EE000A80EEFA
:10162000021ABCEEC11A80ED001ADCF80010C1F3FA
:101630000641013101EE101AB8EE411A80EE011A8E
:10164000BCEEC11A80ED011ADCF80010C1F306618E
:10165000013101EE101AB8EE411A80EE010ABCEE1B
:10166000C00A80ED020A80BD0000003900000000C1
:1016700080B544F2404CC5F6020C5CF8182C5CF8BE
:1016800018EC5CF8143C03F48073DCF80410C1F32C
:10169000CC0111FB03F102F00303CEF3055200EE7F
:1016A000101AB8EE400A022B0FD09BB95CF8401C10
:1016B00049F20003C0F2D03311F0200F1EBF5CF8D6
:1016C000401CC1F3C101CB4008E047F64003C0F223
:1016D0007D1303E040F60013C0F23D03DCF8001078
:1016E0006FF35F2101EE101A9FED1F2AB3FBF2F199
:1016F000DCF80020B8EE411AC2F34622B7EE003AF9
:1017000004EE101A00EE021A511CB8EE440A31EE33
:10171000031A02EE101AB8EE422A21EE000A80EEF9
:10172000021ABCEEC11A80ED001ADCF80010C1F3F9
:101730000641013101EE101AB8EE411A80EE011A8D
:10174000BCEEC11A80ED011ADCF80010C1F306618D
:10175000013101EE101AB8EE411A80EE010ABCEE1A
:10176000C00A80ED020A80BD0000003900000000C0
:101770002DE9F04381B00446C078000744F22C48BC
:10178000C5F602082FD5606E4FEA305003280AD8FC
:10179000DFE800F0020B1521D8F8000040F400301B
:1017A000C8F8000017E001251EE0D8F8000040F45A
:1017B0000010C8F80000201D08F0F6F809E0D8F87D
:1017C000000040F08070C8F8000004F1240008F028
:1017D0004FF9054640B9D8F82400616E20F4401056
:1017E0000843C8F8240000256078C00701D12E46C0
:1017F00036E0606D042807D82E46DFE800F00719B0
:10180000230303005EBB09E0012628E0D8F80000AE
:1018100040F40030C8F800002E4606BBD8F824007B
:10182000616D20F007000843C8F82400002617E087
:10183000D8F8000040F40020C8F80000201D08F08F
:10184000B3F809E0D8F8000040F48000C8F80000C0
:1018500004F1240008F00CF90646002EDED03543D2
:101860006078800736D5A06D4FEAB010042806D8FE
:10187000DFE800F007182203030056BB08E001264A
:1018800027E0D8F8000040F40030C8F8000006BB9C
:10189000D8F82400A16D20F4E0700843C8F82400B3
:1018A000002617E0D8F8000040F40020C8F8000037
:1018B000201D08F079F809E0D8F8000040F4800015
:1018C000C8F8000004F1240008F0D2F80646002E03
:1018D000DED035436078400738D5D4F8A4004FEA0D
:1018E0007050042806D8DFE800F00719230303002E
:1018F0005EBB08E0012628E0D8F8000040F4003084
:10190000C8F800000EBBD8F82C00D4F8A41020F4BE
:1019100060000843C8F82C00002617E0D8F8000043
:1019200040F40020C8F80000201D08F03DF809E050
:10193000D8F8000040F48000C8F8000004F124004A
:1019400008F096F80646002EDDD035436078000793
:1019500038D5D4F8A8004FEA3060042806D8DFE86C
:1019600000F00719230303005EBB08E0012628E00E
:10197000D8F8000040F40030C8F800000EBBD8F8DA
:101980002C00D4F8A81020F0E0600843C8F82C0020
:10199000002617E0D8F8000040F40020C8F8000046
:1019A000201D08F001F809E0D8F8000040F480009C
:1019B000C8F8000004F1240008F05AF80646002E8A
:1019C000DDD03543E07880072AD5A06C4FEA30108F
:1019D00003280ED8DFE800F0020F1702FEB9D8F88E
:1019E0002000A16C20F030000843C8F82000002639
:1019F00016E0012613E0D8F8000040F40030C8F8E3
:101A0000000066B9EBE7D8F8000040F40010C8F811
:101A10000000201D07F0C8FF0646002EDFD035432A
:101A20006078C00636D5E06D4FEA3030042806D81D
:101A3000DFE800F007182203030056BB08E0012688
:101A400027E0D8F8000040F40030C8F8000006BBDA
:101A5000D8F82400E16D20F4E0400843C8F82400E1
:101A6000002617E0D8F8000040F40020C8F8000075
:101A7000201D07F099FF09E0D8F8000040F480002D
:101A8000C8F8000004F1240007F0F2FF0646002E1B
:101A9000DED03543607880062ED5206E4FEA304088
:101AA000052806D8DFE800F0030711030303C6B9D1
:101AB00019E0012615E0D8F8000040F48010C8F8BD
:101AC0000000201D07F070FF09E0D8F8000040F486
:101AD0000000C8F8000004F1240007F0C9FF064622
:101AE0000EB1354308E0D8F82400216E20F4E02040
:101AF0000843C8F8240000266078400630D5D4F8A2
:101B0000AC004FEA3070052806D8DFE800F0030784
:101B100011030303C6B919E0012615E0D8F8000047
:101B200040F48010C8F80000201D07F03DFF09E0D8
:101B3000D8F8000040F40000C8F8000004F12400C8
:101B400007F096FF06460EB1354309E0D8F82C00A1
:101B5000D4F8AC1020F0E0400843C8F82C00002670
:101B60006078000626D5E06E58B1B0F1005F0AD06B
:101B7000B0F1805F1CD1D8F8000040F40030C8F804
:101B80000000B6B90AE0D8F8000040F48010C8F8A8
:101B90000000201D07F008FF064656B9D8F82400BB
:101BA000E16E20F040500843C8F82400002601E010
:101BB00001263543E078C00728D0606C03280ED892
:101BC000DFE800F0020F1702FEB9D8F82000616CC0
:101BD00020F003000843C8F82000002616E0012684
:101BE00013E0D8F8000040F40030C8F8000066B9EF
:101BF000EBE7D8F8000040F40010C8F80000201D02
:101C000007F0D2FE0646002EDFD03543A07840060E
:101C100064D5D8F8D40340F48070C8F8D403FFF733
:101C200033FA0746D8F8D40310F4807F06D1FFF7C3
:101C30002BFAC01B6428F5D9032600E00EB135430A
:101C40004CE0D8F84410D4F8B000414011F4407F83
:101C500011D0D8F84410D8F8442042F48032C8F8A3
:101C60004420D8F8442022F48032C8F8442021F4DB
:101C70004071C8F84410B0F5807F14D1FFF704FA22
:101C80000746D8F8440010F0020F0CD141F2883911
:101C9000FFF7FAF9C01B484500F28782D8F84400E4
:101CA00010F0020FF4D0D4F8B00058F81C1C21F446
:101CB0007C5100F44072B2F5407F01BF4FF6CF7205
:101CC000C0F2FF0202EA1012114348F81C1CD8F8B7
:101CD00044106FF31F300843C8F844002078C00751
:101CE0002ED0A06F4FEAF000052806D8DFE800F0FC
:101CF000030711030303C6B919E0012615E0D8F85C
:101D0000000040F48010C8F80000201D07F04CFED1
:101D100009E0D8F8000040F40000C8F8000004F121
:101D2000240007F0A5FE06460EB1354308E0D8F8BA
:101D30002800A16F20F038000843C8F828000026CA
:101D4000207880072CD5606F052806D8DFE800F0E2
:101D5000030711030303C6B919E0012615E0D8F8FB
:101D6000000040F48010C8F80000201D07F01CFEA1
:101D700009E0D8F8000040F40000C8F8000004F1C1
:101D8000240007F075FE06460EB1354308E0D8F88A
:101D90002800616F20F007000843C8F828000026DB
:101DA000207840072ED5D4F89000052806D8DFE823
:101DB00000F0030711030303C6B919E0012615E07B
:101DC000D8F8000040F48010C8F80000201D07F08B
:101DD000EBFD09E0D8F8000040F40000C8F800006E
:101DE00004F1240007F044FE06460EB1354309E035
:101DF000D8F82C00D4F8901020F007000843C8F859
:101E00002C0000262078800630D5D4F88C004FEACC
:101E10003070052806D8DFE800F00307110303033C
:101E2000C6B919E0012615E0D8F8000040F40020FA
:101E3000C8F80000201D07F0B7FD09E0D8F8000041
:101E400040F08070C8F8000004F1240007F010FE94
:101E500006460EB1354309E0D8F82800D4F88C10B6
:101E600020F0E0400843C8F828000026207840060B
:101E700030D5D4F898004FEAB020052806D8DFE81E
:101E800000F0030711030303C6B919E0012615E0AA
:101E9000D8F8000040F40020C8F80000201D07F02A
:101EA00083FD09E0D8F8000040F08070C8F8000019
:101EB00004F1240007F0DCFD06460EB1354309E0CD
:101EC000D8F82C00D4F8981020F4E0500843C8F853
:101ED0002C0000262078000630D5D4F89C004FEA6C
:101EE0007030052806D8DFE800F00307110303036C
:101EF000C6B919E0012615E0D8F8000040F400202A
:101F0000C8F80000201D07F04FFD09E0D8F80000D8
:101F100040F08070C8F8000004F1240007F0A8FD2C
:101F200006460EB1354309E0D8F82C00D4F89C10D1
:101F300020F460400843C8F82C00002620780007F1
:101F400015D5D4F88010B1F5805F09D104F12400D3
:101F500007F08EFDD8F8000040F08071404605E0A3
:101F6000404650F8282F22F4405211430160207857
:101F7000C00616D5D4F89400B0F5807F0AD104F1DC
:101F8000240007F075FDD8F8000040F08070C8F814
:101F9000000006E0D8F82C1021F440710843C8F87E
:101FA0002C00A07800072BD5D4F8A000B0F5003F96
:101FB00018D0B0F5803F0AD000BBD8F8000040F43C
:101FC0000020C8F80000201D07F0EEFC09E0D8F85A
:101FD000000040F08070C8F8000004F1240007F011
:101FE00047FD06465EB9D8F82C00D4F8A01020F4BE
:101FF00040300843C8F82C00002601E00126354394
:10200000A07840072BD5D4F88400B0F5401F0BD042
:10201000B0F5001F0AD0B0F5801F1ED1D8F800001F
:1020200040F40030C8F80000C6B90BE0D8F8000052
:1020300040F40000C8F8000004F1240007F018FD87
:1020400006465EB9D8F82800D4F8841020F4401071
:102050000843C8F82800002601E001263543A0788F
:10206000C00723D0E06CB0F5803F08D0E0B9D8F8C5
:10207000000040F40030C8F80000B6B90AE0D8F813
:10208000000040F40010C8F80000201D07F08CFC90
:10209000064656B9D8F82000E16C20F48030084399
:1020A000C8F82000002601E001263543206810F022
:1020B000005F13D181031FD4C1023ED4C10046D4B6
:1020C00081024FD4410057D4B0F1FF3F64DD002DB1
:1020D00018BF0125284601B0BDE8F083D8F80000FC
:1020E00040F08070C8F8000004F1240007F0C0FC44
:1020F000054320688103DFD5E16F6FF0010202EB39
:102100003122022A0AD34FEA31223AB1012A10D1F0
:10211000D8F8002042F40032C8F8002056B9D8F8A8
:10212000282022F440721143C8F82810C102C5D5F6
:1021300003E001263543C102C0D5D8F82410226F30
:1021400021F000411143C8F82410C100B8D558F857
:102150001C1CD4F8B42021F48041114348F81C1C05
:102160008102AFD5D8F82410A26E21F080711143FE
:10217000C8F824104100A7D558F81C1C21F40041D0
:1021800048F81C1CD4F8B81058F81C2C114348F817
:102190001C1CB0F1FF3F9ADCD8F82000216D20F024
:1021A00040500843C8F8200091E745F00305032696
:1021B00094E50000000000002DE9F04381B00D46D9
:1021C000044642F20008C5F20028D8F8000000F0EA
:1021D000070088420CD2D8F8000020F007002843FE
:1021E000C8F80000D8F8000000F00700A84260D14D
:1021F000206844F21047C5F6020710F0020F05D020
:10220000B968E26821F00F011143B960C0073ED1FF
:10221000D8F8000000F00700A8420CD9D8F8000058
:1022200020F007002843C8F80000D8F8000000F0AC
:102230000700A84258D1206810F0040F3BD10107D5
:1022400041D4C10647D4800605D53869E16920F03C
:1022500070000843386100F00FF9B9684FF48072DC
:1022600092FAA2F2B2FA82F201F47061D1404BF21A
:102270005212C0F60002515CC84040F20801C2F29E
:10228000004108600F20FEF727FF0020A3E0B86898
:10229000A16820F470600843B8606068032825D006
:1022A00002282AD157F8101C11F4003F31D1012027
:1022B00091E001208FE0B968226921F0700111439B
:1022C000B9600107BDD5F968626921F07001114359
:1022D000F960C106B7D5F968A26921F4E06111433C
:1022E000F9608006B1D4B6E7012074E057F8101CFD
:1022F00011F0007F0DD101206DE057F8101C01286E
:1023000003D1C90505D4012065E0490701D40120A6
:1023100061E0396821F0070108433860FEF7B4FE38
:1023200006466068012816D0032828D002283AD132
:10233000386800F0380010283FF46AAF41F288395D
:10234000FEF7A2FE801B484540D8386800F03800F0
:102350001028F5D15CE7386800F0380008283FF411
:1023600057AF41F2883900BFFEF78EFE801B48450B
:102370002ED8386800F038000828F5D148E73868CA
:1023800000F0380018283FF443AF41F2883900BF0D
:10239000FEF77AFE801B48451CD8386800F03800EC
:1023A0001828F5D134E7386810F0380F3FF430AF13
:1023B00041F28839FEF768FE801B484504D838682A
:1023C00010F0380FF6D123E7032004E0032002E0E9
:1023D000032000E00320C0B201B0BDE8F08300009C
:1023E00080B5FFF78DF844F21841C5F6020109687F
:1023F000012292FAA2F2B2FA82F201F00F01D14068
:102400004BF25212C0F60002515CC84040F20C017F
:10241000C2F20041086080BD80B5FFF7E1FF44F2E1
:102420001C41C5F602010968102292FAA2F2B2FA22
:1024300082F201F07001D1404BF25212C0F600025C
:10244000515CC84080BD000080B5FFF7C9FF44F271
:102450001C41C5F6020109684FF4807292FAA2F29B
:10246000B2FA82F201F4E061D1404BF25212C0F6AE
:102470000002515CC84080BD44F20041C5F6020133
:102480000869C0F3C20240F60010C0F23D00032A02
:1024900017D0022A02BF47F64000C0F27D107047F5
:1024A000002A18BF70470A6849F20000C0F2D03015
:1024B00012F0200F1FBF0968C1F3C101C840704767
:1024C000704780B5D1F828E0D1F828C0CB6A4A6BB4
:1024D00003F001035B4203EAD2026FF35F320EF0B6
:1024E000030300EE102ACCF30512B8EE400A022BCB
:1024F000BDE880400DD083B90B6849F20000C0F2FE
:10250000D03013F0200F1EBF0B68C3F3C103D840B7
:1025100003E047F64000C0F27D100B6B6FF35F23C2
:1025200001EE103A9FED102AB0FBF2F0096BB8EE05
:10253000411AC1F34621B7EE003A04EE100A00EE4C
:10254000021A481CB8EE440A31EE031A02EE100AD1
:10255000B8EE422A21EE000A80EE020ABCEEC00A62
:1025600010EE100A704700BF0000003900000000A4
:10257000F0B581B004460078C00744F20046C5F6C5
:1025800002065FD0306900F03800102808D13068AA
:1025900010F4003F56D06068002853D10120D3E1E9
:1025A000306900F03800182804D1B06A00F0030048
:1025B0000228ECD0606868B1B0F5803F06D0316881
:1025C000B0F5A02F23D141F480203060306840F472
:1025D000803022E0306820F480303060306820F4B1
:1025E00080203060FEF750FD0546306810F4003F53
:1025F00028D041F2883700BFFEF746FD401BB842A5
:1026000000F22F82306810F4003FF5D11AE021F477
:1026100080303060306820F480203060FEF734FD78
:102620000546306810F4003F0CD141F2883700BFF6
:10263000FEF72AFD401BB84200F26081306810F4BA
:10264000003FF5D02078800765D5306910F0380F4D
:102650001FD0306900F03800182804BFB06A10F0AD
:10266000030F16D0E0683168002843D021F019012B
:1026700008433060FEF708FD054600BF306810F0E3
:10268000040F29D1FEF700FD401B0228F6D90320D4
:102690005AE1306810F0040F03D0E068002800F021
:1026A0002B813068E16820F0190008433060FEF7A4
:1026B000EBFC0546306810F0040F06D1FEF7E4FC91
:1026C000401B0228F6D903203EE1706821694FF4CF
:1026D0007C3292FAA2F205E0706821694FF47C32F4
:1026E00092FAA2F2B2FA82F2914020F47C300843CE
:1026F000706010E021F001003060FEF7C5FC054677
:10270000306810F0040F06D0FEF7BEFC401B022814
:10271000F6D9032018E12078C00641D5306900F0D1
:102720003800082809D0306900F03800182813D183
:10273000B06A00F0030001280ED1306810F4807FE9
:102740001CBFE069802840F0D5807068216A4FF096
:10275000F84292FAA2F21CE0E1693068002900F028
:10276000B68040F080003060FEF78EFC054600BF6A
:10277000306810F4807F06D1FEF786FC401B0228EB
:10278000F6D90320E0E07068216A4FF0F84292FA2F
:10279000A2F2B2FA82F2914020F0F8400843706051
:1027A0002078000725D56169706F81B140F0010084
:1027B0007067FEF769FC0546706F10F0020F18D1C4
:1027C000FEF762FC401B0228F6D90320BCE020F093
:1027D00001007067FEF758FC054600BF706F10F0EF
:1027E000020F06D0FEF750FC401B0228F6D903204A
:1027F000AAE02078800626D5A169306889B140F426
:1028000080503060FEF740FC054600BF306810F491
:10281000005F18D1FEF738FC401B0228F6D90320D0
:1028200092E020F480503060FEF72EFC054600BF99
:10283000306810F4005F06D0FEF726FC401B02282B
:10284000F6D9032080E02078400773D5D6F800043D
:1028500040F48070C6F80004FEF716FC054600BF81
:10286000D6F8000410F4807F06D1FEF70DFC401B63
:102870006428F5D9032067E0A06858B1012805D085
:10288000316F05283CD141F004003067306F40F0D3
:1028900001003BE0306F20F001003067306F20F026
:1028A00004003067FEF7F0FB0546306F10F0020FB2
:1028B00040D041F2883700BFFEF7E6FB401BB8422C
:1028C00000F2D180306F10F0020FF5D132E020F02D
:1028D00080003060FEF7D8FB054600BF306810F47A
:1028E000807F3FF45DAFFEF7CFFB401B0228F5D998
:1028F000032029E0012027E0012025E0032023E038
:1029000021F001003067306F20F004003067FEF7DF
:10291000BBFB0546306F10F0020F0BD141F2883738
:10292000FEF7B2FB401BB84200F29780306F10F008
:10293000020FF5D0676A37B1306900F03800182807
:1029400005D1012000E00020C0B201B0F0BD306828
:1029500020F080703060FEF797FB0546306800F08D
:102960000070022F6BD140B1FEF78EFB401B022896
:102970007BD8306810F0007FF6D1B06A40F2F331B6
:102980008843D4E90A12084340EA0210B06204F115
:1029900030030FCB7F324FF4FE0707EA024200F20A
:1029A000FF106FF35F207F31490289B20843104363
:1029B00003F17F014FF0FE4202EA016108433063F8
:1029C000706B4FF6F8718843A26C91FAA1F1B1FADD
:1029D00081F102FA01F108437063F06A216C20F082
:1029E0000C000843F062F06A616C20F002000843BA
:1029F000F062F06A40F48030F062F06A40F4003037
:102A0000F062F06A40F48020F062F06A40F0010069
:102A1000F062306840F080703060FEF735FB0446AD
:102A2000306810F0007F1AD1FEF72EFB001B022841
:102A30001FD83168002011F0007FF5D084E708B975
:102A4000002081E7FEF720FB401B03280FD23168EE
:102A5000002011F0007FF5D176E7032074E7002015
:102A600072E7032070E703206EE703206CE7032082
:102A70006AE7032068E70000B0B50D460446002869
:102A800004BF0120B0BD94F82C0028B9002084F8C0
:102A90002D00204600F01CF8022084F82C0020684D
:102AA000211DFEF7C5F8D4E900022946FEF724F9F6
:102AB00044F20000C5F20020016841F000410160CD
:102AC000012084F82C000020B0BD000000000000B0
:102AD000B0B586B044F2E040C5F60200416941F06D
:102AE00002014161416901F002010191019950F82F
:102AF0000C1C41F4805140F80C1C50F80C1C01F4E3
:102B0000805101910199016841F00401016001685F
:102B100001F0040101910199016841F0080101608F
:102B2000016801F0080101910199016841F010016B
:102B30000160016801F0100101910199016841F003
:102B400020010160016801F02001019101990168F3
:102B500041F040010160006800F0400001900198E0
:102B6000022002900D200190012003900320049088
:102B70000C20059040F60005C5F6020501AC28467C
:102B80002146FEF7A1F94CF20370019005F5806033
:102B90002146FEF799F94FF68370019005F5006024
:102BA0002146FEF791F94FF63F00019005F5406090
:102BB0002146FEF789F948F23710019005F580505B
:102BC0002146FEF781F906B0B0BD0000000000000C
:102BD00010B5044690F82C200220022A08D084F870
:102BE0002C002068FEF768F8012084F82C000020F3
:102BF000C0B210BD00000000B0B50D46044690F80C
:102C00002C10022002290DD084F82C0020682946BF
:102C1000FEF75AF828680121022808BF052184F828
:102C20002C100020C0B2B0BD70B515460E4604464B
:102C3000002804BF012070BD94F8450028B9002089
:102C400084F84400204600F023F8206804F10801CD
:102C5000FDF776FF2068A2683146FDF7B5FFD4E99D
:102C60000102E36A2946FDF747FF2068A16850F892
:102C7000212042F0010240F8212044F20000C5F278
:102C80000020016841F000410160002070BD00009B
:102C9000B0B586B044F2E040C5F6020050F80C1C16
:102CA00041F4805140F80C1C50F80C1C01F4805188
:102CB00001910199016841F008010160016801F08A
:102CC000080101910199016841F01001016000685B
:102CD00000F0100001900198022002904EF2B370B3
:102CE000019001200390032004900C20059040F6F1
:102CF0000044C5F6020401AD20462946FEF7E4F87B
:102D00004FF68070019004F580602946FEF7DCF8EC
:102D100006B0B0BD000000004EF21001CEF200017E
:102D20000A6822F00403042808BF42F004030B6081
:102D3000704700000000000007F0B6B80000000077
:102D40007047000000000000704700000000000015
:102D5000B0B504460168CA69D1F800C08D6812F0A8
:102D60000F0F58D00120C1F2000028400CF49073DE
:102D700018435ED0D0071FBF1CF48070012008628A
:102D8000E06F1CBF40F00100E06705F00100930711
:102D900008D500281FBF02230B62E36F43F0040332
:102DA00018BFE367530708D500281FBF04230B6231
:102DB000E36F43F0020318BFE36713070ED50CF06F
:102DC000200E05F0805343EA0E0318431FBF08206E
:102DD0000862E06F40F0080018BFE067E06F00286D
:102DE0007AD0900608D50CF0200005F080510843F9
:102DF0001CBF204607F018FAE06F10F0080F37D11B
:102E00002068806810F0400F32D12046FFF79CFF09
:102E10000020E067B0BD90060BD50CF0200E05F049
:102E2000805050EA0E0004D02046BDE8B04007F0C4
:102E3000FBB9D0020FD515F480000CD04FF48010F0
:102E40000862202084F8790084F87A002046BDE8E2
:102E5000B040FFF775BF100627D50CF0800005F4D1
:102E60000003184321D02046BDE8B04007F04CBE17
:102E7000204607F0BDF92068816811F0400F1DD091
:102E8000816821F040018160606FB8B14AF2E111C0
:102E9000C0F600010165FDF797FF002808BFB0BD2F
:102EA000606F016DBDE8B040084702EA0C004006C3
:102EB00009D52046BDE8B04007F0AAB92046BDE8D4
:102EC000B040FFF741BF100206D51CF080401EBF86
:102ED000086820F080400860B0BD000000000000DD
:102EE00010B50446A8B194F8790028B9002084F8F8
:102EF0007800204600F028F8242084F87900206823
:102F0000016821F001010160204607F0C9F901289C
:102F100001D1012010BD606B00281CBF204607F0C6
:102F2000B3F82068416821F490414160816821F044
:102F30002A018160016841F0010101602046BDE87D
:102F4000104007F015B90000F0B587B005460068DD
:102F500044F20047C4F2000707F54C410024C5F6CF
:102F6000020444F2E046C5F60206884208D0B842A0
:102F700031D0286807F58061884254D007B0F0BD91
:102F8000306840F001003060306800F001000290CD
:102F90000298306940F010003061306900F0100094
:102FA00002900298022003904FF4C0610291012127
:102FB000CDE904100720069002A92046FDF784FF02
:102FC000252000210022FEF787FA2520FEF780FA4F
:102FD0002868B842CDD1306840F0010030603068D8
:102FE00000F0010001900198B06840F40030B0603A
:102FF000B06800F4003001900198022003900C2189
:1030000002910121CDE904100720069002A9204673
:10301000FDF75AFF262001210022FEF75DFA262047
:10302000FEF756FAA5E7B06840F48020B060B068BB
:1030300000F4802001900198306840F00200306078
:10304000306800F0020001900198022003904FF4D4
:10305000406102910121CDE904100720069004F59A
:10306000806002A9FDF730FF272002210022FEF731
:1030700033FA2720FEF72CFA07B0F0BD000000005D
:1030800090F87A30202B0AD10123002918BF002A9A
:1030900001D1D8B2704790F87830012B02D10223C9
:1030A000D8B270474166012180F87810A0F86820F6
:1030B000A0F86A20816851B1B1F1805F0BD0B1F501
:1030C000805F0FD1016921B940F2FF1108E0016969
:1030D00029B9FF2104E0016909B13F2100E07F2106
:1030E000A0F86C100021C16780F87810222180F8C8
:1030F0007A100068816841F001018160026801680E
:1031000012F0005F05D141F4907101600023D8B244
:10311000704741F480710160816841F080518160A5
:103120000023D8B2704700002DE9F04383B045F684
:10313000B566C2F200463078012823D000286BD152
:1031400043F6F414C2F200442046062107F088FE3C
:1031500043F28300C2F200400078607121780029B8
:1031600004BF617801295AD042F63830C2F20040DB
:1031700043F28301C2F200410122FFF781FF03B055
:10318000BDE8F08343F6F415C2F200452C7943F212
:103190008300C2F20040214607F03EFEA978EA789B
:1031A00042EA012181422AD145F6B469C2F20049BE
:1031B00099F8007045F61460C2F2004000EB071564
:1031C00043F28301C2F2004128462246FDF779F915
:1031D000781C89F800000DF10A00009042F2A84026
:1031E000C2F200404FF0000829462246002304F0B6
:1031F000D3FB99F800000A2828BF89F80080002036
:10320000307042F63830C2F2004043F28301C2F21D
:1032100000410122FFF734FF03B0BDE8F083002135
:10322000002200BF635C1A44D2B201310529F9D1F2
:10323000904299D1227942F63830C2F2004043F2EE
:103240008301C2F20041FFF71BFF0120307003B081
:10325000BDE8F0830000000070470000000000009F
:10326000FEE700000000000080B5FDF755FBFDF70C
:1032700023FF06F045FE4FF4C87006F0E5FE06F0A9
:10328000F3FC00F0B5F94FF4E13007F069FD4FF4BD
:10329000E13007F085FDBDE8804002F09DBF0000F1
:1032A00070B5044643F60820C2F20040006820B121
:1032B0002046BDE8704002F0F3BF43F6FA10C2F2B8
:1032C0000040458806880020002102F0FDFD75437E
:1032D00002F06EFF002D08BF70BD0020C6F208008E
:1032E0000480013DFCD170BD2DE9F04F81B08946CD
:1032F000824643F60820C2F20040006830B15046D2
:10330000494601B0BDE8F04F02F0F2BFC9F101003B
:1033100018444FF6FF71084224D00A9EA2EB0A011E
:1033200001311FFA80FB88B20090440000250F0491
:1033300040F20008C6F2080805EB090081B25046C9
:1033400002F0C2FD02F034FF47B10098314600BFE1
:1033500031F8022BA8F800200138F9D126440135B4
:103360005D45E9D101B0BDE8F08F0000000000002C
:10337000B0B543F6FA14C2F20044A07143F6082532
:10338000C2F20045296829B103F016F8D5F81600F5
:103390002060B0BD90B140F24010C0F2F00020605B
:1033A000A08845F20F51884225DC41F6631188421E
:1033B00048D045F21031884225D076E0F020C0F2A6
:1033C00040102060A08845F20F5188422BDC41F666
:1033D0006311884250D045F21031884265D12B20CC
:1033E000A0812C20C0F22A00A06040F24010C0F260
:1033F000E010206059E045F2105188422ED049F289
:103400004131884251D12B21A1812C21C0F22A01C6
:10341000A16045F21031884202BF40F2E010C0F2D4
:103420004010206041E045F21051884230D049F20E
:103430004131884239D12B20A0812C20C0F22A00B2
:10344000A06032E02B20A0812C20C0F22A00A060D6
:1034500040F22030C0F2E010206026E04FF42C5003
:10346000A08142F60040C2F60020A06040F2203069
:10347000C0F2E010206018E02A20A0812C20C0F2C9
:103480002B00A06040F2E010C0F2203020600CE081
:103490004FF42C50A08142F60040C2F60020A060FC
:1034A00040F2E010C0F2203020600020BDE8B040C3
:1034B00002F01ABC000000002DE9F04114460D4650
:1034C000064643F60820C2F20040006830B130469C
:1034D00029462246BDE8F04102F082BF43F6FA18C1
:1034E000C2F20048B8F8040045F20F51884208DCE7
:1034F00041F66311884221D045F21031884208D04C
:103500006AE045F21051884246D049F24131884282
:1035100062D1B8F80A0002F03BFE300A02F028FE41
:10352000F0B202F025FEB8F80C0002F031FE280AD5
:1035300002F01EFEE8B202F01BFE4DE098F8060015
:10354000002802BFB8F80000F1434618B8F80A0096
:1035500002F01EFEC6F30727384602F009FEF6B257
:10356000304602F005FE384602F002FE304602F018
:10357000FFFDB8F80C0002F00BFE2E0A304602F0F8
:10358000F7FDEDB2284602F0F3FD304602F0F0FD03
:10359000284602F0EDFD1FE0B8F80A0002F0F8FD41
:1035A000300A02F0E5FDB8F80A00013080B202F0FE
:1035B000EFFDF0B202F0DCFDB8F80C0002F0E8FD1F
:1035C000280A02F0D5FDB8F80C00013080B202F0F4
:1035D000DFFDE8B202F0CCFDB8F808004FF6FE714E
:1035E000C6F2070108804C80BDE8F08100000000B1
:1035F0002DE9F04F95B003F0A7F943F6FA17C2F2A0
:103600000047B88040F20049C5F6020918B102F03F
:1036100067FF02F001BA44F2E040C5F6020001681B
:1036200041F002010160006800F002000990099871
:10363000012011902021109112900320139010A9C5
:103640004846FDF741FC02F003FB44F20002C5F2DC
:10365000002202F5827342F2A450C2F2004000211F
:103660001026C0E90023C0E90211C0E90416C0E930
:1036700006114FF480524FF480434FF48016C0E996
:103680000812C0E90A13C0E90C1186631122CDE9C2
:10369000092155220B920F91039115220292049257
:1036A000089109A902AAFFF7BFFA322007F024FC0B
:1036B000D32002F06DFD02F0E3FAB88002F0E0FAE8
:1036C000B88002F0DDFA0002B88002F0D9FAB988B9
:1036D0000843B88080B249F24135A84240F01481D5
:1036E000CF2002F055FD002002F042FDC12002F083
:1036F0003FFD302002F03CFDED2002F049FD64204A
:1037000002F036FD032002F033FD122002F030FDFE
:10371000812002F02DFDE82002F03AFD852002F024
:1037200027FD102002F024FD7A2002F021FDCB209D
:1037300002F02EFD392002F01BFD2C2002F018FDB6
:10374000002002F015FD342002F012FD022002F0EC
:103750000FFDF72002F01CFD202002F009FDEA20F9
:1037600002F016FD002002F003FD002002F000FD33
:10377000C02002F00DFD1B2002F0FAFCC12002F077
:1037800007FD012002F0F4FCC52002F001FD30200D
:1037900002F0EEFC302002F0EBFCC72002F0F8FC57
:1037A000B72002F0E5FC362002F0F2FC482002F0DF
:1037B000DFFC3A2002F0ECFC552002F0D9FCB120ED
:1037C00002F0E6FC002002F0D3FC1A2002F0D0FC4C
:1037D000B62002F0DDFC0A2002F0CAFCA22002F0B2
:1037E000C7FCF22002F0D4FC002002F0C1FC26202D
:1037F00002F0CEFC012002F0BBFCE02002F0C8FC8D
:103800000F2002F0B5FC2A2002F0B2FC282002F0C2
:10381000AFFC082002F0ACFC0E2002F0A9FC08204E
:1038200002F0A6FC542002F0A3FCA92002F0A0FCA8
:10383000432002F09DFC0A2002F09AFC0F2002F0C7
:1038400097FC002002F094FC002002F091FC002084
:1038500002F08EFC002002F08BFCE12002F098FCCC
:10386000002002F085FC152002F082FC172002F0F7
:103870007FFC072002F07CFC112002F079FC06207E
:1038800002F076FC2B2002F073FC562002F070FC54
:103890003C2002F06DFC052002F06AFC102002F0D2
:1038A00067FC0F2002F064FC3F2002F061FC3F2027
:1038B00002F05EFC0F2002F05BFC2B2002F068FCA3
:1038C000002002F055FC002002F052FC012002F022
:1038D0004FFC3F2002F04CFC2A2002F059FC002053
:1038E00002F046FC002002F043FC002002F040FC05
:1038F000EF2002F03DFC112002F04AFC782007F096
:10390000FBFA292002F086B8D42002F041FC02F034
:10391000B7F9B88002F0B4F9B88002F0B1F900024A
:10392000B88002F0ADF9B9880843B88080B245F29A
:103930001031884240F07787ED2002F029FC012009
:1039400002F016FCFE2002F013FCEE2002F020FC38
:10395000DE2002F00DFC212002F00AFCF12002F032
:1039600017FC012002F004FCDF2002F011FC102003
:1039700002F0FEFBC42002F00BFC8F2002F0F8FBEB
:10398000C62002F005FC002002F0F2FBE22002F06B
:10399000EFFBE22002F0ECFBE22002F0E9FBBF20AB
:1039A00002F0F6FBAA2002F0E3FBB02002F0F0FBED
:1039B0000D2002F0DDFB002002F0DAFB0D2002F00A
:1039C000D7FB002002F0D4FB112002F0D1FB002035
:1039D00002F0CEFB192002F0CBFB002002F0C8FB66
:1039E000212002F0C5FB002002F0C2FB2D2002F0D6
:1039F000BFFB002002F0BCFB3D2002F0B9FB002021
:103A000002F0B6FB5D2002F0B3FB002002F0B0FB39
:103A10005D2002F0ADFB002002F0AAFBB12002F015
:103A2000B7FB802002F0A4FB002002F0A1FB8B205A
:103A300002F09EFB002002F09BFB962002F098FB18
:103A4000002002F095FBB22002F0A2FB002002F061
:103A50008FFB002002F08CFB022002F089FB00208B
:103A600002F086FB032002F083FB002002F080FBC3
:103A7000B32002F08DFB002002F07AFB002002F060
:103A800077FB002002F074FB002002F071FB0020A5
:103A900002F06EFB002002F06BFB002002F068FBDE
:103AA000002002F065FB002002F062FB002002F023
:103AB0005FFB002002F05CFB002002F059FB0020BD
:103AC00002F056FB002002F053FB002002F050FBF6
:103AD000002002F04DFB002002F04AFB002002F023
:103AE00047FB002002F044FB002002F041FB0020D5
:103AF00002F03EFB002002F03BFB002002F038FB0E
:103B0000002002F035FBB42002F042FB8B2002F0D3
:103B10002FFB002002F02CFB962002F029FB002056
:103B200002F026FBA12002F023FB002002F020FB84
:103B3000B52002F02DFB022002F01AFB002002F05B
:103B400017FB032002F014FB002002F011FB0420FD
:103B500002F00EFB002002F00BFBB62002F018FB77
:103B6000002002F005FB002002F002FBB72002F06B
:103B70000FFB002002F0FCFA002002F0F9FA3F20CF
:103B800002F0F6FA002002F0F3FA5E2002F0F0FAFA
:103B9000002002F0EDFA642002F0EAFA002002F0C0
:103BA000E7FA8C2002F0E4FA002002F0E1FAAC20FF
:103BB00002F0DEFA002002F0DBFADC2002F0D8FA94
:103BC000002002F0D5FA702002F0D2FA002002F0B4
:103BD000CFFA902002F0CCFA002002F0C9FAEB20D4
:103BE00002F0C6FA002002F0C3FADC2002F0C0FAAC
:103BF000002002F0BDFAB82002F0CAFA002002F05C
:103C0000B7FA002002F0B4FA002002F0B1FA002066
:103C100002F0AEFA002002F0ABFA002002F0A8FA9F
:103C2000002002F0A5FA002002F0A2FABA2002F069
:103C3000AFFA242002F09CFA002002F099FA00204A
:103C400002F096FA002002F093FAC12002F0A0FAE6
:103C5000202002F08DFA002002F08AFA542002F0AF
:103C600087FA002002F084FAFF2002F081FA002097
:103C700002F07EFAC22002F08BFA0A2002F078FAF3
:103C8000002002F075FA042002F072FA002002F01F
:103C90006FFAC32002F07CFA3C2002F069FA00209F
:103CA00002F066FA3A2002F063FA002002F060FAAD
:103CB000392002F05DFA002002F05AFA372002F0B3
:103CC00057FA002002F054FA3C2002F051FA00208A
:103CD00002F04EFA362002F04BFA002002F048FAC9
:103CE000322002F045FA002002F042FA2F2002F0C2
:103CF0003FFA002002F03CFA2C2002F039FA0020B2
:103D000002F036FA292002F033FA002002F030FAED
:103D1000262002F02DFA002002F02AFA242002F0D8
:103D200027FA002002F024FA242002F021FA0020D1
:103D300002F01EFA232002F01BFA002002F018FA0B
:103D40003C2002F015FA002002F012FA362002F0B0
:103D50000FFA002002F00CFA322002F009FA0020DB
:103D600002F006FA2F2002F003FA002002F000FA17
:103D70002C2002F0FDF9002002F0FAF9292002F0CF
:103D8000F7F9002002F0F4F9262002F0F1F9002002
:103D900002F0EEF9242002F0EBF9002002F0E8F93D
:103DA000242002F0E5F9002002F0E2F9232002F0DD
:103DB000DFF9002002F0DCF9C42002F0E9F962200A
:103DC00002F0D6F9002002F0D3F9052002F0D0F974
:103DD000002002F0CDF9842002F0CAF9002002F0A0
:103DE000C7F9F02002F0C4F9002002F0C1F9182050
:103DF00002F0BEF9002002F0BBF9A42002F0B8F9ED
:103E0000002002F0B5F9182002F0B2F9002002F00B
:103E1000AFF9502002F0ACF9002002F0A9F90C2013
:103E200002F0A6F9002002F0A3F9172002F0A0F991
:103E3000002002F09DF9952002F09AF9002002F08E
:103E400097F9F32002F094F9002002F091F9E620AE
:103E500002F08EF9002002F08BF9C52002F098F9EB
:103E6000322002F085F9002002F082F9442002F0AD
:103E70007FF9002002F07CF9652002F079F900203A
:103E800002F076F9762002F073F9002002F070F962
:103E9000882002F06DF9002002F06AF9C62002F0D5
:103EA00077F9202002F064F9002002F061F9172070
:103EB00002F05EF9002002F05BF9012002F058F9EF
:103EC000002002F055F9C72002F062F9002002F04C
:103ED0004FF9002002F04CF9002002F049F90020CF
:103EE00002F046F9C82002F053F9002002F040F930
:103EF000002002F03DF9002002F03AF9002002F023
:103F000037F9C92002F044F9002002F031F900200D
:103F100002F02EF9002002F02BF9002002F028F91F
:103F2000002002F025F9002002F022F9002002F022
:103F30001FF9002002F01CF9002002F019F90020FE
:103F400002F016F9002002F013F9002002F010F937
:103F5000002002F00DF9002002F00AF9002002F022
:103F600007F9002002F004F9E02002F011F9162010
:103F700002F0FEF8002002F0FBF81C2002F0F8F836
:103F8000002002F0F5F8212002F0F2F8002002F003
:103F9000EFF8362002F0ECF8002002F0E9F84620B5
:103FA00002F0E6F8002002F0E3F8522002F0E0F818
:103FB000002002F0DDF8642002F0DAF8002002F0C0
:103FC000D7F87A2002F0D4F8002002F0D1F88B2044
:103FD00002F0CEF8002002F0CBF8992002F0C8F8E9
:103FE000002002F0C5F8A82002F0C2F8002002F07C
:103FF000BFF8B92002F0BCF8002002F0B9F8C420E4
:1040000002F0B6F8002002F0B3F8CA2002F0B0F8CF
:10401000002002F0ADF8D22002F0AAF8002002F051
:10402000A7F8D92002F0A4F8002002F0A1F8E020BF
:1040300002F09EF8002002F09BF8F32002F098F8BE
:10404000002002F095F8E12002F0A2F8162002F01C
:104050008FF8002002F08CF81C2002F089F8002074
:1040600002F086F8222002F083F8002002F080F8A7
:10407000362002F07DF8002002F07AF8452002F0A8
:1040800077F8002002F074F8522002F071F8002056
:1040900002F06EF8642002F06BF8002002F068F87D
:1040A0007A2002F065F8002002F062F88B2002F01E
:1040B0005FF8002002F05CF8992002F059F8002027
:1040C00002F056F8A82002F053F8002002F050F851
:1040D000B92002F04DF8002002F04AF8C42002F0A6
:1040E00047F8002002F044F8CA2002F041F800200E
:1040F00002F03EF8D22002F03BF8002002F038F83F
:10410000D82002F035F8002002F032F8E02002F06A
:104110002FF8002002F02CF8F32002F029F80020FC
:1041200002F026F8E22002F033F8052002F020F831
:10413000002002F01DF80B2002F01AF8002002F017
:1041400017F81B2002F014F8002002F011F83420B8
:1041500002F00EF8002002F00BF8442002F008F8FC
:10416000002002F005F84F2002F002F8002001F0D4
:10417000FFFF612001F0FCFF002001F0F9FF792032
:1041800001F0F6FF002001F0F3FF882001F0F0FFBE
:10419000002001F0EDFF972001F0EAFF002001F080
:1041A000E7FFA62001F0E4FF002001F0E1FFB720C7
:1041B00001F0DEFF002001F0DBFFC22001F0D8FF9C
:1041C000002001F0D5FFC72001F0D2FF002001F050
:1041D000CFFFD12001F0CCFF002001F0C9FFD62095
:1041E00001F0C6FF002001F0C3FFDD2001F0C0FF99
:1041F000002001F0BDFFF32001F0BAFF002001F024
:10420000B7FFE32001F0C4FF052001F0B1FF00205B
:1042100001F0AEFF0A2001F0ABFF002001F0A8FF83
:104220001C2001F0A5FF002001F0A2FF332001F0C7
:104230009FFF002001F09CFF442001F099FF002027
:1042400001F096FF502001F093FF002001F090FF55
:10425000622001F08DFF002001F08AFF782001F03C
:1042600087FF002001F084FF882001F081FF0020FB
:1042700001F07EFF972001F07BFF002001F078FF26
:10428000A62001F075FF002001F072FFB72001F0B9
:104290006FFF002001F06CFFC22001F069FF0020D9
:1042A00001F066FFC72001F063FF002001F060FF0E
:1042B000D12001F05DFF002001F05AFFD52001F070
:1042C00057FF002001F054FFDD2001F051FF0020D6
:1042D00001F04EFFF32001F04BFF002001F048FFFA
:1042E000E42001F055FF012001F042FF002001F021
:1042F0003FFF012001F03CFF002001F039FF0220C8
:1043000001F036FF002001F033FF2A2001F030FFDA
:10431000002001F02DFF3C2001F02AFF002001F0D9
:1043200027FF4B2001F024FF002001F021FF5D203A
:1043300001F01EFF002001F01BFF742001F018FFA8
:10434000002001F015FF842001F012FF002001F091
:104350000FFF932001F00CFF002001F009FFA220C5
:1043600001F006FF002001F003FFB32001F000FF81
:10437000002001F0FDFEBE2001F0FAFE002001F059
:10438000F7FEC42001F0F4FE002001F0F1FECD2084
:1043900001F0EEFE002001F0EBFED32001F0E8FE7C
:1043A000002001F0E5FEDD2001F0E2FE002001F03A
:1043B000DFFEF32001F0DCFE002001F0D9FEE52055
:1043C00001F0E6FE002001F0D3FE002001F0D0FE57
:1043D000002001F0CDFE002001F0CAFE022001F015
:1043E000C7FE002001F0C4FE292001F0C1FE00201C
:1043F00001F0BEFE3C2001F0BBFE002001F0B8FE43
:104400004B2001F0B5FE002001F0B2FE5D2001F06E
:10441000AFFE002001F0ACFE742001F0A9FE0020E8
:1044200001F0A6FE842001F0A3FE002001F0A0FE12
:10443000932001F09DFE002001F09AFEA22001F0E1
:1044400097FE002001F094FEB32001F091FE0020C1
:1044500001F08EFEBE2001F08BFE002001F088FEF0
:10446000C42001F085FE002001F082FECD2001F085
:104470007FFE002001F07CFED32001F079FE0020B9
:1044800001F076FEDC2001F073FE002001F070FEEA
:10449000F32001F06DFE002001F06AFEE62001F03D
:1044A00077FE112001F064FE002001F061FE34204F
:1044B00001F05EFE002001F05BFE562001F058FE88
:1044C000002001F055FE762001F052FE002001F0A0
:1044D0004FFE772001F04CFE002001F049FE6620DF
:1044E00001F046FE002001F043FE882001F040FE6E
:1044F000002001F03DFE992001F03AFE002001F07D
:1045000037FEBB2001F034FE002001F031FE99207F
:1045100001F02EFE002001F02BFE662001F028FEA7
:10452000002001F025FE552001F022FE002001F0C0
:104530001FFE552001F01CFE002001F019FE452051
:1045400001F016FE002001F013FE432001F010FEE2
:10455000002001F00DFE442001F00AFE002001F0D1
:1045600007FEE72001F014FE322001F001FE0020DA
:1045700001F0FEFD552001F0FBFD002001F0F8FDEB
:10458000762001F0F5FD002001F0F2FD662001F03B
:10459000EFFD002001F0ECFD672001F0E9FD0020B7
:1045A00001F0E6FD672001F0E3FD002001F0E0FDF1
:1045B000872001F0DDFD002001F0DAFD992001F0F7
:1045C000D7FD002001F0D4FDBB2001F0D1FD00207B
:1045D00001F0CEFD992001F0CBFD002001F0C8FDD7
:1045E000772001F0C5FD002001F0C2FD442001F05C
:1045F000BFFD002001F0BCFD562001F0B9FD0020F8
:1046000001F0B6FD232001F0B3FD002001F0B0FD64
:10461000332001F0ADFD002001F0AAFD452001F09E
:10462000A7FD002001F0A4FDE82001F0B1FD00206D
:1046300001F09EFD002001F09BFD992001F098FD06
:10464000002001F095FD872001F092FD002001F08F
:104650008FFD882001F08CFD002001F089FD77207E
:1046600001F086FD002001F083FD662001F080FD51
:10467000002001F07DFD882001F07AFD002001F08E
:1046800077FDAA2001F074FD002001F071FDBB2030
:1046900001F06EFD002001F06BFD992001F068FD36
:1046A000002001F065FD662001F062FD002001F0B0
:1046B0005FFD552001F05CFD002001F059FD552003
:1046C00001F056FD002001F053FD442001F050FDA3
:1046D000002001F04DFD442001F04AFD002001F0D2
:1046E00047FD552001F044FD002001F041FDE92087
:1046F00001F04EFDAA2001F03BFD002001F038FD45
:10470000002001F035FD002001F032FD002001F015
:104710003FFDAA2001F02CFDCF2001F039FD002043
:1047200001F026FD002001F023FD002001F020FD16
:10473000002001F01DFD002001F01AFD002001F015
:1047400017FD002001F014FD002001F011FD0020F4
:1047500001F00EFD002001F00BFD002001F008FD2E
:10476000002001F005FD002001F002FD002001F015
:10477000FFFC002001F0FCFC002001F0F9FC00200F
:1047800001F0F6FCF02001F003FD002001F0F0FC48
:10479000502001F0EDFC002001F0EAFC002001F0C7
:1047A000E7FC002001F0E4FCF32001F0F1FC002024
:1047B00001F0DEFCF92001F0EBFC062001F0D8FC52
:1047C000102001F0D5FC292001F0D2FC002001F0DE
:1047D000CFFC3A2001F0DCFC552001F0C9FC11208F
:1047E00001F0D6FC642006F087FB292001F0D0FC04
:1047F000352001F0CDFC002001F0BAFC512001F081
:10480000C7FCFF2001F0B4FC532001F0C1FC2C20B8
:1048100001F0AEFC552001F0BBFC822001F0A8FCA9
:104820002C2001F0F7B84FF45A4001F0B1FC01F030
:1048300027FAB8804FF45B4001F0AAFC01F020FA9F
:104840000002B8804FF45C4001F0A2FC01F018FABD
:10485000B988084381B2B1F5004F08BF45F2105046
:10486000B88080B245F21051884241F008814FF47F
:104870007040552101F0A8FC4FF20100AA2101F07F
:10488000A3FC4FF20104CFF6FF74601C80B20190CC
:10489000522101F099FCA01C80B20090082101F087
:1048A00093FCE01C1FFA80FA5046012101F08CFCB9
:1048B0004FF430400D2101F087FC05F5E65080B241
:1048C0000D2101F081FC4BF20116CFF6FF76A6F127
:1048D000FF0080B20D2101F077FC4FF43640342107
:1048E00001F072FC4BF20155CFF6FF7505F58070B3
:1048F00080B2342101F068FC4BF20174CFF6FF74F2
:10490000A4F1FF0080B2342101F05EFC4FF431408D
:104910000D2101F059FC4BF201100D2101F054FC66
:10492000701C80B20D2101F04FFC4FF43740342150
:1049300001F04AFC4BF20170342101F045FC601C8F
:1049400080B2342101F040FC4FF43240002101F0EC
:104950003BFC4BF20120002101F036FC4BF201261A
:10496000CFF6FF76701C80B2002101F02DFC4FF4D1
:104970003840242101F028FC4BF60100242101F0ED
:1049800023FC4BF60101CFF6FF71481C0C461FFAC1
:1049900080F84046242101F017FC4FF43F400121EC
:1049A00001F012FC4FF433400F2101F00DFC06F52D
:1049B000807080B20F2101F007FC4BF202300F2112
:1049C00001F002FC4FF43940342101F0FDFB04F505
:1049D000807080B2342101F0F7FB4BF602103421D5
:1049E00001F0F2FB4FF43540082101F0EDFB4BF2F2
:1049F0000150082101F0E8FB681C80B2082101F099
:104A0000E3FB4FF44240032101F0DEFB4FF43A4058
:104A1000242101F0D9FB4BF60214CFF6FF7404F108
:104A2000FF0080B2242101F0CFFB04F5807080B23A
:104A3000242101F0C9FB4FF43C40002101F0C4FBEC
:104A40004BF60140782101F0BFFB4BF60144CFF655
:104A5000FF74601C86B23046002101F0B5FB4FF4B4
:104A60003D40002101F0B0FB04F5807080B2782158
:104A700001F0AAFB4BF60250002101F0A5FB4FF418
:104A80003E40002101F0A0FB4BF60250CFF6FF7034
:104A9000FF3080B2642101F097FB4FF451400021B8
:104AA00001F092FB4CF60114CFF6FF7404F50060A0
:104AB00080B2332101F088FB4DF20210002101F099
:104AC00083FB4DF2021BCFF6FF7B0BF1010080B29E
:104AD000342101F079FB0BF1020080B2002101F0DA
:104AE00073FB0BF1030080B23A2101F06DFB0BF177
:104AF000040080B2002101F067FB0BF1050080B2D9
:104B00004A2101F061FB0BF1060080B2002101F0A7
:104B10005BFB0BF1070080B25C2101F055FB0BF150
:104B2000080080B2002101F04FFB0BF1090080B2B8
:104B3000812101F049FB0BF10A0080B2002101F054
:104B400043FB0BF10B0080B2A62101F03DFB0BF102
:104B50000C0080B2002101F037FB0BF10D0080B298
:104B6000E52101F031FB0BF10E0080B2012101F0D3
:104B70002BFB0BF10F0080B2132101F025FB0BF191
:104B8000100080B2012101F01FFB0BF1110080B277
:104B9000542101F019FB0BF1120080B2012101F048
:104BA00013FB0BF1130080B2822101F00DFB0BF11E
:104BB000140080B2012101F007FB0BF1150080B257
:104BC000CA2101F001FB0BF1160080B2022101F0B5
:104BD000FBFA0BF1170080B2002101F0F5FA0BF19E
:104BE000180080B2022101F0EFFA0BF1190080B237
:104BF000012101F0E9FA0BF11A0080B2022101F063
:104C0000E3FA0BF11B0080B2342101F0DDFA0BF165
:104C10001C0080B2022101F0D7FA0BF11D0080B216
:104C2000672101F0D1FA0BF11E0080B2022101F0E0
:104C3000CBFA0BF11F0080B2842101F0C5FA0BF111
:104C4000200080B2022101F0BFFA0BF1210080B2F6
:104C5000A42101F0B9FA0BF1220080B2022101F087
:104C6000B3FA0BF1230080B2B72101F0ADFA0BF1DA
:104C7000240080B2022101F0A7FA0BF1250080B2D6
:104C8000CF2101F0A1FA0BF1260080B2022101F040
:104C90009BFA0BF1270080B2DE2101F095FA0BF1AF
:104CA000280080B2022101F08FFA0BF1290080B2B6
:104CB000F22101F089FA0BF12A0080B2022101F001
:104CC00083FA0BF12B0080B2FE2101F07DFA0BF18B
:104CD0002C0080B2032101F077FA0BF12D0080B295
:104CE000102101F071FA0BF12E0080B2032101F0C6
:104CF0006BFA0BF12F0080B2332101F065FA0BF152
:104D0000300080B2032101F05FFA0BF1310080B274
:104D10006D2101F059FA4FF45240002101F054FA8C
:104D20000BF1FF0080B2332101F04EFA0BF58070D9
:104D300080B2002101F048FA4DF20320342101F045
:104D400043FA4DF20325CFF6FF75681C80B20021AF
:104D500001F03AFAA81C80B23A2101F035FAE81CB9
:104D600080B2002101F030FA281D80B24A2101F002
:104D70002BFA681D80B2002101F026FAA81D80B22E
:104D80005C2101F021FAE81D80B2002101F01CFA3B
:104D900005F1080080B2812101F016FA05F1090041
:104DA00080B2002101F010FA05F10A0080B2A621BC
:104DB00001F00AFA05F10B0080B2002101F004FABB
:104DC00005F10C0080B2E52101F0FEF905F10D00BE
:104DD00080B2012101F0F8F905F10E0080B2132133
:104DE00001F0F2F905F10F0080B2012101F0ECF9B8
:104DF00005F1100080B2542101F0E6F905F111002F
:104E000080B2012101F0E0F905F1120080B28221A7
:104E100001F0DAF905F1130080B2012101F0D4F9B3
:104E200005F1140080B2CA2101F0CEF905F1150098
:104E300080B2022101F0C8F905F1160080B200210C
:104E400001F0C2F905F1170080B2022101F0BCF9AE
:104E500005F1180080B2012101F0B6F905F1190041
:104E600080B2022101F0B0F905F11A0080B23421BC
:104E700001F0AAF905F11B0080B2022101F0A4F9AA
:104E800005F11C0080B2672101F09EF905F11D00BB
:104E900080B2022101F098F905F11E0080B2842150
:104EA00001F092F905F11F0080B2022101F08CF9A6
:104EB00005F1200080B2A42101F086F905F121005E
:104EC00080B2022101F080F905F1220080B2B72101
:104ED00001F07AF905F1230080B2022101F074F9A2
:104EE00005F1240080B2CF2101F06EF905F1250013
:104EF00080B2022101F068F905F1260080B2DE21BE
:104F000001F062F905F1270080B2022101F05CF99D
:104F100005F1280080B2F22101F056F905F12900CF
:104F200080B2022101F050F905F12A0080B2FE2181
:104F300001F04AF905F12B0080B2032101F044F998
:104F400005F12C0080B2102101F03EF905F12D0091
:104F500080B2032101F038F905F12E0080B233212F
:104F600001F032F905F12F0080B2032101F02CF994
:104F700005F1300080B26D2101F026F94FF4534065
:104F8000002101F021F905F1FE0080B2332101F08A
:104F90001BF905F1FF0080B2002101F015F905F5BC
:104FA000807080B2342101F00FF94DF204300021FD
:104FB00001F00AF94DF20435CFF6FF75681C80B296
:104FC0003A2101F001F9A81C80B2002101F0FCF89F
:104FD000E81C80B24A2101F0F7F8281D80B20021B8
:104FE00001F0F2F8681D80B25C2101F0EDF8A81D17
:104FF00080B2002101F0E8F8E81D80B2812101F0C3
:10500000E3F805F1080080B2002101F0DDF805F1B8
:10501000090080B2A62101F0D7F805F10A0080B29C
:10502000002101F0D1F805F10B0080B2E52101F07B
:10503000CBF805F10C0080B2012101F0C5F805F1B3
:105040000D0080B2132101F0BFF805F10E0080B20F
:10505000012101F0B9F805F10F0080B2542101F0EF
:10506000B3F805F1100080B2012101F0ADF805F1AF
:10507000110080B2822101F0A7F805F1120080B280
:10508000012101F0A1F805F1130080B2CA2101F05D
:105090009BF805F1140080B2022101F095F805F1AA
:1050A000150080B2002101F08FF805F1160080B2E2
:1050B000022101F089F805F1170080B2012101F009
:1050C00083F805F1180080B2022101F07DF805F1A6
:1050D000190080B2342101F077F805F11A0080B28E
:1050E000022101F071F805F11B0080B2672101F087
:1050F0006BF805F11C0080B2022101F065F805F1A2
:105100001D0080B2842101F05FF805F11E0080B21D
:10511000022101F059F805F11F0080B2A42101F02D
:1051200053F805F1200080B2022101F04DF805F19D
:10513000210080B2B72101F047F805F1220080B2CA
:10514000022101F041F805F1230080B2CF2101F0E6
:105150003BF805F1240080B2022101F035F805F199
:10516000250080B2DE2101F02FF805F1260080B283
:10517000022101F029F805F1270080B2F22101F0A7
:1051800023F805F1280080B2022101F01DF805F195
:10519000290080B2FE2101F017F805F12A0080B243
:1051A000032101F011F805F12B0080B2102101F06C
:1051B0000BF805F12C0080B2032101F005F805F190
:1051C0002D0080B2332100F0FFFF05F12E0080B2E8
:1051D000032100F0F9FF05F12F0080B26D2100F0EE
:1051E000F3FF4FF45440002100F0EEFF05F1FD0005
:1051F00080B2332100F0E8FF05F1FE0080B200210B
:1052000000F0E2FF05F1FF0080B2342100F0DCFF86
:1052100005F5807080B2002100F0D6FF4DF2054008
:105220003A2100F0D1FF4DF20545CFF6FF75681C1D
:1052300080B2002100F0C8FFA81C80B24A2100F013
:10524000C3FFE81C80B2002100F0BEFF281D80B221
:105250005C2100F0B9FF681D80B2002100F0B4FFAE
:10526000A81D80B2812100F0AFFFE81D80B20021AF
:1052700000F0AAFF05F1080080B2A62100F0A4FF0B
:1052800005F1090080B2002100F09EFF05F10A003F
:1052900080B2E52100F098FF05F10B0080B20121FA
:1052A00000F092FF05F10C0080B2132100F08CFF9A
:1052B00005F10D0080B2012100F086FF05F10E001E
:1052C00080B2542100F080FF05F10F0080B201216F
:1052D00000F07AFF05F1100080B2822100F074FF27
:1052E00005F1110080B2012100F06EFF05F11200FE
:1052F00080B2CA2100F068FF05F1130080B20221DC
:1053000000F062FF05F1140080B2002100F05CFFA4
:1053100005F1150080B2022100F056FF05F11600DC
:1053200080B2012100F050FF05F1170080B2022188
:1053300000F04AFF05F1180080B2342100F044FF6C
:1053400005F1190080B2022100F03EFF05F11A00BC
:1053500080B2672100F038FF05F11B0080B2022106
:1053600000F032FF05F11C0080B2842100F02CFF18
:1053700005F11D0080B2022100F026FF05F11E009C
:1053800080B2A42100F020FF05F11F0080B20221AD
:1053900000F01AFF05F1200080B2B72100F014FFE1
:1053A00005F1210080B2022100F00EFF05F122007C
:1053B00080B2CF2100F008FF05F1230080B2022166
:1053C00000F002FF05F1240080B2DE2100F0FCFEB7
:1053D00005F1250080B2022100F0F6FE05F126005D
:1053E00080B2F22100F0F0FE05F1270080B2022128
:1053F00000F0EAFE05F1280080B2FE2100F0E4FE94
:1054000005F1290080B2032100F0DEFE05F12A003B
:1054100080B2102100F0D8FE05F12B0080B20321EC
:1054200000F0D2FE05F12C0080B2332100F0CCFE5A
:1054300005F12D0080B2032100F0C6FE05F12E001B
:1054400080B26D2100F0C0FE4FF45540002100F005
:10545000BBFE05F1FC0080B2332100F0B5FE05F182
:10546000FD0080B2002100F0AFFE05F1FE0080B229
:10547000342100F0A9FE05F1FF0080B2002100F008
:10548000A3FE05F5807080B23A2100F09DFE4DF23A
:105490000650002100F098FE4DF20655CFF6FF753C
:1054A000681C80B24A2100F08FFEA81C80B2002147
:1054B00000F08AFEE81C80B25C2100F085FE281D09
:1054C00080B2002100F080FE681D80B2812100F0D2
:1054D0007BFEA81D80B2002100F076FEE81D80B2A0
:1054E000A62100F071FE05F1080080B2002100F055
:1054F0006BFE05F1090080B2E52100F065FE05F1C3
:105500000A0080B2012100F05FFE05F10B0080B2BD
:10551000132100F059FE05F10C0080B2012100F0CA
:1055200053FE05F10D0080B2542100F04DFE05F14F
:105530000E0080B2012100F047FE05F10F0080B29D
:10554000822100F041FE05F1100080B2012100F03F
:105550003BFE05F1110080B2CA2100F035FE05F1D5
:10556000120080B2022100F02FFE05F1130080B27C
:10557000002100F029FE05F1140080B2022100F0A4
:1055800023FE05F1150080B2012100F01DFE05F19A
:10559000160080B2022100F017FE05F1170080B25C
:1055A000342100F011FE05F1180080B2022100F054
:1055B0000BFE05F1190080B2672100F005FE05F130
:1055C0001A0080B2022100F0FFFD05F11B0080B23D
:1055D000842100F0F9FD05F11C0080B2022100F0E9
:1055E000F3FD05F11D0080B2A42100F0EDFD05F1F1
:1055F0001E0080B2022100F0E7FD05F11F0080B21D
:10560000B72100F0E1FD05F1200080B2022100F099
:10561000DBFD05F1210080B2CF2100F0D5FD05F1C1
:10562000220080B2022100F0CFFD05F1230080B2FC
:10563000DE2100F0C9FD05F1240080B2022100F056
:10564000C3FD05F1250080B2F22100F0BDFD05F19A
:10565000260080B2022100F0B7FD05F1270080B2DC
:10566000FE2100F0B1FD05F1280080B2032100F019
:10567000ABFD05F1290080B2102100F0A5FD05F178
:105680002A0080B2032100F09FFD05F12B0080B2BB
:10569000332100F099FD05F12C0080B2032100F0C8
:1056A00093FD05F12D0080B26D2100F08DFD4FF4CA
:1056B0005640002100F088FD05F1FB0080B2332147
:1056C00000F082FD05F1FC0080B2002100F07CFDBD
:1056D00005F1FD0080B2342100F076FD05F1FE00F9
:1056E00080B2002100F070FD05F1FF0080B23A2188
:1056F00000F06AFD05F5807080B2002100F064FDC5
:105700004DF207604A2100F05FFD4DF20765CFF6CC
:10571000FF75681C80B2002100F056FDA81C80B205
:105720005C2100F051FDE81C80B2002100F04CFD2E
:10573000281D80B2812100F047FD681D80B2002144
:1057400000F042FDA81D80B2A62100F03DFDE81D3D
:1057500080B2002100F038FD05F1080080B2E5219B
:1057600000F032FD05F1090080B2012100F02CFDAE
:1057700005F10A0080B2132100F026FD05F10B00AF
:1057800080B2012100F020FD05F10C0080B254210F
:1057900000F01AFD05F10D0080B2012100F014FDAA
:1057A00005F10E0080B2822100F00EFD05F10F0020
:1057B00080B2012100F008FD05F1100080B2CA217D
:1057C00000F002FD05F1110080B2022100F0FCFCA6
:1057D00005F1120080B2002100F0F6FC05F1130083
:1057E00080B2022100F0F0FC05F1140080B201212A
:1057F00000F0EAFC05F1150080B2022100F0E4FCA3
:1058000005F1160080B2342100F0DEFC05F117002E
:1058100080B2022100F0D8FC05F1180080B26721A7
:1058200000F0D2FC05F1190080B2022100F0CCFC9E
:1058300005F11A0080B2842100F0C6FC05F11B00BE
:1058400080B2022100F0C0FC05F11C0080B2A4214E
:1058500000F0BAFC05F11D0080B2022100F0B4FC9A
:1058600005F11E0080B2B72100F0AEFC05F11F006B
:1058700080B2022100F0A8FC05F1200080B2CF2107
:1058800000F0A2FC05F1210080B2022100F09CFC96
:1058900005F1220080B2DE2100F096FC05F1230024
:1058A00080B2022100F090FC05F1240080B2F221C8
:1058B00000F08AFC05F1250080B2022100F084FC92
:1058C00005F1260080B2FE2100F07EFC05F12700E4
:1058D00080B2032100F078FC05F1280080B210218D
:1058E00000F072FC05F1290080B2032100F06CFC8D
:1058F00005F12A0080B2332100F066FC05F12B008F
:1059000080B2032100F060FC05F12C0080B26D2113
:1059100000F05AFC4FF47040552100F055FC4FF256
:105920000100AA2100F050FC0198522100F04CFC2B
:105930000098082100F048FC5046002100F044FC8B
:105940004FF43140CC2100F03FFC4BF2011000211C
:1059500000F03AFC4FF43640052100F035FC4FF4DE
:105960003740702100F030FC4BF20170702100F0E4
:105970002BFC4FF43840012100F026FC4BF60100CF
:10598000032100F021FC4046032100F01DFC4BF6F2
:105990000100CFF6FF70023080B2032100F014FC4A
:1059A0004FF43C40022100F00FFC4BF60140002177
:1059B00000F00AFC3046002100F006FC4FF449409C
:1059C000D02100F001FC4CF60110022100F0FCFB9C
:1059D000601C80B2502100F0F7FBA01C80B2502167
:1059E00000F0F2FBE01C80B2502100F0EDFB4FF420
:1059F0005450002100F0E8FB4FF46850552100F0AE
:105A0000E3FB4FF4885000F0C3FB782005F0A8FAC0
:105A10004FF4245000F0BCFBB88880B245F20F511F
:105A2000884208DC41F6631188420CD045F21031FF
:105A3000884208D014E049F24131884203D045F24F
:105A4000105188420CD105200490029042F2A451DA
:105A5000C2F20041D1E90102CB6A02A9FBF74CF87E
:105A60000120FDF785FC484620210122FBF704FBBD
:105A70004FF6FF70FDF714FC15B0BDE8F08FA120C4
:105A800000F086FB00F0FCF8B88000F0F9F80002A6
:105A9000B88000F0F5F8B988084381B245F2617228
:105AA000914208BF41F66310B88081B245F20F52AF
:105AB000914209DC41F66312914210D045F2103256
:105AC00091423DF439AFA8E745F2105291423EF4BD
:105AD000CEAE49F2413291423DF402AE9DE7E22062
