:020000040800F2
:10000000107E00246503000861870008E94C0008A1
:10001000718600088113000881DF000800000000DD
:1000200000000000000000000000000099BF000870
:100030002919000800000000A901010829C10008D1
:100040009F0300089F0300089F0300089F03000808
:100050009F0300089F0300089F0300089F030008F8
:100060009F0300089F0300089F0300089F030008E8
:100070009F0300089F0300089F0300089F030008D8
:100080009F0300089F0300089F0300089F030008C8
:100090009F0300089F0300089F0300089F030008B8
:1000A0009F0300089F0300089F0300089F030008A8
:1000B0009F030008D9C200089F0300089F0300089F
:1000C0009F0300089F0300089F0300089F03000888
:1000D0009F03000811DD000869DD00089F03000888
:1000E0009F0300089F030008000000009F03000812
:1000F0009F0300089F0300089F0300089F03000858
:100100009F0300089F0300089F0300089F03000847
:100110009F0300089F0300089F0300089F03000837
:100120009F0300089F0300089F0300089F03000827
:100130009F0300089F0300089F0300089F03000817
:1001400000000000000000000000000000000000AF
:100150009F0300089F0300089F0300089F030008F7
:100160009F0300089F0300089F0300089F030008E7
:100170009F0300089F0300089F0300080000000081
:100180009F0300089F0300089F0300089F030008C7
:100190009F0300089F0300089F0300089F030008B7
:1001A0009F0300089F0300089F0300089F030008A7
:1001B0009F0300089F0300089F0300089F03000897
:1001C0009F0300089F0300089F0300089F03000887
:1001D0009F0300089F0300089F0300089F03000877
:1001E0009F0300089F0300089F0300089F03000867
:1001F0009F0300089F0300089F0300089F03000857
:100200009F0300089F0300089F0300089F03000846
:100210009F0300089F0300089F0300089F03000836
:100220009F0300089F0300089F03000800000000D0
:100230009F0300089F030008000000009F030008C0
:100240009F0300089F0300089F0300089F03000806
:100250009F0300089F0300089F0300089F030008F6
:100260009F0300089F0300089F0300089F030008E6
:100270009F0300089F0300089F0300080000000080
:100280009F030008000000009F030008000000001A
:10029000000000009F03000800F002F800F052F890
:1002A0000AA090E8000C82448344AAF10107DA45D1
:1002B00001D100F047F8AFF2090EBAE80F0013F0D1
:1002C000010F18BFFB1A43F001031847084C010047
:1002D000284C0100103A24BF78C878C1FAD85207D8
:1002E00024BF30C830C144BF04680C6070470000B0
:1002F0000023002400250026103A28BF78C1FBD82F
:10030000520728BF30C148BF0B60704766290FF005
:10031000BC87642900F05C81782900F095817329FD
:1003200000F04D86002070471FB50FF0A1FF00F0D0
:10033000B1FE0400002000210FF084FFE0601FBD2B
:1003400010B510BD00F0B3FF1146FFF7EDFF0EF042
:10035000BFFE00F0D1FF03B4FFF7F2FF03BC00F0D3
:1003600093FE000011488047DFF84400016841F423
:1003700070010160BFF34F8FDFF83800016821F092
:1003800040410160BFF36F8F0B480047FEE7FEE777
:10039000FEE7FEE7FEE7FEE7FEE7FEE7FEE7FEE735
:1003A00006480749074A084B7047000029C2000861
:1003B00088ED00E034EF00E099020008107200249C
:1003C000107E0024107400241074002472B670474C
:1003D00062B67047EFF3108072B6704780F31088F2
:1003E000704730BF704720BF7047B0FA80F0704749
:1003F00090FAA0F0B0FA80F0704790FAA0F0704741
:1004000053EA020C00F069802DE9F04B4FF0000632
:10041000002B1FBFB3FA83F503FA05F424FA05F69F
:100420005E4012BF1643B2FA82F502FA05F4C5F136
:1004300020051EBF22FA05FC44EA0C04203556EACA
:10044000044C4FEA144418BF641C4FF000084FF0EE
:100450000009904271EB030C39D3002919BFB1FA9E
:1004600081F701FA07F6B0FA80F700FA07F6C7F14C
:1004700020071EBF20FA07FC46EA0C062037B6FB11
:10048000F4FCA7EB0507103F07F01F0BCBF120068C
:100490002CFA06F60CFA0BFB44BFB3460026202FBD
:1004A000A4BF5E464FF0000B5BEA060C08BF4FF09E
:1004B000010B19EB0B0948EB0608ABFB027C06FBB2
:1004C00002CC0BFB03CCC01B71EB0C01C1E70B464C
:1004D000024641464846BDE8F08B13B54FF0000098
:1004E0004FF00001AFF30080BDE81C4070470000F2
:1004F0000FB4044910B503AA029800F065FD10BCC2
:100500005DF814FB2C4400240FB41CB5074B06AA5D
:100510007B4469460090059800F027FD002069465D
:1005200000F036FD1CBC5DF814FB00007D0A0000E5
:1005300070B5044685690068C10601D5302600E023
:100540002026C00707D070BDD4E90121304690476E
:10055000206A401C20626D1EF6D570BD70B5044641
:1005600085690078C00707D170BDD4E9012120203A
:100570009047206A401C20626D1EF6D570BD70B594
:100580000C460546012A05D02878800600D5EA6980
:10059000002302E0012305E05B1C934202D2E05CF1
:1005A0000028F9D1A869E618C01AA861286A184479
:1005B00028622846FFF7BCFF04E0D5E9012114F8C2
:1005C000010B9047B442F8D32846FFF7C7FF70BD30
:1005D0002DE9F0410646002410687529314616A51C
:1005E00010D0AFF30080002802DA404213A507E0E4
:1005F00031688A0701D512A502E0490704D511A583
:10060000012401E0AFF3008000210A2206F1240753
:1006100009E0B0FBF2FCB0FBF2F302FB1C0030304F
:1006200078541846491C0028F3D123462A46304600
:10063000BDE8F04100F02DBA000000002D000000E0
:100640002B0000002000000070B504460D46214636
:100650001068AFF300802188090502D50F4A7A445B
:1006600002E00E4A7A440E32002104F1240305E030
:1006700000F00F060009965D5E54491C0028F7D172
:1006800020780023000704D5702D02D009B1022381
:1006900011322046BDE8704000F0FBB92CFC000090
:1006A0002DE9F0474FF0000A89460446C0F820A023
:1006B0002046E1688847002876D0252806D0D4E96E
:1006C00001219047206A401C2062F1E7E168204642
:1006D00000258847C4F81CA006460027C4F818A0C7
:1006E0002A2E09D030460FF0A5FD38B304EB870859
:1006F000303EC8F8186019E059F8041B204604EB96
:1007000087029161E1688847012F064618D1E069A8
:10071000002820DA25F020051DE0D8F8180000EBAD
:10072000800006EB40003038C8F818002046E16829
:10073000884706460FF07EFD0028EED1012F0AD033
:100740002E2E08D12046E16888477F1C0646022FDE
:1007500045F02005C4DBA069002803DA404245F0DB
:100760000105A061E80701D025F01005B6B1A6F19A
:100770004100192802D8203645F400654A46314622
:10078000204625604D46FFF7C1FD58B1012806D02F
:10079000ED1D25F0070000F1080989E704E005F1E7
:1007A000040985E730468AE7206ABDE8F087000043
:1007B00010B5044603E00EF077FC401C09D014F895
:1007C000010B05490028F6D1BDE810400A200EF0C3
:1007D0006BBC4FF0FF3010BD2C4400240EB5054615
:1007E00014460E4613A000F00CFC284600F009FC4D
:1007F00016A000F006FC304600F003FC15A000F047
:1008000000FC00218DF80B100A210DF10A008DF873
:100810000A1008E094FBF1F201FB124294FBF1F4A0
:10082000303200F8012D002CF4DC00F0EAFB00F07F
:10083000DDFB00002A2A2A20617373657274696FD8
:100840006E206661696C65643A2000002C20666940
:100850006C6520002C206C696E65200040EA010365
:10086000024630B59B0710D14FF0013400E008C2BA
:1008700008C91D1B9D4315EAC41FF8D013F0FF01E2
:1008800002F8011B0DD01B0AF8E711F8013B002B01
:1008900002F8013B05D011F8013B002B02F8013BA7
:1008A000F3D130BD10B5431C02E010F8011B71B14B
:1008B0008107FAD14FF0013202C88C1A8C4314EA36
:1008C000C211F9D0C01A0A0603D0C01E10BDC01A4A
:1008D00010BD0A0401D0801E10BD0902FCD0401ECC
:1008E00010BD032A40F2308010F0030C00F0158098
:1008F00011F8013BBCF1020F624498BF11F801CB23
:1009000000F8013B38BF11F8013BA2F1040298BF87
:1009100000F801CB38BF00F8013B11F0030300F0F1
:100920007A83083AC0F0088051F8043B083A51F83D
:1009300004CBA0E80810F5E7121D5CBF51F8043B9A
:1009400040F8043BAFF30080D20724BF11F8013B0D
:1009500011F801CB48BF11F8012B24BF00F8013B6F
:1009600000F801CB48BF00F8012B704702F0FF03ED
:1009700043EA032242EA024200F002B84FF00002CA
:100980000429C0F0128010F0030C00F01B80CCF1A1
:10099000040CBCF1020F18BF00F8012BA8BF20F80F
:1009A000022BA1EB0C0100F00DB85FEAC17C24BF63
:1009B00000F8012B00F8012B48BF00F8012B70470D
:1009C0004FF0000200B5134694469646203922BFE8
:1009D000A0E80C50A0E80C50B1F12001BFF4F7AF33
:1009E000090728BFA0E80C5048BF0CC05DF804EB15
:1009F000890028BF40F8042B08BF704748BF20F883
:100A0000022B11F0804F18BF00F8012B7047000037
:100A100030B44FF0013C50F8042BCCFA52F451F8AA
:100A2000043BD51A20D1FCB950F8042BCCFA52F46F
:100A300051F8043BD51A17D1B4B950F8042BCCFAAD
:100A400052F451F8043BD51A0ED16CB950F8042B6E
:100A5000CCFA52F451F8043BD51A05D1002CDAD067
:100A600030BC4FF00000704729BAB1FA81F111F0A3
:100A70001801D1F120008440F2D1CA40CB4012F0DD
:100A8000FF0213F0FF0330BCD01A70477047704765
:100A900070472DE9F0470D4699469246044600F10D
:100AA00024080168880604D5E06921F0100121605E
:100AB00000E00120A84201DD471B00E00027A169FA
:100AC0007A1902EB0900081AA0612078C00602D446
:100AD0002046FFF72DFD002608E0D4E901211AF891
:100AE00006009047206A401C761C20624E45F4DBCD
:100AF0002078C0060AD52046FFF71AFD06E0D4E9A3
:100B0000012130209047206A401C2062381EA7F146
:100B10000107F4DC07E0D4E9012118F8050090474B
:100B2000206A401C2062281EA5F10105F3DC204646
:100B3000FFF714FD2078000602D50220BDE8F087FB
:100B40000120FBE72DE9FF4F0C461E464FF0FF3713
:100B50008BB0D2E90001DDF860800A908A46C1F3CB
:100B60000A5505B93D46002108464FF00000BAF18C
:100B7000000F00F4400005DA00EB80004FF4400164
:100B800001EA50004FEA9059B9F1010F00DDB94672
:100B90000A9850EA4A000ED044F61050A5F2FF35EC
:100BA00045432F14B8F1000F1ED07542291E1EDDDB
:100BB000C9F100021CE0B8F1010F4FF0000001D0B4
:100BC000302103E0F24305E02154401CB042FBDB3E
:100BD00030460022002121540B99C1F80880C1E958
:100BE00000200FB0BDE8F08FBD1B6D1CDEE74A464C
:100BF00000DA694206A800F0D7FA06AB93E80700CE
:100C000003AB83E8070050460A990EF0A7FE8DE873
:100C10000700A0F500501F3800900398002D0ADD52
:100C200042F21F014A460844002303A90390684684
:100C30000FF010F909E0A0F500504A461F380023D4
:100C400003A9039068460FF01AF98DE80700000425
:100C5000000C03D04FF0FF30410800E01046B8F11F
:100C6000000F03D00022009215461EE0751E05D429
:100C700000F014FA303262556D1EF9D5B3460122E8
:100C8000084302D000227F1C04E02078302801D1E4
:100C900000227F1E002A099784D01DE0112D07DA5B
:100CA00000F0FCF9303262556D1C50EA0102F5D1BA
:100CB000084302D00098C8B10EE00021681E05E08C
:100CC000235C625C63542254401E491C8142F7DB62
:100CD000AB46A81B401E0990002004F80B000B989F
:100CE000099AC0F80880C0E9002B7AE711264FF076
:100CF000000857E72DE9F04F88460446D21D22F040
:100D0000070191B0D1E90001CDE90A010FF07AFAAB
:100D100002460B98C00F01D02D2007E02068810704
:100D200001D52B2002E0202101EAC000032A09900E
:100D300001D0072A05DB03464146204600F0F4F9BE
:100D40000BE12078800601D5E06900E00620B8F1CB
:100D5000650F814606D0B8F1660F18D0B8F1670F5D
:100D600070D131E00020B9F1110F009001DB1123A7
:100D700001E009F101030AAA01A90CA8FFF7E2FEAC
:100D8000DDE90C70002609F10105834647E00120EA
:100D90004B4600904FF000470AAA01A90CA8FFF7A4
:100DA000D1FEDDE90DB00C995D46002610B909F1C0
:100DB00001000D18B9EB050003D4C0F1FF3609F1AD
:100DC0000105A5EB09002BE0B9F1010F01DA4FF0A5
:100DD00001090020B9F1110F0090484601DD1123EF
:100DE00000E003460AAA01A90CA8FFF7ABFEDDE963
:100DF0000C704D4600268346207800070AD4AB4588
:100E000000DA5D4601A8012D04DD411911F8011C2D
:100E1000302907D04F4502DA17F1040F04DA012018
:100E200082460FE06D1EEEE7002F02DCED1B3E4414
:100E300003E0781CA84200DD7D1CB81B00F1010A0C
:100E40004FF000472078000703D4AA4501DB4FF09C
:100E5000FF3A0021B7F1004F0DF143088DF8431020
:100E600024D002202B23002F01DA7F422D230A21D8
:100E7000021EA0F1010000DC5FB197FBF1FC97FBC3
:100E8000F1F201FB1C7C17460CF1300C08F801CD87
:100E9000EEE7A8F1010003702188090501D545217D
:100EA00000E06521A0F1010800F8011C09980FA9D4
:100EB000A1EB0807FF1D00B10120411901EBEA7009
:100EC000A1693844081A401EA0612078C00602D4E7
:100ED0002046FFF72DFB099828B1D4E9012190475E
:100EE000206A401C20622078C00622D52046FFF7E9
:100EF0001FFB1EE0002E04DBB34502DD01A8805D70
:100F000000E03020D4E901219047206A401C206293
:100F1000761CAAF101005FEA000A0AD100F0BAF8D3
:100F2000C0680168405CD4E901219047206A401CF8
:100F30002062281EA5F10105DCDC07E0D4E90121CF
:100F400018F8010B9047206A401C2062381EA7F158
:100F50000107F3DC2046FFF701FB032011B041E657
:100F600001694A1C02610878704700B58FB0CDE96D
:100F700001310021059105497944CDE9031011465D
:100F80006846FFF78DFB0FB000BD0000E5FFFFFFD7
:100F90000A6802F8010B0A60704710B5436913B183
:100FA000AFF3008001E0FFF7EAFA012010BD1278EC
:100FB00000F124010A7000224A700122EDE7116855
:100FC0004FF0FF32E9E70000074B70B50D467B4458
:100FD000FFF7CBFF0446284600F058F910B14FF058
:100FE000FF3070BD204670BDD7E0000010B5002076
:100FF00000F050F9FFF7A4F9BDE81040012000F01F
:1010000043B810B5044602E0641C00F036F82078BE
:101010000028F9D110BD10B5203AC0F00B80B1E81E
:101020001850A0E81850B1E81850A0E81850203A1D
:10103000BFF4F5AF5FEA027C24BFB1E81850A0E826
:10104000185044BF18C918C0BDE810405FEA827C40
:1010500024BF51F8043B40F8043B08BF7047D20757
:1010600028BF31F8023B48BF11F8012B28BF20F8F8
:10107000023B48BF00F8012B704708B569468DF860
:1010800000000320ABBE08BD01491820ABBEFEE73F
:101090002600020000487047F800002430B5B0F187
:1010A0000A0271F100034FEA900E4EEA817EB0EB26
:1010B0000E0061EB91014FEA101E4EEA017E10EB2B
:1010C0000E0041EB11114FEA102E4EEA016E10EBAB
:1010D0000E0041EB11214FEA104E4EEA014E10EB8B
:1010E0000E0041EB1141401841F100014FEAD000E0
:1010F00040EA41704FEAD1014FEA810444EA90741A
:1011000010EB800544EB01046D1944EB0404521B01
:10111000A3414FF0000348BF0A3200D530BD401C48
:1011200041F1000130BD00002DE9F0411F460446A9
:1011300003260168072A01F4006004DB08B116A544
:1011400005E016A503E008B115A500E015A521F0FE
:1011500010002060A069C01EA0610FB1401EA061F8
:101160002046FFF7E5F94FB1D4E901213846904711
:10117000206A401C2062C01C206206E0206AFAE758
:10118000D4E9012115F8010B9047761EF8D22046CC
:10119000FFF7E4F9BDE8F0814E414E006E616E004C
:1011A000494E4600696E66002DE9F04781461646B5
:1011B0008AB0354878440DC88DE80D00324878442F
:1011C000801C03AC0DC884E80D0041F69B30084438
:1011D000372190FBF1F290FBF1F5A5F1800501FBC1
:1011E00012041B3C02D56442012000E00020DFF81D
:1011F00098A080460027FA44AAF1BE0A0EE0E00754
:101200000AD03246684607EB470101230AEB810109
:101210000EF035FE8DE8070064107F1C002CEED127
:10122000194F7F44AE3F19E0E80715D007EB0410D3
:101230000DF1180A90E80E008AE80E00C068F0422E
:1012400001D1981908903246012306A903A80EF08F
:1012500016FE03AB83E807006D10641C002DE3D17C
:101260004FF0010332466946B8F1000F03A802D0DF
:101270000EF0F0FD01E00EF002FEC9E90001C9F830
:1012800008200AB0BDE8F0877CF10000007B00F088
:101290008000704710B500F03DF8BDE8104000F048
:1012A00034B8000000487047D800002470477546E5
:1012B000FFF7F8FFAE4605006946534620F00700E9
:1012C000854618B020B5FFF76BF8BDE820404FF019
:1012D00000064FF000074FF000084FF0000BAC463F
:1012E000ACE8C009ACE8C009ACE8C009ACE8C0098A
:1012F00021F007018D46704710B50446AFF300801A
:101300002046BDE81040FFF726B8002801D0FFF7BF
:10131000BBBE704710B5002102A000F013F80120F9
:1013200010BD0000534947414252543A2041626E79
:101330006F726D616C207465726D696E6174696F36
:101340006E00000070B505460C460A2000E06D1CDA
:10135000FFF793FE35B128780028F8D102E0641C2D
:10136000FFF78BFE14B120780028F8D1BDE870405B
:101370000A20FFF782BE000002F0CABB0000000096
:10138000FEE700000000000080B500F0E5F800F086
:1013900007F8BDE8804000F0DBB800000000000066
:1013A0002DE9F04140F25010C2F2004000250580C6
:1013B00040F23810C2F20040058040F24810C2F2FC
:1013C0000040056040F24C10C2F20040056040F25F
:1013D0003C16C2F20046356040F24017C2F20047A8
:1013E0003D6040F24418C2F20048C8F80050FEF7D1
:1013F000F1FF0446356000F04BF800F065F83D6001
:1014000030683560C8F800002046BDE8F041FEF7BE
:10141000E5BF00000000000040F24411C2F20041AC
:101420000968814228BF0846401A70470000000042
:1014300010B5FEF7CFFF40F23C11C2F200410C683C
:10144000FEF7CCFF2046BDE81040FFF7E5BF0000E7
:1014500010B5FFF7EDFF0446FEF7BCFF40F23C116C
:10146000C2F2004100220A60FEF7B8FF204610BD1C
:1014700010B5FEF7AFFF40F24011C2F200410C6818
:10148000FEF7ACFF2046BDE81040FFF7C5BF0000E7
:1014900010B540F23810C2F20040018801310180DD
:1014A00040F25014C2F20044208830B900F080F8B5
:1014B00040F24811C2F200410860208801302080CB
:1014C00010BD00000000000040F25010C2F20040C9
:1014D0000188013901804FF6FF70014218BF704743
:1014E00080B500F065F840F24C11C2F2004108608E
:1014F00040F24811C2F200410968401A40F23C1122
:10150000C2F200410A688242BDE8804038BF0860EC
:1015100040F24011C2F200410A68824238BF0860BE
:10152000704700000000000010B5FEF753FF0446AE
:10153000FFF7AEFF40F25210C2F20040102107F058
:101540009BF8FFF7C1FF2046BDE81040FEF746BFFD
:10155000FFF7EABF0000000040F26410C2F2004052
:101560000021016000F008B840F26411C2F20041AD
:10157000086070470000000080B5FFF7FDFE4EF6E2
:10158000FC51CEF200010A6842F080720A6041F21A
:101590000001CEF2000100224A600A6842F0010216
:1015A0000A60BDE88040FFF7DFBF000000000000D8
:1015B00041F20400CEF20000006870470000000015
:1015C00002200CF06DBE0000B0B542F20005C5F679
:1015D0000205A5F5806420464021002201F0E0F8D4
:1015E000286820F0C0002860286840F0400028608B
:1015F000FFF7E6FF28460821002201F0D1F8FFF7A7
:10160000DFFF20464021012201F0CAF8FFF7D8FF92
:10161000204640210022BDE8B04001F0C1B80000E2
:10162000B0B586B044F2E040C5F60200016841F072
:1016300080010160016801F0800101910199016858
:1016400041F480710160006800F48070019001989D
:10165000012002904021019103900320049041F663
:101660000044C5F6020401AD2046294600F0C0FF43
:101670000820019004F58060294600F0B9FF06B00B
:10168000B0BD000000000000B0B542F20005C5F694
:101690000205A5F5806420464021002201F080F873
:1016A000286820F0C0002860286840F040002860CA
:1016B000FFF786FF28460821012201F071F8FFF7A5
:1016C0007FFF20464021012201F06AF8FFF778FFF2
:1016D000204640210022BDE8B04001F061B8000082
:1016E0002DE9F041804642F20005C5F60205286862
:1016F00020F0C0002860286828601E200CF0D0FD73
:101700000027A5F58066002430464021002201F024
:1017100047F8FFF755FF30464021012201F040F81D
:101720002846082101F030F8002818BF012040EABF
:1017300047070134E0B20828E6D3B8F1000F04D01F
:10174000FFF742FFF8B2BDE8F081FFF79DFFF8B266
:10175000BDE8F08100000000F0B581B0044642F21F
:101760000005C5F60205286820F0C000286028683A
:1017700040F040002860A5F58066002730464021F3
:10178000002201F00DF8FFF71BFF00BF60B2B0F1BF
:10179000FF3F28464FF00801CCBF0022012200F095
:1017A000FFFF30464021012200F0FAFFFFF708FF5B
:1017B00030464021002200F0F3FF6400FFF700FFF5
:1017C0000137F8B2082824BF01B0F0BDDEE7000001
:1017D000B0B542F20004C5F60204206820F0C00053
:1017E0002060206840F0400020602046082101224F
:1017F00000F0D6FFA4F5806528464021012200F0C4
:10180000CFFF1E200CF04CFD20460821002200F0E6
:10181000C7FFFFF7D5FE284640210022BDE8B040B3
:1018200000F0BEBF0000000010B542F20004C5F693
:101830000204206820F0C0002060206840F04000D2
:101840002060A4F580604021012200F0A9FF1E2045
:101850000CF026FD20460821002200F0A1FFFFF732
:10186000AFFE204608210122BDE8104000F098BFDD
:1018700070B542F20004C5F60204206820F0C000F2
:1018800020602068206020460821012200F088FFA7
:10189000A4F5806528464021012200F081FFFFF772
:1018A0008FFE2046082100F06FFF68B1002600BFC0
:1018B000F0B2FA2810D2FFF783FE2046082100F08C
:1018C00063FF01360028F3D100242846402100227E
:1018D00000F066FF204670BDFFF7A6FF01242046FA
:1018E00070BD00000000000080B50AF0C5FA0AF0E3
:1018F0008FFA4EF69C70CEF20000016841F00401B0
:10190000016080BD000000004FF4FC6101EA50114D
:101910004FF4604202EA90121143C0F3C40008433E
:101920007047000000000000704700000000000049
:101930002DE9F04784B00446002640F66815C2F24F
:10194000004500BFA81900F10A01FEF787FF0A361B
:101950005A2EF7D105F15A002146FEF77FFF4FF0CE
:10196000000A0FF248080C274FF09609002600BF26
:101970008DE8800506EB460009EB800084B200206C
:1019800021463C220C2306F00BF9CDE90075CDF879
:1019900008A0002021463C220C2306F001F90A355C
:1019A00001360A2EE4D104B0BDE8F08720202020C3
:1019B00020000000000000002DE9F04F83B042F24B
:1019C000CD1BC2F2004B9BF800000BF0A1FD46F6C8
:1019D000E864C2F2004446F6EC65C2F200450FF23C
:1019E000800844F2946AC2F2004A0DF10A07002608
:1019F0000FF27C090DE000BFCDE900670020002157
:101A00000022052308F040F902200AF0D1FE2660EA
:101A10002E60204629460CF017F99BF8001001298A
:101A20000AD00029E8D1A0B12A6821684846FEF70B
:101A30005FFD206829680EE00028DDD02A68216853
:101A40004046FEF755FD2068296852460BF0A8FC79
:101A5000D2E700200021524600230CF059F8CBE7D2
:101A6000436F6E6669672025642C25640D0A0000AB
:101A70004F766572766965772025642C25640D0A9A
:101A80000000000000000000B3F5804F18D1B0B591
:101A900050F822C00023CCF6F0730CEA030CD1E915
:101AA000003ED1E9024543EA0C0343EA0E1343EA40
:101AB000042343EA054389691943BDE8B04001E0C6
:101AC0006FF0704140F822100020704700000000C5
:101AD0002DE9F043D1E900C8D1E902E901F110078D
:101AE000F0CF50F82C2040F28043CFF6C0731A405C
:101AF00042EA080242EA0E0242EA090222432A436B
:101B0000324342EA070901F1200898E8F8018A6B9C
:101B100043EA090323432B4333433B431A4342EA3B
:101B20000802BEF1080F08BF42F0400240F82C2026
:101B30000A6BB2F5801F04D10B684BB103681A43DE
:101B400002600A68002A1FBF496B026811430160E6
:101B50000020BDE8F08300002DE9F04700EB820390
:101B6000D3F80490D1E900EA01F1080898E8E0010F
:101B70008A6940F2000CCFF6F07C0CEB075709F0B5
:101B8000404444EA0E0444EA0A1444EA052545EABE
:101B9000064637433A4308F1FE0742EA07625A60B5
:101BA000026812F4801F07D0426809690CEB0151EA
:101BB00022F47002114341600020BDE8F08700006C
:101BC0002DE9F0410B680268012B20D1D1E901E732
:101BD000D1E90365D1E9058CD1E90734496A22F4DA
:101BE000F8421A43224311434268016047F6FF71ED
:101BF00022EA010141EA0E0139433143294341EA16
:101C0000080141EA0C0141600020BDE8F08147F67F
:101C1000FF7322EA030CD1E90132D1E903E401F1B7
:101C2000140898E8E00143EA0C031A4342EA0E0262
:101C300022432A4332433A4342EA0802496A1143A3
:101C400001600020BDE8F081426942EA4101416142
:101C5000002070470000000080B581B00022009293
:101C6000D1E900C3D1E9022E6FF01F0101EB42114F
:101C700043EA0C02114341EA4E21009100990161AF
:101C8000002001B080BD0000F0B58368012A33D187
:101C900040F6FF72CFF60F721A4091E82810D1E992
:101CA000034ED1E905614FF20007CFF6FF7707EB4E
:101CB000043422430024CFF6F07404EB065422438C
:101CC000C46882606FF00F0202EB051204F07044EA
:101CD000013B23431A436FF0FF0303EB0C231A432A
:101CE0000023CFF6FF7303EB0E431A43FF3142EAA2
:101CF0000161C1600020F0BDD1E900C2D1E902E478
:101D00006FF00F0505EB021203F07043ACF1010513
:101D10002B431A436FF0FF0303EB0E231A434FF2DA
:101D20000003CFF6FF7303EB04331A430B6900255E
:101D3000CFF6FF7505EB03431A434B690025CFF639
:101D4000F07505EB03531A438969FF3142EA0161DB
:101D500081600020F0BD0000F0B587B044F2E040A3
:101D6000C5F60200016841F080010160016801F0E0
:101D7000800101910199016841F48071016000685E
:101D800000F4807001900198002602968020019056
:101D9000012703970320049042F20004C5F60204D1
:101DA000A4F5806001AD294600F022FC02974FF4B3
:101DB000807001902046294600F01AFCFFF730FCA5
:101DC00020464FF48071002200F0EAFC14200CF051
:101DD00033FA20464FF48071012200F0E1FC3220FA
:101DE0000CF02AFA8DF81A600DF11A040020214631
:101DF000012200F025F9A4202146012200F020F95B
:101E000016208DF81A0080202146012200F018F9D2
:101E10000C208DF81A0088202146012200F010F9CC
:101E2000A1202146022200F023F89DF81A00302854
:101E300004BF9DF81B10032908D09DF81B10013921
:101E4000C9B2012982BF012007B0F0BD9DF81B1067
:101E500041EA002102A0FEF74BFB002007B0F0BDD5
:101E60004354502049443A25780D0A0000000000F0
:101E700070B514460D460646FFF7AAFC7020FFF722
:101E80006BFCFFF7F5FCF0B2FFF766FCFFF7F0FC28
:101E9000FFF79EFC7120FFF75FFCFFF7E9FC4CB1F8
:101EA000013C204618BF0120FFF71AFC05F8010B82
:101EB000002CF5D1BDE87040FFF7B6BC0000000073
:101EC0002DE9F04F83B08DF80B0040F69425C2F257
:101ED0000045287801302870C0B24CF6CD41CCF6D0
:101EE000CC41A0FB01210A2808D3C90801EB8101DC
:101EF000A0EB4100000601D0002480E00DF10B01B1
:101F00004FF0010802200122FFF7B2FF9DF80B00FD
:101F100000F00F00411EC9B2002404296FD8C0B2DE
:101F2000FF2101FA00F0C02161EA000040F218062A
:101F3000C2F2004686F8200040F25C39C0F6010982
:101F40000DF1070B44F2346AC2F2004A002500BFCB
:101F500008FA05F096F8201008423FD039F815002D
:101F600059460422FFF784FF96F83000C00717D1C6
:101F700006EB45009DF807109DF808209DF80930F4
:101F80009DF80A7003F00F0347EA0323BAF80070C4
:101F9000C38201F00F0142EA0121791A13E000BF68
:101FA00006EB45009DF807109DF808209DF80930C4
:101FB0009DF80A7001F00F0142EA0121C18203F08D
:101FC0000F0147EA012181819DF8070000F0F00030
:101FD00080281EBF06EB45008481C4820135052D93
:101FE000B6D1B089F18A084304BF00208DF80B00F8
:101FF000002040F69425C2F20045287001249DF887
:102000000B00C00611D140F21800C2F2004090F956
:102010002010002905DB4FF6FF72C2828281E02288
:1020200000E07F22114080F820102878F12824BF9A
:102030000A202870204603B0BDE8F08F00000000A1
:10204000F0B581B014460D460646FFF7C1FB70207F
:10205000FFF782FBFFF70CFCF0B2FFF77DFBFFF709
:1020600007FC6CB1002700BFE85DFFF775FBFFF7C9
:10207000FFFB064628B90137A742F5D3002600E04A
:102080000026FFF7D1FB304601B0F0BD0000000094
:102090002DE9F04788B044F2E040C5F6020001683F
:1020A00041F080010160016801F080010191019916
:1020B000016841F480710160006800F48070019053
:1020C00001984FF00008CDF808804FF08009CDF856
:1020D0000490012403944FF0030ACDF810A042F2BB
:1020E0000007C5F60207A7F5806501AE2846314610
:1020F00000F07EFA02944FF4807001903846314629
:1021000000F076FAFFF78CFA38464FF4807100221F
:1021100000F046FB0A200CF08FF838464FF480712F
:10212000012200F03DFB0A200CF086F8CDE9019871
:10213000CDE9038A2846314600F05AFA64200CF0B3
:102140007BF848F24000CFF6FF7000F5807080B257
:102150000DF11B052946042200F056F88DF81F806A
:102160001FA02946FEF7C4F920A12846FEF750FC1F
:1021700090BB48F2400502208DF81B000DF11B04B6
:1021800048F240002146012200F086F9E81D80B2A5
:102190002146012200F038F89DF81B105F290ED867
:1021A00014A0FEF7A5F944F23460C2F20040808822
:1021B00045F21051884204BF012000F041F90A2085
:1021C0000CF03AF800248DF81B400DF11B0148F289
:1021D0004000012200F060F9204608B0BDE8F08719
:1021E0004354502049443A25730D0A00393134379D
:1021F0000000000044656661756C74205665723A93
:1022000025640D0A0000000070B514460D46064610
:10221000FFF7DEFA2820FFF79FFAFFF729FB300AC5
:10222000FFF79AFAFFF724FBF0B2FFF795FAFFF7F2
:102230001FFBFFF7CDFA2920FFF78EFAFFF718FBF7
:1022400054B100BF013C204618BF0120FFF748FAF7
:1022500005F8010B002CF5D1BDE87040FFF7E4BA9A
:102260002DE9F04F85B08DF8130040F69524C2F2A9
:102270000044207801302070C0B24CF6CD41CCF63D
:10228000CC41A0FB01210A2807D3C90801EB810139
:10229000A0EB4100000640F097800DF1130148F2D9
:1022A0004E100122FFF7B0FF9DF8135015F0800F7C
:1022B0000DD005F00E00052809D800208DF80E007D
:1022C0000DF10E0148F24E10012200F0E5F805F084
:1022D0000F00411EC9B2042976D80295C0B2FF2171
:1022E00001FA00F0C02161EA000140F21807C2F2D1
:1022F000004797F82020019287F82010B989B98209
:10230000F98AF9838DF80E000026012440F21E4858
:10231000C0F601080DF10F0B44F23465C2F200451E
:1023200044F2423945F2105A04FA06F097F82010A8
:1023300008422FD038F8160059460422FFF764FFF0
:10234000A888484510D0504524D197F83000C007E0
:10235000BDF80F0018D007EB4601C882BDF8110088
:10236000C0F548700DE000BF97F83000C007BDF819
:102370000F0009D107EB4601C882BDF81100C0F576
:102380008870888106E000BF07EB46018881BDF8B0
:102390001100C8820136052EC6D12888B98981422C
:1023A00003D86888F98A81422FD9029810F00E0F5D
:1023B00033D0002040F69524C2F200442070F88902
:1023C000B881388BF88226E000209DF8131001F0C8
:1023D0008F01802911D140F21801C2F2004191F918
:1023E0002020002A05DB4FF6FF73CB828B81E02390
:1023F00000E07F231A4081F820202178F12924BFB2
:102400000A21217005B0BDE8F08F002040F6952428
:10241000C2F2004420700120D7E7019887F820001D
:10242000B88AB881F88BF88280208DF813000120DB
:1024300040F69524C2F20044C7E700000000000007
:1024400080B582B08DF8070000208DF8060040F2BC
:102450006631C0F6010100220B5C1A440130B82835
:10246000FAD150428DF8060040F26631C0F6010103
:1024700048F24700B82200F00FF848F24700CFF6C4
:10248000FF70B83080B20DF10601022200F004F8AE
:10249000002002B080BD0000F0B581B014460D46AA
:1024A0000646FFF795F92820FFF756F9FFF7E0F900
:1024B000300AFFF751F9FFF7DBF9F0B2FFF74CF9FB
:1024C000FFF7D6F964B10027E85DFFF745F9FFF79C
:1024D000CFF9064628B90137A742F5D3002600E018
:1024E0000026FFF7A1F9304601B0F0BD0000000062
:1024F00010B390F8351002291CD101684FF6F07224
:10250000CBF6FD721144B1F5956F18D8042180F80F
:10251000351001680F22C4F20202914252D940F2F2
:10252000B942C4F2020291424CD2086820F0010084
:1025300008604CE080214165012108467047016830
:102540000A6822F00E020A60D0F800C040F2B943D7
:10255000C4F202039C450B4638BF63460F22C4F207
:102560000202944598BF0B46196821F001011960D9
:10257000016E0A6822F480720A60C26D012101FABC
:1025800002F245F20443C5F602031A60D0E91923AA
:102590005360C26E002A1FBF136823F48073136058
:1025A000D0E91C2318BF536080F83510002180F853
:1025B0003410026D22B180B590470021BDE8804003
:1025C000084670470068016821F0010101600021A0
:1025D000084670470000000040F22040C5F60000A9
:1025E000016841F001010160704700000000000037
:1025F0002DE9F04F83B042F20042C5F602020A23F1
:10260000904208BF0923019300F1264202F1FF72B4
:102610004FEAB2220092002240F2040CC5F6000CF0
:102620004FF0010E00274FF0000809E00232043796
:1026300008F10108B8F1100F04BF03B0BDE8F08F36
:102640000EFA08FA0E6816EA0A09EFD04E6846F04C
:102650001006122E12D107F01C060F2303FA06F4FF
:102660004FF6FC73C7F6FF7303EA580303441D6A71
:1026700025EA04040D69B5402C431C6203239340F2
:1026800004689C43D1F804B00BF0030595402C433B
:102690000460DE43BBF1120F15D80EFA0BF313F0F2
:1026A000061F1FBF83683340CC6894401FBF23437D
:1026B0008360CBF3001303FA08F31FBF446824EAD6
:1026C0000A0423434360C36833408C689440234327
:1026D000C3605FEACB03A9D544F2F443C5F6020315
:1026E0001C461B6843F002032360236803F00203C7
:1026F0000293029B28F0030340F20844C5F600044D
:10270000A3461C5907F00C050F26AE4024EA060A22
:10271000009C092C019E38BF264606FA05F545EABD
:102720000A0443F80B40DCF87C3043EA09044D68A6
:1027300015F4803F08BF23EA0904CCF87C40DCF89C
:10274000803043EA090415F4003F08BF23EA090476
:10275000CCF880404FF0B046336843EA090415F4E2
:10276000801F08BF23EA09043460DCF8003043EA24
:10277000090415F4001F08BF23EA0904CCF800403F
:1027800054E70000000000000069084018BF012065
:1027900070470000000000004269514041617047ED
:1027A000002A0CBF41830183704700000000000035
:1027B00047F2D010C2F200400068704700000000ED
:1027C00040F24C00C2F20040007847F2D011C2F251
:1027D00000410A68104408607047000000000000D3
:1027E00080B5032000F020FA0F2000F009F800283F
:1027F0001CBF012080BD00F0FBF9002080BD00005F
:10280000B0B5044640F24C00C2F2004000784FF4EC
:102810007A71B1FBF0F040F20C01C2F2004109689C
:10282000B1FBF0F001F020FE01250F2C0CD858B9B7
:1028300000254FF0FF302146002200F0E5F940F27C
:102840005000C2F2004004602846B0BD0000000005
:102850002DE9F041044690F8A0300220012B2DD044
:1028600084F8A1004FF0010884F8A080342002FB16
:102870000040D1E900CED1E90267D1E90435C0E9D1
:102880001235C0E91067C0E90ECED1E906CED1E914
:102890000865D1E90A37C0E91837C0E91665C0E90B
:1028A00014CE0B6B8366204605F006FE2068C0F848
:1028B0002480002084F8A00084F8A180C0B2BDE884
:1028C000F08100000000000010B50446002804BF9D
:1028D000012010BD94F8A10028B9002084F8A000C0
:1028E000204600F065F8022084F8A1002068816984
:1028F00021F070418161D4E901C2D4E9033142EA97
:102900000C021A43114382691143816181684FF6B9
:10291000000CCFF2000C01EA0C018160D4E9051330
:10292000826843EA014111438160C16801EA0C01F8
:10293000C160D4E90712C36842EA01411943C1608A
:10294000016901EA0C010161D4E90912036942EA53
:10295000014119430161416901EA0C014161D4E976
:102960000B12436942EA01411943416194F8351061
:1029700094F83620C36A03F07F43C362120442EA2C
:10298000012194F834201143C26A1143C162416BA2
:1029900041F006014163816941F00101816100203C
:1029A000C4F8A400012184F8A11010BD00000000AB
:1029B00070B586B044F2E040C5F60200416841F0CF
:1029C00008014160416801F008010191019950F846
:1029D0000C1C41F0100140F80C1C50F80C1C01F0CC
:1029E000100101910199016841F002010160016843
:1029F00001F0020101910199016841F0200101609B
:102A0000016801F0200101910199016841F0400144
:102A10000160016801F0400101910199016841F0F4
:102A200080010160016801F0800101910199016854
:102A300041F480710160006800F480700190019899
:102A4000012002902021019103900326049640F278
:102A50000045C5F6020501AC28462146FFF7C8FD32
:102A6000022002904FF4806001900020CDE903061F
:102A70000E20059005F580502146FFF7B9FD4FF473
:102A80000C60019005F5A0502146FFF7B1FD4FF411
:102A90007E40019005F5C0502146FFF7A9FD40F2A8
:102AA000F760019005F5E0502146FFF7A1FD06B063
:102AB00070BD000000000000F0B581B0054690F840
:102AC000A0400220012C1CD085F8A100012785F828
:102AD000A070342003FB005444F8381FD4E90A06E0
:102AE0000844B118C4E90102E160284621461A46AB
:102AF00005F0E2FC28684762002085F8A00085F810
:102B0000A170C0B201B0F0BD70B5054690F8A0400C
:102B10000220012C1CD085F8A100012685F8A060B8
:102B2000342003FB005454F8380FC4E90A12084457
:102B30006060A0681044E060284621461A4605F00F
:102B4000BBFC28684662002085F8A00085F8A160DB
:102B5000C0B270BD0000000010B542784EF69C5E19
:102B6000CEF2000E4EF8042C0278F2B14368CEF893
:102B70000030037B42EA037290F808C0437A817AFE
:102B8000C47A42EA046242EAC141427B41EA82419C
:102B9000827B41EA4241C07B41EA004040EA032097
:102BA00040EA4C00CEF8040010BD0020CEF8000032
:102BB000CEF8040010BD00004EF62450CEF2000006
:102BC000016821F480310160016F21F0010101678A
:102BD00070470000000000004EF62450CEF20000C6
:102BE00005210167016841F48031016070470000F0
:102BF00070470000000000000BF0D2BA0000000097
:102C00000BF0DEBA0000000070B514460D46064613
:102C10000BF0E6FA2946224605F0A6FD01463046AD
:102C2000BDE870400BF0E4BA0BF0F6BA000000000B
:102C300080B500F0B9FF44F21841C5F602010968F9
:102C40004FF4807292FAA2F2B2FA82F201F4706149
:102C5000D14040F24C32C0F60102515CC84040F213
:102C60000C01C2F20041086080BD000000000000BD
:102C700080B500F04DFF44F22041C5F6020109681D
:102C8000102292FAA2F2B2FA82F201F07001D1405F
:102C900040F24C32C0F60102515CC84080BD0000D9
:102CA00080B544F2384CC5F6020C5CF8102C5CF888
:102CB00010EC5CF80C3C03F01003DCF80410C1F3DA
:102CC000CC0111FB03F102F00303CEF3053200EE59
:102CD000101AB8EE400A022B0FD09BB95CF8381CD2
:102CE00049F20003C0F2D03311F0200F1EBF5CF890
:102CF000381CC1F3C101CB4008E047F64003C0F2E5
:102D00007D1303E040F60013C0F23D03DCF8001031
:102D10006FF35F2101EE101A9FED1F2AB3FBF2F152
:102D2000DCF80020B8EE411AC2F34622B7EE003AB2
:102D300004EE101A00EE021A511CB8EE440A31EEED
:102D4000031A02EE101AB8EE422A21EE000A80EEB3
:102D5000021ABCEEC11A80ED001ADCF80010C1F3B3
:102D60000641013101EE101AB8EE411A80EE011A47
:102D7000BCEEC11A80ED011ADCF80010C1F3066147
:102D8000013101EE101AB8EE411A80EE010ABCEED4
:102D9000C00A80ED020A80BD00000039000000007A
:102DA00080B544F2404CC5F6020C5CF8182C5CF877
:102DB00018EC5CF8143C03F48073DCF80410C1F3E5
:102DC000CC0111FB03F102F00303CEF3055200EE38
:102DD000101AB8EE400A022B0FD09BB95CF8401CC9
:102DE00049F20003C0F2D03311F0200F1EBF5CF88F
:102DF000401CC1F3C101CB4008E047F64003C0F2DC
:102E00007D1303E040F60013C0F23D03DCF8001030
:102E10006FF35F2101EE101A9FED1F2AB3FBF2F151
:102E2000DCF80020B8EE411AC2F34622B7EE003AB1
:102E300004EE101A00EE021A511CB8EE440A31EEEC
:102E4000031A02EE101AB8EE422A21EE000A80EEB2
:102E5000021ABCEEC11A80ED001ADCF80010C1F3B2
:102E60000641013101EE101AB8EE411A80EE011A46
:102E7000BCEEC11A80ED011ADCF80010C1F3066146
:102E8000013101EE101AB8EE411A80EE010ABCEED3
:102E9000C00A80ED020A80BD000000390000000079
:102EA0002DE9F04381B00446C078000744F22C4875
:102EB000C5F602082FD5606E4FEA305003280AD8B5
:102EC000DFE800F0020B1521D8F8000040F40030D4
:102ED000C8F8000017E001251EE0D8F8000040F413
:102EE0000010C8F80000201D08F06AFE09E0D8F8BC
:102EF000000040F08070C8F8000004F1240008F0E1
:102F0000C3FE054640B9D8F82400616E20F4401095
:102F10000843C8F8240000256078C00701D12E4678
:102F200036E0606D042807D82E46DFE800F0071968
:102F3000230303005EBB09E0012628E0D8F8000067
:102F400040F40030C8F800002E4606BBD8F8240034
:102F5000616D20F007000843C8F82400002617E040
:102F6000D8F8000040F40020C8F80000201D08F048
:102F700027FE09E0D8F8000040F48000C8F80000FF
:102F800004F1240008F080FE0646002EDED0354312
:102F90006078800736D5A06D4FEAB010042806D8B7
:102FA000DFE800F007182203030056BB08E0012603
:102FB00027E0D8F8000040F40030C8F8000006BB55
:102FC000D8F82400A16D20F4E0700843C8F824006C
:102FD000002617E0D8F8000040F40020C8F80000F0
:102FE000201D08F0EDFD09E0D8F8000040F4800055
:102FF000C8F8000004F1240008F046FE0646002E42
:10300000DED035436078400738D5D4F8A4004FEAC5
:103010007050042806D8DFE800F0071923030300E6
:103020005EBB08E0012628E0D8F8000040F400303C
:10303000C8F800000EBBD8F82C00D4F8A41020F477
:1030400060000843C8F82C00002617E0D8F80000FC
:1030500040F40020C8F80000201D08F0B1FD09E090
:10306000D8F8000040F48000C8F8000004F1240003
:1030700008F00AFE0646002EDDD0354360780007D2
:1030800038D5D4F8A8004FEA3060042806D8DFE825
:1030900000F00719230303005EBB08E0012628E0C7
:1030A000D8F8000040F40030C8F800000EBBD8F893
:1030B0002C00D4F8A81020F0E0600843C8F82C00D9
:1030C000002617E0D8F8000040F40020C8F80000FF
:1030D000201D08F075FD09E0D8F8000040F48000DC
:1030E000C8F8000004F1240008F0CEFD0646002ECA
:1030F000DDD03543E07880072AD5A06C4FEA301048
:1031000003280ED8DFE800F0020F1702FEB9D8F846
:103110002000A16C20F030000843C8F820000026F1
:1031200016E0012613E0D8F8000040F40030C8F89B
:10313000000066B9EBE7D8F8000040F40010C8F8CA
:103140000000201D08F03CFD0646002EDFD0354370
:103150006078C00636D5E06D4FEA3030042806D8D6
:10316000DFE800F007182203030056BB08E0012641
:1031700027E0D8F8000040F40030C8F8000006BB93
:10318000D8F82400E16D20F4E0400843C8F824009A
:10319000002617E0D8F8000040F40020C8F800002E
:1031A000201D08F00DFD09E0D8F8000040F4800073
:1031B000C8F8000004F1240008F066FD0646002E61
:1031C000DED03543607880062ED5206E4FEA304041
:1031D000052806D8DFE800F0030711030303C6B98A
:1031E00019E0012615E0D8F8000040F48010C8F876
:1031F0000000201D08F0E4FC09E0D8F8000040F4CD
:103200000000C8F8000004F1240008F03DFD064667
:103210000EB1354308E0D8F82400216E20F4E020F8
:103220000843C8F8240000266078400630D5D4F85A
:10323000AC004FEA3070052806D8DFE800F003073D
:1032400011030303C6B919E0012615E0D8F8000000
:1032500040F48010C8F80000201D08F0B1FC09E01F
:10326000D8F8000040F40000C8F8000004F1240081
:1032700008F00AFD06460EB1354309E0D8F82C00E7
:10328000D4F8AC1020F0E0400843C8F82C00002629
:103290006078000626D5E06E58B1B0F1005F0AD024
:1032A000B0F1805F1CD1D8F8000040F40030C8F8BD
:1032B0000000B6B90AE0D8F8000040F48010C8F861
:1032C0000000201D08F07CFC064656B9D8F8240002
:1032D000E16E20F040500843C8F82400002601E0C9
:1032E00001263543E078C00728D0606C03280ED84B
:1032F000DFE800F0020F1702FEB9D8F82000616C79
:1033000020F003000843C8F82000002616E001263C
:1033100013E0D8F8000040F40030C8F8000066B9A7
:10332000EBE7D8F8000040F40010C8F80000201DBA
:1033300008F046FC0646002EDFD03543A078400654
:1033400064D5D8F8D40340F48070C8F8D403FFF7EC
:103350002FFA0746D8F8D40310F4807F06D1FFF780
:1033600027FAC01B6428F5D9032600E00EB13543C7
:103370004CE0D8F84410D4F8B000414011F4407F3C
:1033800011D0D8F84410D8F8442042F48032C8F85C
:103390004420D8F8442022F48032C8F8442021F494
:1033A0004071C8F84410B0F5807F14D1FFF700FADF
:1033B0000746D8F8440010F0020F0CD141F28839CA
:1033C000FFF7F6F9C01B484500F28782D8F84400A1
:1033D00010F0020FF4D0D4F8B00058F81C1C21F4FF
:1033E0007C5100F44072B2F5407F01BF4FF6CF72BE
:1033F000C0F2FF0202EA1012114348F81C1CD8F870
:1034000044106FF31F300843C8F844002078C00709
:103410002ED0A06F4FEAF000052806D8DFE800F0B4
:10342000030711030303C6B919E0012615E0D8F814
:10343000000040F48010C8F80000201D08F0C0FB18
:1034400009E0D8F8000040F40000C8F8000004F1DA
:10345000240008F019FC06460EB1354308E0D8F800
:103460002800A16F20F038000843C8F82800002683
:10347000207880072CD5606F052806D8DFE800F09B
:10348000030711030303C6B919E0012615E0D8F8B4
:10349000000040F48010C8F80000201D08F090FBE8
:1034A00009E0D8F8000040F40000C8F8000004F17A
:1034B000240008F0E9FB06460EB1354308E0D8F8D1
:1034C0002800616F20F007000843C8F82800002694
:1034D000207840072ED5D4F89000052806D8DFE8DC
:1034E00000F0030711030303C6B919E0012615E034
:1034F000D8F8000040F48010C8F80000201D08F043
:103500005FFB09E0D8F8000040F40000C8F80000B4
:1035100004F1240008F0B8FB06460EB1354309E07B
:10352000D8F82C00D4F8901020F007000843C8F811
:103530002C0000262078800630D5D4F88C004FEA85
:103540003070052806D8DFE800F0030711030303F5
:10355000C6B919E0012615E0D8F8000040F40020B3
:10356000C8F80000201D08F02BFB09E0D8F8000087
:1035700040F08070C8F8000004F1240008F084FBDB
:1035800006460EB1354309E0D8F82800D4F88C106F
:1035900020F0E0400843C8F82800002620784006C4
:1035A00030D5D4F898004FEAB020052806D8DFE8D7
:1035B00000F0030711030303C6B919E0012615E063
:1035C000D8F8000040F40020C8F80000201D08F0E2
:1035D000F7FA09E0D8F8000040F08070C8F8000061
:1035E00004F1240008F050FB06460EB1354309E013
:1035F000D8F82C00D4F8981020F4E0500843C8F80C
:103600002C0000262078000630D5D4F89C004FEA24
:103610007030052806D8DFE800F003071103030324
:10362000C6B919E0012615E0D8F8000040F40020E2
:10363000C8F80000201D08F0C3FA09E0D8F800001F
:1036400040F08070C8F8000004F1240008F01CFB72
:1036500006460EB1354309E0D8F82C00D4F89C108A
:1036600020F460400843C8F82C00002620780007AA
:1036700015D5D4F88010B1F5805F09D104F124008C
:1036800008F002FBD8F8000040F08071404605E0E9
:10369000404650F8282F22F4405211430160207810
:1036A000C00616D5D4F89400B0F5807F0AD104F195
:1036B000240008F0E9FAD8F8000040F08070C8F85B
:1036C000000006E0D8F82C1021F440710843C8F837
:1036D0002C00A07800072BD5D4F8A000B0F5003F4F
:1036E00018D0B0F5803F0AD000BBD8F8000040F4F5
:1036F0000020C8F80000201D08F062FA09E0D8F8A0
:10370000000040F08070C8F8000004F1240008F0C8
:10371000BBFA06465EB9D8F82C00D4F8A01020F405
:1037200040300843C8F82C00002601E0012635434C
:10373000A07840072BD5D4F88400B0F5401F0BD0FB
:10374000B0F5001F0AD0B0F5801F1ED1D8F80000D8
:1037500040F40030C8F80000C6B90BE0D8F800000B
:1037600040F40000C8F8000004F1240008F08CFACE
:1037700006465EB9D8F82800D4F8841020F440102A
:103780000843C8F82800002601E001263543A07848
:10379000C00723D0E06CB0F5803F08D0E0B9D8F87E
:1037A000000040F40030C8F80000B6B90AE0D8F8CC
:1037B000000040F40010C8F80000201D08F000FAD6
:1037C000064656B9D8F82000E16C20F48030084352
:1037D000C8F82000002601E001263543206810F0DB
:1037E000005F13D181031FD4C1023ED4C10046D46F
:1037F00081024FD4410057D4B0F1FF3F64DD002D6A
:1038000018BF0125284601B0BDE8F083D8F80000B4
:1038100040F08070C8F8000004F1240008F034FA89
:10382000054320688103DFD5E16F6FF0010202EBF1
:103830003122022A0AD34FEA31223AB1012A10D1A9
:10384000D8F8002042F40032C8F8002056B9D8F861
:10385000282022F440721143C8F82810C102C5D5AF
:1038600003E001263543C102C0D5D8F82410226FE9
:1038700021F000411143C8F82410C100B8D558F810
:103880001C1CD4F8B42021F48041114348F81C1CBE
:103890008102AFD5D8F82410A26E21F080711143B7
:1038A000C8F824104100A7D558F81C1C21F4004189
:1038B00048F81C1CD4F8B81058F81C2C114348F8D0
:1038C0001C1CB0F1FF3F9ADCD8F82000216D20F0DD
:1038D00040500843C8F8200091E745F0030503264F
:1038E00094E50000000000002DE9F04381B00D4692
:1038F000044642F20008C5F20028D8F8000000F0A3
:10390000070088420CD2D8F8000020F007002843B6
:10391000C8F80000D8F8000000F00700A84260D105
:10392000206844F21047C5F6020710F0020F05D0D8
:10393000B968E26821F00F011143B960C0073ED1B8
:10394000D8F8000000F00700A8420CD9D8F8000011
:1039500020F007002843C8F80000D8F8000000F065
:103960000700A84258D1206810F0040F3BD101078E
:1039700041D4C10647D4800605D53869E16920F0F5
:1039800070000843386100F00FF9B9684FF4807295
:1039900092FAA2F2B2FA82F201F47061D14040F2DE
:1039A0004C32C0F60102515CC84040F20C01C2F238
:1039B000004108600F20FEF723FF0020A3E0B86855
:1039C000A16820F470600843B8606068032825D0BF
:1039D00002282AD157F8101C11F4003F31D10120E0
:1039E00091E001208FE0B968226921F07001114354
:1039F000B9600107BDD5F968626921F07001114312
:103A0000F960C106B7D5F968A26921F4E0611143F4
:103A1000F9608006B1D4B6E7012074E057F8101CB5
:103A200011F0007F0DD101206DE057F8101C012826
:103A300003D1C90505D4012065E0490701D401205F
:103A400061E0396821F0070108433860FEF7B0FEF5
:103A500006466068012816D0032828D002283AD1EB
:103A6000386800F0380010283FF46AAF41F2883916
:103A7000FEF79EFE801B484540D8386800F03800AD
:103A80001028F5D15CE7386800F0380008283FF4CA
:103A900057AF41F2883900BFFEF78AFE801B4845C8
:103AA0002ED8386800F038000828F5D148E7386883
:103AB00000F0380018283FF443AF41F2883900BFC6
:103AC000FEF776FE801B48451CD8386800F03800A9
:103AD0001828F5D134E7386810F0380F3FF430AFCC
:103AE00041F28839FEF764FE801B484504D83868E7
:103AF00010F0380FF6D123E7032004E0032002E0A2
:103B0000032000E00320C0B201B0BDE8F083000054
:103B100080B5FFF78DF844F21841C5F60201096837
:103B2000012292FAA2F2B2FA82F201F00F01D14020
:103B300040F24C32C0F60102515CC84040F2100124
:103B4000C2F20041086080BD80B5FFF7E1FF44F29A
:103B50001C41C5F602010968102292FAA2F2B2FADB
:103B600082F201F07001D14040F24C32C0F6010205
:103B7000515CC84080BD000080B5FFF7C9FF44F22A
:103B80001C41C5F6020109684FF4807292FAA2F254
:103B9000B2FA82F201F4E061D14040F24C32C0F658
:103BA0000102515CC84080BD44F20041C5F60201EB
:103BB0000869C0F3C20240F60010C0F23D00032ABB
:103BC00017D0022A02BF47F64000C0F27D107047AE
:103BD000002A18BF70470A6849F20000C0F2D030CE
:103BE00012F0200F1FBF0968C1F3C101C840704720
:103BF000704780B5D1F828E0D1F828C0CB6A4A6B6D
:103C000003F001035B4203EAD2026FF35F320EF06E
:103C1000030300EE102ACCF30512B8EE400A022B83
:103C2000BDE880400DD083B90B6849F20000C0F2B6
:103C3000D03013F0200F1EBF0B68C3F3C103D84070
:103C400003E047F64000C0F27D100B6B6FF35F237B
:103C500001EE103A9FED102AB0FBF2F0096BB8EEBE
:103C6000411AC1F34621B7EE003A04EE100A00EE05
:103C7000021A481CB8EE440A31EE031A02EE100A8A
:103C8000B8EE422A21EE000A80EE020ABCEEC00A1B
:103C900010EE100A704700BF00000039000000005D
:103CA000F0B581B004460078C00744F20046C5F67E
:103CB00002065FD0306900F03800102808D1306863
:103CC00010F4003F56D06068002853D10120D3E1A2
:103CD000306900F03800182804D1B06A00F0030001
:103CE0000228ECD0606868B1B0F5803F06D031683A
:103CF000B0F5A02F23D141F480203060306840F42B
:103D0000803022E0306820F480303060306820F469
:103D100080203060FEF74CFD0546306810F4003F0F
:103D200028D041F2883700BFFEF742FD401BB84261
:103D300000F22F82306810F4003FF5D11AE021F430
:103D400080303060306820F480203060FEF730FD35
:103D50000546306810F4003F0CD141F2883700BFAF
:103D6000FEF726FD401BB84200F26081306810F477
:103D7000003FF5D02078800765D5306910F0380F06
:103D80001FD0306900F03800182804BFB06A10F066
:103D9000030F16D0E0683168002843D021F01901E4
:103DA00008433060FEF704FD054600BF306810F0A0
:103DB000040F29D1FEF7FCFC401B0228F6D9032092
:103DC0005AE1306810F0040F03D0E068002800F0DA
:103DD0002B813068E16820F0190008433060FEF75D
:103DE000E7FC0546306810F0040F06D1FEF7E0FC52
:103DF000401B0228F6D903203EE1706821694FF488
:103E00007C3292FAA2F205E0706821694FF47C32AC
:103E100092FAA2F2B2FA82F2914020F47C30084386
:103E2000706010E021F001003060FEF7C1FC054633
:103E3000306810F0040F06D0FEF7BAFC401B0228D1
:103E4000F6D9032018E12078C00641D5306900F08A
:103E50003800082809D0306900F03800182813D13C
:103E6000B06A00F0030001280ED1306810F4807FA2
:103E70001CBFE069802840F0D5807068216A4FF04F
:103E8000F84292FAA2F21CE0E1693068002900F0E1
:103E9000B68040F080003060FEF78AFC054600BF27
:103EA000306810F4807F06D1FEF782FC401B0228A8
:103EB000F6D90320E0E07068216A4FF0F84292FAE8
:103EC000A2F2B2FA82F2914020F0F840084370600A
:103ED0002078000725D56169706F81B140F001003D
:103EE0007067FEF765FC0546706F10F0020F18D181
:103EF000FEF75EFC401B0228F6D90320BCE020F050
:103F000001007067FEF754FC054600BF706F10F0AB
:103F1000020F06D0FEF74CFC401B0228F6D9032006
:103F2000AAE02078800626D5A169306889B140F4DE
:103F300080503060FEF73CFC054600BF306810F44E
:103F4000005F18D1FEF734FC401B0228F6D903208D
:103F500092E020F480503060FEF72AFC054600BF56
:103F6000306810F4005F06D0FEF722FC401B0228E8
:103F7000F6D9032080E02078400773D5D6F80004F6
:103F800040F48070C6F80004FEF712FC054600BF3E
:103F9000D6F8000410F4807F06D1FEF709FC401B20
:103FA0006428F5D9032067E0A06858B1012805D03E
:103FB000316F05283CD141F004003067306F40F08C
:103FC00001003BE0306F20F001003067306F20F0DF
:103FD00004003067FEF7ECFB0546306F10F0020F6F
:103FE00040D041F2883700BFFEF7E2FB401BB842E9
:103FF00000F2D180306F10F0020FF5D132E020F0E6
:1040000080003060FEF7D4FB054600BF306810F436
:10401000807F3FF45DAFFEF7CBFB401B0228F5D954
:10402000032029E0012027E0012025E0032023E0F0
:1040300021F001003067306F20F004003067FEF798
:10404000B7FB0546306F10F0020F0BD141F28837F5
:10405000FEF7AEFB401BB84200F29780306F10F0C5
:10406000020FF5D0676A37B1306900F038001828C0
:1040700005D1012000E00020C0B201B0F0BD3068E1
:1040800020F080703060FEF793FB0546306800F04A
:104090000070022F6BD140B1FEF78AFB401B022853
:1040A0007BD8306810F0007FF6D1B06A40F2F3316F
:1040B0008843D4E90A12084340EA0210B06204F1CE
:1040C00030030FCB7F324FF4FE0707EA024200F2C3
:1040D000FF106FF35F207F31490289B2084310431C
:1040E00003F17F014FF0FE4202EA016108433063B1
:1040F000706B4FF6F8718843A26C91FAA1F1B1FA96
:1041000081F102FA01F108437063F06A216C20F03A
:104110000C000843F062F06A616C20F00200084372
:10412000F062F06A40F48030F062F06A40F40030EF
:10413000F062F06A40F48020F062F06A40F0010022
:10414000F062306840F080703060FEF731FB04466A
:10415000306810F0007F1AD1FEF72AFB001B0228FE
:104160001FD83168002011F0007FF5D084E708B92E
:10417000002081E7FEF71CFB401B03280FD23168AB
:10418000002011F0007FF5D176E7032074E70020CE
:1041900072E7032070E703206EE703206CE703203B
:1041A0006AE7032068E70000B0B50D460446002822
:1041B00004BF0120B0BD94F82C0028B9002084F879
:1041C0002D00204600F01CF8022084F82C00206806
:1041D000211DFDF7F5FCD4E900022946FDF754FD49
:1041E00044F20000C5F20020016841F00041016086
:1041F000012084F82C000020B0BD00000000000069
:10420000B0B586B044F2E040C5F60200416941F025
:1042100002014161416901F002010191019950F8E7
:104220000C1C41F4805140F80C1C50F80C1C01F49B
:10423000805101910199016841F004010160016818
:1042400001F0040101910199016841F00801016048
:10425000016801F0080101910199016841F0100124
:104260000160016801F0100101910199016841F0BC
:1042700020010160016801F02001019101990168AC
:1042800041F040010160006800F040000190019899
:10429000022002900D200190012003900320049041
:1042A0000C20059040F60005C5F6020501AC284635
:1042B0002146FEF79DF94CF20370019005F58060F0
:1042C0002146FEF795F94FF68370019005F50060E1
:1042D0002146FEF78DF94FF63F00019005F540604D
:1042E0002146FEF785F948F23710019005F5805018
:1042F0002146FEF77DF906B0B0BD000000000000C9
:1043000010B5044690F82C200220022A08D084F828
:104310002C002068FDF798FC012084F82C00002078
:10432000C0B210BD00000000B0B50D46044690F8C4
:104330002C10022002290DD084F82C002068294678
:10434000FDF78AFC28680121022808BF052184F8AE
:104350002C100020C0B2B0BD70B515460E46044604
:10436000002804BF012070BD94F8450028B9002042
:1043700084F84400204600F023F8206804F1080186
:10438000FDF7A6FB2068A2683146FDF7E5FBD4E9FE
:104390000102E36A2946FDF777FB2068A16850F81F
:1043A000212042F0010240F8212044F20000C5F231
:1043B0000020016841F000410160002070BD000054
:1043C000B0B586B044F2E040C5F6020050F80C1CCF
:1043D00041F4805140F80C1C50F80C1C01F4805141
:1043E00001910199016841F008010160016801F043
:1043F000080101910199016841F010010160006814
:1044000000F0100001900198022002904EF2B3706B
:10441000019001200390032004900C20059040F6A9
:104420000044C5F6020401AD20462946FEF7E0F837
:104430004FF68070019004F580602946FEF7D8F8A9
:1044400006B0B0BD000000004EF21001CEF2000137
:104450000A6822F00403042808BF42F004030B603A
:10446000704700000000000007F046BE000000009A
:1044700070470000000000007047000000000000CE
:1044800010B50446002804BF012010BD94F83D007B
:1044900028B9002084F83C00204600F00DF80220E6
:1044A00084F83D002068211D07F026FF012084F8D4
:1044B0003D00002010BD0000006840F20041C4F241
:1044C0000001884218BF704780B582B044F2E840CE
:1044D000C5F60200016841F002010160006800F0C9
:1044E0000200019001981D2003210222FEF78CFB9F
:1044F0001D2002B0BDE88040FEF782BB0000000036
:104500000068C16841F00101C160018841F001010A
:1045100001800020704700000068C16821F001019F
:10452000C160016A41F21112114201D000207047AE
:10453000016A40F24442114202BF018821F00101A8
:10454000018000207047000070470000000000005C
:1045500010B504460068016911F0020F1CBFC16864
:1045600011F0020F4FD12068016911F0040F1CBF38
:10457000C16811F0040F53D12068016911F0080FD0
:104580001CBFC16811F0080F57D12068016911F0F4
:10459000100F1CBFC16811F0100F5BD120680169BA
:1045A00011F0010F1CBFC16811F0010F5FD120682D
:1045B000016911F0800F1CBFC16811F0800F5DD13F
:1045C0002068016911F4807F1CBFC16811F0800F61
:1045D0005BD12068016911F0400F1CBFC16811F068
:1045E000400F59D12068016911F0200F1ABFC1682E
:1045F00011F0200F10BD6FF0200101612046BDE8D1
:104600001040FFF739BF6FF00201016101212177EE
:10461000806910F0030F46D02046FFF795FF48E071
:104620006FF00401016102212177806910F4407F5D
:1046300042D02046FFF788FF44E06FF00801016197
:1046400004212177C06910F0030F3ED02046FFF708
:104650007BFF40E06FF01001016108212177C06904
:1046600010F4407F3AD02046FFF76EFF3CE06FF039
:1046700001010161204600F043F898E76FF08001E6
:1046800001612046FFF7F4FE9AE76FF080010161B7
:104690002046FFF7EDFE9CE76FF0400101612046E8
:1046A00000F042F89EE7204600F022F8204600F095
:1046B00023F80020207756E7204600F019F820461E
:1046C00000F01AF80020207756E7204600F010F896
:1046D000204600F011F80020207756E7204600F031
:1046E00007F8204600F008F80020207756E7000081
:1046F000704700000000000070470000000000004C
:10470000006840F20041C4F20001884218BF7047BF
:1047100080B546F60870C2F2004000688047BDE8E8
:10472000804070470000000070470000000000005B
:10473000704700000000000070470000000000000B
:10474000B0B504460168CA69D1F800C08D6812F09E
:104750000F0F58D00120C1F2000028400CF49073D4
:1047600018435ED0D0071FBF1CF480700120086280
:10477000E06F1CBF40F00100E06705F00100930707
:1047800008D500281FBF02230B62E36F43F0040328
:1047900018BFE367530708D500281FBF04230B6227
:1047A000E36F43F0020318BFE36713070ED50CF065
:1047B000200E05F0805343EA0E0318431FBF082064
:1047C0000862E06F40F0080018BFE067E06F002863
:1047D0007AD0900608D50CF0200005F080510843EF
:1047E0001CBF204608F0ECF8E06F10F0080F37D13E
:1047F0002068806810F0400F32D12046FFF79CFF00
:104800000020E067B0BD90060BD50CF0200E05F03F
:10481000805050EA0E0004D02046BDE8B04008F0B9
:10482000CFB8D0020FD515F480000CD04FF4801013
:104830000862202084F8790084F87A002046BDE8D8
:10484000B040FFF775BF100627D50CF0800005F4C7
:104850000003184321D02046BDE8B04008F020BD39
:10486000204608F091F82068816811F0400F1DD0B3
:10487000816821F040018160606FB8B14CF6791118
:10488000C0F600010165FDF733FE002808BFB0BD8A
:10489000606F016DBDE8B040084702EA0C004006B9
:1048A00009D52046BDE8B04008F07EB82046BDE8F6
:1048B000B040FFF741BF100206D51CF080401EBF7C
:1048C000086820F080400860B0BD000000000000D3
:1048D00010B50446A8B194F8790028B9002084F8EE
:1048E0007800204600F028F8242084F87900206819
:1048F000016821F001010160204608F09DF80128BF
:1049000001D1012010BD606B00281CBF204607F0BC
:1049100087FF2068416821F490414160816821F05F
:104920002A018160016841F0010101602046BDE873
:10493000104007F0E9BF0000F0B587B005460068F9
:1049400044F20047C4F2000707F54C410024C5F6C5
:10495000020444F2E046C5F60206884208D0B84296
:1049600031D0286807F58061884254D007B0F0BD87
:10497000306840F001003060306800F001000290C3
:104980000298306940F010003061306900F010008A
:1049900002900298022003904FF4C061029101211D
:1049A000CDE904100720069002A92046FDF720FE5D
:1049B000252000210022FEF727F92520FEF720F907
:1049C0002868B842CDD1306840F0010030603068CE
:1049D00000F0010001900198B06840F40030B06030
:1049E000B06800F4003001900198022003900C217F
:1049F00002910121CDE904100720069002A920466A
:104A0000FDF7F6FD262001210022FEF7FDF8262005
:104A1000FEF7F6F8A5E7B06840F48020B060B06813
:104A200000F4802001900198306840F0020030606E
:104A3000306800F0020001900198022003904FF4CA
:104A4000406102910121CDE904100720069004F590
:104A5000806002A9FDF7CCFD272002210022FEF78D
:104A6000D3F82720FEF7CCF807B0F0BD0000000017
:104A70002DE9F04182B01D4617460E46044690F8D7
:104A80007A0020280AD10120002E18BF002F06D05E
:104A900094F87800012806D1022000E00220C0B27C
:104AA00002B0BDE8F0810020E067012084F87800C2
:104AB000222084F87A00FDF77BFE8046A4F8687017
:104AC000A4F86A70A06850B1B0F1805F0BD0B0F567
:104AD000805F0FD1206920B940F2FF1008E0206903
:104AE00028B9FF2004E0206908B13F2000E07F20C2
:104AF000A4F86C00B4F86C7005E000BF2068808CEE
:104B0000384006F8010BB4F86A00C8B1B4F86A007E
:104B10000138A4F86A00009520462021002243466F
:104B200008F0FAFB98B9A068B0F5805F04BF20696F
:104B30000028E3D12068808C384026F8020BE2E799
:104B4000002084F87800202184F87A10A7E7032059
:104B5000A5E700000000000090F87A30202B0AD171
:104B60000123002918BF002A01D1D8B2704790F85C
:104B70007830012B02D10223D8B27047416601215F
:104B800080F87810A0F86820A0F86A20816851B1F8
:104B9000B1F1805F0BD0B1F5805F0FD1016921B910
:104BA00040F2FF1108E0016929B9FF2104E0016921
:104BB00009B13F2100E07F21A0F86C100021C167FE
:104BC00080F87810222180F87A100068816841F01E
:104BD000010181600268016812F0005F05D141F4B3
:104BE000907101600023D8B2704741F48071016078
:104BF000816841F0805181600023D8B27047000085
:104C0000006844F20041C4F20001884208BF09F084
:104C1000BBB97047000000002DE9F04381B0994610
:104C200017460E46044690F8790020280AD101253F
:104C3000002E18BF002F06D094F87800012806D166
:104C4000022500E00225E8B201B0BDE8F0830020B3
:104C5000E067012084F87800212084F87900FDF7CE
:104C6000A7FD8046A4F86270A4F8607004E000BF5D
:104C7000206816F8011B0185B4F86200D8B1B4F8B9
:104C800062000138A4F86200CDF80090204680212F
:104C90000022434608F040FBC8B9A068B0F5805F29
:104CA00004BF20690028E3D1206836F8021B6FF3A7
:104CB0005F210185E0E7CDF80090002520464021E6
:104CC0000022434608F028FB18B10325BBE7032563
:104CD000B9E784F87850202084F87900B3E7000021
:104CE0007047000000000000FEE700000000000028
:104CF00080B5FCF7F9FDFDF773FD07F029FA4FF4D5
:104D0000C87007F0C9FA07F0CFF800F0BDF94FF40A
:104D1000E13009F039F84FF4E13009F04DF802F0D4
:104D2000A7FF40F21800C2F200400068BDE88040D2
:104D3000004700000000000070B5044644F24460E3
:104D4000C2F20040006820B12046BDE8704002F089
:104D5000F3BF44F23460C2F2004045880688002068
:104D6000002102F0FDFD754302F06EFF002D08BF2B
:104D700070BD0020C6F208000480013DFCD170BD6A
:104D80002DE9F04F81B08946824644F24460C2F278
:104D90000040006830B15046494601B0BDE8F04FD0
:104DA00002F0F2BFC9F1010018444FF6FF7108424A
:104DB00024D00A9EA2EB0A0101311FFA80FB88B2BF
:104DC0000090440000250F0440F20008C6F20808D5
:104DD00005EB090081B2504602F0C2FD02F034FF3B
:104DE00047B10098314600BF31F8022BA8F80020E7
:104DF0000138F9D1264401355D45E9D101B0BDE85E
:104E0000F08F000000000000B0B544F23464C2F23C
:104E10000044A07144F24465C2F20045296829B1FA
:104E200003F016F8D5F816002060B0BD90B140F23E
:104E30004010C0F2F0002060A08845F20F51884277
:104E400025DC41F66311884248D045F21031884292
:104E500025D076E0F020C0F240102060A08845F216
:104E60000F5188422BDC41F66311884250D045F245
:104E70001031884265D12B20A0812C20C0F22A005D
:104E8000A06040F24010C0F2E010206059E045F20E
:104E9000105188422ED049F24131884251D12B2104
:104EA000A1812C21C0F22A01A16045F21031884273
:104EB00002BF40F2E010C0F24010206041E045F235
:104EC0001051884230D049F24131884239D12B20EB
:104ED000A0812C20C0F22A00A06032E02B20A0810B
:104EE0002C20C0F22A00A06040F22030C0F2E01076
:104EF000206026E04FF42C50A08142F60040C2F61C
:104F00000020A06040F22030C0F2E010206018E0E5
:104F10002A20A0812C20C0F22B00A06040F2E010DB
:104F2000C0F2203020600CE04FF42C50A08142F6FB
:104F30000040C2F60020A06040F2E010C0F2203035
:104F400020600020BDE8B04002F01ABC0000000064
:104F50002DE9F04114460D46064644F24460C2F283
:104F60000040006830B1304629462246BDE8F04195
:104F700002F082BF44F23468C2F20048B8F804007C
:104F800045F20F51884208DC41F66311884221D076
:104F900045F21031884208D06AE045F2105188424B
:104FA00046D049F24131884262D1B8F80A0002F095
:104FB0003BFE300A02F028FEF0B202F025FEB8F8FF
:104FC0000C0002F031FE280A02F01EFEE8B202F0E8
:104FD0001BFE4DE098F80600002802BFB8F800005C
:104FE000F1434618B8F80A0002F01EFEC6F3072780
:104FF000384602F009FEF6B2304602F005FE3846A9
:1050000002F002FE304602F0FFFDB8F80C0002F09C
:105010000BFE2E0A304602F0F7FDEDB2284602F0F4
:10502000F3FD304602F0F0FD284602F0EDFD1FE0F2
:10503000B8F80A0002F0F8FD300A02F0E5FDB8F811
:105040000A00013080B202F0EFFDF0B202F0DCFDA8
:10505000B8F80C0002F0E8FD280A02F0D5FDB8F817
:105060000C00013080B202F0DFFDE8B202F0CCFDAE
:10507000B8F808004FF6FE71C6F2070108804C80B0
:10508000BDE8F081000000002DE9F04F95B003F07D
:10509000A7F944F23467C2F20047B88040F20049F1
:1050A000C5F6020918B102F067FF02F001BA44F236
:1050B000E040C5F60200016841F0020101600068AD
:1050C00000F0020009900998012011902021109110
:1050D00012900320139010A94846FDF789FA02F0B8
:1050E00003FB44F20002C5F2002202F5827342F68D
:1050F000CC20C2F2004000211026C0E90023C0E904
:105100000211C0E90416C0E906114FF480524FF4B1
:1051100080434FF48016C0E90812C0E90A13C0E9C1
:105120000C1186631122CDE9092155220B920F91B2
:105130000391152202920492089109A902AAFFF78D
:105140000BF9322009F078F8D32002F06DFD02F05F
:10515000E3FAB88002F0E0FAB88002F0DDFA00026B
:10516000B88002F0D9FAB9880843B88080B249F211
:105170004135A84240F01481CF2002F055FD0020B7
:1051800002F042FDC12002F03FFD302002F03CFD64
:10519000ED2002F049FD642002F036FD032002F00C
:1051A00033FD122002F030FD812002F02DFDE820B9
:1051B00002F03AFD852002F027FD102002F024FDC8
:1051C0007A2002F021FDCB2002F02EFD392002F0E2
:1051D0001BFD2C2002F018FD002002F015FD3420EC
:1051E00002F012FD022002F00FFDF72002F01CFD7C
:1051F000202002F009FDEA2002F016FD002002F056
:1052000003FD002002F000FDC02002F00DFD1B2078
:1052100002F0FAFCC12002F007FD012002F0F4FCCC
:10522000C52002F001FD302002F0EEFC302002F03B
:10523000EBFCC72002F0F8FCB72002F0E5FC3620BA
:1052400002F0F2FC482002F0DFFC3A2002F0ECFC15
:10525000552002F0D9FCB12002F0E6FC002002F05B
:10526000D3FC1A2002F0D0FCB62002F0DDFC0A20AC
:1052700002F0CAFCA22002F0C7FCF22002F0D4FC2B
:10528000002002F0C1FC262002F0CEFC012002F03A
:10529000BBFCE02002F0C8FC0F2002F0B5FC2A2085
:1052A00002F0B2FC282002F0AFFC082002F0ACFCB7
:1052B0000E2002F0A9FC082002F0A6FC542002F007
:1052C000A3FCA92002F0A0FC432002F09DFC0A20D0
:1052D00002F09AFC0F2002F097FC002002F094FCF0
:1052E000002002F091FC002002F08EFC002002F071
:1052F0008BFCE12002F098FC002002F085FC1520D8
:1053000002F082FC172002F07FFC072002F07CFCF8
:10531000112002F079FC062002F076FC2B2002F02E
:1053200073FC562002F070FC3C2002F06DFC05205E
:1053300002F06AFC102002F067FC0F2002F064FC0F
:105340003F2002F061FC3F2002F05EFC0F2002F0E3
:105350005BFC2B2002F068FC002002F055FC0020D2
:1053600002F052FC012002F04FFC3F2002F04CFC06
:105370002A2002F059FC002002F046FC002002F036
:1053800043FC002002F040FCEF2002F03DFC112025
:1053900002F04AFC782008F04FFF292002F086B87E
:1053A000D42002F041FC02F0B7F9B88002F0B4F961
:1053B000B88002F0B1F90002B88002F0ADF9B98806
:1053C0000843B88080B245F21031884240F07787B8
:1053D000ED2002F029FC012002F016FCFE2002F074
:1053E00013FCEE2002F020FCDE2002F00DFC212058
:1053F00002F00AFCF12002F017FC012002F004FC8C
:10540000DF2002F011FC102002F0FEFBC42002F0AD
:105410000BFC8F2002F0F8FBC62002F005FC0020F8
:1054200002F0F2FBE22002F0EFFBE22002F0ECFBE4
:10543000E22002F0E9FBBF2002F0F6FBAA2002F016
:10544000E3FBB02002F0F0FB0D2002F0DDFB0020BA
:1054500002F0DAFB0D2002F0D7FB002002F0D4FBB3
:10546000112002F0D1FB002002F0CEFB192002F047
:10547000CBFB002002F0C8FB212002F0C5FB00207E
:1054800002F0C2FB2D2002F0BFFB002002F0BCFBAB
:105490003D2002F0B9FB002002F0B6FB5D2002F0D7
:1054A000B3FB002002F0B0FB5D2002F0ADFB00205A
:1054B00002F0AAFBB12002F0B7FB802002F0A4FBAF
:1054C000002002F0A1FB8B2002F09EFB002002F0E6
:1054D0009BFB962002F098FB002002F095FBB22087
:1054E00002F0A2FB002002F08FFB002002F08CFBF8
:1054F000022002F089FB002002F086FB032002F06C
:1055000083FB002002F080FBB32002F08DFB002023
:1055100002F07AFB002002F077FB002002F074FB1F
:10552000002002F071FB002002F06EFB002002F070
:105530006BFB002002F068FB002002F065FB0020FE
:1055400002F062FB002002F05FFB002002F05CFB37
:10555000002002F059FB002002F056FB002002F070
:1055600053FB002002F050FB002002F04DFB002016
:1055700002F04AFB002002F047FB002002F044FB4F
:10558000002002F041FB002002F03EFB002002F070
:105590003BFB002002F038FB002002F035FBB4207A
:1055A00002F042FB8B2002F02FFB002002F02CFBCC
:1055B000962002F029FB002002F026FBA12002F039
:1055C00023FB002002F020FBB52002F02DFB02207F
:1055D00002F01AFB002002F017FB032002F014FB7C
:1055E000002002F011FB042002F00EFB002002F06C
:1055F0000BFBB62002F018FB002002F005FB002098
:1056000002F002FBB72002F00FFB002002F0FCFAD0
:10561000002002F0F9FA3F2002F0F6FA002002F032
:10562000F3FA5E2002F0F0FA002002F0EDFA6420B6
:1056300002F0EAFA002002F0E7FA8C2002F0E4FA25
:10564000002002F0E1FAAC2002F0DEFA002002F0C5
:10565000DBFADC2002F0D8FA002002F0D5FA702044
:1056600002F0D2FA002002F0CFFA902002F0CCFA39
:10567000002002F0C9FAEB2002F0C6FA002002F086
:10568000C3FADC2002F0C0FA002002F0BDFAB82014
:1056900002F0CAFA002002F0B7FA002002F0B4FAD1
:1056A000002002F0B1FA002002F0AEFA002002F071
:1056B000ABFA002002F0A8FA002002F0A5FA0020C0
:1056C00002F0A2FABA2002F0AFFA242002F09CFA0B
:1056D000002002F099FA002002F096FA002002F071
:1056E00093FAC12002F0A0FA202002F08DFA0020E7
:1056F00002F08AFA542002F087FA002002F084FABD
:10570000FF2002F081FA002002F07EFAC22002F0AF
:105710008BFA0A2002F078FA002002F075FA0420D1
:1057200002F072FA002002F06FFAC32002F07CFA55
:105730003C2002F069FA002002F066FA3A2002F0FA
:1057400063FA002002F060FA392002F05DFA0020CE
:1057500002F05AFA372002F057FA002002F054FA09
:105760003C2002F051FA002002F04EFA362002F0FE
:105770004BFA002002F048FA322002F045FA0020ED
:1057800002F042FA2F2002F03FFA002002F03CFA29
:105790002C2002F039FA002002F036FA292002F01B
:1057A00033FA002002F030FA262002F02DFA002011
:1057B00002F02AFA242002F027FA002002F024FA4C
:1057C000242002F021FA002002F01EFA232002F029
:1057D0001BFA002002F018FA3C2002F015FA002013
:1057E00002F012FA362002F00FFA002002F00CFA52
:1057F000322002F009FA002002F006FA2F2002F00F
:1058000003FA002002F000FA2C2002F0FDF900203B
:1058100002F0FAF9292002F0F7F9002002F0F4F979
:10582000262002F0F1F9002002F0EEF9242002F027
:10583000EBF9002002F0E8F9242002F0E5F900205D
:1058400002F0E2F9232002F0DFF9002002F0DCF997
:10585000C42002F0E9F9622002F0D6F9002002F03B
:10586000D3F9052002F0D0F9002002F0CDF9842010
:1058700002F0CAF9002002F0C7F9F02002F0C4F9E2
:10588000002002F0C1F9182002F0BEF9002002F059
:10589000BBF9A42002F0B8F9002002F0B5F91820F5
:1058A00002F0B2F9002002F0AFF9502002F0ACF99A
:1058B000002002F0A9F90C2002F0A6F9002002F065
:1058C000A3F9172002F0A0F9002002F09DF995201D
:1058D00002F09AF9002002F097F9F32002F094F90F
:1058E000002002F091F9E62002F08EF9002002F08B
:1058F0008BF9C52002F098F9322002F085F90020DA
:1059000002F082F9442002F07FF9002002F07CF9D5
:10591000652002F079F9002002F076F9762002F095
:1059200073F9002002F070F9882002F06DF9002070
:1059300002F06AF9C62002F077F9202002F064F93B
:10594000002002F061F9172002F05EF9002002F059
:105950005BF9012002F058F9002002F055F9C72048
:1059600002F062F9002002F04FF9002002F04CF939
:10597000002002F049F9002002F046F9C82002F0A8
:1059800053F9002002F040F9002002F03DF9002018
:1059900002F03AF9002002F037F9C92002F044F988
:1059A000002002F031F9002002F02EF9002002F070
:1059B0002BF9002002F028F9002002F025F9002040
:1059C00002F022F9002002F01FF9002002F01CF979
:1059D000002002F019F9002002F016F9002002F070
:1059E00013F9002002F010F9002002F00DF9002058
:1059F00002F00AF9002002F007F9002002F004F991
:105A0000E02002F011F9162002F0FEF8002002F06A
:105A1000FBF81C2002F0F8F8002002F0F5F8212035
:105A200002F0F2F8002002F0EFF8362002F0ECF875
:105A3000002002F0E9F8462002F0E6F8002002F02B
:105A4000E3F8522002F0E0F8002002F0DDF86420D4
:105A500002F0DAF8002002F0D7F87A2002F0D4F849
:105A6000002002F0D1F88B2002F0CEF8002002F0E6
:105A7000CBF8992002F0C8F8002002F0C5F8A82061
:105A800002F0C2F8002002F0BFF8B92002F0BCF822
:105A9000002002F0B9F8C42002F0B6F8002002F0AD
:105AA000B3F8CA2002F0B0F8002002F0ADF8D2201E
:105AB00002F0AAF8002002F0A7F8D92002F0A4F81A
:105AC000002002F0A1F8E02002F09EF8002002F091
:105AD0009BF8F32002F098F8002002F095F8E120FE
