:020000040800F2
:10000000C038002459030008B9710008513B0008AA
:1000100021710008C90F0008D1B2000800000000DB
:1000200000000000000000000000000031A30008F4
:10003000491300080000000051BD0008B1A40008E9
:100040009303000893030008930300089303000838
:100050009303000893030008930300089303000828
:100060009303000893030008930300089303000818
:100070009303000893030008930300089303000808
:1000800093030008930300089303000893030008F8
:1000900093030008930300089303000893030008E8
:1000A00093030008930300089303000893030008D8
:1000B00093030008930300089303000893030008C8
:1000C00093030008930300089303000893030008B8
:1000D00093030008E1B1000801B20008930300088F
:1000E0009303000893030008000000009303000836
:1000F0009303000893030008930300089303000888
:100100009303000893030008930300089303000877
:100110009303000893030008930300089303000867
:100120009303000893030008930300089303000857
:100130009303000893030008930300089303000847
:1001400000000000000000000000000000000000AF
:100150009303000893030008930300089303000827
:100160009303000893030008930300089303000817
:1001700093030008930300089303000800000000A5
:1001800093030008930300089303000893030008F7
:1001900093030008930300089303000893030008E7
:1001A00093030008930300089303000893030008D7
:1001B00093030008930300089303000893030008C7
:1001C00093030008930300089303000893030008B7
:1001D00093030008930300089303000893030008A7
:1001E0009303000893030008930300089303000897
:1001F0009303000893030008930300089303000887
:100200009303000893030008930300089303000876
:100210009303000893030008930300089303000866
:1002200093030008930300089303000800000000F4
:1002300093030008930300080000000093030008E4
:100240009303000893030008930300089303000836
:100250009303000893030008930300089303000826
:100260009303000893030008930300089303000816
:1002700093030008930300089303000800000000A4
:100280009303000800000000930300080000000032
:10029000000000009303000800F002F800F04CF8A2
:1002A0000AA090E8000C82448344AAF10107DA45D1
:1002B00001D100F041F8AFF2090EBAE80F0013F0D7
:1002C000010F18BFFB1A43F00103184774BC00006C
:1002D00094BC0000103A24BF78C878C1FAD85207FD
:1002E00024BF30C830C144BF04680C6070470000B0
:1002F0000023002400250026103A28BF78C1FBD82F
:10030000520728BF30C148BF0B60704766290BF009
:100310008885642900F03A81002070471FB50BF0F2
:1003200073FD00F0D7FC0400002000210BF056FD07
:10033000E0601FBD10B510BD00F0D1FD1146FFF704
:10034000EDFF0BF0A1F800F0EFFD03B4FFF7F2FFB3
:1003500003BC00F0B9FC000011488047DFF84400FE
:10036000016841F470010160BFF34F8FDFF838007E
:10037000016821F040410160BFF36F8F0B480047D7
:10038000FEE7FEE7FEE7FEE7FEE7FEE7FEE7FEE745
:10039000FEE7FEE706480749074A084B704700009A
:1003A000B1A5000888ED00E034EF00E099020008F4
:1003B000C02C0024C0380024C02E0024C02E0024ED
:1003C00072B6704762B67047EFF3108072B670472E
:1003D00080F31088704730BF704720BF7047B0FA75
:1003E00080F0704790FAA0F0B0FA80F0704790FA71
:1003F000A0F0704753EA020C00F069802DE9F04B41
:100400004FF00006002B1FBFB3FA83F503FA05F483
:1004100024FA05F65E4012BF1643B2FA82F502FADC
:1004200005F4C5F120051EBF22FA05FC44EA0C04C0
:10043000203556EA044C4FEA144418BF641C4FF0B0
:1004400000084FF00009904271EB030C39D30029EA
:1004500019BFB1FA81F701FA07F6B0FA80F700FA8E
:1004600007F6C7F120071EBF20FA07FC46EA0C0674
:100470002037B6FBF4FCA7EB0507103F07F01F0B76
:10048000CBF120062CFA06F60CFA0BFB44BFB34660
:100490000026202FA4BF5E464FF0000B5BEA060C3F
:1004A00008BF4FF0010B19EB0B0948EB0608ABFB3B
:1004B000027C06FB02CC0BFB03CCC01B71EB0C01D6
:1004C000C1E70B46024641464846BDE8F08B13B5EE
:1004D0004FF000004FF00001AFF30080BDE81C407A
:1004E000704700000FB4044910B503AA029800F049
:1004F00085FB10BC5DF814FB842B00240FB41CB5E5
:10050000074B06AA7B4469460090059800F05DFB06
:100510000020694600F06CFB1CBC5DF814FB000079
:10052000E90600002DE9F0410E4604460020206255
:100530002046E168884730B3252805D0D4E9012159
:100540009047206A401CF2E7E16820460027884770
:10055000050018D0A5F14100192802D820354FF424
:1005600000673246294620462760FFF7CFFE40B19C
:10057000012804D0F61D26F007060836D8E7361DF8
:10058000D6E72846DAE7206ABDE8F0812DE9F04198
:100590000646002410687529314616A510D0AFF321
:1005A0000080002802DA404213A507E031688A077C
:1005B00001D512A502E0490704D511A5012401E0E7
:1005C000AFF3008000210A2206F1240709E0B0FB06
:1005D000F2FCB0FBF2F302FB1C00303078541846FA
:1005E000491C0028F3D123462A463046BDE8F04195
:1005F00000F07FB8000000002D0000002B0000007C
:1006000020000000032A40F2308010F0030C00F0BC
:10061000158011F8013BBCF1020F624498BF11F83C
:1006200001CB00F8013B38BF11F8013BA2F10402F5
:1006300098BF00F801CB38BF00F8013B11F003036D
:1006400000F0EE82083AC0F0088051F8043B083A06
:1006500051F804CBA0E80810F5E7121D5CBF51F873
:10066000043B40F8043BAFF30080D20724BF11F8ED
:10067000013B11F801CB48BF11F8012B24BF00F852
:10068000013B00F801CB48BF00F8012B704702F096
:10069000FF0343EA032242EA024200F0F5BA4FF0B8
:1006A000000200B5134694469646203922BFA0E8C2
:1006B0000C50A0E80C50B1F12001BFF4F7AF0907CE
:1006C00028BFA0E80C5048BF0CC05DF804EB8900BF
:1006D00028BF40F8042B08BF704748BF20F8022B02
:1006E00011F0804F18BF00F8012B7047704770471A
:1006F00070472DE9F0470D4699469246044600F1B1
:1007000024080168880604D5E06921F01001216001
:1007100000E00120A84201DD471B00E00027A1699D
:100720007A1902EB0900081AA0612078C00602D4E9
:100730002046AFF30080002608E0D4E901211AF832
:1007400006009047206A401C761C20624E45F4DB70
:100750002078C0060AD52046AFF3008006E0D4E931
:10076000012130209047206A401C2062381EA7F1EA
:100770000107F4DC07E0D4E9012118F805009047EF
:10078000206A401C2062281EA5F10105F3DC2046EA
:10079000AFF300802078000602D50220BDE8F08784
:1007A0000120FBE72DE9FF4F0C461E464FF0FF37B7
:1007B0008BB0D2E90001DDF860800A908A46C1F36F
:1007C0000A5505B93D46002108464FF00000BAF130
:1007D000000F00F4400005DA00EB80004FF4400108
:1007E00001EA50004FEA9059B9F1010F00DDB94616
:1007F0000A9850EA4A000ED044F61050A5F2FF3590
:1008000045432F14B8F1000F1ED07542291E1EDD7E
:10081000C9F100021CE0B8F1010F4FF0000001D057
:10082000302103E0F24305E02154401CB042FBDBE1
:1008300030460022002121540B99C1F80880C1E9FB
:1008400000200FB0BDE8F08FBD1B6D1CDEE74A46EF
:1008500000DA694206A800F0C7FA06AB93E8070081
:1008600003AB83E8070050460A990AF04BFE8DE877
:100870000700A0F500501F3800900398002D0ADDF6
:1008800042F21F014A460844002303A90390684628
:100890000BF0B4F809E0A0F500504A461F380023D9
:1008A00003A9039068460BF0BEF88DE8070000042A
:1008B000000C03D04FF0FF30410800E01046B8F1C3
:1008C000000F03D00022009215461EE0751E05D4CD
:1008D00000F004FA303262556D1EF9D5B34601229C
:1008E000084302D000227F1C04E02078302801D188
:1008F00000227F1E002A099784D01DE0112D07DAFF
:1009000000F0ECF9303262556D1C50EA0102F5D16D
:10091000084302D00098C8B10EE00021681E05E02F
:10092000235C625C63542254401E491C8142F7DB05
:10093000AB46A81B401E0990002004F80B000B9842
:10094000099AC0F80880C0E9002B7AE711264FF019
:10095000000857E72DE9F04F88460446D21D22F0E3
:10096000070191B0D1E90001CDE90A010BF01EFAAF
:1009700002460B98C00F01D02D2007E020688107A8
:1009800001D52B2002E0202101EAC000032A0990B2
:1009900001D0072A05DB03464146204600F0E4F972
:1009A0000BE12078800601D5E06900E00620B8F16F
:1009B000650F814606D0B8F1660F18D0B8F1670F01
:1009C00070D131E00020B9F1110F009001DB11234B
:1009D00001E009F101030AAA01A90CA8FFF7E2FE50
:1009E000DDE90C70002609F10105834647E001208E
:1009F0004B4600904FF000470AAA01A90CA8FFF748
:100A0000D1FEDDE90DB00C995D46002610B909F163
:100A100001000D18B9EB050003D4C0F1FF3609F150
:100A20000105A5EB09002BE0B9F1010F01DA4FF048
:100A300001090020B9F1110F0090484601DD112392
:100A400000E003460AAA01A90CA8FFF7ABFEDDE906
:100A50000C704D4600268346207800070AD4AB452B
:100A600000DA5D4601A8012D04DD411911F8011CD1
:100A7000302907D04F4502DA17F1040F04DA0120BC
:100A800082460FE06D1EEEE7002F02DCED1B3E44B8
:100A900003E0781CA84200DD7D1CB81B00F1010AB0
:100AA0004FF000472078000703D4AA4501DB4FF040
:100AB000FF3A0021B7F1004F0DF143088DF84310C4
:100AC00024D002202B23002F01DA7F422D230A217C
:100AD000021EA0F1010000DC5FB197FBF1FC97FB67
:100AE000F1F201FB1C7C17460CF1300C08F801CD2B
:100AF000EEE7A8F1010003702188090501D5452121
:100B000000E06521A0F1010800F8011C09980FA977
:100B1000A1EB0807FF1D00B10120411901EBEA70AC
:100B2000A1693844081A401EA0612078C00602D48A
:100B30002046AFF30080099828B1D4E901219047FD
:100B4000206A401C20622078C00622D52046AFF3E0
:100B500000801EE0002E04DBB34502DD01A8805DAD
:100B600000E03020D4E901219047206A401C206237
:100B7000761CAAF101005FEA000A0AD100F0AAF887
:100B8000C0680168405CD4E901219047206A401C9C
:100B90002062281EA5F10105DCDC07E0D4E9012173
:100BA00018F8010B9047206A401C2062381EA7F1FC
:100BB0000107F3DC2046AFF30080032011B041E6CB
:100BC00001694A1C02610878704700B58FB0CDE911
:100BD00001310021059105497944CDE90310114601
:100BE0006846FFF79FFC0FB000BD0000E5FFFFFF68
:100BF0000A6802F8010B0A6070470000074B70B5E5
:100C00000D467B44FFF7E1FF0446284600F05EF9FD
:100C100010B14FF0FF3070BD204670BD5BA80000E2
:100C200010B5203AC0F00B80B1E81850A0E8185079
:100C3000B1E81850A0E81850203ABFF4F5AF5FEAC9
:100C4000027C24BFB1E81850A0E8185044BF18C96E
:100C500018C0BDE810405FEA827C24BF51F8043B15
:100C600040F8043B08BF7047D20728BF31F8023B69
:100C700048BF11F8012B28BF20F8023B48BF00F8FD
:100C8000012B70474FF000020429C0F0128010F0D1
:100C9000030C3FF406ADCCF1040CBCF1020F18BFFD
:100CA00000F8012BA8BF20F8022BA1EB0C01FFF7E5
:100CB000F8BC5FEAC17C24BF00F8012B00F8012BCF
:100CC00048BF00F8012B704701491820ABBEFEE772
:100CD00026000200004870473800002430B5B0F10B
:100CE0000A0271F100034FEA900E4EEA817EB0EBEA
:100CF0000E0061EB91014FEA101E4EEA017E10EBEF
:100D00000E0041EB11114FEA102E4EEA016E10EB6E
:100D10000E0041EB11214FEA104E4EEA014E10EB4E
:100D20000E0041EB1141401841F100014FEAD000A3
:100D300040EA41704FEAD1014FEA810444EA9074DD
:100D400010EB800544EB01046D1944EB0404521BC5
:100D5000A3414FF0000348BF0A3200D530BD401C0C
:100D600041F1000130BD00002DE9F0411F4604466D
:100D700003260168072A01F4006004DB08B116A508
:100D800005E016A503E008B115A500E015A521F0C2
:100D900010002060A069C01EA0610FB1401EA061BC
:100DA0002046AFF300804FB1D4E901213846904787
:100DB000206A401C2062C01C206206E0206AFAE71C
:100DC000D4E9012115F8010B9047761EF8D2204690
:100DD000AFF30080BDE8F0814E414E006E616E00C1
:100DE000494E4600696E66002DE9F0478146164679
:100DF0008AB0354878440DC88DE80D0032487844F3
:100E0000801C03AC0DC884E80D0041F69B300844FB
:100E1000372190FBF1F290FBF1F5A5F1800501FB84
:100E200012041B3C02D56442012000E00020DFF8E0
:100E300098A080460027FA44AAF1BE0A0EE0E00717
:100E40000AD03246684607EB470101230AEB8101CD
:100E50000AF0E9FD8DE8070064107F1C002CEED13C
:100E6000194F7F44AE3F19E0E80715D007EB041097
:100E70000DF1180A90E80E008AE80E00C068F042F2
:100E800001D1981908903246012306A903A80AF057
:100E9000CAFD03AB83E807006D10641C002DE3D18D
:100EA0004FF0010332466946B8F1000F03A802D0A3
:100EB0000AF0A4FD01E00AF0B6FDC9E90001C9F895
:100EC00008200AB0BDE8F087ACB00000007B00F05D
:100ED000800070470048704718000024704775462E
:100EE000FFF7F8FFAE4605006946534620F00700BD
:100EF000854618B020B5FFF74DFABDE820404FF009
:100F000000064FF000074FF000084FF0000BAC4612
:100F1000ACE8C009ACE8C009ACE8C009ACE8C0095D
:100F200021F007018D46704710B50446AFF30080ED
:100F30002046BDE81040FFF708BA0000000000009E
:100F400030B44FF0013C50F8042BCCFA52F451F875
:100F5000043BD51A20D1FCB950F8042BCCFA52F43A
:100F600051F8043BD51A17D1B4B950F8042BCCFA78
:100F700052F451F8043BD51A0ED16CB950F8042B39
:100F8000CCFA52F451F8043BD51A05D1002CDAD032
:100F900030BC4FF00000704729BAB1FA81F111F06E
:100FA0001801D1F120008440F2D1CA40CB4012F0A8
:100FB000FF0213F0FF0330BCD01A7047000000009E
:100FC00001F086BE00000000FEE700000000000007
:100FD00080B500F0E5F800F007F8BDE8804000F0CB
:100FE000DBB80000000000002DE9F04140F2900065
:100FF000C2F200400025058040F27800C2F20040B5
:10100000058040F28800C2F20040056040F28C008A
:10101000C2F20040056040F27C06C2F20046356034
:1010200040F28007C2F200473D6040F28408C2F2FD
:101030000048C8F80050FFF7C7F90446356000F0D3
:101040004BF800F065F83D6030683560C8F8000086
:101050002046BDE8F041FFF7BBB9000000000000EA
:1010600040F28401C2F200410968814228BF08466B
:10107000401A70470000000010B5FFF7A5F940F2D4
:101080007C01C2F200410C68FFF7A2F92046BDE8DE
:101090001040FFF7E5BF000010B5FFF7EDFF044675
:1010A000FFF792F940F27C01C2F2004100220A608F
:1010B000FFF78EF9204610BD10B5FFF785F940F215
:1010C0008001C2F200410C68FFF782F92046BDE8BA
:1010D0001040FFF7C5BF000010B540F27800C2F223
:1010E000004001880131018040F29004C2F20044C6
:1010F000208830B900F080F840F28801C2F2004147
:10110000086020880130208010BD00000000000031
:1011100040F29000C2F200400188013901804FF690
:10112000FF70014218BF704780B500F065F840F2CB
:101130008C01C2F20041086040F28801C2F2004115
:101140000968401A40F27C01C2F200410A688242FA
:10115000BDE8804038BF086040F28001C2F2004123
:101160000A68824238BF0860704700000000000033
:1011700010B5FFF729F90446FFF7AEFF40F29200E1
:10118000C2F20040102105F0CFFFFFF7C1FF20465B
:10119000BDE81040FFF71CB9FFF7EABF00000000F0
:1011A00040F2A400C2F200400021016000F008B843
:1011B00040F2A401C2F20041086070470000000044
:1011C00080B5FFF7FDFE4EF6FC51CEF200010A6835
:1011D00042F080720A6041F20001CEF2000100226A
:1011E0004A600A6842F001020A60BDE88040FFF7E9
:1011F000DFBF00000000000041F20400CEF200005A
:10120000006870470000000080B509F001F808F0A0
:10121000CBFF4EF69C70CEF20000016841F0040155
:10122000016080BD00000000B0B540F20044C5F68A
:101230000204206820F04070206020682060204672
:101240004FF4805100F084FBA0B100210D46012035
:101250000AF0E6F820464FF4805100F079FB691C53
:10126000CAB2632A01D80028F0D1E8B2622884BF4C
:101270000120B0BD20464FF4805100F069FB0028EA
:101280001CBF0020B0BD00210D4601200AF0C8F8A7
:1012900020464FF4805100F05BFB691CCAB2632A00
:1012A00001D80028F0D0E9B20020622988BF0120CF
:1012B000B0BD00000000000080B586B044F2E04000
:1012C000C5F60200016841F002010160006800F00B
:1012D000020001900198012002904FF48051019189
:1012E00003900320049040F20040C5F6020001A9DB
:1012F00000F062FA00F004F8FFF796FF06B080BD38
:1013000010B540F20044C5F60204206820F0407099
:101310002060206840F08070206020464FF48051AB
:10132000002200F021FB14200AF046F820464FF47A
:101330008051012200F018FB1E20BDE810400AF089
:101340006FB80000000000007047000000000000BF
:101350002DE9F04385B04FF000080DF1120941F678
:101360000044C5F6020402AD1DA60027CDE90089A0
:101370000020002100224FF47A7307F061F8204624
:101380004FF4807100F0ECFA4FF6FF7002F000FCB1
:10139000FAB228463146FFF7B1F81420142114227E
:1013A0004FF4BE7302F0BCFC142014214FF44372BE
:1013B000142302F0B5FC14204FF4BE714FF44372B5
:1013C0004FF4BE7302F0ACFC4FF4437014214FF4A1
:1013D00043724FF4BE7302F0A3FC0137C6E700BFAF
:1013E0002564000000000000B3F5804F18D1B0B5AF
:1013F00050F822C00023CCF6F0730CEA030CD1E9BC
:10140000003ED1E9024543EA0C0343EA0E1343EAE6
:10141000042343EA054389691943BDE8B04001E06C
:101420006FF0704140F8221000207047000000006B
:101430002DE9F043D1E900C8D1E902E901F1100733
:10144000F0CF50F82C2040F28043CFF6C0731A4002
:1014500042EA080242EA0E0242EA090222432A4311
:10146000324342EA070901F1200898E8F8018A6B43
:1014700043EA090323432B4333433B431A4342EAE2
:101480000802BEF1080F08BF42F0400240F82C20CD
:101490000A6BB2F5801F04D10B684BB103681A4385
:1014A00002600A68002A1FBF496B0268114301608D
:1014B0000020BDE8F08300002DE9F04700EB820337
:1014C000D3F80490D1E900EA01F1080898E8E001B6
:1014D0008A6940F2000CCFF6F07C0CEB075709F05C
:1014E000404444EA0E0444EA0A1444EA052545EA65
:1014F000064637433A4308F1FE0742EA07625A605C
:10150000026812F4801F07D0426809690CEB015190
:1015100022F47002114341600020BDE8F087000012
:101520002DE9F0410B680268012B20D1D1E901E7D8
:10153000D1E90365D1E9058CD1E90734496A22F480
:10154000F8421A43224311434268016047F6FF7193
:1015500022EA010141EA0E0139433143294341EABC
:10156000080141EA0C0141600020BDE8F08147F626
:10157000FF7322EA030CD1E90132D1E903E401F15E
:10158000140898E8E00143EA0C031A4342EA0E0209
:1015900022432A4332433A4342EA0802496A11434A
:1015A00001600020BDE8F081426942EA41014161E9
:1015B000002070470000000080B581B0002200923A
:1015C000D1E900C3D1E9022E6FF01F0101EB4211F6
:1015D00043EA0C02114341EA4E2100910099016156
:1015E000002001B080BD0000F0B58368012A33D12E
:1015F00040F6FF72CFF60F721A4091E82810D1E939
:10160000034ED1E905614FF20007CFF6FF7707EBF4
:10161000043422430024CFF6F07404EB0654224332
:10162000C46882606FF00F0202EB051204F0704490
:10163000013B23431A436FF0FF0303EB0C231A43D0
:101640000023CFF6FF7303EB0E431A43FF3142EA48
:101650000161C1600020F0BDD1E900C2D1E902E41E
:101660006FF00F0505EB021203F07043ACF10105BA
:101670002B431A436FF0FF0303EB0E231A434FF281
:101680000003CFF6FF7303EB04331A430B69002505
:10169000CFF6FF7505EB03431A434B690025CFF6E0
:1016A000F07505EB03531A438969FF3142EA016182
:1016B00081600020F0BD000010B390F835100229C1
:1016C0001CD101684FF6F072CBF6FD721144B1F5F2
:1016D000956F18D8042180F8351001680F22C4F2E4
:1016E0000202914252D940F2B942C4F2020291423E
:1016F0004CD2086820F0010008604CE08021416570
:1017000001210846704701680A6822F00E020A604B
:10171000D0F800C040F2B943C4F202039C450B4626
:1017200038BF63460F22C4F20202944598BF0B46AD
:10173000196821F001011960016E0A6822F48072B3
:101740000A60C26D012101FA02F245F20443C5F6B6
:1017500002031A60D0E919235360C26E002A1FBF2A
:10176000136823F480731360D0E91C2318BF5360FF
:1017700080F83510002180F83410026D22B180B558
:1017800090470021BDE88040084670470068016826
:1017900021F00101016000210846704700000000AF
:1017A00040F22040C5F60000016841F001010160EF
:1017B00070470000000000002DE9F04F83B042F2B6
:1017C0000042C5F602020A23904208BF0923019392
:1017D00000F1264202F1FF724FEAB222009200228B
:1017E00040F2040CC5F6000C4FF0010E00274FF03C
:1017F000000809E00232043708F10108B8F1100FBF
:1018000004BF03B0BDE8F08F0EFA08FA0E6816EABE
:101810000A09EFD04E6846F01006122E12D107F0DA
:101820001C060F2303FA06F44FF6FC73C7F6FF738A
:1018300003EA580303441D6A25EA04040D69B54010
:101840002C431C620323934004689C43D1F804B0EA
:101850000BF0030595402C430460DE43BBF1120FEF
:1018600015D80EFA0BF313F0061F1FBF8368334021
:10187000CC6894401FBF23438360CBF3001303FA6B
:1018800008F31FBF446824EA0A0423434360C36883
:1018900033408C6894402343C3605FEACB03A9D5EF
:1018A00044F2F443C5F602031C461B6843F00203EE
:1018B0002360236803F002030293029B28F00303D2
:1018C00040F20844C5F60004A3461C5907F00C0575
:1018D0000F26AE4024EA060A009C092C019E38BF60
:1018E000264606FA05F545EA0A0443F80B40DCF8FB
:1018F0007C3043EA09044D6815F4803F08BF23EAB1
:101900000904CCF87C40DCF8803043EA090415F483
:10191000003F08BF23EA0904CCF880404FF0B046EE
:10192000336843EA090415F4801F08BF23EA090459
:101930003460DCF8003043EA090415F4001F08BFE6
:1019400023EA0904CCF8004054E70000000000003E
:101950000069084018BF0120704700000000000027
:101960004269514041617047002A0CBF41830183A5
:10197000704700000000000042F6B840C2F200408C
:10198000006870470000000040F20C00C2F2004006
:10199000007842F6B841C2F200410A68104408607B
:1019A000704700000000000080B5032000F01CFA22
:1019B0000F2000F009F800281CBF012080BD00F0B6
:1019C000FBF9002080BD0000B0B5044640F20C00D9
:1019D000C2F2004000784FF47A71B1FBF0F040F2AF
:1019E0000401C2F200410968B1FBF0F001F01CFEF5
:1019F00001250F2C0CD858B900254FF0FF30214697
:101A0000002200F0E1F940F21000C2F20040046050
:101A10002846B0BD000000002DE9F041044690F8D2
:101A2000A0300220012B2DD084F8A1004FF0010836
:101A300084F8A080342002FB0040D1E900CED1E937
:101A40000267D1E90435C0E91235C0E91067C0E981
:101A50000ECED1E906CED1E90865D1E90A37C0E951
:101A60001837C0E91665C0E914CE0B6B83662046B3
:101A700005F0B6FA2068C0F82480002084F8A000A1
:101A800084F8A180C0B2BDE8F08100000000000031
:101A900010B50446002804BF012010BD94F8A10031
:101AA00028B9002084F8A000204600F065F8022044
:101AB00084F8A1002068816921F070418161D4E936
:101AC00001C2D4E9033142EA0C021A43114382698C
:101AD0001143816181684FF6000CCFF2000C01EADE
:101AE0000C018160D4E90513826843EA0141114386
:101AF0008160C16801EA0C01C160D4E90712C368C2
:101B000042EA01411943C160016901EA0C01016126
:101B1000D4E90912036942EA0141194301614169AB
:101B200001EA0C014161D4E90B12436942EA014127
:101B30001943416194F8351094F83620C36A03F0D4
:101B40007F43C362120442EA012194F83420114316
:101B5000C26A1143C162416B41F006014163816970
:101B600041F0010181610020C4F8A400012184F842
:101B7000A11010BD0000000070B586B044F2E04036
:101B8000C5F60200416841F008014160416801F07A
:101B900008010191019950F80C1C41F0100140F826
:101BA0000C1C50F80C1C01F0100101910199016806
:101BB00041F002010160016801F002010191019907
:101BC000016841F020010160016801F020010191EC
:101BD0000199016841F040010160016801F0400194
:101BE00001910199016841F080010160016801F0F3
:101BF000800101910199016841F4807101600068E0
:101C000000F4807001900198012002902021019140
:101C100003900326049640F20045C5F6020501AC88
:101C200028462146FFF7C8FD022002904FF480604D
:101C300001900020CDE903060E20059005F58050A7
:101C40002146FFF7B9FD4FF40C60019005F5A05057
:101C50002146FFF7B1FD4FF47E40019005F5C050DD
:101C60002146FFF7A9FD40F2F760019005F5E0502D
:101C70002146FFF7A1FD06B070BD00000000000086
:101C8000F0B581B0054690F8A0400220012C1CD090
:101C900085F8A100012785F8A070342003FB0054CB
:101CA00044F8381FD4E90A060844B118C4E901020F
:101CB000E160284621461A4605F092F928684762F5
:101CC000002085F8A00085F8A170C0B201B0F0BD79
:101CD00070B5054690F8A0400220012C1CD085F874
:101CE000A100012685F8A060342003FB005454F8BD
:101CF000380FC4E90A1208446060A0681044E0602C
:101D0000284621461A4605F06BF9286846620020ED
:101D100085F8A00085F8A160C0B270BD0000000089
:101D200010B542784EF69C5ECEF2000E4EF8042CB2
:101D30000278F2B14368CEF80030037B42EA0372C6
:101D400090F808C0437A817AC47A42EA046242EA8F
:101D5000C141427B41EA8241827B41EA4241C07BF0
:101D600041EA004040EA032040EA4C00CEF804007B
:101D700010BD0020CEF80000CEF8040010BD000019
:101D80004EF62450CEF20000016821F4803101604B
:101D9000016F21F0010101677047000000000000A1
:101DA0004EF62450CEF2000005210167016841F48F
:101DB00080310160704700007047000000000000A3
:101DC00009F0BEBA0000000070B514460D46064684
:101DD00009F0C6FA2946224605F0F2F901463046D6
:101DE000BDE8704009F0C4BA09F0D6BA000000009E
:101DF00080B500F0B9FF44F21841C5F60201096848
:101E00004FF4807292FAA2F2B2FA82F201F4706197
:101E1000D1404BF6BC62C0F60002515CC84040F2B3
:101E20000401C2F20041086080BD00000000000013
:101E300080B500F04DFF44F22041C5F6020109686B
:101E4000102292FAA2F2B2FA82F201F07001D140AD
:101E50004BF6BC62C0F60002515CC84080BD000079
:101E600080B544F2384CC5F6020C5CF8102C5CF8D6
:101E700010EC5CF80C3C03F01003DCF80410C1F328
:101E8000CC0111FB03F102F00303CEF3053200EEA7
:101E9000101AB8EE400A022B0FD09BB95CF8381C20
:101EA00049F20003C0F2D03311F0200F1EBF5CF8DE
:101EB000381CC1F3C101CB4008E047F64003C0F233
:101EC0007D1303E040F60013C0F23D03DCF8001080
:101ED0006FF35F2101EE101A9FED1F2AB3FBF2F1A1
:101EE000DCF80020B8EE411AC2F34622B7EE003A01
:101EF00004EE101A00EE021A511CB8EE440A31EE3C
:101F0000031A02EE101AB8EE422A21EE000A80EE01
:101F1000021ABCEEC11A80ED001ADCF80010C1F301
:101F20000641013101EE101AB8EE411A80EE011A95
:101F3000BCEEC11A80ED011ADCF80010C1F3066195
:101F4000013101EE101AB8EE411A80EE010ABCEE22
:101F5000C00A80ED020A80BD0000003900000000C8
:101F600080B544F2404CC5F6020C5CF8182C5CF8C5
:101F700018EC5CF8143C03F48073DCF80410C1F333
:101F8000CC0111FB03F102F00303CEF3055200EE86
:101F9000101AB8EE400A022B0FD09BB95CF8401C17
:101FA00049F20003C0F2D03311F0200F1EBF5CF8DD
:101FB000401CC1F3C101CB4008E047F64003C0F22A
:101FC0007D1303E040F60013C0F23D03DCF800107F
:101FD0006FF35F2101EE101A9FED1F2AB3FBF2F1A0
:101FE000DCF80020B8EE411AC2F34622B7EE003A00
:101FF00004EE101A00EE021A511CB8EE440A31EE3B
:10200000031A02EE101AB8EE422A21EE000A80EE00
:10201000021ABCEEC11A80ED001ADCF80010C1F300
:102020000641013101EE101AB8EE411A80EE011A94
:10203000BCEEC11A80ED011ADCF80010C1F3066194
:10204000013101EE101AB8EE411A80EE010ABCEE21
:10205000C00A80ED020A80BD0000003900000000C7
:102060002DE9F04381B00446C078000744F22C48C3
:10207000C5F602082FD5606E4FEA305003280AD803
:10208000DFE800F0020B1521D8F8000040F4003022
:10209000C8F8000017E001251EE0D8F8000040F461
:1020A0000010C8F80000201D07F05EFF09E0D8F816
:1020B000000040F08070C8F8000004F1240007F030
:1020C000B7FF054640B9D8F82400616E20F44010EF
:1020D0000843C8F8240000256078C00701D12E46C7
:1020E00036E0606D042807D82E46DFE800F00719B7
:1020F000230303005EBB09E0012628E0D8F80000B6
:1021000040F40030C8F800002E4606BBD8F8240082
:10211000616D20F007000843C8F82400002617E08E
:10212000D8F8000040F40020C8F80000201D07F097
:102130001BFF09E0D8F8000040F48000C8F8000058
:1021400004F1240007F074FF0646002EDED035436C
:102150006078800736D5A06D4FEAB010042806D805
:10216000DFE800F007182203030056BB08E0012651
:1021700027E0D8F8000040F40030C8F8000006BBA3
:10218000D8F82400A16D20F4E0700843C8F82400BA
:10219000002617E0D8F8000040F40020C8F800003E
:1021A000201D07F0E1FE09E0D8F8000040F48000AF
:1021B000C8F8000004F1240007F03AFF0646002E9C
:1021C000DED035436078400738D5D4F8A4004FEA14
:1021D0007050042806D8DFE800F007192303030035
:1021E0005EBB08E0012628E0D8F8000040F400308B
:1021F000C8F800000EBBD8F82C00D4F8A41020F4C6
:1022000060000843C8F82C00002617E0D8F800004A
:1022100040F40020C8F80000201D07F0A5FE09E0EA
:10222000D8F8000040F48000C8F8000004F1240051
:1022300007F0FEFE0646002EDDD03543607800072D
:1022400038D5D4F8A8004FEA3060042806D8DFE873
:1022500000F00719230303005EBB08E0012628E015
:10226000D8F8000040F40030C8F800000EBBD8F8E1
:102270002C00D4F8A81020F0E0600843C8F82C0027
:10228000002617E0D8F8000040F40020C8F800004D
:10229000201D07F069FE09E0D8F8000040F4800036
:1022A000C8F8000004F1240007F0C2FE0646002E24
:1022B000DDD03543E07880072AD5A06C4FEA301096
:1022C00003280ED8DFE800F0020F1702FEB9D8F895
:1022D0002000A16C20F030000843C8F82000002640
:1022E00016E0012613E0D8F8000040F40030C8F8EA
:1022F000000066B9EBE7D8F8000040F40010C8F819
:102300000000201D07F030FE0646002EDFD03543CA
:102310006078C00636D5E06D4FEA3030042806D824
:10232000DFE800F007182203030056BB08E001268F
:1023300027E0D8F8000040F40030C8F8000006BBE1
:10234000D8F82400E16D20F4E0400843C8F82400E8
:10235000002617E0D8F8000040F40020C8F800007C
:10236000201D07F001FE09E0D8F8000040F48000CD
:10237000C8F8000004F1240007F05AFE0646002EBB
:10238000DED03543607880062ED5206E4FEA30408F
:10239000052806D8DFE800F0030711030303C6B9D8
:1023A00019E0012615E0D8F8000040F48010C8F8C4
:1023B0000000201D07F0D8FD09E0D8F8000040F427
:1023C0000000C8F8000004F1240007F031FE0646C2
:1023D0000EB1354308E0D8F82400216E20F4E02047
:1023E0000843C8F8240000266078400630D5D4F8A9
:1023F000AC004FEA3070052806D8DFE800F003078C
:1024000011030303C6B919E0012615E0D8F800004E
:1024100040F48010C8F80000201D07F0A5FD09E079
:10242000D8F8000040F40000C8F8000004F12400CF
:1024300007F0FEFD06460EB1354309E0D8F82C0042
:10244000D4F8AC1020F0E0400843C8F82C00002677
:102450006078000626D5E06E58B1B0F1005F0AD072
:10246000B0F1805F1CD1D8F8000040F40030C8F80B
:102470000000B6B90AE0D8F8000040F48010C8F8AF
:102480000000201D07F070FD064656B9D8F824005C
:10249000E16E20F040500843C8F82400002601E017
:1024A00001263543E078C00728D0606C03280ED899
:1024B000DFE800F0020F1702FEB9D8F82000616CC7
:1024C00020F003000843C8F82000002616E001268B
:1024D00013E0D8F8000040F40030C8F8000066B9F6
:1024E000EBE7D8F8000040F40010C8F80000201D09
:1024F00007F03AFD0646002EDFD03543A0784006AF
:1025000064D5D8F8D40340F48070C8F8D403FFF73A
:1025100033FA0746D8F8D40310F4807F06D1FFF7CA
:102520002BFAC01B6428F5D9032600E00EB1354311
:102530004CE0D8F84410D4F8B000414011F4407F8A
:1025400011D0D8F84410D8F8442042F48032C8F8AA
:102550004420D8F8442022F48032C8F8442021F4E2
:102560004071C8F84410B0F5807F14D1FFF704FA29
:102570000746D8F8440010F0020F0CD141F2883918
:10258000FFF7FAF9C01B484500F28782D8F84400EB
:1025900010F0020FF4D0D4F8B00058F81C1C21F44D
:1025A0007C5100F44072B2F5407F01BF4FF6CF720C
:1025B000C0F2FF0202EA1012114348F81C1CD8F8BE
:1025C00044106FF31F300843C8F844002078C00758
:1025D0002ED0A06F4FEAF000052806D8DFE800F003
:1025E000030711030303C6B919E0012615E0D8F863
:1025F000000040F48010C8F80000201D07F0B4FC73
:1026000009E0D8F8000040F40000C8F8000004F128
:10261000240007F00DFD06460EB1354308E0D8F85A
:102620002800A16F20F038000843C8F828000026D1
:10263000207880072CD5606F052806D8DFE800F0E9
:10264000030711030303C6B919E0012615E0D8F802
:10265000000040F48010C8F80000201D07F084FC42
:1026600009E0D8F8000040F40000C8F8000004F1C8
:10267000240007F0DDFC06460EB1354308E0D8F82B
:102680002800616F20F007000843C8F828000026E2
:10269000207840072ED5D4F89000052806D8DFE82A
:1026A00000F0030711030303C6B919E0012615E082
:1026B000D8F8000040F48010C8F80000201D07F092
:1026C00053FC09E0D8F8000040F40000C8F800000E
:1026D00004F1240007F0ACFC06460EB1354309E0D6
:1026E000D8F82C00D4F8901020F007000843C8F860
:1026F0002C0000262078800630D5D4F88C004FEAD4
:102700003070052806D8DFE800F003071103030343
:10271000C6B919E0012615E0D8F8000040F4002001
:10272000C8F80000201D07F01FFC09E0D8F80000E1
:1027300040F08070C8F8000004F1240007F078FC35
:1027400006460EB1354309E0D8F82800D4F88C10BD
:1027500020F0E0400843C8F8280000262078400612
:1027600030D5D4F898004FEAB020052806D8DFE825
:1027700000F0030711030303C6B919E0012615E0B1
:10278000D8F8000040F40020C8F80000201D07F031
:10279000EBFB09E0D8F8000040F08070C8F80000BA
:1027A00004F1240007F044FC06460EB1354309E06D
:1027B000D8F82C00D4F8981020F4E0500843C8F85A
:1027C0002C0000262078000630D5D4F89C004FEA73
:1027D0007030052806D8DFE800F003071103030373
:1027E000C6B919E0012615E0D8F8000040F4002031
:1027F000C8F80000201D07F0B7FB09E0D8F800007A
:1028000040F08070C8F8000004F1240007F010FCCC
:1028100006460EB1354309E0D8F82C00D4F89C10D8
:1028200020F460400843C8F82C00002620780007F8
:1028300015D5D4F88010B1F5805F09D104F12400DA
:1028400007F0F6FBD8F8000040F08071404605E044
:10285000404650F8282F22F440521143016020785E
:10286000C00616D5D4F89400B0F5807F0AD104F1E3
:10287000240007F0DDFBD8F8000040F08070C8F8B5
:10288000000006E0D8F82C1021F440710843C8F885
:102890002C00A07800072BD5D4F8A000B0F5003F9D
:1028A00018D0B0F5803F0AD000BBD8F8000040F443
:1028B0000020C8F80000201D07F056FB09E0D8F8FA
:1028C000000040F08070C8F8000004F1240007F018
:1028D000AFFB06465EB9D8F82C00D4F8A01020F45F
:1028E00040300843C8F82C00002601E0012635439B
:1028F000A07840072BD5D4F88400B0F5401F0BD04A
:10290000B0F5001F0AD0B0F5801F1ED1D8F8000026
:1029100040F40030C8F80000C6B90BE0D8F8000059
:1029200040F40000C8F8000004F1240007F080FB28
:1029300006465EB9D8F82800D4F8841020F4401078
:102940000843C8F82800002601E001263543A07896
:10295000C00723D0E06CB0F5803F08D0E0B9D8F8CC
:10296000000040F40030C8F80000B6B90AE0D8F81A
:10297000000040F40010C8F80000201D07F0F4FA31
:10298000064656B9D8F82000E16C20F480300843A0
:10299000C8F82000002601E001263543206810F029
:1029A000005F13D181031FD4C1023ED4C10046D4BD
:1029B00081024FD4410057D4B0F1FF3F64DD002DB8
:1029C00018BF0125284601B0BDE8F083D8F8000003
:1029D00040F08070C8F8000004F1240007F028FBE4
:1029E000054320688103DFD5E16F6FF0010202EB40
:1029F0003122022A0AD34FEA31223AB1012A10D1F8
:102A0000D8F8002042F40032C8F8002056B9D8F8AF
:102A1000282022F440721143C8F82810C102C5D5FD
:102A200003E001263543C102C0D5D8F82410226F37
:102A300021F000411143C8F82410C100B8D558F85E
:102A40001C1CD4F8B42021F48041114348F81C1C0C
:102A50008102AFD5D8F82410A26E21F08071114305
:102A6000C8F824104100A7D558F81C1C21F40041D7
:102A700048F81C1CD4F8B81058F81C2C114348F81E
:102A80001C1CB0F1FF3F9ADCD8F82000216D20F02B
:102A900040500843C8F8200091E745F0030503269D
:102AA00094E50000000000002DE9F04381B00D46E0
:102AB000044642F20008C5F20028D8F8000000F0F1
:102AC000070088420CD2D8F8000020F00700284305
:102AD000C8F80000D8F8000000F00700A84260D154
:102AE000206844F21047C5F6020710F0020F05D027
:102AF000B968E26821F00F011143B960C0073ED107
:102B0000D8F8000000F00700A8420CD9D8F800005F
:102B100020F007002843C8F80000D8F8000000F0B3
:102B20000700A84258D1206810F0040F3BD10107DC
:102B300041D4C10647D4800605D53869E16920F043
:102B400070000843386100F00FF9B9684FF48072E3
:102B500092FAA2F2B2FA82F201F47061D1404BF61D
:102B6000BC62C0F60002515CC84040F20401C2F2EF
:102B7000004108600F20FEF727FF0020A3E0B8689F
:102B8000A16820F470600843B8606068032825D00D
:102B900002282AD157F8101C11F4003F31D101202E
:102BA00091E001208FE0B968226921F070011143A2
:102BB000B9600107BDD5F968626921F07001114360
:102BC000F960C106B7D5F968A26921F4E061114343
:102BD000F9608006B1D4B6E7012074E057F8101C04
:102BE00011F0007F0DD101206DE057F8101C012875
:102BF00003D1C90505D4012065E0490701D40120AE
:102C000061E0396821F0070108433860FEF7B4FE3F
:102C100006466068012816D0032828D002283AD139
:102C2000386800F0380010283FF46AAF41F2883964
:102C3000FEF7A2FE801B484540D8386800F03800F7
:102C40001028F5D15CE7386800F0380008283FF418
:102C500057AF41F2883900BFFEF78EFE801B484512
:102C60002ED8386800F038000828F5D148E73868D1
:102C700000F0380018283FF443AF41F2883900BF14
:102C8000FEF77AFE801B48451CD8386800F03800F3
:102C90001828F5D134E7386810F0380F3FF430AF1A
:102CA00041F28839FEF768FE801B484504D8386831
:102CB00010F0380FF6D123E7032004E0032002E0F0
:102CC000032000E00320C0B201B0BDE8F0830000A3
:102CD00080B5FFF78DF844F21841C5F60201096886
:102CE000012292FAA2F2B2FA82F201F00F01D1406F
:102CF0004BF6BC62C0F60002515CC84040F20801CD
:102D0000C2F20041086080BD80B5FFF7E1FF44F2E8
:102D10001C41C5F602010968102292FAA2F2B2FA29
:102D200082F201F07001D1404BF6BC62C0F60002A5
:102D3000515CC84080BD000080B5FFF7C9FF44F278
:102D40001C41C5F6020109684FF4807292FAA2F2A2
:102D5000B2FA82F201F4E061D1404BF6BC62C0F6F7
:102D60000002515CC84080BD44F20041C5F602013A
:102D70000869C0F3C20240F60010C0F23D00032A09
:102D800017D0022A02BF47F64000C0F27D107047FC
:102D9000002A18BF70470A6849F20000C0F2D0301C
:102DA00012F0200F1FBF0968C1F3C101C84070476E
:102DB000704780B5D1F828E0D1F828C0CB6A4A6BBB
:102DC00003F001035B4203EAD2026FF35F320EF0BD
:102DD000030300EE102ACCF30512B8EE400A022BD2
:102DE000BDE880400DD083B90B6849F20000C0F205
:102DF000D03013F0200F1EBF0B68C3F3C103D840BF
:102E000003E047F64000C0F27D100B6B6FF35F23C9
:102E100001EE103A9FED102AB0FBF2F0096BB8EE0C
:102E2000411AC1F34621B7EE003A04EE100A00EE53
:102E3000021A481CB8EE440A31EE031A02EE100AD8
:102E4000B8EE422A21EE000A80EE020ABCEEC00A69
:102E500010EE100A704700BF0000003900000000AB
:102E6000F0B581B004460078C00744F20046C5F6CC
:102E700002065FD0306900F03800102808D13068B1
:102E800010F4003F56D06068002853D10120D3E1F0
:102E9000306900F03800182804D1B06A00F003004F
:102EA0000228ECD0606868B1B0F5803F06D0316888
:102EB000B0F5A02F23D141F480203060306840F479
:102EC000803022E0306820F480303060306820F4B8
:102ED00080203060FEF750FD0546306810F4003F5A
:102EE00028D041F2883700BFFEF746FD401BB842AC
:102EF00000F22F82306810F4003FF5D11AE021F47F
:102F000080303060306820F480203060FEF734FD7F
:102F10000546306810F4003F0CD141F2883700BFFD
:102F2000FEF72AFD401BB84200F26081306810F4C1
:102F3000003FF5D02078800765D5306910F0380F54
:102F40001FD0306900F03800182804BFB06A10F0B4
:102F5000030F16D0E0683168002843D021F0190132
:102F600008433060FEF708FD054600BF306810F0EA
:102F7000040F29D1FEF700FD401B0228F6D90320DB
:102F80005AE1306810F0040F03D0E068002800F028
:102F90002B813068E16820F0190008433060FEF7AB
:102FA000EBFC0546306810F0040F06D1FEF7E4FC98
:102FB000401B0228F6D903203EE1706821694FF4D6
:102FC0007C3292FAA2F205E0706821694FF47C32FB
:102FD00092FAA2F2B2FA82F2914020F47C300843D5
:102FE000706010E021F001003060FEF7C5FC05467E
:102FF000306810F0040F06D0FEF7BEFC401B02281C
:10300000F6D9032018E12078C00641D5306900F0D8
:103010003800082809D0306900F03800182813D18A
:10302000B06A00F0030001280ED1306810F4807FF0
:103030001CBFE069802840F0D5807068216A4FF09D
:10304000F84292FAA2F21CE0E1693068002900F02F
:10305000B68040F080003060FEF78EFC054600BF71
:10306000306810F4807F06D1FEF786FC401B0228F2
:10307000F6D90320E0E07068216A4FF0F84292FA36
:10308000A2F2B2FA82F2914020F0F8400843706058
:103090002078000725D56169706F81B140F001008B
:1030A0007067FEF769FC0546706F10F0020F18D1CB
:1030B000FEF762FC401B0228F6D90320BCE020F09A
:1030C00001007067FEF758FC054600BF706F10F0F6
:1030D000020F06D0FEF750FC401B0228F6D9032051
:1030E000AAE02078800626D5A169306889B140F42D
:1030F00080503060FEF740FC054600BF306810F499
:10310000005F18D1FEF738FC401B0228F6D90320D7
:1031100092E020F480503060FEF72EFC054600BFA0
:10312000306810F4005F06D0FEF726FC401B022832
:10313000F6D9032080E02078400773D5D6F8000444
:1031400040F48070C6F80004FEF716FC054600BF88
:10315000D6F8000410F4807F06D1FEF70DFC401B6A
:103160006428F5D9032067E0A06858B1012805D08C
:10317000316F05283CD141F004003067306F40F0DA
:1031800001003BE0306F20F001003067306F20F02D
:1031900004003067FEF7F0FB0546306F10F0020FB9
:1031A00040D041F2883700BFFEF7E6FB401BB84233
:1031B00000F2D180306F10F0020FF5D132E020F034
:1031C00080003060FEF7D8FB054600BF306810F481
:1031D000807F3FF45DAFFEF7CFFB401B0228F5D99F
:1031E000032029E0012027E0012025E0032023E03F
:1031F00021F001003067306F20F004003067FEF7E7
:10320000BBFB0546306F10F0020F0BD141F288373F
:10321000FEF7B2FB401BB84200F29780306F10F00F
:10322000020FF5D0676A37B1306900F0380018280E
:1032300005D1012000E00020C0B201B0F0BD30682F
:1032400020F080703060FEF797FB0546306800F094
:103250000070022F6BD140B1FEF78EFB401B02289D
:103260007BD8306810F0007FF6D1B06A40F2F331BD
:103270008843D4E90A12084340EA0210B06204F11C
:1032800030030FCB7F324FF4FE0707EA024200F211
:10329000FF106FF35F207F31490289B2084310436A
:1032A00003F17F014FF0FE4202EA016108433063FF
:1032B000706B4FF6F8718843A26C91FAA1F1B1FAE4
:1032C00081F102FA01F108437063F06A216C20F089
:1032D0000C000843F062F06A616C20F002000843C1
:1032E000F062F06A40F48030F062F06A40F400303E
:1032F000F062F06A40F48020F062F06A40F0010071
:10330000F062306840F080703060FEF735FB0446B4
:10331000306810F0007F1AD1FEF72EFB001B022848
:103320001FD83168002011F0007FF5D084E708B97C
:10333000002081E7FEF720FB401B03280FD23168F5
:10334000002011F0007FF5D176E7032074E700201C
:1033500072E7032070E703206EE703206CE7032089
:103360006AE7032068E70000B0B50D460446002870
:1033700004BF0120B0BD94F82C0028B9002084F8C7
:103380002D00204600F01CF8022084F82C00206854
:10339000211DFEF7C5F8D4E900022946FEF724F9FD
:1033A00044F20000C5F20020016841F000410160D4
:1033B000012084F82C000020B0BD000000000000B7
:1033C000B0B586B044F2E040C5F60200416941F074
:1033D00002014161416901F002010191019950F836
:1033E0000C1C41F4805140F80C1C50F80C1C01F4EA
:1033F000805101910199016841F004010160016867
:1034000001F0040101910199016841F00801016096
:10341000016801F0080101910199016841F0100172
:103420000160016801F0100101910199016841F00A
:1034300020010160016801F02001019101990168FA
:1034400041F040010160006800F0400001900198E7
:10345000022002900D20019001200390032004908F
:103460000C20059040F60005C5F6020501AC284683
:103470002146FEF7A1F94CF20370019005F580603A
:103480002146FEF799F94FF68370019005F500602B
:103490002146FEF791F94FF63F00019005F5406097
:1034A0002146FEF789F948F23710019005F5805062
:1034B0002146FEF781F906B0B0BD00000000000013
:1034C00010B5044690F82C200220022A08D084F877
:1034D0002C002068FEF768F8012084F82C000020FA
:1034E000C0B210BD00000000B0B50D46044690F813
:1034F0002C10022002290DD084F82C0020682946C7
:10350000FEF75AF828680121022808BF052184F82F
:103510002C100020C0B2B0BD70B515460E46044652
:10352000002804BF012070BD94F8450028B9002090
:1035300084F84400204600F023F8206804F10801D4
:10354000FDF776FF2068A2683146FDF7B5FFD4E9A4
:103550000102E36A2946FDF747FF2068A16850F899
:10356000212042F0010240F8212044F20000C5F27F
:103570000020016841F000410160002070BD0000A2
:10358000B0B586B044F2E040C5F6020050F80C1C1D
:1035900041F4805140F80C1C50F80C1C01F480518F
:1035A00001910199016841F008010160016801F091
:1035B000080101910199016841F010010160006862
:1035C00000F0100001900198022002904EF2B370BA
:1035D000019001200390032004900C20059040F6F8
:1035E0000044C5F6020401AD20462946FEF7E4F882
:1035F0004FF68070019004F580602946FEF7DCF8F4
:1036000006B0B0BD000000004EF21001CEF2000185
:103610000A6822F00403042808BF42F004030B6088
:10362000704700000000000006F02ABF0000000004
:10363000704700000000000070470000000000001C
:10364000B0B504460168CA69D1F800C08D6812F0AF
:103650000F0F58D00120C1F2000028400CF49073E5
:1036600018435ED0D0071FBF1CF480700120086291
:10367000E06F1CBF40F00100E06705F00100930718
:1036800008D500281FBF02230B62E36F43F0040339
:1036900018BFE367530708D500281FBF04230B6238
:1036A000E36F43F0020318BFE36713070ED50CF076
:1036B000200E05F0805343EA0E0318431FBF082075
:1036C0000862E06F40F0080018BFE067E06F002874
:1036D0007AD0900608D50CF0200005F08051084300
:1036E0001CBF204607F08CF8E06F10F0080F37D1B0
:1036F0002068806810F0400F32D12046FFF79CFF11
:103700000020E067B0BD90060BD50CF0200E05F050
:10371000805050EA0E0004D02046BDE8B04007F0CB
:103720006FB8D0020FD515F480000CD04FF4801084
:103730000862202084F8790084F87A002046BDE8E9
:10374000B040FFF775BF100627D50CF0800005F4D8
:103750000003184321D02046BDE8B04007F0C0BCAC
:10376000204607F031F82068816811F0400F1DD025
:10377000816821F040018160606FB8B14AF2B9718F
:10378000C0F600010165FDF797FF002808BFB0BD36
:10379000606F016DBDE8B040084702EA0C004006CA
:1037A00009D52046BDE8B04007F01EB82046BDE868
:1037B000B040FFF741BF100206D51CF080401EBF8D
:1037C000086820F080400860B0BD000000000000E4
:1037D00010B50446A8B194F8790028B9002084F8FF
:1037E0007800204600F028F8242084F8790020682A
:1037F000016821F001010160204607F03DF8012831
:1038000001D1012010BD606B00281CBF204606F0CE
:1038100027FF2068416821F490414160816821F0D0
:103820002A018160016841F0010101602046BDE884
:10383000104006F089BF0000F0B587B0054600686B
:1038400044F20047C4F2000707F54C410024C5F6D6
:10385000020444F2E046C5F60206884208D0B842A7
:1038600031D0286807F58061884254D007B0F0BD98
:10387000306840F001003060306800F001000290D4
:103880000298306940F010003061306900F010009B
:1038900002900298022003904FF4C061029101212E
:1038A000CDE904100720069002A92046FDF784FF09
:1038B000252000210022FEF787FA2520FEF780FA56
:1038C0002868B842CDD1306840F0010030603068DF
:1038D00000F0010001900198B06840F40030B06041
:1038E000B06800F4003001900198022003900C2190
:1038F00002910121CDE904100720069002A920467B
:10390000FDF75AFF262001210022FEF75DFA26204E
:10391000FEF756FAA5E7B06840F48020B060B068C2
:1039200000F4802001900198306840F0020030607F
:10393000306800F0020001900198022003904FF4DB
:10394000406102910121CDE904100720069004F5A1
:10395000806002A9FDF730FF272002210022FEF738
:1039600033FA2720FEF72CFA07B0F0BD0000000064
:1039700090F87A30202B0AD10123002918BF002AA1
:1039800001D1D8B2704790F87830012B02D10223D0
:10399000D8B270474166012180F87810A0F86820FD
:1039A000A0F86A20816851B1B1F1805F0BD0B1F508
:1039B000805F0FD1016921B940F2FF1108E0016970
:1039C00029B9FF2104E0016909B13F2100E07F210D
:1039D000A0F86C100021C16780F87810222180F8CF
:1039E0007A100068816841F0010181600268016815
:1039F00012F0005F05D141F4907101600023D8B24C
:103A0000704741F480710160816841F080518160AC
:103A10000023D8B2704700002DE9F04383B042F68E
:103A2000B546C2F200463078012823D000286BD179
:103A300042F6D834C2F200442046062107F070FC5A
:103A400042F68320C2F2004000786071217800299C
:103A500004BF617801295AD042F23850C2F20040C6
:103A600042F68321C2F200410122FFF781FF03B039
:103A7000BDE8F08342F6D835C2F200452C7942F613
:103A80008320C2F20040214607F026FCA978EA789C
:103A900042EA012181422AD142F6B449C2F20049E8
:103AA00099F8007042F61440C2F2004000EB07158E
:103AB00042F68321C2F2004128462246FCF7A2FDCD
:103AC000781C89F800000DF10A00009041F6A8600A
:103AD000C2F200404FF0000829462246002304F0BD
:103AE0003BFA99F800000A2828BF89F800800020D6
:103AF000307042F23850C2F2004042F68321C2F2E6
:103B000000410122FFF734FF03B0BDE8F08300213C
:103B1000002200BF635C1A44D2B201310529F9D1F9
:103B2000904299D1227942F23850C2F2004042F6D6
:103B30008321C2F20041FFF71BFF0120307003B068
:103B4000BDE8F083000000007047000000000000A6
:103B5000FEE700000000000080B5FDF755FBFDF713
:103B600023FF06F0B9FC4FF4C87006F059FD06F0CB
:103B700067FB00F049F94FF4E13007F051FB4FF4D7
:103B8000E13007F06DFBBDE8804002F069BE000047
:103B900070B5044642F6EC30C2F20040006820B135
:103BA0002046BDE8704002F0BFBE42F6DE30C2F2F1
:103BB0000040458806880020002102F091FD7543F1
:103BC00002F03AFE002D08BF70BD0020C6F20800CA
:103BD0000480013DFCD170BDB0B542F6DE34C2F2C6
:103BE0000044A07142F6EC35C2F20045296829B1C3
:103BF00002F0C2FED5F816002060B0BD90B140F2D0
:103C00004010C0F2F0002060A08845F20F518842B9
:103C100025DC41F66311884248D045F210318842D4
:103C200025D076E0F020C0F240102060A08845F258
:103C30000F5188422BDC41F66311884250D045F287
:103C40001031884265D12B20A0812C20C0F22A009F
:103C5000A06040F24010C0F2E010206059E045F250
:103C6000105188422ED049F24131884251D12B2146
:103C7000A1812C21C0F22A01A16045F210318842B5
:103C800002BF40F2E010C0F24010206041E045F277
:103C90001051884230D049F24131884239D12B202D
:103CA000A0812C20C0F22A00A06032E02B20A0814D
:103CB0002C20C0F22A00A06040F22030C0F2E010B8
:103CC000206026E04FF42C50A08142F60040C2F65E
:103CD0000020A06040F22030C0F2E010206018E028
:103CE0002A20A0812C20C0F22B00A06040F2E0101E
:103CF000C0F2203020600CE04FF42C50A08142F63E
:103D00000040C2F60020A06040F2E010C0F2203077
:103D100020600020BDE8B04002F0F2BB00000000CF
:103D20002DE9F04F83B00D460746A3EB010B161AA1
:103D3000002E05DD0123BBF1000F0BDD012210E099
:103D400030461CBF40424FF0FF3633460646BBF1BB
:103D5000000FF3DC58461CBF40424FF0FF3B5A4671
:103D600083465E455846C8BF30460290B0F1FF3FDB
:103D70002BDB0298013000904FF000094FF0000A51
:103D80004FF00008019300BFB8B2A9B2144600F08A
:103D90001FF82246019B09EB0B00029CA042C8BF02
:103DA00015440AEB0601A142C8BF1F44B0EB040949
:103DB000D8BF8146B1EB040AD8BF8A4608F1010892
:103DC0001FFA88F000998142DEDA03B0BDE8F08F77
:103DD00042F6EC32C2F20042126832B140F2000206
:103DE000C2F20042126802F0DBBD80B502F078FC3E
:103DF00002F022FD40F20000C2F200400068002103
:103E0000C6F20801088080BD2DE9F04F95B003F09F
:103E10007BF842F6DE37C2F20047B88040F2004934
:103E2000C5F6020918B102F03BFE02F001BA44F2F5
:103E3000E040C5F60200016841F00201016000683F
:103E400000F00200099009980120119020211091A2
:103E500012900320139010A94846FDF7ADFC02F024
:103E600003FB44F20002C5F2002202F5827341F620
:103E7000A470C2F2004000211026C0E90023C0E96E
:103E80000211C0E90416C0E906114FF480524FF444
:103E900080434FF48016C0E90812C0E90A13C0E954
:103EA0000C1186631122CDE9092155220B920F9145
:103EB0000391152202920492089109A902AAFFF720
:103EC0002BFB322007F078FAD32002F0A5FC02F099
:103ED000E3FAB88002F0E0FAB88002F0DDFA0002FE
:103EE000B88002F0D9FAB9880843B88080B249F2A4
:103EF0004135A84240F01481CF2002F08DFC002013
:103F000002F07AFCC12002F077FC302002F074FC51
:103F1000ED2002F081FC642002F06EFC032002F030
:103F20006BFC122002F068FC812002F065FCE820A6
:103F300002F072FC852002F05FFC102002F05CFCB5
:103F40007A2002F059FCCB2002F066FC392002F006
:103F500053FC2C2002F050FC002002F04DFC3420D9
:103F600002F04AFC022002F047FCF72002F054FC69
:103F7000202002F041FCEA2002F04EFC002002F07A
:103F80003BFC002002F038FCC02002F045FC1B2066
:103F900002F032FCC12002F03FFC012002F02CFCB8
:103FA000C52002F039FC302002F026FC302002F05F
:103FB00023FCC72002F030FCB72002F01DFC3620A5
:103FC00002F02AFC482002F017FC3A2002F024FC00
:103FD000552002F011FCB12002F01EFC002002F07E
:103FE0000BFC1A2002F008FCB62002F015FC0A2097
:103FF00002F002FCA22002F0FFFBF22002F00CFC17
:10400000002002F0F9FB262002F006FC012002F05D
:10401000F3FBE02002F000FC0F2002F0EDFB2A2071
:1040200002F0EAFB282002F0E7FB082002F0E4FBA4
:104030000E2002F0E1FB082002F0DEFB542002F02B
:10404000DBFBA92002F0D8FB432002F0D5FB0A20BD
:1040500002F0D2FB0F2002F0CFFB002002F0CCFBDD
:10406000002002F0C9FB002002F0C6FB002002F095
:10407000C3FBE12002F0D0FB002002F0BDFB1520C5
:1040800002F0BAFB172002F0B7FB072002F0B4FBE6
:10409000112002F0B1FB062002F0AEFB2B2002F053
:1040A000ABFB562002F0A8FB3C2002F0A5FB05204C
:1040B00002F0A2FB102002F09FFB0F2002F09CFBFD
:1040C0003F2002F099FB3F2002F096FB0F2002F008
:1040D00093FB2B2002F0A0FB002002F08DFB0020C0
:1040E00002F08AFB012002F087FB3F2002F084FBF4
:1040F0002A2002F091FB002002F07EFB002002F05B
:104100007BFB002002F078FBEF2002F075FB112012
:1041100002F082FB782007F04FF9292002F086B8E0
:10412000D42002F079FB02F0B7F9B88002F0B4F9BC
:10413000B88002F0B1F90002B88002F0ADF9B98898
:104140000843B88080B245F21031884240F077874A
:10415000ED2002F061FB012002F04EFBFE2002F098
:104160004BFBEE2002F058FBDE2002F045FB212045
:1041700002F042FBF12002F04FFB012002F03CFB79
:10418000DF2002F049FB102002F036FBC42002F0D1
:1041900043FB8F2002F030FBC62002F03DFB0020E5
:1041A00002F02AFBE22002F027FBE22002F024FBCF
:1041B000E22002F021FBBF2002F02EFBAA2002F039
:1041C0001BFBB02002F028FB0D2002F015FB0020A5
:1041D00002F012FB0D2002F00FFB002002F00CFB9E
:1041E000112002F009FB002002F006FB192002F06A
:1041F00003FB002002F000FB212002F0FDFA00206A
:1042000002F0FAFA2D2002F0F7FA002002F0F4FA98
:104210003D2002F0F1FA002002F0EEFA5D2002F0FB
:10422000EBFA002002F0E8FA5D2002F0E5FA002047
:1042300002F0E2FAB12002F0EFFA802002F0DCFA9C
:10424000002002F0D9FA8B2002F0D6FA002002F00A
:10425000D3FA962002F0D0FA002002F0CDFAB22074
:1042600002F0DAFA002002F0C7FA002002F0C4FAE5
:10427000022002F0C1FA002002F0BEFA032002F090
:10428000BBFA002002F0B8FAB32002F0C5FA002011
:1042900002F0B2FA002002F0AFFA002002F0ACFA0D
:1042A000002002F0A9FA002002F0A6FA002002F095
:1042B000A3FA002002F0A0FA002002F09DFA0020EC
:1042C00002F09AFA002002F097FA002002F094FA25
:1042D000002002F091FA002002F08EFA002002F095
:1042E0008BFA002002F088FA002002F085FA002004
:1042F00002F082FA002002F07FFA002002F07CFA3D
:10430000002002F079FA002002F076FA002002F094
:1043100073FA002002F070FA002002F06DFAB42067
:1043200002F07AFA8B2002F067FA002002F064FAB9
:10433000962002F061FA002002F05EFAA12002F05D
:104340005BFA002002F058FAB52002F065FA02206C
:1043500002F052FA002002F04FFA032002F04CFA69
:10436000002002F049FA042002F046FA002002F090
:1043700043FAB62002F050FA002002F03DFA002085
:1043800002F03AFAB72002F047FA002002F034FABD
:10439000002002F031FA3F2002F02EFA002002F055
:1043A0002BFA5E2002F028FA002002F025FA6420A1
:1043B00002F022FA002002F01FFA8C2002F01CFA10
:1043C000002002F019FAAC2002F016FA002002F0E8
:1043D00013FADC2002F010FA002002F00DFA70202F
:1043E00002F00AFA002002F007FA902002F004FA24
:1043F000002002F001FAEB2002F0FEF9002002F0AA
:10440000FBF9DC2002F0F8F9002002F0F5F9B82001
:1044100002F002FA002002F0EFF9002002F0ECF9BD
:10442000002002F0E9F9002002F0E6F9002002F095
:10443000E3F9002002F0E0F9002002F0DDF90020AD
:1044400002F0DAF9BA2002F0E7F9242002F0D4F9F8
:10445000002002F0D1F9002002F0CEF9002002F095
:10446000CBF9C12002F0D8F9202002F0C5F90020D4
:1044700002F0C2F9542002F0BFF9002002F0BCF9AA
:10448000FF2002F0B9F9002002F0B6F9C22002F0D4
:10449000C3F90A2002F0B0F9002002F0ADF90420BF
:1044A00002F0AAF9002002F0A7F9C32002F0B4F943
:1044B0003C2002F0A1F9002002F09EF93A2002F01F
:1044C0009BF9002002F098F9392002F095F90020BC
:1044D00002F092F9372002F08FF9002002F08CF9F7
:1044E0003C2002F089F9002002F086F9362002F023
:1044F00083F9002002F080F9322002F07DF90020DB
:1045000002F07AF92F2002F077F9002002F074F916
:104510002C2002F071F9002002F06EF9292002F03F
:104520006BF9002002F068F9262002F065F90020FE
:1045300002F062F9242002F05FF9002002F05CF939
:10454000242002F059F9002002F056F9232002F04D
:1045500053F9002002F050F93C2002F04DF9002000
:1045600002F04AF9362002F047F9002002F044F93F
:10457000322002F041F9002002F03EF92F2002F033
:104580003BF9002002F038F92C2002F035F9002028
:1045900002F032F9292002F02FF9002002F02CF964
:1045A000262002F029F9002002F026F9242002F04A
:1045B00023F9002002F020F9242002F01DF9002048
:1045C00002F01AF9232002F017F9002002F014F982
:1045D000C42002F021F9622002F00EF9002002F05E
:1045E0000BF9052002F008F9002002F005F98420FB
:1045F00002F002F9002002F0FFF8F02002F0FCF8CF
:10460000002002F0F9F8182002F0F6F8002002F07D
:10461000F3F8A42002F0F0F8002002F0EDF81820E2
:1046200002F0EAF8002002F0E7F8502002F0E4F887
:10463000002002F0E1F80C2002F0DEF8002002F089
:10464000DBF8172002F0D8F8002002F0D5F895200A
:1046500002F0D2F8002002F0CFF8F32002F0CCF8FC
:10466000002002F0C9F8E62002F0C6F8002002F0AF
:10467000C3F8C52002F0D0F8322002F0BDF80020C7
:1046800002F0BAF8442002F0B7F8002002F0B4F8C3
:10469000652002F0B1F8002002F0AEF8762002F0BA
:1046A000ABF8002002F0A8F8882002F0A5F800205E
:1046B00002F0A2F8C62002F0AFF8202002F09CF829
:1046C000002002F099F8172002F096F8002002F07E
:1046D00093F8012002F090F8002002F08DF8C72036
:1046E00002F09AF8002002F087F8002002F084F827
:1046F000002002F081F8002002F07EF8C82002F0CD
:104700008BF8002002F078F8002002F075F8002005
:1047100002F072F8002002F06FF8C92002F07CF875
:10472000002002F069F8002002F066F8002002F094
:1047300063F8002002F060F8002002F05DF800202D
:1047400002F05AF8002002F057F8002002F054F866
:10475000002002F051F8002002F04EF8002002F094
:104760004BF8002002F048F8002002F045F8002045
:1047700002F042F8002002F03FF8002002F03CF87E
:10478000E02002F049F8162002F036F8002002F08E
:1047900033F81C2002F030F8002002F02DF8212020
:1047A00002F02AF8002002F027F8362002F024F860
:1047B000002002F021F8462002F01EF8002002F04E
:1047C0001BF8522002F018F8002002F015F86420BF
:1047D00002F012F8002002F00FF87A2002F00CF834
:1047E000002002F009F88B2002F006F8002002F009
:1047F00003F8992002F000F8002001F0FDFFA82046
:1048000001F0FAFF002001F0F7FFB92001F0F4FFFA
:10481000002001F0F1FFC42001F0EEFF002001F0C4
:10482000EBFFCA2001F0E8FF002001F0E5FFD220F5
:1048300001F0E2FF002001F0DFFFD92001F0DCFFF2
:10484000002001F0D9FFE02001F0D6FF002001F0A8
:10485000D3FFF32001F0D0FF002001F0CDFFE120D5
:1048600001F0DAFF162001F0C7FF002001F0C4FFBD
:104870001C2001F0C1FF002001F0BEFF222001F04A
:10488000BBFF002001F0B8FF362001F0B5FF00208B
:1048900001F0B2FF452001F0AFFF002001F0ACFFB6
:1048A000522001F0A9FF002001F0A6FF642001F0D2
:1048B000A3FF002001F0A0FF7A2001F09DFF00205F
:1048C00001F09AFF8B2001F097FF002001F094FF88
:1048D000992001F091FF002001F08EFFA82001F047
:1048E0008BFF002001F088FFB92001F085FF002038
:1048F00001F082FFC42001F07FFF002001F07CFF67
:10490000CA2001F079FF002001F076FFD22001F0EB
:1049100073FF002001F070FFD82001F06DFF002030
:1049200001F06AFFE02001F067FF002001F064FF62
:10493000F32001F061FF002001F05EFFE22001F0B2
:104940006BFF052001F058FF002001F055FF0B2000
:1049500001F052FF002001F04FFF1B2001F04CFF3F
:10496000002001F049FF342001F046FF002001F053
:1049700043FF442001F040FF002001F03DFF4F20A5
:1049800001F03AFF002001F037FF612001F034FF11
:10499000002001F031FF792001F02EFF002001F00E
:1049A0002BFF882001F028FF002001F025FF972031
:1049B00001F022FF002001F01FFFA62001F01CFFE4
:1049C000002001F019FFB72001F016FF002001F0D0
:1049D00013FFC22001F010FF002001F00DFFC720DF
:1049E00001F00AFF002001F007FFD12001F004FFD1
:1049F000002001F001FFD62001F0FEFE002001F0B2
:104A0000FBFEDD2001F0F8FE002001F0F5FEF320B2
:104A100001F0F2FE002001F0EFFEE32001F0FCFEC9
:104A2000052001F0E9FE002001F0E6FE0A2001F079
:104A3000E3FE002001F0E0FE1C2001F0DDFE00207E
:104A400001F0DAFE332001F0D7FE002001F0D4FEA1
:104A5000442001F0D1FE002001F0CEFE502001F0F4
:104A6000CBFE002001F0C8FE622001F0C5FE002050
:104A700001F0C2FE782001F0BFFE002001F0BCFE74
:104A8000882001F0B9FE002001F0B6FE972001F069
:104A9000B3FE002001F0B0FEA62001F0ADFE002024
:104AA00001F0AAFEB72001F0A7FE002001F0A4FE4D
:104AB000C22001F0A1FE002001F09EFEC72001F0FF
:104AC0009BFE002001F098FED12001F095FE002011
:104AD00001F092FED52001F08FFE002001F08CFE47
:104AE000DD2001F089FE002001F086FEF32001F0B8
:104AF00083FE002001F080FEE42001F08DFE012005
:104B000001F07AFE002001F077FE012001F074FE32
:104B1000002001F071FE022001F06EFE002001F085
:104B20006BFE2A2001F068FE002001F065FE3C20AB
:104B300001F062FE002001F05FFE4B2001F05CFE00
:104B4000002001F059FE5D2001F056FE002001F02A
:104B500053FE742001F050FE002001F04DFE842031
:104B600001F04AFE002001F047FE932001F044FED0
:104B7000002001F041FEA22001F03EFE002001F0E5
:104B80003BFEB32001F038FE002001F035FEBE20D0
:104B900001F032FE002001F02FFEC42001F02CFEB7
:104BA000002001F029FECD2001F026FE002001F0BA
:104BB00023FED32001F020FE002001F01DFEDD20A9
:104BC00001F01AFE002001F017FEF32001F014FEA0
:104BD000002001F011FEE52001F01EFE002001F092
:104BE0000BFE002001F008FE002001F005FE002071
:104BF00001F002FE022001F0FFFD002001F0FCFDAB
:104C0000292001F0F9FD002001F0F6FD3C2001F023
:104C1000F3FD002001F0F0FD4B2001F0EDFD002040
:104C200001F0EAFD5D2001F0E7FD002001F0E4FD68
:104C3000742001F0E1FD002001F0DEFD842001F090
:104C4000DBFD002001F0D8FD932001F0D5FD002010
:104C500001F0D2FDA22001F0CFFD002001F0CCFD3B
:104C6000B32001F0C9FD002001F0C6FDBE2001F017
:104C7000C3FD002001F0C0FDC42001F0BDFD0020F7
:104C800001F0BAFDCD2001F0B7FD002001F0B4FD28
:104C9000D32001F0B1FD002001F0AEFDDC2001F0D9
:104CA000ABFD002001F0A8FDF32001F0A5FD0020E0
:104CB00001F0A2FDE62001F0AFFD112001F09CFD06
:104CC000002001F099FD342001F096FD002001F054
:104CD00093FD562001F090FD002001F08DFD76201F
:104CE00001F08AFD002001F087FD772001F084FDAE
:104CF000002001F081FD662001F07EFD002001F022
:104D00007BFD882001F078FD002001F075FD9920E1
:104D100001F072FD002001F06FFDBB2001F06CFD81
:104D2000002001F069FD992001F066FD002001F0EE
:104D300063FD662001F060FD002001F05DFD55205F
:104D400001F05AFD002001F057FD552001F054FDFF
:104D5000002001F051FD452001F04EFD002001F042
:104D60004BFD432001F048FD002001F045FD4420AB
:104D700001F042FD002001F03FFDE72001F04CFD75
:104D8000322001F039FD002001F036FD552001F000
:104D900033FD002001F030FD762001F02DFD0020D4
:104DA00001F02AFD662001F027FD002001F024FD1E
:104DB000672001F021FD002001F01EFD672001F0B9
:104DC0001BFD002001F018FD872001F015FD0020DB
:104DD00001F012FD992001F00FFD002001F00CFD03
:104DE000BB2001F009FD002001F006FD992001F033
:104DF00003FD002001F000FD772001F0FDFC002004
:104E000001F0FAFC442001F0F7FC002001F0F4FC72
:104E1000562001F0F1FC002001F0EEFC232001F00F
:104E2000EBFC002001F0E8FC332001F0E5FC002061
:104E300001F0E2FC452001F0DFFC002001F0DCFC89
:104E4000E82001F0E9FC002001F0D6FC002001F090
:104E5000D3FC992001F0D0FC002001F0CDFC87208C
:104E600001F0CAFC002001F0C7FC882001F0C4FC5E
:104E7000002001F0C1FC772001F0BEFC002001F011
:104E8000BBFC662001F0B8FC002001F0B5FC8820D6
:104E900001F0B2FC002001F0AFFCAA2001F0ACFC54
:104EA000002001F0A9FCBB2001F0A6FC002001F0CD
:104EB000A3FC992001F0A0FC002001F09DFC6620DD
:104EC00001F09AFC002001F097FC552001F094FCC1
:104ED000002001F091FC552001F08EFC002001F033
:104EE0008BFC442001F088FC002001F085FC44206C
:104EF00001F082FC002001F07FFC552001F07CFCD9
:104F0000002001F079FCE92001F086FCAA2001F0E4
:104F100073FC002001F070FC002001F06DFC00200B
:104F200001F06AFC002001F077FCAA2001F064FC8B
:104F3000CF2001F071FC002001F05EFC002001F0A8
:104F40005BFC002001F058FC002001F055FC002023
:104F500001F052FC002001F04FFC002001F04CFC5D
:104F6000002001F049FC002001F046FC002001F087
:104F700043FC002001F040FC002001F03DFC00203B
:104F800001F03AFC002001F037FC002001F034FC75
:104F9000002001F031FC002001F02EFCF02001F097
:104FA0003BFC002001F028FC502001F025FC0020F3
:104FB00001F022FC002001F01FFC002001F01CFC8D
:104FC000F32001F029FC002001F016FCF92001F08B
:104FD00023FC062001F010FC102001F00DFC29201C
:104FE00001F00AFC002001F007FC3A2001F014FC5B
:104FF000552001F001FC112001F00EFC642006F0A8
:10500000DBF9292001F008FC352001F005FC002027
:1050100001F0F2FB512001F0FFFBFF2001F0ECFB5F
:10502000532001F0F9FB2C2001F0E6FB552001F0A4
:10503000F3FB822001F0E0FB2C2001F0F7B84FF4E5
:105040005A4001F0E9FB01F027FAB8804FF45B40C9
:1050500001F0E2FB01F020FA0002B8804FF45C405E
:1050600001F0DAFB01F018FAB988084381B2B1F512
:10507000004F08BF45F21050B88080B245F2105181
:10508000884241F008814FF47040552101F0E0FB67
:105090004FF20100AA2101F0DBFB4FF20104CFF631
:1050A000FF74601C80B20190522101F0D1FBA01C62
:1050B00080B20090082101F0CBFBE01C1FFA80FABF
:1050C0005046012101F0C4FB4FF430400D2101F0A6
:1050D000BFFB05F5E65080B20D2101F0B9FB4BF2A4
:1050E0000116CFF6FF76A6F1FF0080B20D2101F088
:1050F000AFFB4FF43640342101F0AAFB4BF20155CF
:10510000CFF6FF7505F5807080B2342101F0A0FB69
:105110004BF20174CFF6FF74A4F1FF0080B234218A
:1051200001F096FB4FF431400D2101F091FB4BF261
:1051300001100D2101F08CFB701C80B20D2101F0DB
:1051400087FB4FF43740342101F082FB4BF20170B2
:10515000342101F07DFB601C80B2342101F078FB2A
:105160004FF43240002101F073FB4BF2012000218B
:1051700001F06EFB4BF20126CFF6FF76701C80B279
:10518000002101F065FB4FF43840242101F060FB61
:105190004BF60100242101F05BFB4BF60101CFF639
:1051A000FF71481C0C461FFA80F84046242101F08C
:1051B0004FFB4FF43F40012101F04AFB4FF43340D5
:1051C0000F2101F045FB06F5807080B20F2101F040
:1051D0003FFB4BF202300F2101F03AFB4FF4394014
:1051E000342101F035FB04F5807080B2342101F0E8
:1051F0002FFB4BF60210342101F02AFB4FF435400F
:10520000082101F025FB4BF20150082101F020FBA1
:10521000681C80B2082101F01BFB4FF442400321BF
:1052200001F016FB4FF43A40242101F011FB4BF63C
:105230000214CFF6FF7404F1FF0080B2242101F0C4
:1052400007FB04F5807080B2242101F001FB4FF4CC
:105250003C40002101F0FCFA4BF60140782101F0BE
:10526000F7FA4BF60144CFF6FF74601C86B2304665
:10527000002101F0EDFA4FF43D40002101F0E8FA81
:1052800004F5807080B2782101F0E2FA4BF602500A
:10529000002101F0DDFA4FF43E40002101F0D8FA80
:1052A0004BF60250CFF6FF70FF3080B2642101F060
:1052B000CFFA4FF45140002101F0CAFA4CF6011424
:1052C000CFF6FF7404F5006080B2332101F0C0FA1C
:1052D0004DF20210002101F0BBFA4DF2021BCFF695
:1052E000FF7B0BF1010080B2342101F0B1FA0BF128
:1052F000020080B2002101F0ABFA0BF1030080B292
:105300003A2101F0A5FA0BF1040080B2002101F06E
:105310009FFA0BF1050080B24A2101F099FA0BF1D6
:10532000060080B2002101F093FA0BF1070080B271
:105330005C2101F08DFA0BF1080080B2002101F030
:1053400087FA0BF1090080B2812101F081FA0BF19B
:105350000A0080B2002101F07BFA0BF10B0080B251
:10536000A62101F075FA0BF10C0080B2002101F0CA
:105370006FFA0BF10D0080B2E52101F069FA0BF133
:105380000E0080B2012101F063FA0BF10F0080B230
:10539000132101F05DFA0BF1100080B2012101F040
:1053A00057FA0BF1110080B2542101F051FA0BF1C0
:1053B000120080B2012101F04BFA0BF1130080B210
:1053C000822101F045FA0BF1140080B2012101F0B5
:1053D0003FFA0BF1150080B2CA2101F039FA0BF146
:1053E000160080B2022101F033FA0BF1170080B2EF
:1053F000002101F02DFA0BF1180080B2022101F01A
:1054000027FA0BF1190080B2012101F021FA0BF10A
:105410001A0080B2022101F01BFA0BF11B0080B2CE
:10542000342101F015FA0BF11C0080B2022101F0C9
:105430000FFA0BF11D0080B2672101F009FA0BF1A0
:105440001E0080B2022101F003FA0BF11F0080B2AE
:10545000842101F0FDF90BF1200080B2022101F05E
:10546000F7F90BF1210080B2A42101F0F1F90BF161
:10547000220080B2022101F0EBF90BF1230080B28F
:10548000B72101F0E5F90BF1240080B2022101F00F
:10549000DFF90BF1250080B2CF2101F0D9F90BF132
:1054A000260080B2022101F0D3F90BF1270080B26F
:1054B000DE2101F0CDF90BF1280080B2022101F0CC
:1054C000C7F90BF1290080B2F22101F0C1F90BF10B
:1054D0002A0080B2022101F0BBF90BF12B0080B24F
:1054E000FE2101F0B5F90BF12C0080B2032101F08F
:1054F000AFF90BF12D0080B2102101F0A9F90BF1E9
:105500002E0080B2032101F0A3F90BF12F0080B22D
:10551000332101F09DF90BF1300080B2032101F03D
:1055200097F90BF1310080B26D2101F091F94FF440
:105530005240002101F08CF90BF1FF0080B23321C1
:1055400001F086F90BF5807080B2002101F080F93E
:105550004DF20320342101F07BF94DF20325CFF603
:10556000FF75681C80B2002101F072F9A81C80B29E
:105570003A2101F06DF9E81C80B2002101F068F9D0
:10558000281D80B24A2101F063F9681D80B2002114
:1055900001F05EF9A81D80B25C2101F059F9E81D07
:1055A00080B2002101F054F905F1080080B2812198
:1055B00001F04EF905F1090080B2002101F048F92F
:1055C00005F10A0080B2A62101F042F905F10B00B5
:1055D00080B2002101F03CF905F10C0080B2E52118
:1055E00001F036F905F10D0080B2012101F030F92A
:1055F00005F10E0080B2132101F02AF905F10F0028
:1056000080B2012101F024F905F1100080B254218B
:1056100001F01EF905F1110080B2012101F018F925
:1056200005F1120080B2822101F012F905F1130098
:1056300080B2012101F00CF905F1140080B2CA21F9
:1056400001F006F905F1150080B2022101F000F920
:1056500005F1160080B2002101F0FAF805F11700FB
:1056600080B2022101F0F4F805F1180080B20121A6
:1056700001F0EEF805F1190080B2022101F0E8F81E
:1056800005F11A0080B2342101F0E2F805F11B00A7
:1056900080B2022101F0DCF805F11C0080B2672124
:1056A00001F0D6F805F11D0080B2022101F0D0F81A
:1056B00005F11E0080B2842101F0CAF805F11F0037
:1056C00080B2022101F0C4F805F1200080B2A421CB
:1056D00001F0BEF805F1210080B2022101F0B8F816
:1056E00005F1220080B2B72101F0B2F805F12300E4
:1056F00080B2022101F0ACF805F1240080B2CF2184
:1057000001F0A6F805F1250080B2022101F0A0F811
:1057100005F1260080B2DE2101F09AF805F127009C
:1057200080B2022101F094F805F1280080B2F22144
:1057300001F08EF805F1290080B2022101F088F80D
:1057400005F12A0080B2FE2101F082F805F12B005C
:1057500080B2032101F07CF805F12C0080B2102109
:1057600001F076F805F12D0080B2032101F070F808
:1057700005F12E0080B2332101F06AF805F12F0007
:1057800080B2032101F064F805F1300080B26D2190
:1057900001F05EF84FF45340002101F059F805F193
:1057A000FE0080B2332101F053F805F1FF0080B212
:1057B000002101F04DF805F5807080B2342101F030
:1057C00047F84DF20430002101F042F84DF2043563
:1057D000CFF6FF75681C80B23A2101F039F8A81C99
:1057E00080B2002101F034F8E81C80B24A2101F0B7
:1057F0002FF8281D80B2002101F02AF8681D80B220
:105800005C2101F025F8A81D80B2002101F020F8EC
:10581000E81D80B2812101F01BF805F1080080B27B
:10582000002101F015F805F1090080B2A62101F070
:105830000FF805F10A0080B2002101F009F805F126
:105840000B0080B2E52101F003F805F10C0080B2F5
:10585000012100F0FDFF05F10D0080B2132100F0E1
:10586000F7FF05F10E0080B2012100F0F1FF05F114
:105870000F0080B2542100F0EBFF05F1100080B260
:10588000012100F0E5FF05F1110080B2822100F056
:10589000DFFF05F1120080B2012100F0D9FF05F110
:1058A000130080B2CA2100F0D3FF05F1140080B2CA
:1058B000022100F0CDFF05F1150080B2002100F0BB
:1058C000C7FF05F1160080B2022100F0C1FF05F10B
:1058D000170080B2012100F0BBFF05F1180080B273
:1058E000022100F0B5FF05F1190080B2342100F06B
:1058F000AFFF05F11A0080B2022100F0A9FF05F107
:105900001B0080B2672100F0A3FF05F11C0080B2EC
:10591000022100F09DFF05F11D0080B2842100F0FE
:1059200097FF05F11E0080B2022100F091FF05F102
:105930001F0080B2A42100F08BFF05F1200080B28F
:10594000022100F085FF05F1210080B2B72100F0AF
:105950007FFF05F1220080B2022100F079FF05F1FE
:10596000230080B2CF2100F073FF05F1240080B244
:10597000022100F06DFF05F1250080B2DE2100F06C
:1059800067FF05F1260080B2022100F061FF05F1FA
:10599000270080B2F22100F05BFF05F1280080B201
:1059A000022100F055FF05F1290080B2FE2100F030
:1059B0004FFF05F12A0080B2032100F049FF05F1F5
:1059C0002B0080B2102100F043FF05F12C0080B2C3
:1059D000032100F03DFF05F12D0080B2332100F0DE
:1059E00037FF05F12E0080B2032100F031FF05F1F1
:1059F0002F0080B26D2100F02BFF4FF454400021A6
:105A000000F026FF05F1FD0080B2332100F020FFF9
:105A100005F1FE0080B2002100F01AFF05F1FF0041
:105A200080B2342100F014FF05F5807080B20021AF
:105A300000F00EFF4DF205403A2100F009FF4DF253
:105A40000545CFF6FF75681C80B2002100F000FF0D
:105A5000A81C80B24A2100F0FBFEE81C80B20021A5
:105A600000F0F6FE281D80B25C2100F0F1FE681DFA
:105A700080B2002100F0ECFEA81D80B2812100F070
:105A8000E7FEE81D80B2002100F0E2FE05F108000B
:105A900080B2A62100F0DCFE05F1090080B20021F1
:105AA00000F0D6FE05F10A0080B2E52100F0D0FE3C
:105AB00005F10B0080B2012100F0CAFE05F10C00D7
:105AC00080B2132100F0C4FE05F10D0080B2012167
:105AD00000F0BEFE05F10E0080B2542100F0B8FEC9
