:020000040800F2
:1000000080170020993B0008AD300008B13000088F
:10001000B5300008B9300008BD300008000000000D
:10002000000000000000000000000000C1300008D7
:10003000C530000800000000AB280008C9300008E7
:10004000B33B0008B33B0008B33B0008B33B0008D8
:10005000B33B0008B33B0008B33B0008B33B0008C8
:10006000B33B0008693100086D310008B33B00085C
:10007000B33B0008B33B0008B33B0008B33B0008A8
:10008000B33B0008B33B0008B33B0008B33B000898
:10009000B33B0008B33B0008B33B0008B33B000888
:1000A000B33B0008B33B0008B33B0008B33B000878
:1000B000B33B0008B33B0008B33B0008B33B000868
:1000C000B33B0008B33B0008B33B0008B33B000858
:1000D000B33B0008E930000831310008B33B0008A9
:1000E00071310008B33B0008B33B000800F002F890
:1000F00000F047F80AA090E8000C82448344AAF17B
:100100000107DA4501D100F03CF8AFF2090EBAE878
:100110000F0013F0010F18BFFB1A43F0010318473B
:10012000F057000010580000103A24BF78C878C17A
:10013000FAD8520724BF30C830C144BF04680C60ED
:10014000704700000023002400250026103A28BF35
:1001500078C1FBD8520728BF30C148BF0B60704739
:10016000662905F0F482002070471FB504F040F9BD
:1001700004000020002104F09DFEE0601FBD10B5CA
:1001800010BD04F036FA1146FFF7EFFF02F0ECFE67
:1001900004F054FA03B4FFF7F2FF03BC04F022F9B1
:1001A00080B502F0F1FA00F013F800F037F800F033
:1001B00057F800F087F800F0EFFE01F08FF900F03B
:1001C000A1F802F019FABDE8804002F0E5BA00BFDC
:1001D00040F6A040C2F200000021016040F25850F9
:1001E000C2F20000017040F25950C2F200000170EA
:1001F00040F69820C2F20000017040F2E850C2F2CE
:100200000000017040F26830C2F20000016040F26C
:100210005450C2F200000160704700BF40F2E0504D
:10022000C2F2000000214160016040F2D850C2F2E9
:100230000000017040F25A50C2F20000017040F21A
:100240005B50C2F20000017040F2F450C2F20000B4
:10025000016040F2EC50C2F200000160704700BF44
:1002600010B540F2FC64C2F2000420464FF46771FE
:1002700000F084FA40F2FC50C2F200004FF48071AA
:1002800000F07CFA002045F60C11C0F6000100BF1A
:100290002218D16402F1540353615430B0F5527FF7
:1002A000F6D1C4F894130020C4F85C0340F2F8516E
:1002B000C2F20001086040F2F050C2F20000046097
:1002C00010BD00BF10B540F27034C2F200042046E9
:1002D0004FF4C87100F052FA0020002160546218F7
:1002E00002F1140353601431B1F5BE7FF6D1002042
:1002F000C4F8800184F87C0140F26C30C2F2000046
:10030000046010BD80B586B00320049000200390E7
:100310008020029040F69C20C2F2000001904FF62F
:10032000FF71009100F5FE7240F2CD70C0F6000042
:1003300000213F2301F058FB03A10DF117023F20DC
:1003400001F0D2FC06B080BD75432F4F532D4949B3
:100350002049646C6500000040F2E850C2F20000E1
:100360000078012818BF704740F25850C2F20000D0
:100370000178FF291CBF01310170704740F2E8503D
:10038000C2F200000078012818BF704710B502F0D3
:1003900065FA044640F25850C2F20000017851B1AB
:1003A0000139017040F25950C2F200000078084350
:1003B00000062BD105E040F25950C2F2000000784F
:1003C00020BB00F029F840F25B50C2F20000017837
:1003D00040F2FC50C2F2000050F8210040F2F4520A
:1003E000C2F20002106040F25A52C2F200021278C9
:1003F00091420BD0816B0131816340F26830C2F2CF
:10040000000001680131016002F047FA2046BDE8B2
:10041000104002F027BA00BF40F2D850C2F20000EC
:10042000007845F60C01C0F60001085C40F2E0528D
:10043000C2F20002125C895C01EBC00040F25B5129
:10044000C2F200010870704740F2E850C2F20000AA
:100450000078012818BF704780B502F0FFF940F21C
:100460005851C2F2000109780029BDE8804018BF48
:1004700002F0F8B940F25951C2F200010A78FF2A9D
:100480001CBF01320A7002F0EDB900BF10B540F296
:10049000E850C2F200000078012810D102F0DEF925
:1004A00040F25951C2F200010A7822B1013A0A70B1
:1004B00012F0FF0F04D0BDE8104002F0D3B910BD18
:1004C00040F25851C2F200010C7802F0CBF9002C36
:1004D00018BF10BDBDE8104000E000BF10B502F02D
:1004E000BDF9044640F25850C2F20000007840F2D4
:1004F0005951C2F200010978084324D1FFF78CFF5B
:1005000040F25B50C2F20000017840F2FC50C2F2AF
:10051000000050F8210040F2F452C2F200021060D4
:1005200040F25A52C2F20002127891420BD0816B13
:100530000131816340F26830C2F20000016801318C
:10054000016002F0A3F92046BDE8104002F08AB92C
:1005500040F2E850C2F200000078002818BF70474F
:1005600080B5FFF759FF40F25B50C2F200000078FF
:1005700040F25A51C2F20001087040F2FC51C2F23E
:10058000000151F8200040F2EC51C2F20001086075
:1005900040F2F451C2F200010860BDE8804002F070
:1005A00064B900BF70B502F043F902F057F940F6A4
:1005B000A041C2F200010A6801320A6002F052F959
:1005C00040F2E850C2F200000078012849D140F61C
:1005D0009C40C2F20000017831B1012941D00229CA
:1005E00014BF00210121017040F2F850C2F2000056
:1005F000046894F832003F2808BF70BD40F2D85517
:10060000C2F2000540F2E056C2F2000602F026F9FE
:10061000E16AF9B10139E1621CD194F8301011F0AE
:10062000370F0FBF002101F0C80184F830100121FD
:1006300084F8311094F8301009070BD494F8361070
:100640002A781143297094F8341094F83520735C9B
:100650001A437254646902F005F994F832003F2895
:10066000D4D170BD40F22310704700BF704700BF67
:1006700070B50446807A45F60C06C0F60006355C77
:100680006019C07A305C00EBC500C6B240F2FC5085
:10069000C2F2000050F8260001620021C16280F819
:1006A000313090F83010914380F8301011F0080F7D
:1006B00011D190F8361040F2D852C2F200021378ED
:1006C0001943117040F2E051C2F200014A5D90F806
:1006D00035301A434A55214600F002F8304670BDC5
:1006E00090F8342090F835C00A44D37A23EA0C03FA
:1006F000D37213F0FF0F18BF704790F836008A7A54
:1007000022EA00008872704740F2EC51C2F2000108
:100710000968C86191F8342091F835C00244D37A51
:1007200043EA0C03D37291F83620837A1A4382721B
:1007300091F8340091F8352040F2E05CC2F2000CF0
:100740001CF8003023EA02020CF8002012F0FF0F20
:1007500018BF704791F8360040F2D851C2F200013C
:100760000A7822EA00000870704700BF00218174F7
:10077000C0F80E10C0F80A10704700BF002908BF6B
:10078000704780B503F0B6FBBDE88040704700BFFE
:10079000002A08BF70474FF6FF7C00BF11F8013BED
:1007A00000F8013B013A12EA0C0FF7D1704700BF85
:1007B000017841B1411C002011F8012B0130002AC1
:1007C000FAD1C0B270470020C0B2704710B540F2F5
:1007D0005454C2F2000400BF02F040F82168013115
:1007E000216002F03FF801F0DDFFF5E770B582B05F
:1007F00000256C4640F2FC56C2F2000605E000BF40
:100800000135402D04BF02B070BDE8B2214601F0B1
:10081000E7FA0028F4D156F825000228F0D38168C1
:10082000C26801EB8201416401998164E8E700BF7D
:100830002DE9F04F81B0984617460E46054602F066
:100840000DF840F2F051C2F200010C68002C70D09B
:10085000DDF83090DDF82CA0DDF828B062690A6080
:1008600002F000F884F83250266000262686E66200
:10087000C4F804A0C4F80CB0A760A4F81090A4F8C1
:10088000128084F83760E80884F8340005F0070126
:1008900084F83310012202FA00F084F8360002FADC
:1008A00001F084F83500E66166622662A66466643B
:1008B0002664E663A66345F60C10C0F60000E0640B
:1008C0002665204601F0B2FF204601F067FF01F0E7
:1008D000C5FF40F2FC51C2F2000141F8254040F250
:1008E000F851C2F200010A68A6616261002A18BFCD
:1008F00094610C6040F2D851C2F200010A7894F879
:1009000036301A430A7094F8341094F8352040F2C7
:10091000E053C2F200035F5C3A435A5440F6982118
:10092000C2F200010A7801320A7001F09BFF002038
:1009300002E001F097FF4220C0B201B0BDE8F08FA5
:100940002DE9F04381B01E461446894605460078DD
:1009500005281AD10020307004F07F0701F07EFFD7
:10096000032F1AD8DFE807F00220303F298929EA4F
:100970000108C84545D162B2B2F1FF3F43DC41EA0C
:100980000901298101F06EFF03E0012030704FF072
:100990000008404601B0BDE8F08301F063FF6F201E
:1009A00030704FF00008F4E7298929EA0108B8F10E
:1009B000000F35D062B2B2F1FF3F33DC41EA0901EA
:1009C000298101F04FFFE4E7298901EA0908C845B8
:1009D0001CD162B2B2F1FF3F1ADC81EA0801298121
:1009E00001F040FFD5E7298911EA090813D062B266
:1009F000B2F1FF3F11DC81EA0801298101F032FFE9
:100A0000C7E77021317001F02DFFC2E7702131700E
:100A100001F028FFBDE77021317001F023FFB8E736
:100A20007021317001F01EFFB3E700BF70B50C46B6
:100A3000064640F25850C2F20000007810B100257E
:100A400010261AE001F00AFF40F20051C2F2000144
:100A50000D6875B16A680A602E810521297000262B
:100A60006E6045F60C11C0F60001E96001F0FAFE77
:100A700003E001F0F7FE002572262670284670BDBF
:100A80002DE9F04114460F46054640F25850C2F297
:100A90000000007808B10F274DE0287805280CD118
:100AA00001F0DCFE80466E68012F08D04FBB6EB3AC
:100AB000404601F0D7FE49273DE001273BE046B123
:100AC000374600BF3846002100F03AF83F68002F53
:100AD000F8D100272F7045F60C10C0F60000E86032
:100AE00040F20050C2F2000001682F816960056089
:100AF000404601F0B7FEEEB1FFF7F0FC00270025FD
:100B000019E0404601F0AEFE072714E000272F70E1
:100B100045F60C10C0F60000E86040F20050C2F24A
:100B2000000001682F8169600560404601F09AFE6F
:100B3000002500E0002527702846BDE8F08100BFB1
:100B400010B5826811850024D46282F8314092F891
:100B5000301011F0DF0182F8301014D192F8361005
:100B600040F2D853C2F200031C782143197092F866
:100B7000341092F8352040F2E053C2F200035C5C7E
:100B800022435A54012400F06BF9204610BD00BFE7
:100B9000F0B581B014460D46074640F25850C2F2F7
:100BA0000000007810B10025112014E001F056FE7D
:100BB00006463878052809D1F8682860FFF7F8FD5F
:100BC0000546304601F04EFE002004E0304601F0BC
:100BD00049FE002501202070284601B0F0BD00BF6D
:100BE00070B514460D46064640F25850C2F2000059
:100BF000007800281EBF1220207070BD01F02EFE6C
:100C00003178052905D1F56001F02CFE0020207017
:100C100070BD01F027FE0120207070BD2DE9F04F5E
:100C200087B01D4616460F46814640F25850C2F224
:100C300000000078DDF840A010B10024022032E06E
:100C400040F25950C2F20000007810B100240D208B
:100C500029E099F80000052823D106F07F0B01F068
:100C6000FDFD8046BBF1030F23D8DFE80BF002281F
:100C70004058B9F8080027EA0004BC4266D171B2B6
:100C8000B1F1FF3FDCBF3843A9F8080040F2EC5057
:100C9000C2F2000000680485404601F0E3FD002038
:100CA00001E0002401208AF80000204607B0BDE8DA
:100CB000F08F404601F0D6FD00246F20F3E7B9F82D
:100CC000080027EA0004002C40D071B2B1F1FF3FC8
:100CD000DCBF3843A9F8080040F2EC50C2F2000033
:100CE00000680485404601F0BDFD0020DBE7B9F84F
:100CF000080000EA0704BC4228D171B2B1F1FF3FFD
:100D0000DCBF6040A9F8080040F2EC50C2F20000DD
:100D100000680485404601F0A5FD0020C3E7B9F84E
:100D2000080010EA070411D071B2B1F1FF3FDCBF37
:100D30006040A9F8080040F2EC50C2F200000068E0
:100D40000485404601F08EFD0020ACE700955FFA77
:100D50008BF302A948463A4600F042F8404601F0BB
:100D600081FDFFF7BBFB01F079FD804640F2EC55B9
:100D7000C2F20005286890F8317087B1002480F82D
:100D8000314002A800F06CF8286880F830404046F6
:100D900001F068FD0A20022F08BF0E2083E7048DB2
:100DA00070B2B0F1FF3F0FDCBBF1020F07D3ABF124
:100DB000020001280DD8B9F80800A04302E0B9F8F4
:100DC00008002043A9F80800404601F04BFD002030
:100DD00069E7404601F046FD00246F2063E700BF4D
:100DE000B0B540F2EC5CC2F2000CDCF800E000248C
:100DF0008EF83140049DCEF82C50CEF824109EF889
:100E0000305045F020058EF830508B740A82DCF8A3
:100E100000208A6042684C600A60C8604268002A0C
:100E200018BF51604160DCF8000090F8341090F871
:100E3000352040F2E053C2F200035D5C25EA020275
:100E40005A5412F0FF0F18BFB0BD90F8360040F2B0
:100E5000D851C2F200010A7822EA00000870B0BD41
:100E60000168426822B11160002918BF4A6005E09C
:100E7000C268516000291CBF00224A6080680021BE
:100E80004162704710B501F0E9FC40F2EC51C2F24A
:100E9000000109680C8D01F0E5FC204610BD00BF83
:100EA0002DE9F04381B0994616460F460546007875
:100EB000052809D101F0D2FC8046012E07D0002E72
:100EC0003CD12889B84304E0002501204BE0288963
:100ED000384328816F68002F36D000264FF6FF7404
:100EE000B87C03283AD8DFE800F0020D0511288904
:100EF000604000E028893A8A02EA000191420BD062
:100F000010E000BF2889604001E000BF2889398ACD
:100F10000840204206D081B23846FFF711FE012872
:100F200008BF06463F68002FDAD1404601F09AFC20
:100F3000F0B2012808BFFFF7D1FA08E0404601F0FF
:100F400091FC002571200EE0404601F08BFC01F081
:100F500085FC2D8901F086FC002004E0404601F06C
:100F600081FC00256F2089F80000284601B0BDE80B
:100F7000F08300BFB0B50C4605460078052806D1C1
:100F800001F06CFC2D8901F06DFC002001E00025D2
:100F9000012020702846B0BD10B540F20454C2F2C2
:100FA000000420465021FFF7E9FB002145F60C1C08
:100FB000C0F6000C002200BFA154A318C3F80CC057
:100FC00003F1100058601032402AF5D1002060640F
:100FD00084F84000C4F84CC040F20050C2F2000057
:100FE000046010BDB0B50C4605460078022812D149
:100FF00001F034FC6968CA8A92B1D1F808C00D6961
:101000002B1D0B612D68013ACA82634504BF4A68F3
:101010000A61002106E00120207000252846B0BDAD
:1010200000251F21217001F01DFC2846B0BD00BF26
:101030002DE9F0410D46064640F25850C2F200003C
:10104000007898BB01F00AFC40F26C38C2F200084C
:10105000D8F8004044B36168C8F8001001F002FC01
:1010600001F0FCFB40F25C51C2F200010F68B7B125
:101070003A680A6001F0F6FB06EB8500B8607E6016
:10108000FE603E61BD820020F88220810220207037
:1010900067602046FFF76AFB2046BDE8F081D8F87C
:1010A00000106160C8F8004001F0DCFB002420461D
:1010B000BDE8F0812DE9F04114460F460546007861
:1010C000022807D140F25850C2F20000007830B137
:1010D0000F2700E0012727702846BDE8F08101F0C6
:1010E000BDFB8046AE7A012F06D05FBB7EB3404683
:1010F00001F0B8FB4927EEE74EB100BF28460021BA
:1011000004220023FFF7B4FAA87A0028F6D140F2AF
:101110005C50C2F2000001686A681160026000273A
:101120002F7040F26C30C2F2000001682F816960BC
:101130000560404601F096FB06B3FFF7CFF90027A4
:101140000025C8E7404601F08DFB0727C3E740F2C2
:101150005C50C2F2000001686A68116002600027FA
:101160002F7040F26C30C2F2000001682F8169607C
:101170000560404601F076FB0025ACE70025AAE7B4
:1011800010B5044601F06AFB61680022CA824A6811
:10119000CA600A6101F066FB002010BD2DE9F04332
:1011A00081B014460F4605460078022809D140F266
:1011B0005850C2F20000007850B102202070002583
:1011C00002E0012020700025284601B0BDE8F08330
:1011D00040F25950C2F20000007818B10D20207082
:1011E0000025F1E701F03AFB06466868C18A81B143
:1011F000826803691F1D07611D680139C18297421A
:1012000004BF41680161304601F02CFB00202070D2
:10121000DAE740F2EC59C2F20009D9F800004FF0C9
:10122000000880F83180C76290F8301041F0040166
:1012300080F830102846FFF767FA304601F012FBBD
:10124000FFF74CF901F00AFB0646D9F8000090F8C8
:101250003110022903D029B9056A002007E00E20C9
:10126000002504E02946FFF73BFA00250A202070FC
:10127000D9F80000C0F81C80A0F83080C0F82080A9
:10128000304601F0EFFA9FE7F0B581B014460F4603
:1012900006460078022812D101F0E0FA0546B07A3D
:1012A00080B1012F14D100273046002104220223EF
:1012B000FFF7DEF90137B07A0028F5D10FE00027FB
:1012C000012012E0284601F0CDFA002000270CE0B2
:1012D0003046002104220223FFF7CAF901272846DD
:1012E00001F0C0FAFFF7FAF80E202070F8B201B052
:1012F000F0BD00BFF0B581B00D460646007802286B
:1013000011D101F0ABFA0446B07A80B10027304623
:10131000294604220023FFF7ABF9204601F0A2FA88
:10132000FFF7DCF800E00127F8B201B0F0BD70680B
:10133000C18A828A914210D2C268131DC3601560AF
:101340000131C1828168C2688A4204BF4168C160BC
:10135000204601F087FA0027E6E7204601F082FAEE
:101360001E27E1E7F0B581B00D4606460078022859
:1013700011D101F073FA0446B07A80B100273046EB
:10138000294604220023FFF773F9204601F06AFA88
:10139000FFF7A4F800E00127F8B201B0F0BD7068D3
:1013A000C18A828A914211D242680369934204BF82
:1013B000826802610269131F036142F8045C013113
:1013C000C182204601F04EFA0027E5E7204601F0F1
:1013D00049FA1E27E0E700BFF0B581B016460D467A
:1013E00007460078022821D101F038FA0446B87A7D
:1013F00000B316F0010F0DD1384629460422002310
:10140000FFF736F909E000BF3846294604220023D9
:10141000FFF72EF9B87A0028F6D1204601F022FA1B
:10142000700758BFFFF75AF8002000E00120C0B253
:1014300001B0F0BD7868C18A828A91420CD2B207AD
:101440000FD4C268131DC36015608268C3689342DD
:1014500004BF4268C2600FE0204601F003FA1E207C
:10146000E5E742680369934204BF8268026102694A
:10147000131F036142F8045C0131C182204601F070
:10148000F1F90020D3E700BF70B50E46054600789D
:1014900002281CBF012070BD01F0E0F9A97A317467
:1014A00006F1080105F10B02002300BF12F8014B01
:1014B00001F8014B0133DCB2082CF7D36968CA8A02
:1014C000002A0EBF00230B691B683360B280898A33
:1014D000F18001F0C7F9002070BD00BF10B540F2E7
:1014E0006054C2F2000420467821FFF747F900203B
:1014F00021181831215018306028F9D140F25C5081
:10150000C2F2000004600020206610BDB0B50546A0
:10151000007803281EBF00242046B0BD01F09EF9CC
:101520002C89002C1CBF611E298101F09BF92046EB
:10153000B0BD00BFB0B5054640F25850C2F2000041
:10154000007810B100242046B0BD01F087F940F2C8
:101550006C31C2F200010C686CB162680A6001F083
:1015600081F9258103202070002060602046FFF76C
:10157000FDF82046B0BD01F075F9E3E72DE9F04133
:1015800014460F4605460078032807D140F258500C
:10159000C2F20000007830B10F2700E00127277069
:1015A0002846BDE8F08101F059F98046AE7A012F56
:1015B00006D01FBB3EB3404601F054F94927EEE781
:1015C0004EB100BF2846002101220023FFF750F84A
:1015D000A87A0028F6D100272F7040F26C30C2F2B2
:1015E000000001682F8169600560404601F03AF90A
:1015F000C6B1FEF773FF00270025D0E7404601F093
:1016000031F90727CBE700272F7040F26C30C2F288
:10161000000001682F8169600560404601F022F9F1
:101620000025BCE70025BAE72DE9F04381B0144658
:101630000E4605460078032807D140F25850C2F202
:101640000000007830B1022000E00120207001B0DD
:10165000BDE8F08340F25950C2F20000007808B1B2
:101660000D20F3E701F0FAF80746288930B1013878
:101670002881384601F0F6F80020E7E740F2EC5800
:10168000C2F20008D8F800004FF0000980F831904D
:10169000C66290F8301041F0010180F83010284601
:1016A000FFF732F8384601F0DDF8FEF717FF01F0DA
:1016B000D5F80646D8F8000090F8311039B1022963
:1016C00001D10E2103E02946FFF70AF80A21217013
:1016D000D8F80000C0F81C90A0F83090304601B057
:1016E000BDE8F04301F0BEB8F0B581B014460F4636
:1016F00006460078032812D101F0B0F80546B07A0A
:1017000080B1012F14D1002730460021012202238D
:10171000FEF7AEFF0137B07A0028F5D10FE00027C1
:10172000012012E0284601F09DF8002000270CE07F
:1017300001273046002101220223FEF799FF2846A7
:1017400001F090F8FEF7CAFE0E202070F8B201B04A
:10175000F0BD00BF70B50546007803281EBF012606
:10176000F0B270BD01F07AF80446A87A68B100269C
:101770002846002101220023FEF77AFF204601F0CF
:1017800071F8FEF7ABFEF0B270BD28894FF6FF711D
:10179000884207D001302881204601F063F80026F6
:1017A000F0B270BD204601F05DF83326F0B270BD96
:1017B00070B50E460546007803281CBF012070BD99
:1017C00001F04CF8A97AB172B11C05F10B020023AB
:1017D00012F8014B01F8014B0133DCB2082CF7D3AE
:1017E0002989318001F03EF8002070BD70B51446A3
:1017F0000D460646007803281EBF0120207070BDEC
:1018000001F02CF800212170318921B13581BDE82A
:10181000704001F027B8B17A0029F7D04921217032
:10182000BDE8704001F01EB82DE9F0470C460546B2
:1018300001F014F840F2FC52C2F2000252F82410F7
:1018400029B101F00FF82820C0B2BDE8F087FF2DC4
:1018500006D140F2EC51C2F20001096891F8325011
:1018600052F82510012906D059B900F0FBFF2920B4
:10187000C0B2BDE8F08700F0F5FF4320C0B2BDE87C
:10188000F087002342F8253042F8241004F0070CBA
:10189000012303FA0CF8E20803FA02F991F8347014
:1018A00091F8356091F836E040F2E053C2F200035F
:1018B000DD5D35421AD0B543DD554DB940F2D85AF9
:1018C000C2F2000A9AF8005025EA0E058AF8005084
:1018D00040F2D85AC2F2000A9AF8005045EA0905C7
:1018E0008AF800509D5C45EA08059D54CB69A3B178
:1018F000DD19EF7A27EA0606EE7216F0FF0F03D124
:101900009D7A25EA0E079F729F7A47EA09079F7220
:101910001344DF7A47EA0807DF7281F8342081F840
:10192000324081F833C081F8369081F8358000F07C
:1019300099FF40F2E850C2F200000078012808BF89
:10194000FEF7CCFD0020C0B2BDE8F0872DE9F043E2
:1019500083B01C4615460E46074600F07FFF40F256
:101960005851C2F20001097819B100F07BFF3C2503
:1019700036E040F2FC58C2F2000858F8241019B1C1
:1019800000F070FF28252BE0012148F8241000F01A
:1019900069FF4FF00009384631462A46002300F01F
:1019A00005FF0146CDF80890CDF80490CDF80090E1
:1019B000204600220023FEF73BFF054630B100F031
:1019C0004DFF48F8249000F04DFF09E040F2E85048
:1019D000C2F200000078012808BFFEF77FFD002555
:1019E000284603B0BDE8F0832DE9F04F83B01C46D4
:1019F00015460E46074600F031FF40F25851C2F23C
:101A00000001097819B100F02DFF3C2540E040F2BB
:101A1000FC5BC2F2000B5BF8241019B100F022FF4E
:101A2000282535E0DDF84080DDF83890DDF834A079
:101A300001214BF8241000F015FF5046494642465C
:101A400000F02AF8384631462A46434600F0AEFEFA
:101A50000146CDF808800F980190CDF800902046FF
:101A600052460C9BFEF7E4FE054638B100F0F6FE48
:101A700000214BF8241000F0F5FE09E040F2E85098
:101A8000C2F200000078012808BFFEF727FD0025FC
:101A9000284603B0BDE8F08F02F00302032A08D104
:101AA000002908BF704780B5890002F045FABDE8FB
:101AB000804070472DE9F041044640F25850C2F290
:101AC0000000007800281EBF4020C0B2BDE8F081B1
:101AD0003F2C02BF3E20C0B2BDE8F08100F0BEFE48
:101AE0000646FF2C06D140F2EC50C2F2000000681E
:101AF00090F8324040F2FC58C2F2000858F82450E6
:101B0000012D07D06DB9304600F0ACFE4320C0B2C5
:101B1000BDE8F081304600F0A5FE3D20C0B2BDE832
:101B2000F08195F8340095F8351040F2E052C2F299
:101B30000002135C23EA0101115495F83400105C93
:101B400048B995F8360040F2D851C2F200010A783F
:101B500022EA00000870E96911B12846FEF7C0FDCD
:101B6000686A002818BFFFF77BF90020E862288622
:101B700040F25957C2F200073878FF281CBF0130E5
:101B80003870304600F06EFEFEF770FD00F066FE25
:101B90000646387800281CBF01383870284600F007
:101BA000FFFD40F69820C2F2000001780139017073
:101BB000002048F824006969AA6922B15161686966
:101BC000A969816106E08861686940F2F851C2F252
:101BD0000001086040F2F050C2F200000168696143
:101BE000056009A0E864304600F03CFE40F2E85091
:101BF000C2F200000078012808BFFEF76FFC002049
:101C0000C0B2BDE8F08100BF3F00000010B504463F
:101C10003F2802BF3E24204610BD00F01FFEFF2CCF
:101C20000DD040F2FC51C2F2000151F824100129FC
:101C300010D0A1B900F016FE4324204610BD40F29A
:101C4000EC51C2F20001096891F8374000F00AFE39
:101C5000204610BD00F006FE3D24204610BD3F2268
:101C600081F8372000F0FEFD0024204610BD00BFA3
:101C7000F0B581B014460E46074640F25850C2F205
:101C80000000007828B1002611202070304601B0F5
:101C9000F0BD00F0E3FD0546FF2F06D140F2EC5009
:101CA000C2F20000006890F8327040F2FC50C2F2BC
:101CB000000050F82700012806D058B9284600F047
:101CC000D1FD00264320E0E7284600F0CBFD0026AA
:101CD0004320DAE7C06C3060FEF76AFD064628460E
:101CE00000F0C0FD0020D0E770B514460D46064652
:101CF00040F25850C2F20000007800281EBF1220A7
:101D0000207070BD00F0AAFDFF2E06D140F2EC510C
:101D1000C2F20001096891F8326040F2FC51C2F24F
:101D2000000151F82610012900D021B900F09AFDD8
:101D30004320207070BDCD6400F094FD0020207021
:101D400070BD00BF10B5044600F088FD40F2FC51A4
:101D5000C2F2000151F82410012905D049B900F060
:101D600081FD4620C0B210BD00F07CFD4320C0B212
:101D700010BD91F8302012F0080F04D100F072FD70
:101D80004420C0B210BD12F0F70281F8302001D11A
:101D9000CA6A22B100F066FD0020C0B210BD91F801
:101DA000362040F2D853C2F200031C7822431A7046
:101DB00091F8342091F8351040F2E053C2F200035C
:101DC0009C5C2143995400F04DFD40F2E850C2F272
:101DD000000000780128DFD1FEF780FBDCE700BFC0
:101DE00070B50C46054600204860086000F036FDDE
:101DF000FF2D06D140F2EC51C2F20001096891F8C2
:101E0000325040F2FC51C2F2000151F82510012974
:101E100000D021B900F026FD4320C0B270BD0A7C7D
:101E2000D20704D100F01EFD4520C0B270BD8E68FF
:101E3000CD6800F017FD306808B1002007E0311DC3
:101E4000002000BF51F820200130002AFAD0810084
:101E50002160281A800060600020C0B270BD00BF01
:101E600070B5044600F0FAFC40F2EC51C2F20001F9
:101E7000096891F83220FF2C214608BF114640F234
:101E8000FC53C2F2000353F82110012905D049B9CF
:101E900000F0E8FC4820C0B270BD00F0E3FC432035
:101EA000C0B270BD121BB2FA82F25209A4F1FF0354
:101EB000B3FA83F35B0943EA020691F8342091F800
:101EC000353040F2E054C2F20004A55C25EA030379
:101ED000A35413F0FF0F09D191F8362040F2D853E4
:101EE000C2F200031D7825EA02021A7091F8302030
:101EF00042F0080281F8302000F0B4FC002E18BF38
:101F0000FEF7ECFA0020C0B270BD00BF70B50D4600
:101F1000064600F0A3FC0446FF2E06D140F2EC502A
:101F2000C2F20000006890F8326040F2FC50C2F249
:101F3000000050F82610012906D059B9204600F0BB
:101F400091FC2920C0B270BD204600F08BFC4320DC
:101F5000C0B270BD28465422FEF71AFC204600F09D
:101F600081FC0020C0B270BD70B514460D4640F231
:101F7000FC51C2F2000140F2EC56C2F20006FF280A
:101F800018BF01EB800600F069FC316801EB8501A8
:101F90000D6D00F067FC00202070284670BD00BF6A
:101FA000F0B581B01C4615460E4640F2FC51C2F217
:101FB000000140F2EC57C2F20007FF2818BF01EB06
:101FC000800700F04BFC396801EB86010D6500F0DD
:101FD00049FC0020207001B0F0BD00BF80B540F288
:101FE000EC50C2F20000006800F036FCFF20BDE8B3
:101FF00080405FE510B50446C0B340F25850C2F2CD
:102000000000007840F25951C2F2000109780843FB
:10201000000618BF10BD00F021FC40F2EC51C2F2E6
:102020000001096891F8342091F835E040F2E05C55
:10203000C2F2000C1CF8023023EA0E030CF8023046
:1020400013F0FF0F0BD191F8362040F2D85CC2F2AA
:10205000000C9CF8003023EA02028CF80020CC62CD
:1020600000F000FCBDE81040FEF738BA10BD00BF1C
:1020700040F2585CC2F2000C9CF800C0BCF1000FAA
:102080001EBF5520C0B2704740F2595CC2F2000C2E
:102090009CF800C0BCF1000F1EBF3220C0B27047D8
:1020A00080B54FF0C80C03FB0CF303F5C87E44F673
:1020B000D353C1F26203AEFB033E4FF46163584356
:1020C000C1EB011100EB8100104400FB0CF000EBB0
:1020D0009E10FFF78FFF0020BDE88040C0B2704720
:1020E00010B504463E2882BF2A20C0B210BD00F0C1
:1020F000B5FB40F2FC51C2F2000151F82410012955
:1021000000D021B900F0AEFB4320C0B210BDCA6AB6
:1021100052B30022CA6291F8303013F0370F1EBF5D
:1021200003F0C80281F83020012281F8312091F8B3
:10213000302012071DD491F8362040F2D853C2F255
:1021400000031C7822431A7091F8342091F835105E
:1021500040F2E053C2F200039C5C2143995400F02A
:1021600081FBFEF7BBF906E000F07CFB5020C0B21B
:1021700010BD00F077FB0020C0B210BD10B500F01C
:102180006DFB40F6A041C2F200010C6800F06AFB52
:10219000204610BDB0B5044640F6A045C2F2000589
:1021A00000F05CFB2C60BDE8B04000F05BBB0000C1
:1021B0002DE9F04381B0984616460F46054640F299
:1021C0005850C2F200000078DDF8289010B10024C9
:1021D0008B201AE0FEF738F900F01EF8044680B1B3
:1021E00009980899A561012284F82520E76184F8FF
:1021F0002460C4F80480A1602062FEF747F9002043
:1022000003E0FEF743F90024862089F80000204609
:1022100001B0BDE8F08300BF40F6A842C2F2000260
:1022200011680020002908BF7047CB68136008615F
:10223000C86041F23810C2F2000002880132028008
:1022400040F6A640C2F200000288013A0280084629
:10225000704700BFB0B50C4605460078642809D128
:1022600040F25850C2F20000007838B100208B21B3
:102270002170B0BD002089212170B0BDFEF7E4F8C7
:1022800095F82500411E022905D368B1032811D114
:10229000284600F015F8284600F038F8FEF7F6F862
:1022A000012000212170B0BDFEF7F0F80020872149
:1022B0002170B0BDFEF7EAF800208D212170B0BD7D
:1022C000416901F0070141F23C1CC2F2000C5CF8CC
:1022D0003120824206D0C3680269D360002B18BF48
:1022E0001A6106E0C3684CF83130002B1CBF002295
:1022F0001A6100220261C260012280F825200CEBE5
:10230000C100818801398180704700BF0021C1610F
:10231000818441614160816045F60C12C0F6000283
:102320000262016140F6A841C2F200010A68C2607F
:10233000086041F23810C2F20000018801390180C2
:1023400040F6A640C2F200000188013101807047CA
:1023500070B514460D4606460078642808D140F250
:102360005850C2F20000007838B10025112001E079
:10237000002589202070284670BDFEF765F896F884
:102380002500411E032908D2306A2860FEF710FAA2
:102390000546FEF77BF80020ECE720B9FEF776F85B
:1023A00000258720E6E7FEF771F800258D20E1E79C
:1023B00070B50C4606460078642808D140F25850A3
:1023C000C2F20000007838B100258B2001E0002522
:1023D00089202070284670BDFEF736F896F8250053
:1023E000032818D8DFE800F0021C070CFEF74EF8AF
:1023F00000258720EDE7FEF749F800200025E8E7F3
:1024000041F23410C2F20000006871690D1AFEF743
:102410003DF80020DDE7FEF739F800258D20D8E7EC
:10242000B56996F82400022806D1002D08BFF56989
:10243000FEF72CF80020CCE7FEF728F80020C8E7CC
:10244000B0B50C4605460078642807D140F25850D4
:10245000C2F20000007830B18B2000E089202070AB
:1024600000252846B0BDFDF7EFFF95F825506FF029
:102470007200042D38BF00202070FEF707F82846B0
:10248000B0BD00BF70B50C4605460078642809D180
:1024900040F25850C2F20000007838B100208B267C
:1024A000267070BD00208926267070BDFDF7CCFF18
:1024B00095F82500411E022905D370B1032812D1D9
:1024C0002846FFF7FDFE00262846002100F012F8FE
:1024D000FDF7DCFF0120267070BDFDF7D7FF00205F
:1024E0008726267070BDFDF7D1FF00208D2626704F
:1024F00070BD00BF032280F82520012901D1C169E8
:1025000003E08169002908BFC16941F23412C2F2B7
:10251000000212681144416101F0070141F23C12CE
:10252000C2F2000252F8313042F831003BB1C360D0
:10253000186102EBC1018A8801328A8005E000231C
:10254000C36002EBC10101228A8000210161704752
:10255000F0B581B01C4616460F4605460078642843
:1025600007D140F25850C2F20000007830B18B2001
:1025700000E089202070002001B0F0BDFDF764FF6D
:1025800095F82500411E022912D3B0B1032818D1B5
:102590002846FFF795FE0020207007B3042F14D0C3
:1025A000032F18D16A68C2B1A9682846904716E07F
:1025B000FDF76CFF8E20207013E0FDF767FF87208A
:1025C000D8E7FDF763FF8D20D4E76A682AB1284673
:1025D0003146904703E0842000E08F202070FDF713
:1025E00055FF012001B0F0BD40F6B040C2F200003E
:1025F0000068FFF7AFB800BF10B540F6B464C2F290
:10260000000420464FF42071FEF7B8F841F23C1068
:10261000C2F200004021FEF7B1F84FF0000E642234
:1026200045F60C1CC0F6000C002300BFE254E01875
:1026300080F825E0C0F820C000F12801C1602833EF
:10264000B3F5167FF2D1002084F87D02642184F86E
:102650005812C4F86402C4F878C241F23411C2F2CC
:102660000001086041F23811C2F20001088040F612
:10267000A640C2F200001021018040F6A840C2F23C
:10268000000004600120FEF755FF40F6AC41C2F2A5
:10269000000108600020FEF74DFF40F6B041C2F295
:1026A00000010860BDE8104000E000BF80B586B0C2
:1026B00003200490002003908020029040F6B44054
:1026C000C2F2000001904FF6FD71009100F5FE721C
:1026D00042F20170C0F6000000210423FFF784F9E4
:1026E00003A10DF117020420FFF7FEFA06B080BD2A
:1026F00075432F4F532D494920546D72000000003F
:102700002DE9F04782B040F6B048C2F200080DF162
:10271000070941F23417C2F2000741F23C1AC2F233
:10272000000A022402E000BFFDF7B0FED8F8000066
:1027300000214A46FEF778FFFDF786FE3868013033
:10274000386000F007005AF8306002E0A9682846B7
:102750009047002EE8D03546F668686939688142AE
:10276000F7D12846FFF7ACFD95F82400022805D1E3
:1027700028460121FFF7BEFE02E000BF85F8254094
:102780006A68002AE2D1E4E740F6A440C2F2000001
:1027900000210180704700BF704700BF704700BF35
:1027A000704700BF704700BF704700BF42F8040C7D
:1027B0004FF0807010606FF0010042F8080C4FF08D
:1027C000123042F80C0C4FF0033042F8100C4FF06E
:1027D000023042F8140C4FF0013042F8180C42F865
:1027E0001C1C4FF0113042F8200C4FF0103042F812
:1027F000240C4FF0093042F8280C4FF0083042F812
:102800002C0C4FF0073042F8300C4FF0063042F8F5
:10281000340C4FF0053042F8380C4FF0043042F8D9
:102820003C0D1046704700BF704700BF704700BFA7
:1028300040F6A440C2F2000001880131018089B253
:10284000142938BF704780B500210180FFF7CCFE06
:10285000BDE88040704700BF70470000EFF3108074
:1028600072B6704780F310887047204C204D256069
:102870004FF0000484F309881E4C4FF001052570C9
:102880001D4C4FF08055256062B6FEE730B41A4CFF
:102890004FF08055256030BC704730B4164C4FF077
:1028A0008055256030BC704700BF72B6EFF30980D9
:1028B00028B1203880E8F00F10490968086000B599
:1028C0000F4880475DF804EB0E480F490A78027004
:1028D0000A480E490A680260106890E8F00F20303C
:1028E00080F309884EF0040E62B6704720ED00E0D8
:1028F0000000FFFFE805002004ED00E0EC050020EB
:10290000292800085A0500205B050020F405002056
:1029100010B501F061F900F087F94FF4806000F024
:1029200029FC44F20044C4F2000404F54C404FF486
:10293000005100F009F804F5744000F03BF820461F
:10294000BDE8104000F036B8B0B582B00C46054680
:102950001020012100F012FFADF8044041F2030005
:10296000ADF8060001A9284600F0B0FC2846214633
:1029700000F022FD02B0B0BD817A002918BF05E049
:1029800000E000BF0189406800F018BD018940687F
:1029900000F012BD10B50446807A28B12046FFF73A
:1029A000F1FF0020A07210BD2046FFF7EFFF0120CD
:1029B000A07210BD80B544F20041C4F2000188420B
:1029C00011D044F60001C4F20001884210D043F651
:1029D0000001C4F20101884218BF80BD00F00EF86A
:1029E000BDE880402AE000F055F8BDE880406FE087
:1029F00000F09AF8BDE88040B6E000BFB0B582B004
:102A00000420012100F0BAFE40F20020C1F60300CC
:102A1000019040F60004C4F2010401AD20462946AD
:102A200000F054FC40F20040C0F203400190204608
:102A3000294600F04BFC02B0B0BD00BF10B586B017
:102A40004FF48040012100F099FE0020ADF8140001
:102A50004FF4E13102914FF440210491039043F689
:102A60000004C4F2010402A9204600F03BFF204606
:102A700040F22551012200F0AFFF2046012100F075
:102A8000A1FF2520C0F20010019001A800F07CFBFE
:102A900006B010BDB0B582B00420012100F06EFE7A
:102AA0000420C1F60300019040F60004C4F20104C2
:102AB00001AD2046294600F009FC0820C0F2034081
:102AC00001902046294600F001FC02B0B0BD00BFD5
:102AD00010B586B04FF40030012100F05BFE0020FD
:102AE000ADF814004FF4E13102914FF4402104910C
:102AF000039044F20044C4F2000402A9204600F00E
:102B0000F1FE204640F22551012200F065FF2046EB
:102B1000012100F057FF2620C0F20110019001A80A
:102B200000F032FB06B010BDB0B582B00820012124
:102B300000F024FE40F20040C1F60300019040F690
:102B40000044C4F2010401AD2046294600F0BEFB5A
:102B500040F60000C0F2034001902046294600F0F4
:102B6000B5FB02B0B0BD00BF10B586B04FF48020F9
:102B7000012100F00FFE0020ADF814004FF4E13108
:102B800002914FF440210491039044F60004C4F2F2
:102B9000000402A9204600F0A5FE204640F225517F
:102BA000012200F019FF2046012100F00BFF272031
:102BB000C0F20210019001A800F0E6FA06B010BDC4
:102BC0000268138813F0400FFAD09180704700BF5D
:102BD000002A08BF704700BFD0F800C0BCF8003022
:102BE00013F0400FF8D011F8013BACF80430013A73
:102BF000F2D1704791F800C005E000BF5FFA8CF297
:102C00009A8011F801CFBCF1000F08BF704700BFD8
:102C100003681A8812F0400FFAD0EFE7FDF714BCF2
:102C2000FDF734BCFFF7E6B980B56FF0040000F0A3
:102C3000F3FA41F27C10C2F200000121017040F26F
:102C40000000C2F2000000684DF68361C4F21B313F
:102C5000A0FB0101480D41F27D11C2F20001087094
:102C60004EF21001CEF200010A6842F002020A6040
:102C700041F2883250434860086840F00100086023
:102C800080BD00BF70B54EF21804CEF2000454F8B7
:102C9000045C41F27D11C2F20001097801FB00F6EB
:102CA000FFF7BCFF2168002022689142FCD0084455
:102CB000801A914298BF2844B0421146F4D3BDE82F
:102CC0007040ADE710B5044640F2E850C2F2000093
:102CD000007810B340F25850C2F200000078E0B91A
:102CE00041F27C10C2F200000078002818BF0520D5
:102CF000A04208D84CF6CD40CCF6CC40A4FB000155
:102D00008808FFF78FFF4CF6CD40CCF6CC40A4FBF3
:102D10000001880800EB8000241AA0B24FF47A71F9
:102D20004843BDE81040ADE710B540F60440C4F29A
:102D30000100016821F470210160016841F4403113
:102D4000016048F2B014C4F2212400202060142055
:102D5000FFF7B8FF012020601E20BDE81040FFF7FC
:102D600091BF00BFB0B540F60440C4F20100016855
:102D700021F470210160016841F40021016048F2F2
:102D80003014C4F22124206880B1002005460120BF
:102D9000FFF778FF2168681CC2B2632A01D80029B6
:102DA000F4D1E8B2622884BF0120B0BD20680028B9
:102DB0001CBF0020B0BD002005460120FFF762FFC8
:102DC0002168681CC2B2632A01D80029F4D0E9B294
:102DD0000020622988BF0120B0BD00BFB0B548F215
:102DE0003014C4F22124206850B100250120FFF7DF
:102DF00049FF20680135E9B2632901D80028F5D1DF
:102E0000206858B9002500BF0120FFF73BFF20686C
:102E10000135E9B2632901D80028F5D02820FFF751
:102E200031FF2068002818BF0120B0BDB0B50024D4
:102E3000002500BFFFF7D2FF40EA44040135E8B2A5
:102E40000828F7D3E0B2B0BD2DE9F04F83B00D46AE
:102E50008246FFF769FFFFF785FF00281EBF0120AC
:102E600003B0BDE8F08F00240DF10706FFF7DEFF89
:102E700030550134052CF9D19DF807009DF8084024
:102E80009DF809709DF80A602118394431449DF875
:102E90000B20914231D102F087FB02F0F7FA834612
:102EA0008846204602F0F6F849F69A14C9F69914B5
:102EB00049F69919C3F6B97922464B4602F0FEF855
:102EC0005A46434602F03EF802F00AF828603846B7
:102ED00002F06AFB02F0DAFA05460F46304602F0CD
:102EE000D9F822464B4602F0E9F82A463B4602F062
:102EF00029F801F0F5FFCAF80000002003B0BDE892
:102F0000F08F00BF10B582B00820012100F036FC20
:102F100041F20000C1F20300019040F60044C4F207
:102F2000010401A9204600F0D1F920464FF4805158
:102F300000F042FAFFF7F8FEFFF714FF02B010BDF1
:102F40004EF6FC51CEF20001096811F0807F08BFF7
:102F500070474FF0604100BF0A68002AFCD04FF074
:102F600060410870704700BF80B5FFF7D1FCFDF7E6
:102F700017F940F26800C2F2000000F1FC0242F6CC
:102F80009970C0F6000000210A23FEF7DFFCFDF770
:102F9000DFFA00BFFEE7000010B5FFF75FFC044654
:102FA00040F26810C2F2000000F5FE7242F6CD70E9
:102FB000C0F6000000210523FEF7C8FC2046FFF7FD
:102FC00051FC0A20BDE81040FEF74ABF2DE9F04F42
:102FD00097B00025009544F20044C4F2000404F5C3
:102FE0004C4114A84FF40052012301F071FB04F589
:102FF000744113A801F078FB12A8214601F074FB7C
:10300000FFF780FF0020002100224FF47A73FFF7C2
:103010002FF8119510950F950FA800F1080A071DBC
:1030200005AC0FF2700B00BF0FA83946FFF70CFF7D
:10303000386802F02BFA06460D46DAF8000002F076
:1030400025FA804689460F9802F020FA02460B4680
:10305000CDF80C90CDF80880019500962046594691
:1030600000F086FE13A82146FFF7C4FD14A8FFF761
:1030700091FC0020002100224FF4FA73FEF7F8FFC4
:10308000DAF800004FF07E5102F02CFACAF8000086
:10309000CAE700BF25342E316620616E64202534D6
:1030A0002E31662025352E30660D0A00704700BF90
:1030B000FEE700BFFEE700BFFEE700BFFEE700BF80
:1030C000704700BF704700BF10B5FFF7C7FB04464D
:1030D000FDF742F92046FFF7C5FBFDF763FABDE8AF
:1030E0001040FDF74BB900BFB0B582B0FFF7B6FB9B
:1030F0000446FDF731F92046FFF7B4FB43F6000420
:10310000C4F20104204640F2255100F01DFD0128C3
:103110000AD1204600F0B0FC054601A8214601F086
:10312000E3FAE9B2FFF74CFDFDF728F902B0B0BDB4
:1031300010B5FFF793FB0446FDF70EF92046FFF7A5
:1031400091FB44F20044C4F20004204640F22551B1
:1031500000F0FAFC012802D1204600F08DFCBDE809
:103160001040FDF70BB900BF704700BF704700BFAC
:103170007047000040F0806040F0FD704EF60C514A
:10318000CEF2000108607047C2784EF20011CEF214
:103190000001EAB110B54EF60C52CEF200021268F0
:1031A000072323EA12220F23D34090F800C090F89F
:1031B00001E084782340C2F104020EFA02F21A43BD
:1031C000120101EB0C0383F80023BDE8104000E07E
:1031D0008031007800F01F02012303FA02F2C0F3ED
:1031E000421041F8202070474FF68072C1F6FF72FE
:1031F000114008434EF60851CEF2000108607047B6
:103200004EF61052CEF20002002911680CBF21EADE
:1032100000000843106070474EF21001CEF200012A
:103220000A6822F00403042808BF42F004030B607C
:103230007047000080B5A0F18040A0F584304FEACF
:10324000B020062888BF80BDDFE800F0040A101611
:103250001C2228000420012100F0A8FA042024E008
:103260000820012100F0A2FA08201EE01020012110
:1032700000F09CFA102018E02020012100F096FABE
:10328000202012E04020012100F090FA40200CE0C4
:103290008020012100F08AFA802006E04FF480703F
:1032A000012100F083FA4FF480700021BDE88040D6
:1032B00000F07CBA80B50120012100F077FA0120EE
:1032C0000021BDE8804000F071BA00BF2DE9F04355
:1032D00091F803E00EF00F0C1EF0100F1CBF8A785F
:1032E0004CEA020C098811F0FF0F20D0036800227D
:1032F0004FF001094FF00F08002600BF09FA06F74A
:103300000F420FD00CFA02F508FA02F4A3432B4344
:10331000BEF1480F04D0BEF1280F08BF476101E09D
:10332000076100BF04320136082EE7D10360B1F512
:10333000807F38BFBDE8F083436800224FF4807976
:103340004FF00F08002600BF09FA06F707EA01054B
:10335000BD420FD10CFA02F508FA02F4A3432B4345
:10336000BEF1480F04D0BEF1280F08BF476101E04D
:10337000076100BF04320136082EE5D14360BDE885
:10338000F08300BF4FF6FF71C0F202410160704749
:103390008068084018BF0120704700BF806880B275
:1033A000704700BFC068084018BF0120704700BFC9
:1033B000C06880B2704700BF0161704741617047CB
:1033C0001023002A08BF1423C1507047C160704702
:1033D00041F48032826181618261816980697047D4
:1033E00041EA00100021C4F201010A684FF680731F
:1033F0001A401043086070471C21C4F22021086065
:10340000704700BF10B50422C4F201020028134621
:10341000B8BF43F018031B681FFA80FCC0F3034ECB
:1034200000F44014B4F5401F07D1146824F0706410
:10343000146023F0706381B916E0C40206D447F625
:10344000F07404EA50440CFA04F402E0032404FA91
:103450000EF4A34343F0706331B147F6F07101EA13
:1034600050410CFA01F10B430028B8BF1832136029
:1034700010BD00BF80B50C2202EA81020F2303FABF
:1034800002FC01F0FC0140F2080EC4F2010E51F8FA
:103490000E3023EA0C0341F80E30904051F80E2014
:1034A000104341F80E0080BDDC21C4F220210860E9
:1034B0007047000041F20000C4F20200016841F0D0
:1034C0000101016041680022CFF6FF021140416016
:1034D00001684FF6FF72CFF6F66211400160016895
:1034E00021F480210160416821F4FE0141604FF424
:1034F0001F018160704700BF41F20001C4F2020168
:103500000A6822F480320A600A6822F480220A6083
:10351000B0F5803F05D0B0F5802F18BF70474FF44D
:10352000A0200A6810430860704700BF80B582B0D1
:1035300000200190312000F011F801990131019132
:10354000019910B9B1F5A06FF4D1312000F006F85F
:10355000002818BF012002B080BD00BF41F2000169
:10356000C4F202010122B2EB501F04D04309022B26
:103570000CBF2031243100F01F0002FA00F009686E
:10358000084018BF0120704741F20001C4F2020157
:103590000A6822F0F80242EAC0000860704700BFE3
:1035A0000021C4F242210860704700BF084341F285
:1035B0000401C4F202010A6822F47C12104308607C
:1035C000704700BF6021C4F242210860704700BF0D
:1035D00041F20401C4F202010A6822F0030210431E
:1035E0000860704741F20400C4F20200006800F075
:1035F0000C00704741F20401C4F202010A6822F093
:10360000F00210430860704741F20401C4F2020165
:103610000A6822F4E06210430860704741F2040136
:10362000C4F202010A6822F4605242EAC000086053
:10363000704700BF41F20902C4F20202002911786A
:103640000CBF21EA0000084310707047D821C4F273
:1036500042210860704700BF41F20401C4F2020138
:103660000A6822F4404210430860704741F220018A
:10367000C4F2020100220A700A70012803D0042853
:1036800018BF704705200870704700BF40F28041A6
:10369000C4F242210860704741F22001C4F20201E5
:1036A0000A6810430860704740F23C41C4F242216E
:1036B0000860704780B541F2040EC4F2020EDEF8D5
:1036C000002002F00C0341F20022C0F27A02082B23
:1036D0001FD1DEF80030C3F3834303F1020CDEF8A0
:1036E000003013F4803F06D140F60012C0F23D02D4
:1036F0000CFB02F20DE0DEF8003013F4003F02D1C3
:103700000CFB02F205E040F60012C0F23D020CFB99
:1037100002F20260DEF80020C2F3031245F2FC73ED
:10372000C0F600039A5C0168D1404160DEF80020D9
:10373000C2F302229A5C21FA02F28260DEF80020D3
:10374000C2F3C2229A5CD140C160DEF80020C2F30D
:10375000813245F2E873C0F600039A5CB1FBF2F1E6
:10376000016180BD41F21402C4F202020029116815
:103770000CBF21EA000008431060704741F21802B4
:10378000C4F20202002911680CBF21EA00000843BC
:103790001060704741F21C02C4F202020029116855
:1037A0000CBF21EA000008431060704741F20C0290
:1037B000C4F20202002911680CBF21EA000008438C
:1037C0001060704741F21002C4F202020029116831
:1037D0000CBF21EA000008431060704740F24041EE
:1037E000C4F24221086070474C21C4F242210860B3
:1037F000704700BF41F20701C4F202010870704730
:1038000041F22400C4F20200016841F080710160BD
:10381000704700BF41F20801C4F202010968084084
:1038200018BF0120704700BF41F20A01C4F2020133
:103830000870704780B544F6FF31C4F20001884239
:103840001EDD44F60041C4F2000188422CD045F24E
:103850000001C4F2000188422ED043F60001C4F2F8
:103860000101884218BF80BD4FF480400121FFF75D
:103870009DFF4FF480400021BDE88040FFF796BFD8
:1038800044F20041C4F2000188421DD044F6000118
:10389000C4F20001884223D14FF480200121FFF7B8
:1038A00091FF4FF4802016E04FF400200121FFF734
:1038B00089FF4FF400200EE04FF480100121FFF744
:1038C00081FF4FF4801006E04FF400300121FFF734
:1038D00079FF4FF400300021BDE88040FFF772BF50
:1038E00080BD00BF70B586B00D460446008AC98809
:1038F00020F4405008432082A0894EF6F31108407E
:10390000A98808432989084369890843A081A08AB6
:10391000A98920F440700843A08201AE3046FFF729
:10392000C9FE06F1080043F60001C4F201018C4211
:1039300008BF06F10C00006819214843A189022242
:10394000A2EBD1312A6802FA01F1B0FBF1F048F2A2
:103950001F51C5F2EB11A0FB01235A096FF063035D
:1039600002FB0300A3890426A6EBD336B040323015
:10397000A0FB0101072040EA133080F0080000EAB4
:10398000511040EA0210208106B070BD4FF416516C
:103990000160002141604FF44022826081817047C4
:1039A000028A0B8822F470621A434B881A438B8870
:1039B0001A43C98811430182704700BF002141604A
:1039C00001607047828942F40053002908BF22F445
:1039D00000538381704700BF01F01F0C012303FADD
:1039E0000CFCC1F342131421022B08BF1021012B40
:1039F00008BF0C21002A42580CBF22EA0C0242EAFE
:103A00000C024250704700BF002A828A0CBF22EA93
:103A10000101114381827047028A22F00F02028263
:103A2000028A114301827047828922F400628281F6
:103A30008289114381817047828942F00203002903
:103A400008BF22F002038381704700BF028A22F080
:103A500020020282028A114301827047028A42F4E4
:103A60008043002908BF22F480430382704700BFCF
:103A70006FF35F218180704780886FF35F2070470C
:103A8000818941F001018181704700BF028BD2B270
:103A90000283028B42EA012101837047028B22F0EC
:103AA000FF020283028B114301837047828A42F036
:103AB0002003002908BF22F020038382704700BF43
:103AC000828A42F01003002908BF22F0100383828B
:103AD000704700BF828A42F00803002908BF22F025
:103AE00008038382704700BF828913466FF3DF3378
:103AF000002918BF42F4004383817047828A42F450
:103B00000063002908BF22F400638382704700BF6E
:103B1000828A22F004028282828A11438182704763
:103B2000828A42F00203002908BF22F00203838246
:103B3000704700BF0088084018BF0120704700BFD1
:103B4000C9430180704700BF01F01F02012303FA3F
:103B500002F2C1F34213022B06D0012B14BF00F175
:103B6000140300F10C0301E000F110031B881A405C
:103B700018BF0122090A012303FA01F10088084055
:103B800018BF012010407047090A012202FA01F112
:103B9000C943018070470000094880470948004731
:103BA000FEE7FEE7FEE7FEE7FEE7FEE7FEE7FEE7ED
:103BB000FEE7FEE704480549054A064B704700004A
:103BC000D93B0008ED00000880110020801700207C
:103BD000801300208013002080B541F20000C4F261
:103BE0000200016841F00101016041680022CFF646
:103BF000FF021140416001684FF6FF72CFF6F66296
:103C000011400160016821F480210160416821F4C4
:103C1000FE0141604FF41F01816000F009F84EF68B
:103C20000850CEF200004FF00061016080BD00BF7F
:103C300038E000BF41F20400C4F20200016801F064
:103C40000C0241F20021C0F27A01082A18D1026860
:103C5000C2F383420232036813F4803F05D140F679
:103C60000011C0F23D0151430AE0036813F4003F24
:103C700001D1514304E040F60011C0F23D0151432F
:103C800040F20002C2F2000211600068C0F30310AB
:103C900045F2EC71C0F60001085C116821FA00F0F1
:103CA0001060704782B000200190009041F2040043
:103CB000C4F2020050F8041C41F4803140F8041CA6
:103CC00050F8041C01F40031009101990131019177
:103CD000009919B90199B1F5A06FF1D150F8041C00
:103CE00011F4003F0CBF002101210091009901292E
:103CF0003BD1D0F8FC1F41F01001C0F8FC1FD0F8F8
:103D0000FC1F21F00301C0F8FC1FD0F8FC1F41F09C
:103D10000201C0F8FC1F01680160016801600168D0
:103D200041F480610160016821F47C110160016847
:103D300041F4E811016050F8041C41F0807140F832
:103D4000041C00BF50F8041C11F0007FFAD0016879
:103D500021F003010160016841F00201016000BF30
:103D6000016801F00C010829FAD102B07047000087
:103D70000FB41CB5074B06AA7B4469460090059812
:103D800000F017FB0020694600F026FB1CBC5DF824
:103D900014FB00005D06000070B5044685690068EC
:103DA000C10601D5302600E02026C00707D070BD2F
:103DB000D4E9012130469047206A401C20626D1EE4
:103DC000F6D570BD70B5044685690078C00707D187
:103DD00070BDD4E9012120209047206A401C206258
:103DE0006D1EF6D570BD2DE9F0474FF0000A8946EB
:103DF0000446C0F820A02046E1688847002876D015
:103E0000252806D0D4E901219047206A401C206271
:103E1000F1E7E168204600258847C4F81CA0064663
:103E20000027C4F818A02A2E09D0304601F03AF82D
:103E300038B304EB8708303EC8F8186019E059F829
:103E4000041B204604EB87029161E1688847012F3B
:103E5000064618D1E069002820DA25F020051DE08B
:103E6000D8F8180000EB800006EB40003038C8F8A6
:103E700018002046E1688847064601F013F800283C
:103E8000EED1012F0AD02E2E08D12046E1688847B6
:103E90007F1C0646022F45F02005C4DBA0690028E0
:103EA00003DA404245F00105A061E80701D025F0A2
:103EB0001005B6B1A6F14100192802D8203645F404
:103EC00000654A463146204625604D46FCF748F9D4
:103ED00058B1012806D0ED1D25F0070000F10809B2
:103EE00089E704E005F1040985E730468AE7206A9E
:103EF000BDE8F0874FF000020429C0F0128010F0F6
:103F0000030C00F01B80CCF1040CBCF1020F18BFB5
:103F100000F8012BA8BF20F8022BA1EB0C0100F048
:103F20000DB85FEAC17C24BF00F8012B00F8012B1B
:103F300048BF00F8012B70474FF0000200B5134650
:103F400094469646203922BFA0E80C50A0E80C50B9
:103F5000B1F12001BFF4F7AF090728BFA0E80C506A
:103F600048BF0CC05DF804EB890028BF40F8042B63
:103F700008BF704748BF20F8022B11F0804F18BFD0
:103F800000F8012B70477047704770472DE9FF4FCD
:103F90000C461E464FF0FF378BB0D2E90001DDF82A
:103FA00060800A908A46C1F30A5505B93D46002152
:103FB00008464FF00000BAF1000F00F4400005DAA7
:103FC00000EB80004FF4400101EA50004FEA9059A5
:103FD000B9F1010F00DDB9460A9850EA4A000ED047
:103FE00044F61050A5F2FF3545432F14B8F1000FE9
:103FF0001ED07542291E1EDDC9F100021CE0B8F179
:10400000010F4FF0000001D0302103E0F24305E042
:104010002154401CB042FBDB3046002200212154D9
:104020000B99C1F80880C1E900200FB0BDE8F08FFE
:10403000BD1B6D1CDEE74A4600DA694206A800F0A7
:1040400061FA06AB93E8070003AB83E8070050462C
:104050000A9900F04BFB8DE80700A0F500501F38CF
:1040600000900398002D0ADD42F21F014A460844E1
:10407000002303A90390684600F0B4FD09E0A0F511
:1040800000504A461F38002303A90390684600F0F9
:10409000BEFD8DE807000004000C03D04FF0FF3098
:1040A000410800E01046B8F1000F03D00022009252
:1040B00015461EE0751E05D400F09EF9303262559B
:1040C0006D1EF9D5B3460122084302D000227F1CA1
:1040D00004E02078302801D100227F1E002A0997B1
:1040E00084D01DE0112D07DA00F086F930326255D8
:1040F0006D1C50EA0102F5D1084302D00098C8B106
:104100000EE00021681E05E0235C625C63542254CB
:10411000401E491C8142F7DBAB46A81B401E09909C
:10412000002004F80B000B98099AC0F80880C0E939
:10413000002B7AE711264FF0000857E72DE9F04FE2
:1041400088460446D21D22F0070191B0D1E9000152
:10415000CDE90A0100F092FE02460B98C00F01D093
:104160002D2007E02068810701D52B2002E02021C7
:1041700001EAC000032A099001D0072A05DB0346A3
:104180004146204600F07EF90BE12078800601D5FB
:10419000E06900E00620B8F1650F814606D0B8F16D
:1041A000660F18D0B8F1670F70D131E00020B9F177
:1041B000110F009001DB112301E009F101030AAAAC
:1041C00001A90CA8FFF7E2FEDDE90C70002609F159
:1041D0000105834647E001204B4600904FF0004721
:1041E0000AAA01A90CA8FFF7D1FEDDE90DB00C99D0
:1041F0005D46002610B909F101000D18B9EB050064
:1042000003D4C0F1FF3609F10105A5EB09002BE04D
:10421000B9F1010F01DA4FF001090020B9F1110FD6
:104220000090484601DD112300E003460AAA01A9D7
:104230000CA8FFF7ABFEDDE90C704D460026834667
:10424000207800070AD4AB4500DA5D4601A8012DAD
:1042500004DD411911F8011C302907D04F4502DA5D
:1042600017F1040F04DA012082460FE06D1EEEE71D
:10427000002F02DCED1B3E4403E0781CA84200DD69
:104280007D1CB81B00F1010A4FF0004720780007A1
:1042900003D4AA4501DB4FF0FF3A0021B7F1004FEC
:1042A0000DF143088DF8431024D002202B23002F5A
:1042B00001DA7F422D230A21021EA0F1010000DC59
:1042C0005FB197FBF1FC97FBF1F201FB1C7C1746F9
:1042D0000CF1300C08F801CDEEE7A8F101000370F5
:1042E0002188090501D5452100E06521A0F10108DB
:1042F00000F8011C09980FA9A1EB0807FF1D00B1E8
:104300000120411901EBEA70A1693844081A401EE6
:10431000A0612078C00602D42046FFF73DFD099831
:1043200028B1D4E901219047206A401C20622078FE
:10433000C00622D52046FFF72FFD1EE0002E04DB2D
:10434000B34502DD01A8805D00E03020D4E9012101
:104350009047206A401C2062761CAAF101005FEAA7
:10436000000A0AD100F044F8C0680168405CD4E952
:1043700001219047206A401C2062281EA5F10105FA
:10438000DCDC07E0D4E9012118F8010B9047206A32
:10439000401C2062381EA7F10107F3DC2046FFF71E
:1043A00011FD032011B041E601694A1C0261087841
:1043B000704700B58FB0CDE9013100210591054965
:1043C0007944CDE9031011466846FFF70CFD0FB0A4
:1043D00000BD0000E5FFFFFF0A6802F8010B0A605C
:1043E0007047000001491820ABBEFEE7260002001E
:1043F000004870472800002030B5B0F10A0271F182
:1044000000034FEA900E4EEA817EB0EB0E0061EBA6
:1044100091014FEA101E4EEA017E10EB0E0041EBB7
:1044200011114FEA102E4EEA016E10EB0E0041EB17
:1044300011214FEA104E4EEA014E10EB0E0041EBF7
:104440001141401841F100014FEAD00040EA4170AB
:104450004FEAD1014FEA810444EA907410EB8005E1
:1044600044EB01046D1944EB0404521BA3414FF0CB
:10447000000348BF0A3200D530BD401C41F10001A5
:1044800030BD00002DE9F0411F46044603260168B7
:10449000072A01F4006004DB08B116A505E016A5A3
:1044A00003E008B115A500E015A521F0100020607B
:1044B000A069C01EA0610FB1401EA0612046FFF799
:1044C0006BFC4FB1D4E9012138469047206A401C6B
:1044D0002062C01C206206E0206AFAE7D4E90121CC
:1044E00015F8010B9047761EF8D22046FFF76AFCBC
:1044F000BDE8F0814E414E006E616E00494E4600AF
:10450000696E66002DE9F047814616468AB0354847
:1045100078440DC88DE80D0032487844801C03AC07
:104520000DC884E80D0041F69B300844372190FB0C
:10453000F1F290FBF1F5A5F1800501FB12041B3CA3
:1045400002D56442012000E00020DFF898A08046F8
:104550000027FA44AAF1BE0A0EE0E0070AD032466C
:10456000684607EB470101230AEB810100F04FFB8E
:104570008DE8070064107F1C002CEED1194F7F449A
:10458000AE3F19E0E80715D007EB04100DF1180A4B
:1045900090E80E008AE80E00C068F04201D1981938
:1045A00008903246012306A903A800F030FB03ABB4
:1045B00083E807006D10641C002DE3D14FF0010368
:1045C00032466946B8F1000F03A802D000F00AFB9A
:1045D00001E000F01CFBC9E90001C9F808200AB09D
:1045E000BDE8F087BC1200000048704708000020BA
:1045F00070477546FFF7F8FFAE460500694653461B
:1046000020F00700854618B020B5FFF7D3FABDE8C3
:1046100020404FF000064FF000074FF000084FF029
:10462000000BAC46ACE8C009ACE8C009ACE8C00976
:10463000ACE8C00921F007018D46704710B504466B
:10464000AFF300802046BDE81040FBF7A3BD00009B
:104650004FF0013C50F8042B51F8043B9A4221D111
:10466000A2EB0C03934313EACC1317D150F8042B9D
:1046700051F8043B9A4215D1A2EB0C03934313EA81
:10468000CC130BD150F8042B51F8043B9A4209D1BA
:10469000A2EB0C03934313EACC13DBD04FF00000E2
:1046A000704700BFD01A01BAB1FA81F101F01801C8
:1046B00022FA01F0CB40DBB2C0B2C01AC1F1200136
:1046C0002CFA01F3D11A914311EAC311E6D17047D4
:1046D00010B504464160036002810298A072204632
:1046E000FEF74AF9204610BD016070475FEA400CB2
:1046F00008BF91F0000F4FEA8C234FEAC12243EA32
:1047000051514FEA1C5018BF00F5F0404FEA3000FD
:1047100018BF41F000415FEA6C5C00F02980BCF1F9
:10472000FF3F08BF40F080407047130C06BF1204E3
:104730004FF0100C4FF0000C130E04BF12020CF1DE
:10474000080C130F04BF12010CF1040C930F04BFEB
:1047500092000CF1020CD30F04BF52000CF1010CBB
:1047600011464FF00002A0F11F00A0EB0C007047B3
:1047700011F0004F08BF704731F000413FF4D5AF52
:104780000B0C06BF09044FF0100C4FF0000C0B0E81
:1047900004BF09020CF1080C0B0F04BF09010CF156
:1047A000040C8B0F04BF89000CF1020CCB0F04BF6B
:1047B00049000CF1010CCCF1200322FA03F341EA89
:1047C000030102FA0CF2A0EB0C0000F101007047AB
:1047D00023F07F4720F07F4C80EA030000F0004088
:1047E000ACEB070303F57C5303F1FF032DE980498C
:1047F00009B44FEA144324EA03484FEA154B25EA6B
:104800000B4E0FF2042606EB13273E7803FB0667D8
:10481000C7F5000707FB06F64FEAD64606F1020683
:104820004FEA543707FB066CCCF1005C4FEA1C479B
:104830002CEA074C0CFB06F507FB06F404EB1546C7
:104840004FEA961649085FEA320234BF00204FF063
:1048500000404FEAD13706FB07FC4FEA1C4C0CFB2B
:104860000BF7D21B03FB0CF761EB07010CFB0EF7F8
:10487000B0EB074072EB17420CFB08F734BFA2EB1A
:104880000742B2EB074261EB17414FEA0C444FEA93
:10489000910706FB07FC4FEA1C4C0CFB0BF7B0EB37
:1048A000C74072EB573203FB0CF734BFA2EBC74291
:1048B000B2EBC74261EB57310CFB0EF7B0EBC70010
:1048C00072EB57720CFB08F734BFA2EBC702B2EBD6
:1048D000C70261EB57714FEA816141EA92114FEAD9
:1048E000826242EA90124FEA806004EBCC04039F9C
:1048F0004FEAD13706FB07FC4FEA1C4C0CFB0BF7C9
:10490000D21B03FB0CF761EB07010CFB0EF7B0EBBE
:10491000074072EB17420CFB08F734BFA2EB0742CB
:10492000B2EB074261EB17414FEA8C5504EB9C2434
:104930004FEA910706FB07FC4FEA1C4C0CFB0BF7F8
:10494000B0EBC74072EB573203FB0CF734BFA2EB5E
:10495000C742B2EBC74261EB57310CFB0EF7B0EB2D
:10496000C70072EB57720CFB08F734BFA2EBC7020B
:10497000B2EBC70261EB57714FEA816141EA9211D4
:104980004FEA826242EA90124FEA806015EB4C25B2
:1049900044F100044FEAD13706FB07FC4FEA1C4CF8
:1049A0000CFB0BF7D21B03FB0CF761EB07010CFBB5
:1049B0000EF7B0EB074072EB17420CFB08F734BF61
:1049C000A2EB0742B2EB074261EB17414FEA81319C
:1049D00041EA92414FEA823242EA90424FEA803005
:1049E0004FEA0C7615EB1C1544F1000448EA03432A
:1049F0004EEA0B484FF0000EB2EB080C71EB0307C8
:104A000024BF624639464EEB0E0E4FF0000B0018E5
:104A1000524149414BEB0B0BB2EB080C71EB030716
:104A20007BF1000B24BF624639464EEB0E0E4FF071
:104A3000000B0018524149414BEB0B0BB2EB080C39
:104A400071EB03077BF1000B24BF624639464EEB46
:104A50000E0E51EA020718BF46F0010616EB0E765D
:104A600055F1000254F1000103D5BDE88901BDE80C
:104A70000088BDE88901BDE80048B619524141EB04
:104A80000101A3F10103704780807F7E7D7C7B7AEA
:104A90007978777676757473727171706F6E6E6DEA
:104AA0006C6C6B6A6A696868676666656464636390
:104AB00062616160605F5F5E5E5D5D5C5C5B5B5A16
:104AC0005A59595858575756565555555454535383
:104AD00052525251515050504F4F4F4E4E4D4D4DDE
:104AE0004C4C4C4B4B4B4A4A4A4949494848484729
:104AF0004747474646464545454444444443434367
:104B000043424242424141419C46002B30D477000F
:104B10002BD04FEA37071CB503B44FF010004FF00D
:104B20001001BAF1000F06D0BCF1000FDCBF40F05D
:104B3000080040F008014FF000000FBCBDE8104035
:104B40000BF1010BBBF1010F08BF5FEA170722BF92
:104B500012F1010211F101014FF0004143F1000394
:104B600000F0004043EA00007047F9D35708D0E74F
:104B700046EA06464FEA164613F1400F1FDD13F1D1
:104B8000200FDFBF16430A46002120335B42BED010
:104B9000C3F1200746EA06464FEA164602FA07F72F
:104BA00046EA070622FA03F2C3F1200701FA07F7E3
:104BB00042EA070221FA03F14FF00003A7E746EAB1
:104BC000020646EA06464FEA164646EA0106BCBF1A
:104BD00046EA0646360C4FF000034FF000024FF055
:104BE000000194E72DE9804C70B49A46934691E811
:104BF000380007C831EA400C48BF34EA430C03D5FB
:104C0000FFF7E6FDFFF780FFF0BCBDE8008C2DE963
:104C1000804C70B49A46934691E8380007C810F06B
:104C2000804F08BF13F0804F03D100F005F8FFF765
:104C30006BFFF0BCBDE8008C20F07F4723F07F4C79
:104C400080EA030000F0004007EB0C03A3F57C535F
:104C5000A3F1FE0392F0000F00F0B38095F0000F77
:104C600000F077802DE901494FEA114021EA004820
:104C70004FEA144624EA064700FB06FC08FB06F64A
:104C800007FB08F818EB06484CEB164C00FB07F73F
:104C900018EB07484CEB17404FEA124B22EA0B4E39
:104CA0004FEA154625EA06470BFB06FC0EFB06F607
:104CB00007FB0EFE1EEB064E4CEB164C0BFB07F7EC
:104CC0001EEB074E4CEB174B18EB0B0840F10000A6
:104CD00018EB0E0B58EB000840F100008F1A4FF054
:104CE00000014FF000063CBFC943661B14BFB5EB83
:104CF000040C00213CBFC943F61B4FEA174427EAC6
:104D000004454FEA1C472CEA074C04FB076205FBED
:104D100007F70CFB05F616EB074642EB174204FBC0
:104D20000CFC16EB0C4642EB1C421BEB060658EB48
:104D3000020241414EEA8E0E46EA9E0601D5BDE8CA
:104D40000189B619524141EB0101A3F10103BDE80C
:104D500001894FEA144524EA05464FEA114721EA42
:104D6000074C05FB07F406FB07F70CFB06F111EBFC
:104D7000074144EB174405FB0CFC11EB0C4144EBE1
:104D80001C444FEA124722EA074C05FB07F206FBD8
:104D900007F70CFB06F616EB074642EB174205FB3E
:104DA0000CFC16EB0C4642EB1C456A1854F1000152
:104DB00048BF7047B619524141EB0101A3F101030D
:104DC000704795F0000F37D04FEA114221EA0246B2
:104DD0004FEA144724EA074C02FB07F106FB07F7EA
:104DE0000CFB06F414EB074441EB174102FB0CFCEF
:104DF00014EB0C4441EB1C414FEA154725EA074CE4
:104E000002FB07F506FB07F70CFB06F616EB074659
:104E100045EB174502FB0CFC16EB0C4645EB1C4220
:104E2000121951F1000148BF7047B619524141EBC8
:104E30000101A3F1010370474FEA144524EA054636
:104E40004FEA114721EA074C05FB07F106FB07F77C
:104E50000CFB06F212EB074241EB174105FB0CFC81
:104E600012EB0C4251EB1C414FF0000648BF70475B
:104E7000921841EB0101A3F101037047490050EA88
:104E8000C12018BF04204A0D18BF40F0010040F2B5
:104E9000FF72B2EB515F08BF40F00200012808BF6B
:104EA0000520704730380A2801D2012070470020C1
:104EB0007047000010B500290AD00878002807D0F4
:104EC00005487844FFF7C4FB002801D0002010BD3E
:104ED0000248784410BD00006E0A0000660A000017
:104EE00021F0004201F00043A2F16052B2F5801FB0
:104EF00028BFD2F17F6C0BD95FEA001C43EAC202E3
:104F000042EB507018BF704728BF20F00100704777
:104F1000B2F5801FBCBF184670474FEA410C1CF524
:104F2000001F02D2084600F098BB70B500F070F97F
:104F300000000089FFF7F6BF4FF00040A0F58000A9
:104F40007047000010B591EA030F48BF83F000439B
:104F500000F1BA81841A71EB030C05D2121943EBEC
:104F60000C03001B61EB0C014FEA1154A4EB135C22
:104F7000DFF81CE11EEA430F18BF9EEA445F73D0BE
:104F800021EA045123EA0E0343F48013DCF1200EDE
:104F900032D322FA0CFE10EB0E0023FA0CFE41EB8A
:104FA0000E01CCF1200E03FA0EFE10EB0E00CCF138
:104FB000200E51F10001B1F5801F32D201EB0451F6
:104FC00012FA0EF2BDE8104058BF7047401C38BFBF
:104FD0005FEA420218BF7047002814BF20F00100AA
:104FE00041F100014FEA410313F5001F38BF70473C
:104FF000A1F1C04100F05AB9012A43EB0302ACF120
:10500000200CDCF11F0E32BF4FF0000E23FA0CF320
:1050100010EB030041EB0451B4EB115FD0D0A1EBD6
:10502000045101F58011490801EB04515FEA300099
:105030000ED350F1000038BF12FA0EFE08D1BDE8C1
:105040001040C9E7401C38BF5FEA4202CAD1C3E73B
:10505000BDE810404FEA410313F5001F38BF704709
:10506000A1F1C04100F022B99EEA445F08D011EAE4
:105070005E0FBDE8104004BF01F000410020704702
:10508000BDE8104070B500F0C3F800BF64FBBE3E41
:105090000000E0FFB0FA80F310FA03F10AD0C3F188
:1050A0001D0303F580634FEA03524FEA415002EBC0
:1050B000D12170474FF000007047000070B5DFF855
:1050C00048C11CEA111E1EBF1CEA13159EEA0C0FF4
:1050D00095EA0C0F00F06F8081EA03044EEAD47E5B
:1050E000AE4421EA4C1123EA4C1341F4801143F4FD
:1050F0008013AEF17F7EA1FB024CA0FB0365361945
:1051000055EB0C05A1FB034C4CF10003A0FB021C6A
:1051100016EB0C06654153F10003094218BF46F037
:10512000010613F4007F0BD14FEA03314FEA05303B
:1051300041EA155140EA165034036FF003020AE0C9
:105140004FEAC3214FEAC52041EA555140EA565083
:10515000F4026FF0020202EB2E4201EB025585EAE7
:10516000CE710AD05FEA440C18BF24F0004450F11D
:10517000000041F1000120EAD47040F2FE7C62455B
:1051800000D270BDA84214BF4FF080444FF040449D
:10519000002E08BF0024BEF1806FA8BFA1F1C0415E
:1051A000BDE8704080F2828001F1C04101F0004111
:1051B0004FF0000070470CEA13159EEA0C0F18BF61
:1051C00095EA0C0F06D081EA030E4FF000000EF0B6
:1051D000004170BD00F01CF88900013E00F007B8E6
:1051E00000F009B84FEA430C5FEA5C5C08D081EA42
:1051F000030100F05BB84FEA410C5FEA5C5CF6D15A
:1052000002494FF0000070470000FF070000F87FE0
:105210000EF1020E2EF0030E5EF8046B364205D43A
:10522000012A43EB030515F5001F12D8012841EBB5
:10523000010C1CF5001F0CD80ED14FEAD17C0CEBF1
:105240004C0C0CF1020C15F5001F08BF4CEBD37C85
:1052500004E04FF0080C01E04FEAD37C0CEB4C0566
:1052600026FA05F606F00706B6F1040C06D20EEB98
:10527000860CBDE870404CF0010C6047DFE80CF094
:10528000090B02024FF00041A1F500214FF0000090
:1052900070BD19461046012851EB010418BFD4F522
:1052A000001484BF002001F0004170BD0808A0F583
:1052B00000114FEA3101704710B591EA030F48BF62
:1052C00083F000433FF546AE841A71EB030C07D21E
:1052D0008CF0004C121943EB0C03001B61EB0C012A
:1052E0004FEA1154A4EB135CDFF89CE11EEA430F74
:1052F00018BF9EEA445F00F0B08021EA045123EA1F
:105300006E035242C3EB6E0338BF5B1EDCF1200E0E
:1053100025D322FA0CFE10EB0E0043FA0CFE41EBF3
:105320000E01CCF1200E03FA0EFE10EB0E00CCF1B4
:10533000200E51F1000129D401EB045112FA0EF2B2
:10534000BDE8104058BF7047401C1CBFB2F1004F71
:10535000704700280CBF491C20F00100704712EB79
:10536000020E43EB030218BF4FF0010E4EEA420259
:10537000ACF1200CDCF11E0E54D943FA0CFE10EBFC
:105380000E00CCF11E0E51F1FF31D5D50EF1010EFC
:1053900012FA0EFE404141EB010101EB445C5FEA71
:1053A0005C5C10D901EB045110EBDE7038BFBEF12C
:1053B000004FBDE8104018BF704700280CBF491CC3
:1053C00020F00100704730D24FEAD42C24F400645E
:1053D00011F500111BD0B1FA81F20B3AA41AA41EE8
:1053E000D2F12003914030FA03F31943904001EBCE
:1053F000CC7101EB0451002CBDE81040A8BF7047F0
:1054000001F1C04101F000414FF000007047B0FAD7
:1054100080F310FA03F100D110BDE41A173C4805DF
:10542000C90AE4E701EB045110BD49104FEA30000E
:1054300001EB0451BDE8104002E04FF0000170475D
:105440004A0008BF0042F8D0B2F5001F28BF7047DD
:1054500001F000414FF0000070479EEA445F07D022
:1054600011EA5E0FBDE8104004BF00210020704724
:10547000BDE8104070B5FFF7CBFE00BF40DFF63E41
:10548000104683F0004170470000E0FF43004FEA00
:10549000D30C4FEA3C0C43401FBF40070CF1605156
:1054A00013F0FE4F70471CF0006F03D10CF0004169
:1054B000002070470CF0004343EA507040EACC00F3
:1054C00010B500F084F800BF000000924FEA000120
:1054D000FFF7ECBE4FF00041A1F500214FF00000B6
:1054E0007047000090EA010F48BF81F0004100F1D1
:1054F000C080421A3CBF801A89184FEAD052A2EBF2
:10550000D1534FF07F4C1CEA410F18BF9CEA026F49
:1055100000F03B804FF0004C4CEA00204CEA0121A7
:1055200021FA03FC10EB0C0C1ED202F1FF325FEAF1
:105530001C2040EBC25038BF70471CF07F0F4FEA71
:10554000400C18BFBCF17F4F38BF7047C3F1200338
:10555000994008BF20F00100BCF17F4F38BF704771
:10556000A0F1C04000F079B84FEA3C00000A40EBDF
:10557000C25028BF1CF0FF0F4FEA400CE6D018BF06
:10558000BCF17F4F38BF7047EAE79CEA026F05D055
:1055900010EA5C0F08BF00F00040704710B500F043
:1055A00016F800BF64FBBE3EB0FA80F310FA03F2B7
:1055B000C3F19D030AD0D90501EB1220530638BF71
:1055C000704700F1010008BF20F0010070470EF1A4
:1055D000020E2EF0030E5EF8044B244204D44FEA70
:1055E0004102B2F17F4F11D84FEA4003B3F17F4F30
:1055F0000CD80ED14FEAD07C0CEB4C0C0CF1020C09
:10560000B2F17F4F08BF4CEBD17C04E04FF0080CA7
:1056100001E04FEAD17C0CEB4C0324FA03F404F0D4
:105620000704B4F1040C06D20EEB840CBDE8104064
:105630004CF0010C6047DFE80CF0070802024FF065
:105640000040A0F5800010BD0846420018BFD2F10E
:10565000807288BF00F0004010BDFF2141EAD050A9
:10566000C005704790EA010F48BF81F000413FF547
:1056700040AF421A04D882F00042A0EB020011446D
:105680004FEAD052A2EBD1534FF07F4C1CEA410FAE
:1056900018BF9CEA026F4AD04FF0004C4CEA002041
:1056A0004CEA012121FA03FCB0EB0C0C0FD412F0F0
:1056B000FE0F36D05FEA4C001DD5001240EBC25001
:1056C00038BF70471CF03F0F18BF70470BE05FEA10
:1056D0001C20A2F1010240EBC25038BF70471CF001
:1056E0007F0F18BF7047C3F12003994014BF401EBD
:1056F00020F0010070474FEA1223800808BF70476E
:10570000B0FA80FCA2EB0C02CCF1280C60FA0CF091
:1057100093EA122F04BF00EBC25070474FEAC370E8
:105720007047130A5FEADC1008BF7047F6E79CEA8F
:10573000026F04D010EA5C0F08BF0020704710B55C
:10574000FFF745FF40DFF63E81F000407047FEF76F
:10575000F5BC000002400000000000A000000000B6
:1057600005400000000000C8000000000C400000E0
:105770000000409C00000000194000000020BCBE5A
:105780000000000034400000BFC91B8E0000000470
:10579000B5400000504BCFD06607E2CF01000000BB
:1057A0006C4100003E8251AADFEEA73401000000E8
:1057B000D9420000DCB5A0E23A301F97FFFFFFFF9F
:1057C000B4450000FD25A0C8E9A3C14FFFFFFFFFBE
:1057D000FF3F00000000008000000000FF3F0000CD
:1057E0000000008000000000020406080000000025
:1057F0000000000001020304060708090000000081
:105800000102030401020304060708090000010065
:105810000200010003000100020001000400010079
:105820000200010003000100020001000500010068
:105830000200010003000100020001000400010059
:105840000200010003000100020001000600010047
:105850000200010003000100020001000400010039
:105860000200010003000100020001000500010028
:105870000200010003000100020001000400010019
:105880000200010003000100020001000700010006
:1058900002000100030001000200010004000100F9
:1058A00002000100030001000200010005000100E8
:1058B00002000100030001000200010004000100D9
:1058C00002000100030001000200010006000100C7
:1058D00002000100030001000200010004000100B9
:1058E00002000100030001000200010005000100A8
:1058F0000200010003000100020001000400010099
:105900000200010003000100020001003F0000004E
:10591000505900080000002008000000280100087D
:1059200058590008080000207817000044010008BA
:105930001C00000043000000F8FFFFFF0C00000007
:105940000E0000000F0000002E000000000000000C
:0859500000A24A04000000005F
:04000005080000ED02
:00000001FF
